{
	"contracts/Trazability.sol": {
		"Trazability": {
			"abi": [
				{
					"inputs": [],
					"stateMutability": "nonpayable",
					"type": "constructor"
				},
				{
					"anonymous": false,
					"inputs": [
						{
							"indexed": true,
							"internalType": "address",
							"name": "account",
							"type": "address"
						},
						{
							"indexed": true,
							"internalType": "address",
							"name": "operator",
							"type": "address"
						},
						{
							"indexed": false,
							"internalType": "bool",
							"name": "approved",
							"type": "bool"
						}
					],
					"name": "ApprovalForAll",
					"type": "event"
				},
				{
					"anonymous": false,
					"inputs": [
						{
							"indexed": true,
							"internalType": "address",
							"name": "previousOwner",
							"type": "address"
						},
						{
							"indexed": true,
							"internalType": "address",
							"name": "newOwner",
							"type": "address"
						}
					],
					"name": "OwnershipTransferred",
					"type": "event"
				},
				{
					"anonymous": false,
					"inputs": [
						{
							"indexed": true,
							"internalType": "address",
							"name": "operator",
							"type": "address"
						},
						{
							"indexed": true,
							"internalType": "address",
							"name": "from",
							"type": "address"
						},
						{
							"indexed": true,
							"internalType": "address",
							"name": "to",
							"type": "address"
						},
						{
							"indexed": false,
							"internalType": "uint256[]",
							"name": "ids",
							"type": "uint256[]"
						},
						{
							"indexed": false,
							"internalType": "uint256[]",
							"name": "values",
							"type": "uint256[]"
						}
					],
					"name": "TransferBatch",
					"type": "event"
				},
				{
					"anonymous": false,
					"inputs": [
						{
							"indexed": true,
							"internalType": "address",
							"name": "operator",
							"type": "address"
						},
						{
							"indexed": true,
							"internalType": "address",
							"name": "from",
							"type": "address"
						},
						{
							"indexed": true,
							"internalType": "address",
							"name": "to",
							"type": "address"
						},
						{
							"indexed": false,
							"internalType": "uint256",
							"name": "id",
							"type": "uint256"
						},
						{
							"indexed": false,
							"internalType": "uint256",
							"name": "value",
							"type": "uint256"
						}
					],
					"name": "TransferSingle",
					"type": "event"
				},
				{
					"anonymous": false,
					"inputs": [
						{
							"indexed": false,
							"internalType": "string",
							"name": "value",
							"type": "string"
						},
						{
							"indexed": true,
							"internalType": "uint256",
							"name": "id",
							"type": "uint256"
						}
					],
					"name": "URI",
					"type": "event"
				},
				{
					"inputs": [
						{
							"internalType": "address",
							"name": "account",
							"type": "address"
						},
						{
							"internalType": "uint256",
							"name": "id",
							"type": "uint256"
						}
					],
					"name": "balanceOf",
					"outputs": [
						{
							"internalType": "uint256",
							"name": "",
							"type": "uint256"
						}
					],
					"stateMutability": "view",
					"type": "function"
				},
				{
					"inputs": [
						{
							"internalType": "address[]",
							"name": "accounts",
							"type": "address[]"
						},
						{
							"internalType": "uint256[]",
							"name": "ids",
							"type": "uint256[]"
						}
					],
					"name": "balanceOfBatch",
					"outputs": [
						{
							"internalType": "uint256[]",
							"name": "",
							"type": "uint256[]"
						}
					],
					"stateMutability": "view",
					"type": "function"
				},
				{
					"inputs": [
						{
							"internalType": "string",
							"name": "productId",
							"type": "string"
						}
					],
					"name": "getProductData",
					"outputs": [
						{
							"components": [
								{
									"internalType": "string",
									"name": "id",
									"type": "string"
								},
								{
									"internalType": "string",
									"name": "lotNumber",
									"type": "string"
								},
								{
									"internalType": "string",
									"name": "protocolName",
									"type": "string"
								},
								{
									"internalType": "string",
									"name": "name",
									"type": "string"
								},
								{
									"internalType": "string",
									"name": "status",
									"type": "string"
								},
								{
									"internalType": "string",
									"name": "ownerUid",
									"type": "string"
								},
								{
									"internalType": "string",
									"name": "trazability",
									"type": "string"
								}
							],
							"internalType": "struct Trazability.ProductData",
							"name": "",
							"type": "tuple"
						}
					],
					"stateMutability": "view",
					"type": "function"
				},
				{
					"inputs": [
						{
							"internalType": "address",
							"name": "account",
							"type": "address"
						},
						{
							"internalType": "address",
							"name": "operator",
							"type": "address"
						}
					],
					"name": "isApprovedForAll",
					"outputs": [
						{
							"internalType": "bool",
							"name": "",
							"type": "bool"
						}
					],
					"stateMutability": "view",
					"type": "function"
				},
				{
					"inputs": [],
					"name": "owner",
					"outputs": [
						{
							"internalType": "address",
							"name": "",
							"type": "address"
						}
					],
					"stateMutability": "view",
					"type": "function"
				},
				{
					"inputs": [],
					"name": "renounceOwnership",
					"outputs": [],
					"stateMutability": "nonpayable",
					"type": "function"
				},
				{
					"inputs": [
						{
							"internalType": "address",
							"name": "from",
							"type": "address"
						},
						{
							"internalType": "address",
							"name": "to",
							"type": "address"
						},
						{
							"internalType": "uint256[]",
							"name": "ids",
							"type": "uint256[]"
						},
						{
							"internalType": "uint256[]",
							"name": "amounts",
							"type": "uint256[]"
						},
						{
							"internalType": "bytes",
							"name": "data",
							"type": "bytes"
						}
					],
					"name": "safeBatchTransferFrom",
					"outputs": [],
					"stateMutability": "nonpayable",
					"type": "function"
				},
				{
					"inputs": [
						{
							"internalType": "address",
							"name": "to",
							"type": "address"
						},
						{
							"components": [
								{
									"internalType": "string",
									"name": "id",
									"type": "string"
								},
								{
									"internalType": "string",
									"name": "lotNumber",
									"type": "string"
								},
								{
									"internalType": "string",
									"name": "protocolName",
									"type": "string"
								},
								{
									"internalType": "string",
									"name": "name",
									"type": "string"
								},
								{
									"internalType": "string",
									"name": "status",
									"type": "string"
								},
								{
									"internalType": "string",
									"name": "ownerUid",
									"type": "string"
								},
								{
									"internalType": "string",
									"name": "trazability",
									"type": "string"
								}
							],
							"internalType": "struct Trazability.ProductData",
							"name": "data",
							"type": "tuple"
						},
						{
							"internalType": "uint256",
							"name": "amount",
							"type": "uint256"
						},
						{
							"internalType": "string",
							"name": "externalUri",
							"type": "string"
						}
					],
					"name": "safeMint",
					"outputs": [],
					"stateMutability": "nonpayable",
					"type": "function"
				},
				{
					"inputs": [
						{
							"internalType": "address",
							"name": "from",
							"type": "address"
						},
						{
							"internalType": "address",
							"name": "to",
							"type": "address"
						},
						{
							"internalType": "uint256",
							"name": "id",
							"type": "uint256"
						},
						{
							"internalType": "uint256",
							"name": "amount",
							"type": "uint256"
						},
						{
							"internalType": "bytes",
							"name": "data",
							"type": "bytes"
						}
					],
					"name": "safeTransferFrom",
					"outputs": [],
					"stateMutability": "nonpayable",
					"type": "function"
				},
				{
					"inputs": [
						{
							"internalType": "address",
							"name": "operator",
							"type": "address"
						},
						{
							"internalType": "bool",
							"name": "approved",
							"type": "bool"
						}
					],
					"name": "setApprovalForAll",
					"outputs": [],
					"stateMutability": "nonpayable",
					"type": "function"
				},
				{
					"inputs": [
						{
							"internalType": "bytes4",
							"name": "interfaceId",
							"type": "bytes4"
						}
					],
					"name": "supportsInterface",
					"outputs": [
						{
							"internalType": "bool",
							"name": "",
							"type": "bool"
						}
					],
					"stateMutability": "view",
					"type": "function"
				},
				{
					"inputs": [
						{
							"internalType": "address",
							"name": "newOwner",
							"type": "address"
						}
					],
					"name": "transferOwnership",
					"outputs": [],
					"stateMutability": "nonpayable",
					"type": "function"
				},
				{
					"inputs": [
						{
							"internalType": "uint256",
							"name": "tokenId",
							"type": "uint256"
						}
					],
					"name": "uri",
					"outputs": [
						{
							"internalType": "string",
							"name": "",
							"type": "string"
						}
					],
					"stateMutability": "view",
					"type": "function"
				}
			],
			"devdoc": {
				"kind": "dev",
				"methods": {
					"balanceOf(address,uint256)": {
						"details": "See {IERC1155-balanceOf}. Requirements: - `account` cannot be the zero address."
					},
					"balanceOfBatch(address[],uint256[])": {
						"details": "See {IERC1155-balanceOfBatch}. Requirements: - `accounts` and `ids` must have the same length."
					},
					"isApprovedForAll(address,address)": {
						"details": "See {IERC1155-isApprovedForAll}."
					},
					"owner()": {
						"details": "Returns the address of the current owner."
					},
					"renounceOwnership()": {
						"details": "Leaves the contract without owner. It will not be possible to call `onlyOwner` functions anymore. Can only be called by the current owner. NOTE: Renouncing ownership will leave the contract without an owner, thereby removing any functionality that is only available to the owner."
					},
					"safeBatchTransferFrom(address,address,uint256[],uint256[],bytes)": {
						"details": "See {IERC1155-safeBatchTransferFrom}."
					},
					"safeTransferFrom(address,address,uint256,uint256,bytes)": {
						"details": "See {IERC1155-safeTransferFrom}."
					},
					"setApprovalForAll(address,bool)": {
						"details": "See {IERC1155-setApprovalForAll}."
					},
					"supportsInterface(bytes4)": {
						"details": "See {IERC165-supportsInterface}."
					},
					"transferOwnership(address)": {
						"details": "Transfers ownership of the contract to a new account (`newOwner`). Can only be called by the current owner."
					}
				},
				"version": 1
			},
			"evm": {
				"assembly": "    /* \"contracts/Trazability.sol\":270:2407  contract Trazability is ERC1155, Ownable {\r... */\n  mstore(0x40, 0x80)\n    /* \"contracts/Trazability.sol\":807:853  constructor() ERC1155(\"Trazabilidad Ideal\") {} */\n  callvalue\n  dup1\n  iszero\n  tag_1\n  jumpi\n  0x00\n  dup1\n  revert\ntag_1:\n  pop\n    /* \"node_modules/@openzeppelin/contracts/token/ERC1155/ERC1155.sol\":1092:1154  constructor(string memory uri_) {... */\n  0x40\n  dup1\n  mload\n  dup1\n  dup3\n  add\n  swap1\n  swap2\n  mstore\n  0x12\n  dup2\n  mstore\n  shl(0x72, 0x151c985e98589a5b1a59185908125919585b)\n  0x20\n  dup3\n  add\n  mstore\n    /* \"node_modules/@openzeppelin/contracts/token/ERC1155/ERC1155.sol\":1134:1147  _setURI(uri_) */\n  tag_6\n    /* \"node_modules/@openzeppelin/contracts/token/ERC1155/ERC1155.sol\":1092:1154  constructor(string memory uri_) {... */\n  dup2\n    /* \"node_modules/@openzeppelin/contracts/token/ERC1155/ERC1155.sol\":1134:1141  _setURI */\n  tag_7\n    /* \"node_modules/@openzeppelin/contracts/token/ERC1155/ERC1155.sol\":1134:1147  _setURI(uri_) */\n  jump\t// in\ntag_6:\n  pop\n    /* \"node_modules/@openzeppelin/contracts/access/Ownable.sol\":921:953  _transferOwnership(_msgSender()) */\n  tag_9\n    /* \"node_modules/@openzeppelin/contracts/utils/Context.sol\":719:729  msg.sender */\n  caller\n    /* \"node_modules/@openzeppelin/contracts/access/Ownable.sol\":921:939  _transferOwnership */\n  tag_12\n    /* \"node_modules/@openzeppelin/contracts/access/Ownable.sol\":921:953  _transferOwnership(_msgSender()) */\n  jump\t// in\ntag_9:\n    /* \"contracts/Trazability.sol\":270:2407  contract Trazability is ERC1155, Ownable {\r... */\n  jump(tag_31)\n    /* \"node_modules/@openzeppelin/contracts/token/ERC1155/ERC1155.sol\":7936:8022  function _setURI(string memory newuri) internal virtual {... */\ntag_7:\n    /* \"node_modules/@openzeppelin/contracts/token/ERC1155/ERC1155.sol\":8002:8015  _uri = newuri */\n  dup1\n  mload\n  tag_16\n  swap1\n    /* \"node_modules/@openzeppelin/contracts/token/ERC1155/ERC1155.sol\":8002:8006  _uri */\n  0x02\n  swap1\n    /* \"node_modules/@openzeppelin/contracts/token/ERC1155/ERC1155.sol\":8002:8015  _uri = newuri */\n  0x20\n  dup5\n  add\n  swap1\n  tag_17\n  jump\t// in\ntag_16:\n  pop\n    /* \"node_modules/@openzeppelin/contracts/token/ERC1155/ERC1155.sol\":7936:8022  function _setURI(string memory newuri) internal virtual {... */\n  pop\n  jump\t// out\n    /* \"node_modules/@openzeppelin/contracts/access/Ownable.sol\":2270:2457  function _transferOwnership(address newOwner) internal virtual {... */\ntag_12:\n    /* \"node_modules/@openzeppelin/contracts/access/Ownable.sol\":2362:2368  _owner */\n  0x03\n  dup1\n  sload\n  sub(shl(0xa0, 0x01), 0x01)\n    /* \"node_modules/@openzeppelin/contracts/access/Ownable.sol\":2378:2395  _owner = newOwner */\n  dup4\n  dup2\n  and\n  not(sub(shl(0xa0, 0x01), 0x01))\n  dup4\n  and\n  dup2\n  or\n  swap1\n  swap4\n  sstore\n    /* \"node_modules/@openzeppelin/contracts/access/Ownable.sol\":2410:2450  OwnershipTransferred(oldOwner, newOwner) */\n  mload(0x40)\n    /* \"node_modules/@openzeppelin/contracts/access/Ownable.sol\":2362:2368  _owner */\n  swap2\n  and\n  swap2\n    /* \"node_modules/@openzeppelin/contracts/access/Ownable.sol\":2378:2395  _owner = newOwner */\n  swap1\n    /* \"node_modules/@openzeppelin/contracts/access/Ownable.sol\":2362:2368  _owner */\n  dup3\n  swap1\n    /* \"node_modules/@openzeppelin/contracts/access/Ownable.sol\":2410:2450  OwnershipTransferred(oldOwner, newOwner) */\n  0x8be0079c531659141344cd1fd0a4f28419497f9722a3daafe3b4186f6b6457e0\n  swap1\n    /* \"node_modules/@openzeppelin/contracts/access/Ownable.sol\":2343:2359  address oldOwner */\n  0x00\n  swap1\n    /* \"node_modules/@openzeppelin/contracts/access/Ownable.sol\":2410:2450  OwnershipTransferred(oldOwner, newOwner) */\n  log3\n    /* \"node_modules/@openzeppelin/contracts/access/Ownable.sol\":2270:2457  function _transferOwnership(address newOwner) internal virtual {... */\n  pop\n  pop\n  jump\t// out\n    /* \"contracts/Trazability.sol\":270:2407  contract Trazability is ERC1155, Ownable {\r... */\ntag_17:\n  dup3\n  dup1\n  sload\n  tag_20\n  swap1\n  tag_21\n  jump\t// in\ntag_20:\n  swap1\n  0x00\n  mstore\n  keccak256(0x00, 0x20)\n  swap1\n  0x1f\n  add\n  0x20\n  swap1\n  div\n  dup2\n  add\n  swap3\n  dup3\n  tag_23\n  jumpi\n  0x00\n  dup6\n  sstore\n  jump(tag_26)\ntag_23:\n  dup3\n  0x1f\n  lt\n  tag_24\n  jumpi\n  dup1\n  mload\n  not(0xff)\n  and\n  dup4\n  dup1\n  add\n  or\n  dup6\n  sstore\n  jump(tag_26)\ntag_24:\n  dup3\n  dup1\n  add\n  0x01\n  add\n  dup6\n  sstore\n  dup3\n  iszero\n  tag_26\n  jumpi\n  swap2\n  dup3\n  add\ntag_25:\n  dup3\n  dup2\n  gt\n  iszero\n  tag_26\n  jumpi\n  dup3\n  mload\n  dup3\n  sstore\n  swap2\n  0x20\n  add\n  swap2\n  swap1\n  0x01\n  add\n  swap1\n  jump(tag_25)\ntag_26:\n  pop\n  tag_27\n  swap3\n  swap2\n  pop\n  tag_28\n  jump\t// in\ntag_27:\n  pop\n  swap1\n  jump\t// out\ntag_28:\ntag_29:\n  dup1\n  dup3\n  gt\n  iszero\n  tag_27\n  jumpi\n  0x00\n  dup2\n  sstore\n  0x01\n  add\n  jump(tag_29)\n    /* \"#utility.yul\":14:394   */\ntag_21:\n    /* \"#utility.yul\":93:94   */\n  0x01\n    /* \"#utility.yul\":89:101   */\n  dup2\n  dup2\n  shr\n  swap1\n    /* \"#utility.yul\":136:148   */\n  dup3\n  and\n  dup1\n    /* \"#utility.yul\":157:159   */\n  tag_33\n  jumpi\n    /* \"#utility.yul\":211:215   */\n  0x7f\n    /* \"#utility.yul\":203:209   */\n  dup3\n    /* \"#utility.yul\":199:216   */\n  and\n    /* \"#utility.yul\":189:216   */\n  swap2\n  pop\n    /* \"#utility.yul\":157:159   */\ntag_33:\n    /* \"#utility.yul\":264:266   */\n  0x20\n    /* \"#utility.yul\":256:262   */\n  dup3\n    /* \"#utility.yul\":253:267   */\n  lt\n    /* \"#utility.yul\":233:251   */\n  dup2\n    /* \"#utility.yul\":230:268   */\n  eq\n    /* \"#utility.yul\":227:229   */\n  iszero\n  tag_34\n  jumpi\n    /* \"#utility.yul\":310:320   */\n  0x4e487b71\n    /* \"#utility.yul\":305:308   */\n  0xe0\n    /* \"#utility.yul\":301:321   */\n  shl\n    /* \"#utility.yul\":298:299   */\n  0x00\n    /* \"#utility.yul\":291:322   */\n  mstore\n    /* \"#utility.yul\":345:349   */\n  0x22\n    /* \"#utility.yul\":342:343   */\n  0x04\n    /* \"#utility.yul\":335:350   */\n  mstore\n    /* \"#utility.yul\":373:377   */\n  0x24\n    /* \"#utility.yul\":370:371   */\n  0x00\n    /* \"#utility.yul\":363:378   */\n  revert\n    /* \"#utility.yul\":227:229   */\ntag_34:\n  pop\n    /* \"#utility.yul\":69:394   */\n  swap2\n  swap1\n  pop\n  jump\t// out\ntag_31:\n    /* \"contracts/Trazability.sol\":270:2407  contract Trazability is ERC1155, Ownable {\r... */\n  dataSize(sub_0)\n  dup1\n  dataOffset(sub_0)\n  0x00\n  codecopy\n  0x00\n  return\nstop\n\nsub_0: assembly {\n        /* \"contracts/Trazability.sol\":270:2407  contract Trazability is ERC1155, Ownable {\r... */\n      mstore(0x40, 0x80)\n      callvalue\n      dup1\n      iszero\n      tag_1\n      jumpi\n      0x00\n      dup1\n      revert\n    tag_1:\n      pop\n      jumpi(tag_2, lt(calldatasize, 0x04))\n      shr(0xe0, calldataload(0x00))\n      dup1\n      0x715018a6\n      gt\n      tag_16\n      jumpi\n      dup1\n      0xa22cb465\n      gt\n      tag_17\n      jumpi\n      dup1\n      0xa22cb465\n      eq\n      tag_12\n      jumpi\n      dup1\n      0xe985e9c5\n      eq\n      tag_13\n      jumpi\n      dup1\n      0xf242432a\n      eq\n      tag_14\n      jumpi\n      dup1\n      0xf2fde38b\n      eq\n      tag_15\n      jumpi\n      0x00\n      dup1\n      revert\n    tag_17:\n      dup1\n      0x715018a6\n      eq\n      tag_9\n      jumpi\n      dup1\n      0x818648e1\n      eq\n      tag_10\n      jumpi\n      dup1\n      0x8da5cb5b\n      eq\n      tag_11\n      jumpi\n      0x00\n      dup1\n      revert\n    tag_16:\n      dup1\n      0xfdd58e\n      eq\n      tag_3\n      jumpi\n      dup1\n      0x01ffc9a7\n      eq\n      tag_4\n      jumpi\n      dup1\n      0x0e89341c\n      eq\n      tag_5\n      jumpi\n      dup1\n      0x2eb2c2d6\n      eq\n      tag_6\n      jumpi\n      dup1\n      0x42abd5a4\n      eq\n      tag_7\n      jumpi\n      dup1\n      0x4e1273f4\n      eq\n      tag_8\n      jumpi\n    tag_2:\n      0x00\n      dup1\n      revert\n        /* \"node_modules/@openzeppelin/contracts/token/ERC1155/ERC1155.sol\":2170:2398  function balanceOf(address account, uint256 id) public view virtual override returns (uint256) {... */\n    tag_3:\n      tag_18\n      tag_19\n      calldatasize\n      0x04\n      tag_20\n      jump\t// in\n    tag_19:\n      tag_21\n      jump\t// in\n    tag_18:\n      mload(0x40)\n        /* \"#utility.yul\":20634:20659   */\n      swap1\n      dup2\n      mstore\n        /* \"#utility.yul\":20622:20624   */\n      0x20\n        /* \"#utility.yul\":20607:20625   */\n      add\n        /* \"node_modules/@openzeppelin/contracts/token/ERC1155/ERC1155.sol\":2170:2398  function balanceOf(address account, uint256 id) public view virtual override returns (uint256) {... */\n    tag_22:\n      mload(0x40)\n      dup1\n      swap2\n      sub\n      swap1\n      return\n        /* \"node_modules/@openzeppelin/contracts/token/ERC1155/ERC1155.sol\":1221:1526  function supportsInterface(bytes4 interfaceId) public view virtual override(ERC165, IERC165) returns (bool) {... */\n    tag_4:\n      tag_24\n      tag_25\n      calldatasize\n      0x04\n      tag_26\n      jump\t// in\n    tag_25:\n      tag_27\n      jump\t// in\n    tag_24:\n      mload(0x40)\n        /* \"#utility.yul\":13464:13478   */\n      swap1\n      iszero\n        /* \"#utility.yul\":13457:13479   */\n      iszero\n        /* \"#utility.yul\":13439:13480   */\n      dup2\n      mstore\n        /* \"#utility.yul\":13427:13429   */\n      0x20\n        /* \"#utility.yul\":13412:13430   */\n      add\n        /* \"node_modules/@openzeppelin/contracts/token/ERC1155/ERC1155.sol\":1221:1526  function supportsInterface(bytes4 interfaceId) public view virtual override(ERC165, IERC165) returns (bool) {... */\n      tag_22\n        /* \"#utility.yul\":13394:13486   */\n      jump\n        /* \"contracts/Trazability.sol\":2274:2404  function uri(uint256 tokenId) public view virtual override returns (string memory) {\r... */\n    tag_5:\n      tag_30\n      tag_31\n      calldatasize\n      0x04\n      tag_32\n      jump\t// in\n    tag_31:\n      tag_33\n      jump\t// in\n    tag_30:\n      mload(0x40)\n      tag_22\n      swap2\n      swap1\n      tag_35\n      jump\t// in\n        /* \"node_modules/@openzeppelin/contracts/token/ERC1155/ERC1155.sol\":4045:4475  function safeBatchTransferFrom(... */\n    tag_6:\n      tag_36\n      tag_37\n      calldatasize\n      0x04\n      tag_38\n      jump\t// in\n    tag_37:\n      tag_39\n      jump\t// in\n    tag_36:\n      stop\n        /* \"contracts/Trazability.sol\":861:2109  function safeMint(\r... */\n    tag_7:\n      tag_36\n      tag_41\n      calldatasize\n      0x04\n      tag_42\n      jump\t// in\n    tag_41:\n      tag_43\n      jump\t// in\n        /* \"node_modules/@openzeppelin/contracts/token/ERC1155/ERC1155.sol\":2555:3063  function balanceOfBatch(address[] memory accounts, uint256[] memory ids)... */\n    tag_8:\n      tag_44\n      tag_45\n      calldatasize\n      0x04\n      tag_46\n      jump\t// in\n    tag_45:\n      tag_47\n      jump\t// in\n    tag_44:\n      mload(0x40)\n      tag_22\n      swap2\n      swap1\n      tag_49\n      jump\t// in\n        /* \"node_modules/@openzeppelin/contracts/access/Ownable.sol\":1668:1769  function renounceOwnership() public virtual onlyOwner {... */\n    tag_9:\n      tag_36\n      tag_51\n      jump\t// in\n        /* \"contracts/Trazability.sol\":2117:2266  function getProductData(string memory productId) public view returns (ProductData memory) {\r... */\n    tag_10:\n      tag_52\n      tag_53\n      calldatasize\n      0x04\n      tag_54\n      jump\t// in\n    tag_53:\n      tag_55\n      jump\t// in\n    tag_52:\n      mload(0x40)\n      tag_22\n      swap2\n      swap1\n      tag_57\n      jump\t// in\n        /* \"node_modules/@openzeppelin/contracts/access/Ownable.sol\":1036:1121  function owner() public view virtual returns (address) {... */\n    tag_11:\n        /* \"node_modules/@openzeppelin/contracts/access/Ownable.sol\":1108:1114  _owner */\n      sload(0x03)\n        /* \"node_modules/@openzeppelin/contracts/access/Ownable.sol\":1036:1121  function owner() public view virtual returns (address) {... */\n      mload(0x40)\n      sub(shl(0xa0, 0x01), 0x01)\n        /* \"node_modules/@openzeppelin/contracts/access/Ownable.sol\":1108:1114  _owner */\n      swap1\n      swap2\n      and\n        /* \"#utility.yul\":11105:11156   */\n      dup2\n      mstore\n        /* \"#utility.yul\":11093:11095   */\n      0x20\n        /* \"#utility.yul\":11078:11096   */\n      add\n        /* \"node_modules/@openzeppelin/contracts/access/Ownable.sol\":1036:1121  function owner() public view virtual returns (address) {... */\n      tag_22\n        /* \"#utility.yul\":11060:11162   */\n      jump\n        /* \"node_modules/@openzeppelin/contracts/token/ERC1155/ERC1155.sol\":3131:3284  function setApprovalForAll(address operator, bool approved) public virtual override {... */\n    tag_12:\n      tag_36\n      tag_63\n      calldatasize\n      0x04\n      tag_64\n      jump\t// in\n    tag_63:\n      tag_65\n      jump\t// in\n        /* \"node_modules/@openzeppelin/contracts/token/ERC1155/ERC1155.sol\":3351:3517  function isApprovedForAll(address account, address operator) public view virtual override returns (bool) {... */\n    tag_13:\n      tag_24\n      tag_67\n      calldatasize\n      0x04\n      tag_68\n      jump\t// in\n    tag_67:\n      sub(shl(0xa0, 0x01), 0x01)\n        /* \"node_modules/@openzeppelin/contracts/token/ERC1155/ERC1155.sol\":3473:3500  _operatorApprovals[account] */\n      swap2\n      dup3\n      and\n        /* \"node_modules/@openzeppelin/contracts/token/ERC1155/ERC1155.sol\":3450:3454  bool */\n      0x00\n        /* \"node_modules/@openzeppelin/contracts/token/ERC1155/ERC1155.sol\":3473:3500  _operatorApprovals[account] */\n      swap1\n      dup2\n      mstore\n        /* \"node_modules/@openzeppelin/contracts/token/ERC1155/ERC1155.sol\":3473:3491  _operatorApprovals */\n      0x01\n        /* \"node_modules/@openzeppelin/contracts/token/ERC1155/ERC1155.sol\":3473:3500  _operatorApprovals[account] */\n      0x20\n      swap1\n      dup2\n      mstore\n      0x40\n      dup1\n      dup4\n      keccak256\n        /* \"node_modules/@openzeppelin/contracts/token/ERC1155/ERC1155.sol\":3473:3510  _operatorApprovals[account][operator] */\n      swap4\n      swap1\n      swap5\n      and\n      dup3\n      mstore\n      swap2\n      swap1\n      swap2\n      mstore\n      keccak256\n      sload\n      0xff\n      and\n      swap1\n        /* \"node_modules/@openzeppelin/contracts/token/ERC1155/ERC1155.sol\":3351:3517  function isApprovedForAll(address account, address operator) public view virtual override returns (bool) {... */\n      jump\n        /* \"node_modules/@openzeppelin/contracts/token/ERC1155/ERC1155.sol\":3584:3973  function safeTransferFrom(... */\n    tag_14:\n      tag_36\n      tag_72\n      calldatasize\n      0x04\n      tag_73\n      jump\t// in\n    tag_72:\n      tag_74\n      jump\t// in\n        /* \"node_modules/@openzeppelin/contracts/access/Ownable.sol\":1918:2116  function transferOwnership(address newOwner) public virtual onlyOwner {... */\n    tag_15:\n      tag_36\n      tag_76\n      calldatasize\n      0x04\n      tag_77\n      jump\t// in\n    tag_76:\n      tag_78\n      jump\t// in\n        /* \"node_modules/@openzeppelin/contracts/token/ERC1155/ERC1155.sol\":2170:2398  function balanceOf(address account, uint256 id) public view virtual override returns (uint256) {... */\n    tag_21:\n        /* \"node_modules/@openzeppelin/contracts/token/ERC1155/ERC1155.sol\":2256:2263  uint256 */\n      0x00\n      sub(shl(0xa0, 0x01), 0x01)\n        /* \"node_modules/@openzeppelin/contracts/token/ERC1155/ERC1155.sol\":2283:2304  account != address(0) */\n      dup4\n      and\n        /* \"node_modules/@openzeppelin/contracts/token/ERC1155/ERC1155.sol\":2275:2352  require(account != address(0), \"ERC1155: balance query for the zero address\") */\n      tag_80\n      jumpi\n      mload(0x40)\n      shl(0xe5, 0x461bcd)\n      dup2\n      mstore\n        /* \"#utility.yul\":14747:14749   */\n      0x20\n        /* \"node_modules/@openzeppelin/contracts/token/ERC1155/ERC1155.sol\":2275:2352  require(account != address(0), \"ERC1155: balance query for the zero address\") */\n      0x04\n      dup3\n      add\n        /* \"#utility.yul\":14729:14750   */\n      mstore\n        /* \"#utility.yul\":14786:14788   */\n      0x2b\n        /* \"#utility.yul\":14766:14784   */\n      0x24\n      dup3\n      add\n        /* \"#utility.yul\":14759:14789   */\n      mstore\n        /* \"#utility.yul\":14825:14859   */\n      0x455243313135353a2062616c616e636520717565727920666f7220746865207a\n        /* \"#utility.yul\":14805:14823   */\n      0x44\n      dup3\n      add\n        /* \"#utility.yul\":14798:14860   */\n      mstore\n      shl(0xa8, 0x65726f2061646472657373)\n        /* \"#utility.yul\":14876:14894   */\n      0x64\n      dup3\n      add\n        /* \"#utility.yul\":14869:14910   */\n      mstore\n        /* \"#utility.yul\":14927:14946   */\n      0x84\n      add\n        /* \"node_modules/@openzeppelin/contracts/token/ERC1155/ERC1155.sol\":2275:2352  require(account != address(0), \"ERC1155: balance query for the zero address\") */\n    tag_81:\n      mload(0x40)\n      dup1\n      swap2\n      sub\n      swap1\n      revert\n    tag_80:\n      pop\n        /* \"node_modules/@openzeppelin/contracts/token/ERC1155/ERC1155.sol\":2369:2378  _balances */\n      0x00\n        /* \"node_modules/@openzeppelin/contracts/token/ERC1155/ERC1155.sol\":2369:2382  _balances[id] */\n      swap1\n      dup2\n      mstore\n      0x20\n      dup2\n      dup2\n      mstore\n      0x40\n      dup1\n      dup4\n      keccak256\n      sub(shl(0xa0, 0x01), 0x01)\n        /* \"node_modules/@openzeppelin/contracts/token/ERC1155/ERC1155.sol\":2369:2391  _balances[id][account] */\n      swap5\n      swap1\n      swap5\n      and\n      dup4\n      mstore\n      swap3\n      swap1\n      mstore\n      keccak256\n      sload\n      swap1\n        /* \"node_modules/@openzeppelin/contracts/token/ERC1155/ERC1155.sol\":2170:2398  function balanceOf(address account, uint256 id) public view virtual override returns (uint256) {... */\n      jump\t// out\n        /* \"node_modules/@openzeppelin/contracts/token/ERC1155/ERC1155.sol\":1221:1526  function supportsInterface(bytes4 interfaceId) public view virtual override(ERC165, IERC165) returns (bool) {... */\n    tag_27:\n        /* \"node_modules/@openzeppelin/contracts/token/ERC1155/ERC1155.sol\":1323:1327  bool */\n      0x00\n      not(sub(shl(0xe0, 0x01), 0x01))\n        /* \"node_modules/@openzeppelin/contracts/token/ERC1155/ERC1155.sol\":1358:1399  interfaceId == type(IERC1155).interfaceId */\n      dup3\n      and\n      shl(0xe1, 0x6cdb3d13)\n      eq\n      dup1\n        /* \"node_modules/@openzeppelin/contracts/token/ERC1155/ERC1155.sol\":1358:1467  interfaceId == type(IERC1155).interfaceId ||... */\n      tag_84\n      jumpi\n      pop\n      not(sub(shl(0xe0, 0x01), 0x01))\n        /* \"node_modules/@openzeppelin/contracts/token/ERC1155/ERC1155.sol\":1415:1467  interfaceId == type(IERC1155MetadataURI).interfaceId */\n      dup3\n      and\n      shl(0xe2, 0x03a24d07)\n      eq\n        /* \"node_modules/@openzeppelin/contracts/token/ERC1155/ERC1155.sol\":1358:1467  interfaceId == type(IERC1155).interfaceId ||... */\n    tag_84:\n        /* \"node_modules/@openzeppelin/contracts/token/ERC1155/ERC1155.sol\":1358:1519  interfaceId == type(IERC1155).interfaceId ||... */\n      dup1\n      tag_86\n      jumpi\n      pop\n      shl(0xe0, 0x01ffc9a7)\n      not(sub(shl(0xe0, 0x01), 0x01))\n        /* \"node_modules/@openzeppelin/contracts/utils/introspection/ERC165.sol\":937:977  interfaceId == type(IERC165).interfaceId */\n      dup4\n      and\n      eq\n        /* \"node_modules/@openzeppelin/contracts/token/ERC1155/ERC1155.sol\":1483:1519  super.supportsInterface(interfaceId) */\n    tag_86:\n        /* \"node_modules/@openzeppelin/contracts/token/ERC1155/ERC1155.sol\":1339:1519  return... */\n      swap3\n        /* \"node_modules/@openzeppelin/contracts/token/ERC1155/ERC1155.sol\":1221:1526  function supportsInterface(bytes4 interfaceId) public view virtual override(ERC165, IERC165) returns (bool) {... */\n      swap2\n      pop\n      pop\n      jump\t// out\n        /* \"contracts/Trazability.sol\":2274:2404  function uri(uint256 tokenId) public view virtual override returns (string memory) {\r... */\n    tag_33:\n        /* \"contracts/Trazability.sol\":2375:2396  tokenIdToUri[tokenId] */\n      0x00\n      dup2\n      dup2\n      mstore\n        /* \"contracts/Trazability.sol\":2375:2387  tokenIdToUri */\n      0x06\n        /* \"contracts/Trazability.sol\":2375:2396  tokenIdToUri[tokenId] */\n      0x20\n      mstore\n      0x40\n      swap1\n      keccak256\n        /* \"contracts/Trazability.sol\":2368:2396  return tokenIdToUri[tokenId] */\n      dup1\n      sload\n        /* \"contracts/Trazability.sol\":2342:2355  string memory */\n      0x60\n      swap2\n        /* \"contracts/Trazability.sol\":2375:2396  tokenIdToUri[tokenId] */\n      swap1\n        /* \"contracts/Trazability.sol\":2368:2396  return tokenIdToUri[tokenId] */\n      tag_89\n      swap1\n      tag_90\n      jump\t// in\n    tag_89:\n      dup1\n      0x1f\n      add\n      0x20\n      dup1\n      swap2\n      div\n      mul\n      0x20\n      add\n      mload(0x40)\n      swap1\n      dup2\n      add\n      0x40\n      mstore\n      dup1\n      swap3\n      swap2\n      swap1\n      dup2\n      dup2\n      mstore\n      0x20\n      add\n      dup3\n      dup1\n      sload\n      tag_91\n      swap1\n      tag_90\n      jump\t// in\n    tag_91:\n      dup1\n      iszero\n      tag_92\n      jumpi\n      dup1\n      0x1f\n      lt\n      tag_93\n      jumpi\n      0x0100\n      dup1\n      dup4\n      sload\n      div\n      mul\n      dup4\n      mstore\n      swap2\n      0x20\n      add\n      swap2\n      jump(tag_92)\n    tag_93:\n      dup3\n      add\n      swap2\n      swap1\n      0x00\n      mstore\n      keccak256(0x00, 0x20)\n      swap1\n    tag_94:\n      dup2\n      sload\n      dup2\n      mstore\n      swap1\n      0x01\n      add\n      swap1\n      0x20\n      add\n      dup1\n      dup4\n      gt\n      tag_94\n      jumpi\n      dup3\n      swap1\n      sub\n      0x1f\n      and\n      dup3\n      add\n      swap2\n    tag_92:\n      pop\n      pop\n      pop\n      pop\n      pop\n      swap1\n      pop\n        /* \"contracts/Trazability.sol\":2274:2404  function uri(uint256 tokenId) public view virtual override returns (string memory) {\r... */\n      swap2\n      swap1\n      pop\n      jump\t// out\n        /* \"node_modules/@openzeppelin/contracts/token/ERC1155/ERC1155.sol\":4045:4475  function safeBatchTransferFrom(... */\n    tag_39:\n      sub(shl(0xa0, 0x01), 0x01)\n        /* \"node_modules/@openzeppelin/contracts/token/ERC1155/ERC1155.sol\":4270:4290  from == _msgSender() */\n      dup6\n      and\n        /* \"node_modules/@openzeppelin/contracts/utils/Context.sol\":719:729  msg.sender */\n      caller\n        /* \"node_modules/@openzeppelin/contracts/token/ERC1155/ERC1155.sol\":4270:4290  from == _msgSender() */\n      eq\n      dup1\n        /* \"node_modules/@openzeppelin/contracts/token/ERC1155/ERC1155.sol\":4270:4330  from == _msgSender() || isApprovedForAll(from, _msgSender()) */\n      tag_99\n      jumpi\n      pop\n        /* \"node_modules/@openzeppelin/contracts/token/ERC1155/ERC1155.sol\":4294:4330  isApprovedForAll(from, _msgSender()) */\n      tag_99\n        /* \"node_modules/@openzeppelin/contracts/token/ERC1155/ERC1155.sol\":4311:4315  from */\n      dup6\n        /* \"node_modules/@openzeppelin/contracts/utils/Context.sol\":719:729  msg.sender */\n      caller\n        /* \"node_modules/@openzeppelin/contracts/token/ERC1155/ERC1155.sol\":3351:3517  function isApprovedForAll(address account, address operator) public view virtual override returns (bool) {... */\n      tag_67\n      jump\t// in\n        /* \"node_modules/@openzeppelin/contracts/token/ERC1155/ERC1155.sol\":4294:4330  isApprovedForAll(from, _msgSender()) */\n    tag_99:\n        /* \"node_modules/@openzeppelin/contracts/token/ERC1155/ERC1155.sol\":4249:4406  require(... */\n      tag_101\n      jumpi\n      mload(0x40)\n      shl(0xe5, 0x461bcd)\n      dup2\n      mstore\n        /* \"#utility.yul\":16382:16384   */\n      0x20\n        /* \"node_modules/@openzeppelin/contracts/token/ERC1155/ERC1155.sol\":4249:4406  require(... */\n      0x04\n      dup3\n      add\n        /* \"#utility.yul\":16364:16385   */\n      mstore\n        /* \"#utility.yul\":16421:16423   */\n      0x32\n        /* \"#utility.yul\":16401:16419   */\n      0x24\n      dup3\n      add\n        /* \"#utility.yul\":16394:16424   */\n      mstore\n        /* \"#utility.yul\":16460:16494   */\n      0x455243313135353a207472616e736665722063616c6c6572206973206e6f7420\n        /* \"#utility.yul\":16440:16458   */\n      0x44\n      dup3\n      add\n        /* \"#utility.yul\":16433:16495   */\n      mstore\n      shl(0x72, 0x1bdddb995c881b9bdc88185c1c1c9bdd9959)\n        /* \"#utility.yul\":16511:16529   */\n      0x64\n      dup3\n      add\n        /* \"#utility.yul\":16504:16552   */\n      mstore\n        /* \"#utility.yul\":16569:16588   */\n      0x84\n      add\n        /* \"node_modules/@openzeppelin/contracts/token/ERC1155/ERC1155.sol\":4249:4406  require(... */\n      tag_81\n        /* \"#utility.yul\":16354:16594   */\n      jump\n        /* \"node_modules/@openzeppelin/contracts/token/ERC1155/ERC1155.sol\":4249:4406  require(... */\n    tag_101:\n        /* \"node_modules/@openzeppelin/contracts/token/ERC1155/ERC1155.sol\":4416:4468  _safeBatchTransferFrom(from, to, ids, amounts, data) */\n      tag_104\n        /* \"node_modules/@openzeppelin/contracts/token/ERC1155/ERC1155.sol\":4439:4443  from */\n      dup6\n        /* \"node_modules/@openzeppelin/contracts/token/ERC1155/ERC1155.sol\":4445:4447  to */\n      dup6\n        /* \"node_modules/@openzeppelin/contracts/token/ERC1155/ERC1155.sol\":4449:4452  ids */\n      dup6\n        /* \"node_modules/@openzeppelin/contracts/token/ERC1155/ERC1155.sol\":4454:4461  amounts */\n      dup6\n        /* \"node_modules/@openzeppelin/contracts/token/ERC1155/ERC1155.sol\":4463:4467  data */\n      dup6\n        /* \"node_modules/@openzeppelin/contracts/token/ERC1155/ERC1155.sol\":4416:4438  _safeBatchTransferFrom */\n      tag_105\n        /* \"node_modules/@openzeppelin/contracts/token/ERC1155/ERC1155.sol\":4416:4468  _safeBatchTransferFrom(from, to, ids, amounts, data) */\n      jump\t// in\n    tag_104:\n        /* \"node_modules/@openzeppelin/contracts/token/ERC1155/ERC1155.sol\":4045:4475  function safeBatchTransferFrom(... */\n      pop\n      pop\n      pop\n      pop\n      pop\n      jump\t// out\n        /* \"contracts/Trazability.sol\":861:2109  function safeMint(\r... */\n    tag_43:\n        /* \"contracts/Trazability.sol\":1020:1035  uint256 tokenId */\n      0x00\n        /* \"contracts/Trazability.sol\":1038:1063  _tokenIdCounter.current() */\n      tag_107\n        /* \"contracts/Trazability.sol\":1038:1053  _tokenIdCounter */\n      0x04\n        /* \"node_modules/@openzeppelin/contracts/utils/Counters.sol\":918:932  counter._value */\n      sload\n      swap1\n        /* \"node_modules/@openzeppelin/contracts/utils/Counters.sol\":827:939  function current(Counter storage counter) internal view returns (uint256) {... */\n      jump\n        /* \"contracts/Trazability.sol\":1038:1063  _tokenIdCounter.current() */\n    tag_107:\n        /* \"contracts/Trazability.sol\":1020:1063  uint256 tokenId = _tokenIdCounter.current() */\n      swap1\n      pop\n        /* \"contracts/Trazability.sol\":1074:1101  _tokenIdCounter.increment() */\n      tag_109\n        /* \"contracts/Trazability.sol\":1074:1089  _tokenIdCounter */\n      0x04\n        /* \"node_modules/@openzeppelin/contracts/utils/Counters.sol\":1032:1051  counter._value += 1 */\n      dup1\n      sload\n        /* \"node_modules/@openzeppelin/contracts/utils/Counters.sol\":1050:1051  1 */\n      0x01\n        /* \"node_modules/@openzeppelin/contracts/utils/Counters.sol\":1032:1051  counter._value += 1 */\n      add\n      swap1\n      sstore\n        /* \"node_modules/@openzeppelin/contracts/utils/Counters.sol\":945:1068  function increment(Counter storage counter) internal {... */\n      jump\n        /* \"contracts/Trazability.sol\":1074:1101  _tokenIdCounter.increment() */\n    tag_109:\n        /* \"contracts/Trazability.sol\":1206:1213  data.id */\n      dup4\n      mload\n        /* \"contracts/Trazability.sol\":1228:1242  data.lotNumber */\n      0x20\n      dup1\n      dup7\n      add\n      mload\n        /* \"contracts/Trazability.sol\":1257:1274  data.protocolName */\n      0x40\n      dup1\n      dup9\n      add\n      mload\n        /* \"contracts/Trazability.sol\":1289:1300  data.status */\n      0x80\n      dup10\n      add\n      mload\n        /* \"contracts/Trazability.sol\":1315:1328  data.ownerUid */\n      0xa0\n      dup11\n      add\n      mload\n        /* \"contracts/Trazability.sol\":1343:1359  data.trazability */\n      0xc0\n      dup12\n      add\n      mload\n        /* \"contracts/Trazability.sol\":1175:1370  abi.encodePacked(\r... */\n      swap4\n      mload\n        /* \"contracts/Trazability.sol\":1150:1172  bytes memory dataBytes */\n      0x00\n      swap8\n        /* \"contracts/Trazability.sol\":1175:1370  abi.encodePacked(\r... */\n      tag_111\n      swap8\n        /* \"contracts/Trazability.sol\":1206:1213  data.id */\n      swap1\n      swap7\n        /* \"contracts/Trazability.sol\":1228:1242  data.lotNumber */\n      swap6\n        /* \"contracts/Trazability.sol\":1343:1359  data.trazability */\n      swap2\n        /* \"contracts/Trazability.sol\":1175:1370  abi.encodePacked(\r... */\n      add\n      tag_112\n      jump\t// in\n    tag_111:\n      mload(0x40)\n      0x20\n      dup2\n      dup4\n      sub\n      sub\n      dup2\n      mstore\n      swap1\n      0x40\n      mstore\n        /* \"contracts/Trazability.sol\":1150:1370  bytes memory dataBytes = abi.encodePacked(\r... */\n      swap1\n      pop\n        /* \"contracts/Trazability.sol\":1448:1485  _mint(to, tokenId, amount, dataBytes) */\n      tag_113\n        /* \"contracts/Trazability.sol\":1454:1456  to */\n      dup7\n        /* \"contracts/Trazability.sol\":1458:1465  tokenId */\n      dup4\n        /* \"contracts/Trazability.sol\":1467:1473  amount */\n      dup7\n        /* \"contracts/Trazability.sol\":1475:1484  dataBytes */\n      dup5\n        /* \"contracts/Trazability.sol\":1448:1453  _mint */\n      tag_114\n        /* \"contracts/Trazability.sol\":1448:1485  _mint(to, tokenId, amount, dataBytes) */\n      jump\t// in\n    tag_113:\n        /* \"contracts/Trazability.sol\":1596:1878  ProductData({\r... */\n      mload(0x40)\n      dup1\n      0xe0\n      add\n      0x40\n      mstore\n      dup1\n        /* \"contracts/Trazability.sol\":1627:1631  data */\n      dup7\n        /* \"contracts/Trazability.sol\":1627:1634  data.id */\n      0x00\n      add\n      mload\n        /* \"contracts/Trazability.sol\":1596:1878  ProductData({\r... */\n      dup2\n      mstore\n      0x20\n      add\n        /* \"contracts/Trazability.sol\":1660:1664  data */\n      dup7\n        /* \"contracts/Trazability.sol\":1660:1674  data.lotNumber */\n      0x20\n      add\n      mload\n        /* \"contracts/Trazability.sol\":1596:1878  ProductData({\r... */\n      dup2\n      mstore\n      0x20\n      add\n        /* \"contracts/Trazability.sol\":1703:1707  data */\n      dup7\n        /* \"contracts/Trazability.sol\":1703:1720  data.protocolName */\n      0x40\n      add\n      mload\n        /* \"contracts/Trazability.sol\":1596:1878  ProductData({\r... */\n      dup2\n      mstore\n      0x20\n      add\n        /* \"contracts/Trazability.sol\":1741:1745  data */\n      dup7\n        /* \"contracts/Trazability.sol\":1741:1750  data.name */\n      0x60\n      add\n      mload\n        /* \"contracts/Trazability.sol\":1596:1878  ProductData({\r... */\n      dup2\n      mstore\n      0x20\n      add\n        /* \"contracts/Trazability.sol\":1773:1777  data */\n      dup7\n        /* \"contracts/Trazability.sol\":1773:1784  data.status */\n      0x80\n      add\n      mload\n        /* \"contracts/Trazability.sol\":1596:1878  ProductData({\r... */\n      dup2\n      mstore\n      0x20\n      add\n        /* \"contracts/Trazability.sol\":1809:1813  data */\n      dup7\n        /* \"contracts/Trazability.sol\":1809:1822  data.ownerUid */\n      0xa0\n      add\n      mload\n        /* \"contracts/Trazability.sol\":1596:1878  ProductData({\r... */\n      dup2\n      mstore\n      0x20\n      add\n        /* \"contracts/Trazability.sol\":1850:1854  data */\n      dup7\n        /* \"contracts/Trazability.sol\":1850:1866  data.trazability */\n      0xc0\n      add\n      mload\n        /* \"contracts/Trazability.sol\":1596:1878  ProductData({\r... */\n      dup2\n      mstore\n      pop\n        /* \"contracts/Trazability.sol\":1562:1584  productIdToProductData */\n      0x05\n        /* \"contracts/Trazability.sol\":1585:1589  data */\n      dup7\n        /* \"contracts/Trazability.sol\":1585:1592  data.id */\n      0x00\n      add\n      mload\n        /* \"contracts/Trazability.sol\":1562:1593  productIdToProductData[data.id] */\n      mload(0x40)\n      tag_115\n      swap2\n      swap1\n      tag_116\n      jump\t// in\n    tag_115:\n      swap1\n      dup2\n      mstore\n      0x20\n      add\n      mload(0x40)\n      dup1\n      swap2\n      sub\n      swap1\n      keccak256\n        /* \"contracts/Trazability.sol\":1562:1878  productIdToProductData[data.id] = ProductData({\r... */\n      0x00\n      dup3\n      add\n      mload\n      dup2\n      0x00\n      add\n      swap1\n      dup1\n      mload\n      swap1\n      0x20\n      add\n      swap1\n      tag_117\n      swap3\n      swap2\n      swap1\n      tag_118\n      jump\t// in\n    tag_117:\n      pop\n      0x20\n      dup3\n      dup2\n      add\n      mload\n      dup1\n      mload\n      tag_119\n      swap3\n      0x01\n      dup6\n      add\n      swap3\n      add\n      swap1\n      tag_118\n      jump\t// in\n    tag_119:\n      pop\n      0x40\n      dup3\n      add\n      mload\n      dup1\n      mload\n      tag_120\n      swap2\n      0x02\n      dup5\n      add\n      swap2\n      0x20\n      swap1\n      swap2\n      add\n      swap1\n      tag_118\n      jump\t// in\n    tag_120:\n      pop\n      0x60\n      dup3\n      add\n      mload\n      dup1\n      mload\n      tag_121\n      swap2\n      0x03\n      dup5\n      add\n      swap2\n      0x20\n      swap1\n      swap2\n      add\n      swap1\n      tag_118\n      jump\t// in\n    tag_121:\n      pop\n      0x80\n      dup3\n      add\n      mload\n      dup1\n      mload\n      tag_122\n      swap2\n      0x04\n      dup5\n      add\n      swap2\n      0x20\n      swap1\n      swap2\n      add\n      swap1\n      tag_118\n      jump\t// in\n    tag_122:\n      pop\n      0xa0\n      dup3\n      add\n      mload\n      dup1\n      mload\n      tag_123\n      swap2\n      0x05\n      dup5\n      add\n      swap2\n      0x20\n      swap1\n      swap2\n      add\n      swap1\n      tag_118\n      jump\t// in\n    tag_123:\n      pop\n      0xc0\n      dup3\n      add\n      mload\n      dup1\n      mload\n      tag_124\n      swap2\n      0x06\n      dup5\n      add\n      swap2\n      0x20\n      swap1\n      swap2\n      add\n      swap1\n      tag_118\n      jump\t// in\n    tag_124:\n      pop\n      pop\n        /* \"contracts/Trazability.sol\":1997:2004  data.id */\n      dup6\n      mload\n      0x00\n        /* \"contracts/Trazability.sol\":1967:1994  tokenIdToProductId[tokenId] */\n      dup5\n      dup2\n      mstore\n        /* \"contracts/Trazability.sol\":1967:1985  tokenIdToProductId */\n      0x07\n        /* \"contracts/Trazability.sol\":1967:1994  tokenIdToProductId[tokenId] */\n      0x20\n      swap1\n      dup2\n      mstore\n      0x40\n      swap1\n      swap2\n      keccak256\n        /* \"contracts/Trazability.sol\":1967:2004  tokenIdToProductId[tokenId] = data.id */\n      dup3\n      mload\n      tag_125\n      swap5\n      pop\n        /* \"contracts/Trazability.sol\":1967:1994  tokenIdToProductId[tokenId] */\n      swap1\n      swap3\n        /* \"contracts/Trazability.sol\":1967:2004  tokenIdToProductId[tokenId] = data.id */\n      swap2\n      swap1\n      swap2\n      add\n      swap1\n      tag_118\n      jump\t// in\n    tag_125:\n      pop\n        /* \"contracts/Trazability.sol\":2066:2087  tokenIdToUri[tokenId] */\n      0x00\n      dup3\n      dup2\n      mstore\n        /* \"contracts/Trazability.sol\":2066:2078  tokenIdToUri */\n      0x06\n        /* \"contracts/Trazability.sol\":2066:2087  tokenIdToUri[tokenId] */\n      0x20\n      swap1\n      dup2\n      mstore\n      0x40\n      swap1\n      swap2\n      keccak256\n        /* \"contracts/Trazability.sol\":2066:2101  tokenIdToUri[tokenId] = externalUri */\n      dup5\n      mload\n      tag_126\n      swap3\n      dup7\n      add\n      swap1\n      tag_118\n      jump\t// in\n    tag_126:\n      pop\n        /* \"contracts/Trazability.sol\":861:2109  function safeMint(\r... */\n      pop\n      pop\n      pop\n      pop\n      pop\n      pop\n      jump\t// out\n        /* \"node_modules/@openzeppelin/contracts/token/ERC1155/ERC1155.sol\":2555:3063  function balanceOfBatch(address[] memory accounts, uint256[] memory ids)... */\n    tag_47:\n        /* \"node_modules/@openzeppelin/contracts/token/ERC1155/ERC1155.sol\":2706:2722  uint256[] memory */\n      0x60\n        /* \"node_modules/@openzeppelin/contracts/token/ERC1155/ERC1155.sol\":2765:2768  ids */\n      dup2\n        /* \"node_modules/@openzeppelin/contracts/token/ERC1155/ERC1155.sol\":2765:2775  ids.length */\n      mload\n        /* \"node_modules/@openzeppelin/contracts/token/ERC1155/ERC1155.sol\":2746:2754  accounts */\n      dup4\n        /* \"node_modules/@openzeppelin/contracts/token/ERC1155/ERC1155.sol\":2746:2761  accounts.length */\n      mload\n        /* \"node_modules/@openzeppelin/contracts/token/ERC1155/ERC1155.sol\":2746:2775  accounts.length == ids.length */\n      eq\n        /* \"node_modules/@openzeppelin/contracts/token/ERC1155/ERC1155.sol\":2738:2821  require(accounts.length == ids.length, \"ERC1155: accounts and ids length mismatch\") */\n      tag_128\n      jumpi\n      mload(0x40)\n      shl(0xe5, 0x461bcd)\n      dup2\n      mstore\n        /* \"#utility.yul\":17983:17985   */\n      0x20\n        /* \"node_modules/@openzeppelin/contracts/token/ERC1155/ERC1155.sol\":2738:2821  require(accounts.length == ids.length, \"ERC1155: accounts and ids length mismatch\") */\n      0x04\n      dup3\n      add\n        /* \"#utility.yul\":17965:17986   */\n      mstore\n        /* \"#utility.yul\":18022:18024   */\n      0x29\n        /* \"#utility.yul\":18002:18020   */\n      0x24\n      dup3\n      add\n        /* \"#utility.yul\":17995:18025   */\n      mstore\n        /* \"#utility.yul\":18061:18095   */\n      0x455243313135353a206163636f756e747320616e6420696473206c656e677468\n        /* \"#utility.yul\":18041:18059   */\n      0x44\n      dup3\n      add\n        /* \"#utility.yul\":18034:18096   */\n      mstore\n      shl(0xbb, 0x040dad2e6dac2e8c6d)\n        /* \"#utility.yul\":18112:18130   */\n      0x64\n      dup3\n      add\n        /* \"#utility.yul\":18105:18144   */\n      mstore\n        /* \"#utility.yul\":18161:18180   */\n      0x84\n      add\n        /* \"node_modules/@openzeppelin/contracts/token/ERC1155/ERC1155.sol\":2738:2821  require(accounts.length == ids.length, \"ERC1155: accounts and ids length mismatch\") */\n      tag_81\n        /* \"#utility.yul\":17955:18186   */\n      jump\n        /* \"node_modules/@openzeppelin/contracts/token/ERC1155/ERC1155.sol\":2738:2821  require(accounts.length == ids.length, \"ERC1155: accounts and ids length mismatch\") */\n    tag_128:\n        /* \"node_modules/@openzeppelin/contracts/token/ERC1155/ERC1155.sol\":2832:2862  uint256[] memory batchBalances */\n      0x00\n        /* \"node_modules/@openzeppelin/contracts/token/ERC1155/ERC1155.sol\":2879:2887  accounts */\n      dup4\n        /* \"node_modules/@openzeppelin/contracts/token/ERC1155/ERC1155.sol\":2879:2894  accounts.length */\n      mload\n        /* \"node_modules/@openzeppelin/contracts/token/ERC1155/ERC1155.sol\":2865:2895  new uint256[](accounts.length) */\n      0xffffffffffffffff\n      dup2\n      gt\n      iszero\n      tag_131\n      jumpi\n      mstore(0x00, shl(0xe0, 0x4e487b71))\n      mstore(0x04, 0x41)\n      revert(0x00, 0x24)\n    tag_131:\n      mload(0x40)\n      swap1\n      dup1\n      dup3\n      mstore\n      dup1\n      0x20\n      mul\n      0x20\n      add\n      dup3\n      add\n      0x40\n      mstore\n      dup1\n      iszero\n      tag_132\n      jumpi\n      dup2\n      0x20\n      add\n      0x20\n      dup3\n      mul\n      dup1\n      calldatasize\n      dup4\n      calldatacopy\n      add\n      swap1\n      pop\n    tag_132:\n      pop\n        /* \"node_modules/@openzeppelin/contracts/token/ERC1155/ERC1155.sol\":2832:2895  uint256[] memory batchBalances = new uint256[](accounts.length) */\n      swap1\n      pop\n        /* \"node_modules/@openzeppelin/contracts/token/ERC1155/ERC1155.sol\":2911:2920  uint256 i */\n      0x00\n        /* \"node_modules/@openzeppelin/contracts/token/ERC1155/ERC1155.sol\":2906:3026  for (uint256 i = 0; i < accounts.length; ++i) {... */\n    tag_133:\n        /* \"node_modules/@openzeppelin/contracts/token/ERC1155/ERC1155.sol\":2930:2938  accounts */\n      dup5\n        /* \"node_modules/@openzeppelin/contracts/token/ERC1155/ERC1155.sol\":2930:2945  accounts.length */\n      mload\n        /* \"node_modules/@openzeppelin/contracts/token/ERC1155/ERC1155.sol\":2926:2927  i */\n      dup2\n        /* \"node_modules/@openzeppelin/contracts/token/ERC1155/ERC1155.sol\":2926:2945  i < accounts.length */\n      lt\n        /* \"node_modules/@openzeppelin/contracts/token/ERC1155/ERC1155.sol\":2906:3026  for (uint256 i = 0; i < accounts.length; ++i) {... */\n      iszero\n      tag_134\n      jumpi\n        /* \"node_modules/@openzeppelin/contracts/token/ERC1155/ERC1155.sol\":2985:3015  balanceOf(accounts[i], ids[i]) */\n      tag_136\n        /* \"node_modules/@openzeppelin/contracts/token/ERC1155/ERC1155.sol\":2995:3003  accounts */\n      dup6\n        /* \"node_modules/@openzeppelin/contracts/token/ERC1155/ERC1155.sol\":3004:3005  i */\n      dup3\n        /* \"node_modules/@openzeppelin/contracts/token/ERC1155/ERC1155.sol\":2995:3006  accounts[i] */\n      dup2\n      mload\n      dup2\n      lt\n      tag_137\n      jumpi\n      mstore(0x00, shl(0xe0, 0x4e487b71))\n      mstore(0x04, 0x32)\n      revert(0x00, 0x24)\n    tag_137:\n      0x20\n      mul\n      0x20\n      add\n      add\n      mload\n        /* \"node_modules/@openzeppelin/contracts/token/ERC1155/ERC1155.sol\":3008:3011  ids */\n      dup6\n        /* \"node_modules/@openzeppelin/contracts/token/ERC1155/ERC1155.sol\":3012:3013  i */\n      dup4\n        /* \"node_modules/@openzeppelin/contracts/token/ERC1155/ERC1155.sol\":3008:3014  ids[i] */\n      dup2\n      mload\n      dup2\n      lt\n      tag_138\n      jumpi\n      mstore(0x00, shl(0xe0, 0x4e487b71))\n      mstore(0x04, 0x32)\n      revert(0x00, 0x24)\n    tag_138:\n      0x20\n      mul\n      0x20\n      add\n      add\n      mload\n        /* \"node_modules/@openzeppelin/contracts/token/ERC1155/ERC1155.sol\":2985:2994  balanceOf */\n      tag_21\n        /* \"node_modules/@openzeppelin/contracts/token/ERC1155/ERC1155.sol\":2985:3015  balanceOf(accounts[i], ids[i]) */\n      jump\t// in\n    tag_136:\n        /* \"node_modules/@openzeppelin/contracts/token/ERC1155/ERC1155.sol\":2966:2979  batchBalances */\n      dup3\n        /* \"node_modules/@openzeppelin/contracts/token/ERC1155/ERC1155.sol\":2980:2981  i */\n      dup3\n        /* \"node_modules/@openzeppelin/contracts/token/ERC1155/ERC1155.sol\":2966:2982  batchBalances[i] */\n      dup2\n      mload\n      dup2\n      lt\n      tag_139\n      jumpi\n      mstore(0x00, shl(0xe0, 0x4e487b71))\n      mstore(0x04, 0x32)\n      revert(0x00, 0x24)\n    tag_139:\n      0x20\n      swap1\n      dup2\n      mul\n      swap2\n      swap1\n      swap2\n      add\n      add\n        /* \"node_modules/@openzeppelin/contracts/token/ERC1155/ERC1155.sol\":2966:3015  batchBalances[i] = balanceOf(accounts[i], ids[i]) */\n      mstore\n        /* \"node_modules/@openzeppelin/contracts/token/ERC1155/ERC1155.sol\":2947:2950  ++i */\n      tag_140\n      dup2\n      tag_141\n      jump\t// in\n    tag_140:\n      swap1\n      pop\n        /* \"node_modules/@openzeppelin/contracts/token/ERC1155/ERC1155.sol\":2906:3026  for (uint256 i = 0; i < accounts.length; ++i) {... */\n      jump(tag_133)\n    tag_134:\n      pop\n        /* \"node_modules/@openzeppelin/contracts/token/ERC1155/ERC1155.sol\":3043:3056  batchBalances */\n      swap4\n        /* \"node_modules/@openzeppelin/contracts/token/ERC1155/ERC1155.sol\":2555:3063  function balanceOfBatch(address[] memory accounts, uint256[] memory ids)... */\n      swap3\n      pop\n      pop\n      pop\n      jump\t// out\n        /* \"node_modules/@openzeppelin/contracts/access/Ownable.sol\":1668:1769  function renounceOwnership() public virtual onlyOwner {... */\n    tag_51:\n        /* \"node_modules/@openzeppelin/contracts/access/Ownable.sol\":1108:1114  _owner */\n      and(sub(shl(0xa0, 0x01), 0x01), sload(0x03))\n        /* \"node_modules/@openzeppelin/contracts/utils/Context.sol\":719:729  msg.sender */\n      caller\n        /* \"node_modules/@openzeppelin/contracts/access/Ownable.sol\":1248:1271  owner() == _msgSender() */\n      eq\n        /* \"node_modules/@openzeppelin/contracts/access/Ownable.sol\":1240:1308  require(owner() == _msgSender(), \"Ownable: caller is not the owner\") */\n      tag_145\n      jumpi\n      mload(0x40)\n      shl(0xe5, 0x461bcd)\n      dup2\n      mstore\n        /* \"#utility.yul\":17212:17214   */\n      0x20\n        /* \"node_modules/@openzeppelin/contracts/access/Ownable.sol\":1240:1308  require(owner() == _msgSender(), \"Ownable: caller is not the owner\") */\n      0x04\n      dup3\n      add\n        /* \"#utility.yul\":17194:17215   */\n      dup2\n      swap1\n      mstore\n        /* \"#utility.yul\":17231:17249   */\n      0x24\n      dup3\n      add\n        /* \"#utility.yul\":17224:17254   */\n      mstore\n        /* \"#utility.yul\":17290:17324   */\n      0x4f776e61626c653a2063616c6c6572206973206e6f7420746865206f776e6572\n        /* \"#utility.yul\":17270:17288   */\n      0x44\n      dup3\n      add\n        /* \"#utility.yul\":17263:17325   */\n      mstore\n        /* \"#utility.yul\":17342:17360   */\n      0x64\n      add\n        /* \"node_modules/@openzeppelin/contracts/access/Ownable.sol\":1240:1308  require(owner() == _msgSender(), \"Ownable: caller is not the owner\") */\n      tag_81\n        /* \"#utility.yul\":17184:17366   */\n      jump\n        /* \"node_modules/@openzeppelin/contracts/access/Ownable.sol\":1240:1308  require(owner() == _msgSender(), \"Ownable: caller is not the owner\") */\n    tag_145:\n        /* \"node_modules/@openzeppelin/contracts/access/Ownable.sol\":1732:1762  _transferOwnership(address(0)) */\n      tag_149\n        /* \"node_modules/@openzeppelin/contracts/access/Ownable.sol\":1759:1760  0 */\n      0x00\n        /* \"node_modules/@openzeppelin/contracts/access/Ownable.sol\":1732:1750  _transferOwnership */\n      tag_150\n        /* \"node_modules/@openzeppelin/contracts/access/Ownable.sol\":1732:1762  _transferOwnership(address(0)) */\n      jump\t// in\n    tag_149:\n        /* \"node_modules/@openzeppelin/contracts/access/Ownable.sol\":1668:1769  function renounceOwnership() public virtual onlyOwner {... */\n      jump\t// out\n        /* \"contracts/Trazability.sol\":2117:2266  function getProductData(string memory productId) public view returns (ProductData memory) {\r... */\n    tag_55:\n        /* \"contracts/Trazability.sol\":2187:2205  ProductData memory */\n      tag_151\n      mload(0x40)\n      dup1\n      0xe0\n      add\n      0x40\n      mstore\n      dup1\n      0x60\n      dup2\n      mstore\n      0x20\n      add\n      0x60\n      dup2\n      mstore\n      0x20\n      add\n      0x60\n      dup2\n      mstore\n      0x20\n      add\n      0x60\n      dup2\n      mstore\n      0x20\n      add\n      0x60\n      dup2\n      mstore\n      0x20\n      add\n      0x60\n      dup2\n      mstore\n      0x20\n      add\n      0x60\n      dup2\n      mstore\n      pop\n      swap1\n      jump\n    tag_151:\n        /* \"contracts/Trazability.sol\":2225:2247  productIdToProductData */\n      0x05\n        /* \"contracts/Trazability.sol\":2248:2257  productId */\n      dup3\n        /* \"contracts/Trazability.sol\":2225:2258  productIdToProductData[productId] */\n      mload(0x40)\n      tag_154\n      swap2\n      swap1\n      tag_116\n      jump\t// in\n    tag_154:\n      swap1\n      dup2\n      mstore\n      0x20\n      add\n      mload(0x40)\n      dup1\n      swap2\n      sub\n      swap1\n      keccak256\n        /* \"contracts/Trazability.sol\":2218:2258  return productIdToProductData[productId] */\n      mload(0x40)\n      dup1\n      0xe0\n      add\n      0x40\n      mstore\n      swap1\n      dup2\n      0x00\n      dup3\n      add\n      dup1\n      sload\n      tag_155\n      swap1\n      tag_90\n      jump\t// in\n    tag_155:\n      dup1\n      0x1f\n      add\n      0x20\n      dup1\n      swap2\n      div\n      mul\n      0x20\n      add\n      mload(0x40)\n      swap1\n      dup2\n      add\n      0x40\n      mstore\n      dup1\n      swap3\n      swap2\n      swap1\n      dup2\n      dup2\n      mstore\n      0x20\n      add\n      dup3\n      dup1\n      sload\n      tag_156\n      swap1\n      tag_90\n      jump\t// in\n    tag_156:\n      dup1\n      iszero\n      tag_157\n      jumpi\n      dup1\n      0x1f\n      lt\n      tag_158\n      jumpi\n      0x0100\n      dup1\n      dup4\n      sload\n      div\n      mul\n      dup4\n      mstore\n      swap2\n      0x20\n      add\n      swap2\n      jump(tag_157)\n    tag_158:\n      dup3\n      add\n      swap2\n      swap1\n      0x00\n      mstore\n      keccak256(0x00, 0x20)\n      swap1\n    tag_159:\n      dup2\n      sload\n      dup2\n      mstore\n      swap1\n      0x01\n      add\n      swap1\n      0x20\n      add\n      dup1\n      dup4\n      gt\n      tag_159\n      jumpi\n      dup3\n      swap1\n      sub\n      0x1f\n      and\n      dup3\n      add\n      swap2\n    tag_157:\n      pop\n      pop\n      pop\n      pop\n      pop\n      dup2\n      mstore\n      0x20\n      add\n      0x01\n      dup3\n      add\n      dup1\n      sload\n      tag_160\n      swap1\n      tag_90\n      jump\t// in\n    tag_160:\n      dup1\n      0x1f\n      add\n      0x20\n      dup1\n      swap2\n      div\n      mul\n      0x20\n      add\n      mload(0x40)\n      swap1\n      dup2\n      add\n      0x40\n      mstore\n      dup1\n      swap3\n      swap2\n      swap1\n      dup2\n      dup2\n      mstore\n      0x20\n      add\n      dup3\n      dup1\n      sload\n      tag_161\n      swap1\n      tag_90\n      jump\t// in\n    tag_161:\n      dup1\n      iszero\n      tag_162\n      jumpi\n      dup1\n      0x1f\n      lt\n      tag_163\n      jumpi\n      0x0100\n      dup1\n      dup4\n      sload\n      div\n      mul\n      dup4\n      mstore\n      swap2\n      0x20\n      add\n      swap2\n      jump(tag_162)\n    tag_163:\n      dup3\n      add\n      swap2\n      swap1\n      0x00\n      mstore\n      keccak256(0x00, 0x20)\n      swap1\n    tag_164:\n      dup2\n      sload\n      dup2\n      mstore\n      swap1\n      0x01\n      add\n      swap1\n      0x20\n      add\n      dup1\n      dup4\n      gt\n      tag_164\n      jumpi\n      dup3\n      swap1\n      sub\n      0x1f\n      and\n      dup3\n      add\n      swap2\n    tag_162:\n      pop\n      pop\n      pop\n      pop\n      pop\n      dup2\n      mstore\n      0x20\n      add\n      0x02\n      dup3\n      add\n      dup1\n      sload\n      tag_165\n      swap1\n      tag_90\n      jump\t// in\n    tag_165:\n      dup1\n      0x1f\n      add\n      0x20\n      dup1\n      swap2\n      div\n      mul\n      0x20\n      add\n      mload(0x40)\n      swap1\n      dup2\n      add\n      0x40\n      mstore\n      dup1\n      swap3\n      swap2\n      swap1\n      dup2\n      dup2\n      mstore\n      0x20\n      add\n      dup3\n      dup1\n      sload\n      tag_166\n      swap1\n      tag_90\n      jump\t// in\n    tag_166:\n      dup1\n      iszero\n      tag_167\n      jumpi\n      dup1\n      0x1f\n      lt\n      tag_168\n      jumpi\n      0x0100\n      dup1\n      dup4\n      sload\n      div\n      mul\n      dup4\n      mstore\n      swap2\n      0x20\n      add\n      swap2\n      jump(tag_167)\n    tag_168:\n      dup3\n      add\n      swap2\n      swap1\n      0x00\n      mstore\n      keccak256(0x00, 0x20)\n      swap1\n    tag_169:\n      dup2\n      sload\n      dup2\n      mstore\n      swap1\n      0x01\n      add\n      swap1\n      0x20\n      add\n      dup1\n      dup4\n      gt\n      tag_169\n      jumpi\n      dup3\n      swap1\n      sub\n      0x1f\n      and\n      dup3\n      add\n      swap2\n    tag_167:\n      pop\n      pop\n      pop\n      pop\n      pop\n      dup2\n      mstore\n      0x20\n      add\n      0x03\n      dup3\n      add\n      dup1\n      sload\n      tag_170\n      swap1\n      tag_90\n      jump\t// in\n    tag_170:\n      dup1\n      0x1f\n      add\n      0x20\n      dup1\n      swap2\n      div\n      mul\n      0x20\n      add\n      mload(0x40)\n      swap1\n      dup2\n      add\n      0x40\n      mstore\n      dup1\n      swap3\n      swap2\n      swap1\n      dup2\n      dup2\n      mstore\n      0x20\n      add\n      dup3\n      dup1\n      sload\n      tag_171\n      swap1\n      tag_90\n      jump\t// in\n    tag_171:\n      dup1\n      iszero\n      tag_172\n      jumpi\n      dup1\n      0x1f\n      lt\n      tag_173\n      jumpi\n      0x0100\n      dup1\n      dup4\n      sload\n      div\n      mul\n      dup4\n      mstore\n      swap2\n      0x20\n      add\n      swap2\n      jump(tag_172)\n    tag_173:\n      dup3\n      add\n      swap2\n      swap1\n      0x00\n      mstore\n      keccak256(0x00, 0x20)\n      swap1\n    tag_174:\n      dup2\n      sload\n      dup2\n      mstore\n      swap1\n      0x01\n      add\n      swap1\n      0x20\n      add\n      dup1\n      dup4\n      gt\n      tag_174\n      jumpi\n      dup3\n      swap1\n      sub\n      0x1f\n      and\n      dup3\n      add\n      swap2\n    tag_172:\n      pop\n      pop\n      pop\n      pop\n      pop\n      dup2\n      mstore\n      0x20\n      add\n      0x04\n      dup3\n      add\n      dup1\n      sload\n      tag_175\n      swap1\n      tag_90\n      jump\t// in\n    tag_175:\n      dup1\n      0x1f\n      add\n      0x20\n      dup1\n      swap2\n      div\n      mul\n      0x20\n      add\n      mload(0x40)\n      swap1\n      dup2\n      add\n      0x40\n      mstore\n      dup1\n      swap3\n      swap2\n      swap1\n      dup2\n      dup2\n      mstore\n      0x20\n      add\n      dup3\n      dup1\n      sload\n      tag_176\n      swap1\n      tag_90\n      jump\t// in\n    tag_176:\n      dup1\n      iszero\n      tag_177\n      jumpi\n      dup1\n      0x1f\n      lt\n      tag_178\n      jumpi\n      0x0100\n      dup1\n      dup4\n      sload\n      div\n      mul\n      dup4\n      mstore\n      swap2\n      0x20\n      add\n      swap2\n      jump(tag_177)\n    tag_178:\n      dup3\n      add\n      swap2\n      swap1\n      0x00\n      mstore\n      keccak256(0x00, 0x20)\n      swap1\n    tag_179:\n      dup2\n      sload\n      dup2\n      mstore\n      swap1\n      0x01\n      add\n      swap1\n      0x20\n      add\n      dup1\n      dup4\n      gt\n      tag_179\n      jumpi\n      dup3\n      swap1\n      sub\n      0x1f\n      and\n      dup3\n      add\n      swap2\n    tag_177:\n      pop\n      pop\n      pop\n      pop\n      pop\n      dup2\n      mstore\n      0x20\n      add\n      0x05\n      dup3\n      add\n      dup1\n      sload\n      tag_180\n      swap1\n      tag_90\n      jump\t// in\n    tag_180:\n      dup1\n      0x1f\n      add\n      0x20\n      dup1\n      swap2\n      div\n      mul\n      0x20\n      add\n      mload(0x40)\n      swap1\n      dup2\n      add\n      0x40\n      mstore\n      dup1\n      swap3\n      swap2\n      swap1\n      dup2\n      dup2\n      mstore\n      0x20\n      add\n      dup3\n      dup1\n      sload\n      tag_181\n      swap1\n      tag_90\n      jump\t// in\n    tag_181:\n      dup1\n      iszero\n      tag_182\n      jumpi\n      dup1\n      0x1f\n      lt\n      tag_183\n      jumpi\n      0x0100\n      dup1\n      dup4\n      sload\n      div\n      mul\n      dup4\n      mstore\n      swap2\n      0x20\n      add\n      swap2\n      jump(tag_182)\n    tag_183:\n      dup3\n      add\n      swap2\n      swap1\n      0x00\n      mstore\n      keccak256(0x00, 0x20)\n      swap1\n    tag_184:\n      dup2\n      sload\n      dup2\n      mstore\n      swap1\n      0x01\n      add\n      swap1\n      0x20\n      add\n      dup1\n      dup4\n      gt\n      tag_184\n      jumpi\n      dup3\n      swap1\n      sub\n      0x1f\n      and\n      dup3\n      add\n      swap2\n    tag_182:\n      pop\n      pop\n      pop\n      pop\n      pop\n      dup2\n      mstore\n      0x20\n      add\n      0x06\n      dup3\n      add\n      dup1\n      sload\n      tag_185\n      swap1\n      tag_90\n      jump\t// in\n    tag_185:\n      dup1\n      0x1f\n      add\n      0x20\n      dup1\n      swap2\n      div\n      mul\n      0x20\n      add\n      mload(0x40)\n      swap1\n      dup2\n      add\n      0x40\n      mstore\n      dup1\n      swap3\n      swap2\n      swap1\n      dup2\n      dup2\n      mstore\n      0x20\n      add\n      dup3\n      dup1\n      sload\n      tag_186\n      swap1\n      tag_90\n      jump\t// in\n    tag_186:\n      dup1\n      iszero\n      tag_187\n      jumpi\n      dup1\n      0x1f\n      lt\n      tag_188\n      jumpi\n      0x0100\n      dup1\n      dup4\n      sload\n      div\n      mul\n      dup4\n      mstore\n      swap2\n      0x20\n      add\n      swap2\n      jump(tag_187)\n    tag_188:\n      dup3\n      add\n      swap2\n      swap1\n      0x00\n      mstore\n      keccak256(0x00, 0x20)\n      swap1\n    tag_189:\n      dup2\n      sload\n      dup2\n      mstore\n      swap1\n      0x01\n      add\n      swap1\n      0x20\n      add\n      dup1\n      dup4\n      gt\n      tag_189\n      jumpi\n      dup3\n      swap1\n      sub\n      0x1f\n      and\n      dup3\n      add\n      swap2\n    tag_187:\n      pop\n      pop\n      pop\n      pop\n      pop\n      dup2\n      mstore\n      pop\n      pop\n      swap1\n      pop\n        /* \"contracts/Trazability.sol\":2117:2266  function getProductData(string memory productId) public view returns (ProductData memory) {\r... */\n      swap2\n      swap1\n      pop\n      jump\t// out\n        /* \"node_modules/@openzeppelin/contracts/token/ERC1155/ERC1155.sol\":3131:3284  function setApprovalForAll(address operator, bool approved) public virtual override {... */\n    tag_65:\n        /* \"node_modules/@openzeppelin/contracts/token/ERC1155/ERC1155.sol\":3225:3277  _setApprovalForAll(_msgSender(), operator, approved) */\n      tag_192\n        /* \"node_modules/@openzeppelin/contracts/utils/Context.sol\":719:729  msg.sender */\n      caller\n        /* \"node_modules/@openzeppelin/contracts/token/ERC1155/ERC1155.sol\":3258:3266  operator */\n      dup4\n        /* \"node_modules/@openzeppelin/contracts/token/ERC1155/ERC1155.sol\":3268:3276  approved */\n      dup4\n        /* \"node_modules/@openzeppelin/contracts/token/ERC1155/ERC1155.sol\":3225:3243  _setApprovalForAll */\n      tag_194\n        /* \"node_modules/@openzeppelin/contracts/token/ERC1155/ERC1155.sol\":3225:3277  _setApprovalForAll(_msgSender(), operator, approved) */\n      jump\t// in\n    tag_192:\n        /* \"node_modules/@openzeppelin/contracts/token/ERC1155/ERC1155.sol\":3131:3284  function setApprovalForAll(address operator, bool approved) public virtual override {... */\n      pop\n      pop\n      jump\t// out\n        /* \"node_modules/@openzeppelin/contracts/token/ERC1155/ERC1155.sol\":3584:3973  function safeTransferFrom(... */\n    tag_74:\n      sub(shl(0xa0, 0x01), 0x01)\n        /* \"node_modules/@openzeppelin/contracts/token/ERC1155/ERC1155.sol\":3784:3804  from == _msgSender() */\n      dup6\n      and\n        /* \"node_modules/@openzeppelin/contracts/utils/Context.sol\":719:729  msg.sender */\n      caller\n        /* \"node_modules/@openzeppelin/contracts/token/ERC1155/ERC1155.sol\":3784:3804  from == _msgSender() */\n      eq\n      dup1\n        /* \"node_modules/@openzeppelin/contracts/token/ERC1155/ERC1155.sol\":3784:3844  from == _msgSender() || isApprovedForAll(from, _msgSender()) */\n      tag_199\n      jumpi\n      pop\n        /* \"node_modules/@openzeppelin/contracts/token/ERC1155/ERC1155.sol\":3808:3844  isApprovedForAll(from, _msgSender()) */\n      tag_199\n        /* \"node_modules/@openzeppelin/contracts/token/ERC1155/ERC1155.sol\":3825:3829  from */\n      dup6\n        /* \"node_modules/@openzeppelin/contracts/utils/Context.sol\":719:729  msg.sender */\n      caller\n        /* \"node_modules/@openzeppelin/contracts/token/ERC1155/ERC1155.sol\":3351:3517  function isApprovedForAll(address account, address operator) public view virtual override returns (bool) {... */\n      tag_67\n      jump\t// in\n        /* \"node_modules/@openzeppelin/contracts/token/ERC1155/ERC1155.sol\":3808:3844  isApprovedForAll(from, _msgSender()) */\n    tag_199:\n        /* \"node_modules/@openzeppelin/contracts/token/ERC1155/ERC1155.sol\":3763:3911  require(... */\n      tag_201\n      jumpi\n      mload(0x40)\n      shl(0xe5, 0x461bcd)\n      dup2\n      mstore\n        /* \"#utility.yul\":15566:15568   */\n      0x20\n        /* \"node_modules/@openzeppelin/contracts/token/ERC1155/ERC1155.sol\":3763:3911  require(... */\n      0x04\n      dup3\n      add\n        /* \"#utility.yul\":15548:15569   */\n      mstore\n        /* \"#utility.yul\":15605:15607   */\n      0x29\n        /* \"#utility.yul\":15585:15603   */\n      0x24\n      dup3\n      add\n        /* \"#utility.yul\":15578:15608   */\n      mstore\n        /* \"#utility.yul\":15644:15678   */\n      0x455243313135353a2063616c6c6572206973206e6f74206f776e6572206e6f72\n        /* \"#utility.yul\":15624:15642   */\n      0x44\n      dup3\n      add\n        /* \"#utility.yul\":15617:15679   */\n      mstore\n      shl(0xba, 0x08185c1c1c9bdd9959)\n        /* \"#utility.yul\":15695:15713   */\n      0x64\n      dup3\n      add\n        /* \"#utility.yul\":15688:15727   */\n      mstore\n        /* \"#utility.yul\":15744:15763   */\n      0x84\n      add\n        /* \"node_modules/@openzeppelin/contracts/token/ERC1155/ERC1155.sol\":3763:3911  require(... */\n      tag_81\n        /* \"#utility.yul\":15538:15769   */\n      jump\n        /* \"node_modules/@openzeppelin/contracts/token/ERC1155/ERC1155.sol\":3763:3911  require(... */\n    tag_201:\n        /* \"node_modules/@openzeppelin/contracts/token/ERC1155/ERC1155.sol\":3921:3966  _safeTransferFrom(from, to, id, amount, data) */\n      tag_104\n        /* \"node_modules/@openzeppelin/contracts/token/ERC1155/ERC1155.sol\":3939:3943  from */\n      dup6\n        /* \"node_modules/@openzeppelin/contracts/token/ERC1155/ERC1155.sol\":3945:3947  to */\n      dup6\n        /* \"node_modules/@openzeppelin/contracts/token/ERC1155/ERC1155.sol\":3949:3951  id */\n      dup6\n        /* \"node_modules/@openzeppelin/contracts/token/ERC1155/ERC1155.sol\":3953:3959  amount */\n      dup6\n        /* \"node_modules/@openzeppelin/contracts/token/ERC1155/ERC1155.sol\":3961:3965  data */\n      dup6\n        /* \"node_modules/@openzeppelin/contracts/token/ERC1155/ERC1155.sol\":3921:3938  _safeTransferFrom */\n      tag_205\n        /* \"node_modules/@openzeppelin/contracts/token/ERC1155/ERC1155.sol\":3921:3966  _safeTransferFrom(from, to, id, amount, data) */\n      jump\t// in\n        /* \"node_modules/@openzeppelin/contracts/access/Ownable.sol\":1918:2116  function transferOwnership(address newOwner) public virtual onlyOwner {... */\n    tag_78:\n        /* \"node_modules/@openzeppelin/contracts/access/Ownable.sol\":1108:1114  _owner */\n      and(sub(shl(0xa0, 0x01), 0x01), sload(0x03))\n        /* \"node_modules/@openzeppelin/contracts/utils/Context.sol\":719:729  msg.sender */\n      caller\n        /* \"node_modules/@openzeppelin/contracts/access/Ownable.sol\":1248:1271  owner() == _msgSender() */\n      eq\n        /* \"node_modules/@openzeppelin/contracts/access/Ownable.sol\":1240:1308  require(owner() == _msgSender(), \"Ownable: caller is not the owner\") */\n      tag_209\n      jumpi\n      mload(0x40)\n      shl(0xe5, 0x461bcd)\n      dup2\n      mstore\n        /* \"#utility.yul\":17212:17214   */\n      0x20\n        /* \"node_modules/@openzeppelin/contracts/access/Ownable.sol\":1240:1308  require(owner() == _msgSender(), \"Ownable: caller is not the owner\") */\n      0x04\n      dup3\n      add\n        /* \"#utility.yul\":17194:17215   */\n      dup2\n      swap1\n      mstore\n        /* \"#utility.yul\":17231:17249   */\n      0x24\n      dup3\n      add\n        /* \"#utility.yul\":17224:17254   */\n      mstore\n        /* \"#utility.yul\":17290:17324   */\n      0x4f776e61626c653a2063616c6c6572206973206e6f7420746865206f776e6572\n        /* \"#utility.yul\":17270:17288   */\n      0x44\n      dup3\n      add\n        /* \"#utility.yul\":17263:17325   */\n      mstore\n        /* \"#utility.yul\":17342:17360   */\n      0x64\n      add\n        /* \"node_modules/@openzeppelin/contracts/access/Ownable.sol\":1240:1308  require(owner() == _msgSender(), \"Ownable: caller is not the owner\") */\n      tag_81\n        /* \"#utility.yul\":17184:17366   */\n      jump\n        /* \"node_modules/@openzeppelin/contracts/access/Ownable.sol\":1240:1308  require(owner() == _msgSender(), \"Ownable: caller is not the owner\") */\n    tag_209:\n      sub(shl(0xa0, 0x01), 0x01)\n        /* \"node_modules/@openzeppelin/contracts/access/Ownable.sol\":2006:2028  newOwner != address(0) */\n      dup2\n      and\n        /* \"node_modules/@openzeppelin/contracts/access/Ownable.sol\":1998:2071  require(newOwner != address(0), \"Ownable: new owner is the zero address\") */\n      tag_212\n      jumpi\n      mload(0x40)\n      shl(0xe5, 0x461bcd)\n      dup2\n      mstore\n        /* \"#utility.yul\":15159:15161   */\n      0x20\n        /* \"node_modules/@openzeppelin/contracts/access/Ownable.sol\":1998:2071  require(newOwner != address(0), \"Ownable: new owner is the zero address\") */\n      0x04\n      dup3\n      add\n        /* \"#utility.yul\":15141:15162   */\n      mstore\n        /* \"#utility.yul\":15198:15200   */\n      0x26\n        /* \"#utility.yul\":15178:15196   */\n      0x24\n      dup3\n      add\n        /* \"#utility.yul\":15171:15201   */\n      mstore\n        /* \"#utility.yul\":15237:15271   */\n      0x4f776e61626c653a206e6577206f776e657220697320746865207a65726f2061\n        /* \"#utility.yul\":15217:15235   */\n      0x44\n      dup3\n      add\n        /* \"#utility.yul\":15210:15272   */\n      mstore\n      shl(0xd0, 0x646472657373)\n        /* \"#utility.yul\":15288:15306   */\n      0x64\n      dup3\n      add\n        /* \"#utility.yul\":15281:15317   */\n      mstore\n        /* \"#utility.yul\":15334:15353   */\n      0x84\n      add\n        /* \"node_modules/@openzeppelin/contracts/access/Ownable.sol\":1998:2071  require(newOwner != address(0), \"Ownable: new owner is the zero address\") */\n      tag_81\n        /* \"#utility.yul\":15131:15359   */\n      jump\n        /* \"node_modules/@openzeppelin/contracts/access/Ownable.sol\":1998:2071  require(newOwner != address(0), \"Ownable: new owner is the zero address\") */\n    tag_212:\n        /* \"node_modules/@openzeppelin/contracts/access/Ownable.sol\":2081:2109  _transferOwnership(newOwner) */\n      tag_215\n        /* \"node_modules/@openzeppelin/contracts/access/Ownable.sol\":2100:2108  newOwner */\n      dup2\n        /* \"node_modules/@openzeppelin/contracts/access/Ownable.sol\":2081:2099  _transferOwnership */\n      tag_150\n        /* \"node_modules/@openzeppelin/contracts/access/Ownable.sol\":2081:2109  _transferOwnership(newOwner) */\n      jump\t// in\n    tag_215:\n        /* \"node_modules/@openzeppelin/contracts/access/Ownable.sol\":1918:2116  function transferOwnership(address newOwner) public virtual onlyOwner {... */\n      pop\n      jump\t// out\n        /* \"node_modules/@openzeppelin/contracts/token/ERC1155/ERC1155.sol\":6068:7113  function _safeBatchTransferFrom(... */\n    tag_105:\n        /* \"node_modules/@openzeppelin/contracts/token/ERC1155/ERC1155.sol\":6288:6295  amounts */\n      dup2\n        /* \"node_modules/@openzeppelin/contracts/token/ERC1155/ERC1155.sol\":6288:6302  amounts.length */\n      mload\n        /* \"node_modules/@openzeppelin/contracts/token/ERC1155/ERC1155.sol\":6274:6277  ids */\n      dup4\n        /* \"node_modules/@openzeppelin/contracts/token/ERC1155/ERC1155.sol\":6274:6284  ids.length */\n      mload\n        /* \"node_modules/@openzeppelin/contracts/token/ERC1155/ERC1155.sol\":6274:6302  ids.length == amounts.length */\n      eq\n        /* \"node_modules/@openzeppelin/contracts/token/ERC1155/ERC1155.sol\":6266:6347  require(ids.length == amounts.length, \"ERC1155: ids and amounts length mismatch\") */\n      tag_219\n      jumpi\n      mload(0x40)\n      shl(0xe5, 0x461bcd)\n      dup2\n      mstore\n        /* \"#utility.yul\":18393:18395   */\n      0x20\n        /* \"node_modules/@openzeppelin/contracts/token/ERC1155/ERC1155.sol\":6266:6347  require(ids.length == amounts.length, \"ERC1155: ids and amounts length mismatch\") */\n      0x04\n      dup3\n      add\n        /* \"#utility.yul\":18375:18396   */\n      mstore\n        /* \"#utility.yul\":18432:18434   */\n      0x28\n        /* \"#utility.yul\":18412:18430   */\n      0x24\n      dup3\n      add\n        /* \"#utility.yul\":18405:18435   */\n      mstore\n        /* \"#utility.yul\":18471:18505   */\n      0x455243313135353a2069647320616e6420616d6f756e7473206c656e67746820\n        /* \"#utility.yul\":18451:18469   */\n      0x44\n      dup3\n      add\n        /* \"#utility.yul\":18444:18506   */\n      mstore\n      shl(0xc3, 0x0dad2e6dac2e8c6d)\n        /* \"#utility.yul\":18522:18540   */\n      0x64\n      dup3\n      add\n        /* \"#utility.yul\":18515:18553   */\n      mstore\n        /* \"#utility.yul\":18570:18589   */\n      0x84\n      add\n        /* \"node_modules/@openzeppelin/contracts/token/ERC1155/ERC1155.sol\":6266:6347  require(ids.length == amounts.length, \"ERC1155: ids and amounts length mismatch\") */\n      tag_81\n        /* \"#utility.yul\":18365:18595   */\n      jump\n        /* \"node_modules/@openzeppelin/contracts/token/ERC1155/ERC1155.sol\":6266:6347  require(ids.length == amounts.length, \"ERC1155: ids and amounts length mismatch\") */\n    tag_219:\n      sub(shl(0xa0, 0x01), 0x01)\n        /* \"node_modules/@openzeppelin/contracts/token/ERC1155/ERC1155.sol\":6365:6381  to != address(0) */\n      dup5\n      and\n        /* \"node_modules/@openzeppelin/contracts/token/ERC1155/ERC1155.sol\":6357:6423  require(to != address(0), \"ERC1155: transfer to the zero address\") */\n      tag_222\n      jumpi\n      mload(0x40)\n      shl(0xe5, 0x461bcd)\n      dup2\n      mstore\n      0x04\n      add\n      tag_81\n      swap1\n      tag_224\n      jump\t// in\n    tag_222:\n        /* \"node_modules/@openzeppelin/contracts/utils/Context.sol\":719:729  msg.sender */\n      caller\n        /* \"node_modules/@openzeppelin/contracts/token/ERC1155/ERC1155.sol\":6434:6450  address operator */\n      0x00\n        /* \"node_modules/@openzeppelin/contracts/token/ERC1155/ERC1155.sol\":6547:6958  for (uint256 i = 0; i < ids.length; ++i) {... */\n    tag_228:\n        /* \"node_modules/@openzeppelin/contracts/token/ERC1155/ERC1155.sol\":6571:6574  ids */\n      dup5\n        /* \"node_modules/@openzeppelin/contracts/token/ERC1155/ERC1155.sol\":6571:6581  ids.length */\n      mload\n        /* \"node_modules/@openzeppelin/contracts/token/ERC1155/ERC1155.sol\":6567:6568  i */\n      dup2\n        /* \"node_modules/@openzeppelin/contracts/token/ERC1155/ERC1155.sol\":6567:6581  i < ids.length */\n      lt\n        /* \"node_modules/@openzeppelin/contracts/token/ERC1155/ERC1155.sol\":6547:6958  for (uint256 i = 0; i < ids.length; ++i) {... */\n      iszero\n      tag_229\n      jumpi\n        /* \"node_modules/@openzeppelin/contracts/token/ERC1155/ERC1155.sol\":6602:6612  uint256 id */\n      0x00\n        /* \"node_modules/@openzeppelin/contracts/token/ERC1155/ERC1155.sol\":6615:6618  ids */\n      dup6\n        /* \"node_modules/@openzeppelin/contracts/token/ERC1155/ERC1155.sol\":6619:6620  i */\n      dup3\n        /* \"node_modules/@openzeppelin/contracts/token/ERC1155/ERC1155.sol\":6615:6621  ids[i] */\n      dup2\n      mload\n      dup2\n      lt\n      tag_231\n      jumpi\n      mstore(0x00, shl(0xe0, 0x4e487b71))\n      mstore(0x04, 0x32)\n      revert(0x00, 0x24)\n    tag_231:\n      0x20\n      mul\n      0x20\n      add\n      add\n      mload\n        /* \"node_modules/@openzeppelin/contracts/token/ERC1155/ERC1155.sol\":6602:6621  uint256 id = ids[i] */\n      swap1\n      pop\n        /* \"node_modules/@openzeppelin/contracts/token/ERC1155/ERC1155.sol\":6635:6649  uint256 amount */\n      0x00\n        /* \"node_modules/@openzeppelin/contracts/token/ERC1155/ERC1155.sol\":6652:6659  amounts */\n      dup6\n        /* \"node_modules/@openzeppelin/contracts/token/ERC1155/ERC1155.sol\":6660:6661  i */\n      dup4\n        /* \"node_modules/@openzeppelin/contracts/token/ERC1155/ERC1155.sol\":6652:6662  amounts[i] */\n      dup2\n      mload\n      dup2\n      lt\n      tag_232\n      jumpi\n      mstore(0x00, shl(0xe0, 0x4e487b71))\n      mstore(0x04, 0x32)\n      revert(0x00, 0x24)\n    tag_232:\n      0x20\n      swap1\n      dup2\n      mul\n      swap2\n      swap1\n      swap2\n      add\n      dup2\n      add\n      mload\n        /* \"node_modules/@openzeppelin/contracts/token/ERC1155/ERC1155.sol\":6677:6696  uint256 fromBalance */\n      0x00\n        /* \"node_modules/@openzeppelin/contracts/token/ERC1155/ERC1155.sol\":6699:6712  _balances[id] */\n      dup5\n      dup2\n      mstore\n      dup1\n      dup4\n      mstore\n      0x40\n      dup1\n      dup3\n      keccak256\n      sub(shl(0xa0, 0x01), 0x01)\n        /* \"node_modules/@openzeppelin/contracts/token/ERC1155/ERC1155.sol\":6699:6718  _balances[id][from] */\n      dup15\n      and\n      dup4\n      mstore\n      swap1\n      swap4\n      mstore\n      swap2\n      swap1\n      swap2\n      keccak256\n      sload\n        /* \"node_modules/@openzeppelin/contracts/token/ERC1155/ERC1155.sol\":6652:6662  amounts[i] */\n      swap1\n      swap2\n      pop\n        /* \"node_modules/@openzeppelin/contracts/token/ERC1155/ERC1155.sol\":6740:6761  fromBalance >= amount */\n      dup2\n      dup2\n      lt\n      iszero\n        /* \"node_modules/@openzeppelin/contracts/token/ERC1155/ERC1155.sol\":6732:6808  require(fromBalance >= amount, \"ERC1155: insufficient balance for transfer\") */\n      tag_233\n      jumpi\n      mload(0x40)\n      shl(0xe5, 0x461bcd)\n      dup2\n      mstore\n      0x04\n      add\n      tag_81\n      swap1\n      tag_235\n      jump\t// in\n    tag_233:\n        /* \"node_modules/@openzeppelin/contracts/token/ERC1155/ERC1155.sol\":6850:6859  _balances */\n      0x00\n        /* \"node_modules/@openzeppelin/contracts/token/ERC1155/ERC1155.sol\":6850:6863  _balances[id] */\n      dup4\n      dup2\n      mstore\n      0x20\n      dup2\n      dup2\n      mstore\n      0x40\n      dup1\n      dup4\n      keccak256\n      sub(shl(0xa0, 0x01), 0x01)\n        /* \"node_modules/@openzeppelin/contracts/token/ERC1155/ERC1155.sol\":6850:6869  _balances[id][from] */\n      dup15\n      dup2\n      and\n      dup6\n      mstore\n      swap3\n      mstore\n      dup1\n      dup4\n      keccak256\n        /* \"node_modules/@openzeppelin/contracts/token/ERC1155/ERC1155.sol\":6872:6892  fromBalance - amount */\n      dup6\n      dup6\n      sub\n        /* \"node_modules/@openzeppelin/contracts/token/ERC1155/ERC1155.sol\":6850:6892  _balances[id][from] = fromBalance - amount */\n      swap1\n      sstore\n        /* \"node_modules/@openzeppelin/contracts/token/ERC1155/ERC1155.sol\":6920:6937  _balances[id][to] */\n      swap1\n      dup12\n      and\n      dup3\n      mstore\n      dup2\n      keccak256\n        /* \"node_modules/@openzeppelin/contracts/token/ERC1155/ERC1155.sol\":6920:6947  _balances[id][to] += amount */\n      dup1\n      sload\n        /* \"node_modules/@openzeppelin/contracts/token/ERC1155/ERC1155.sol\":6872:6892  fromBalance - amount */\n      dup5\n      swap3\n        /* \"node_modules/@openzeppelin/contracts/token/ERC1155/ERC1155.sol\":6850:6859  _balances */\n      swap1\n        /* \"node_modules/@openzeppelin/contracts/token/ERC1155/ERC1155.sol\":6920:6947  _balances[id][to] += amount */\n      tag_236\n      swap1\n        /* \"node_modules/@openzeppelin/contracts/token/ERC1155/ERC1155.sol\":6872:6892  fromBalance - amount */\n      dup5\n      swap1\n        /* \"node_modules/@openzeppelin/contracts/token/ERC1155/ERC1155.sol\":6920:6947  _balances[id][to] += amount */\n      tag_237\n      jump\t// in\n    tag_236:\n      swap3\n      pop\n      pop\n      dup2\n      swap1\n      sstore\n      pop\n        /* \"node_modules/@openzeppelin/contracts/token/ERC1155/ERC1155.sol\":6547:6958  for (uint256 i = 0; i < ids.length; ++i) {... */\n      pop\n      pop\n      pop\n        /* \"node_modules/@openzeppelin/contracts/token/ERC1155/ERC1155.sol\":6583:6586  ++i */\n      dup1\n      tag_238\n      swap1\n      tag_141\n      jump\t// in\n    tag_238:\n      swap1\n      pop\n        /* \"node_modules/@openzeppelin/contracts/token/ERC1155/ERC1155.sol\":6547:6958  for (uint256 i = 0; i < ids.length; ++i) {... */\n      jump(tag_228)\n    tag_229:\n      pop\n        /* \"node_modules/@openzeppelin/contracts/token/ERC1155/ERC1155.sol\":7003:7005  to */\n      dup5\n      sub(shl(0xa0, 0x01), 0x01)\n        /* \"node_modules/@openzeppelin/contracts/token/ERC1155/ERC1155.sol\":6973:7020  TransferBatch(operator, from, to, ids, amounts) */\n      and\n        /* \"node_modules/@openzeppelin/contracts/token/ERC1155/ERC1155.sol\":6997:7001  from */\n      dup7\n      sub(shl(0xa0, 0x01), 0x01)\n        /* \"node_modules/@openzeppelin/contracts/token/ERC1155/ERC1155.sol\":6973:7020  TransferBatch(operator, from, to, ids, amounts) */\n      and\n        /* \"node_modules/@openzeppelin/contracts/token/ERC1155/ERC1155.sol\":6987:6995  operator */\n      dup3\n      sub(shl(0xa0, 0x01), 0x01)\n        /* \"node_modules/@openzeppelin/contracts/token/ERC1155/ERC1155.sol\":6973:7020  TransferBatch(operator, from, to, ids, amounts) */\n      and\n      0x4a39dc06d4c0dbc64b70af90fd698a233a518aa5d07e595d983b8c0526c8f7fb\n        /* \"node_modules/@openzeppelin/contracts/token/ERC1155/ERC1155.sol\":7007:7010  ids */\n      dup8\n        /* \"node_modules/@openzeppelin/contracts/token/ERC1155/ERC1155.sol\":7012:7019  amounts */\n      dup8\n        /* \"node_modules/@openzeppelin/contracts/token/ERC1155/ERC1155.sol\":6973:7020  TransferBatch(operator, from, to, ids, amounts) */\n      mload(0x40)\n      tag_239\n      swap3\n      swap2\n      swap1\n      tag_240\n      jump\t// in\n    tag_239:\n      mload(0x40)\n      dup1\n      swap2\n      sub\n      swap1\n      log4\n        /* \"node_modules/@openzeppelin/contracts/token/ERC1155/ERC1155.sol\":7031:7106  _doSafeBatchTransferAcceptanceCheck(operator, from, to, ids, amounts, data) */\n      tag_241\n        /* \"node_modules/@openzeppelin/contracts/token/ERC1155/ERC1155.sol\":7067:7075  operator */\n      dup2\n        /* \"node_modules/@openzeppelin/contracts/token/ERC1155/ERC1155.sol\":7077:7081  from */\n      dup8\n        /* \"node_modules/@openzeppelin/contracts/token/ERC1155/ERC1155.sol\":7083:7085  to */\n      dup8\n        /* \"node_modules/@openzeppelin/contracts/token/ERC1155/ERC1155.sol\":7087:7090  ids */\n      dup8\n        /* \"node_modules/@openzeppelin/contracts/token/ERC1155/ERC1155.sol\":7092:7099  amounts */\n      dup8\n        /* \"node_modules/@openzeppelin/contracts/token/ERC1155/ERC1155.sol\":7101:7105  data */\n      dup8\n        /* \"node_modules/@openzeppelin/contracts/token/ERC1155/ERC1155.sol\":7031:7066  _doSafeBatchTransferAcceptanceCheck */\n      tag_242\n        /* \"node_modules/@openzeppelin/contracts/token/ERC1155/ERC1155.sol\":7031:7106  _doSafeBatchTransferAcceptanceCheck(operator, from, to, ids, amounts, data) */\n      jump\t// in\n    tag_241:\n        /* \"node_modules/@openzeppelin/contracts/token/ERC1155/ERC1155.sol\":6068:7113  function _safeBatchTransferFrom(... */\n      pop\n      pop\n      pop\n      pop\n      pop\n      pop\n      jump\t// out\n        /* \"node_modules/@openzeppelin/contracts/token/ERC1155/ERC1155.sol\":8395:8948  function _mint(... */\n    tag_114:\n      sub(shl(0xa0, 0x01), 0x01)\n        /* \"node_modules/@openzeppelin/contracts/token/ERC1155/ERC1155.sol\":8542:8558  to != address(0) */\n      dup5\n      and\n        /* \"node_modules/@openzeppelin/contracts/token/ERC1155/ERC1155.sol\":8534:8596  require(to != address(0), \"ERC1155: mint to the zero address\") */\n      tag_246\n      jumpi\n      mload(0x40)\n      shl(0xe5, 0x461bcd)\n      dup2\n      mstore\n        /* \"#utility.yul\":18802:18804   */\n      0x20\n        /* \"node_modules/@openzeppelin/contracts/token/ERC1155/ERC1155.sol\":8534:8596  require(to != address(0), \"ERC1155: mint to the zero address\") */\n      0x04\n      dup3\n      add\n        /* \"#utility.yul\":18784:18805   */\n      mstore\n        /* \"#utility.yul\":18841:18843   */\n      0x21\n        /* \"#utility.yul\":18821:18839   */\n      0x24\n      dup3\n      add\n        /* \"#utility.yul\":18814:18844   */\n      mstore\n        /* \"#utility.yul\":18880:18914   */\n      0x455243313135353a206d696e7420746f20746865207a65726f20616464726573\n        /* \"#utility.yul\":18860:18878   */\n      0x44\n      dup3\n      add\n        /* \"#utility.yul\":18853:18915   */\n      mstore\n      shl(0xf8, 0x73)\n        /* \"#utility.yul\":18931:18949   */\n      0x64\n      dup3\n      add\n        /* \"#utility.yul\":18924:18955   */\n      mstore\n        /* \"#utility.yul\":18972:18991   */\n      0x84\n      add\n        /* \"node_modules/@openzeppelin/contracts/token/ERC1155/ERC1155.sol\":8534:8596  require(to != address(0), \"ERC1155: mint to the zero address\") */\n      tag_81\n        /* \"#utility.yul\":18774:18997   */\n      jump\n        /* \"node_modules/@openzeppelin/contracts/token/ERC1155/ERC1155.sol\":8534:8596  require(to != address(0), \"ERC1155: mint to the zero address\") */\n    tag_246:\n        /* \"node_modules/@openzeppelin/contracts/utils/Context.sol\":719:729  msg.sender */\n      caller\n        /* \"node_modules/@openzeppelin/contracts/token/ERC1155/ERC1155.sol\":8649:8751  _beforeTokenTransfer(operator, address(0), to, _asSingletonArray(id), _asSingletonArray(amount), data) */\n      tag_250\n        /* \"node_modules/@openzeppelin/contracts/utils/Context.sol\":719:729  msg.sender */\n      dup2\n        /* \"node_modules/@openzeppelin/contracts/token/ERC1155/ERC1155.sol\":8607:8623  address operator */\n      0x00\n        /* \"node_modules/@openzeppelin/contracts/token/ERC1155/ERC1155.sol\":8692:8694  to */\n      dup8\n        /* \"node_modules/@openzeppelin/contracts/token/ERC1155/ERC1155.sol\":8696:8717  _asSingletonArray(id) */\n      tag_251\n        /* \"node_modules/@openzeppelin/contracts/token/ERC1155/ERC1155.sol\":8714:8716  id */\n      dup9\n        /* \"node_modules/@openzeppelin/contracts/token/ERC1155/ERC1155.sol\":8696:8713  _asSingletonArray */\n      tag_252\n        /* \"node_modules/@openzeppelin/contracts/token/ERC1155/ERC1155.sol\":8696:8717  _asSingletonArray(id) */\n      jump\t// in\n    tag_251:\n        /* \"node_modules/@openzeppelin/contracts/token/ERC1155/ERC1155.sol\":8719:8744  _asSingletonArray(amount) */\n      tag_104\n        /* \"node_modules/@openzeppelin/contracts/token/ERC1155/ERC1155.sol\":8737:8743  amount */\n      dup9\n        /* \"node_modules/@openzeppelin/contracts/token/ERC1155/ERC1155.sol\":8719:8736  _asSingletonArray */\n      tag_252\n        /* \"node_modules/@openzeppelin/contracts/token/ERC1155/ERC1155.sol\":8719:8744  _asSingletonArray(amount) */\n      jump\t// in\n        /* \"node_modules/@openzeppelin/contracts/token/ERC1155/ERC1155.sol\":8649:8751  _beforeTokenTransfer(operator, address(0), to, _asSingletonArray(id), _asSingletonArray(amount), data) */\n    tag_250:\n        /* \"node_modules/@openzeppelin/contracts/token/ERC1155/ERC1155.sol\":8762:8771  _balances */\n      0x00\n        /* \"node_modules/@openzeppelin/contracts/token/ERC1155/ERC1155.sol\":8762:8775  _balances[id] */\n      dup5\n      dup2\n      mstore\n      0x20\n      dup2\n      dup2\n      mstore\n      0x40\n      dup1\n      dup4\n      keccak256\n      sub(shl(0xa0, 0x01), 0x01)\n        /* \"node_modules/@openzeppelin/contracts/token/ERC1155/ERC1155.sol\":8762:8779  _balances[id][to] */\n      dup10\n      and\n      dup5\n      mstore\n      swap1\n      swap2\n      mstore\n      dup2\n      keccak256\n        /* \"node_modules/@openzeppelin/contracts/token/ERC1155/ERC1155.sol\":8762:8789  _balances[id][to] += amount */\n      dup1\n      sload\n        /* \"node_modules/@openzeppelin/contracts/token/ERC1155/ERC1155.sol\":8783:8789  amount */\n      dup6\n      swap3\n        /* \"node_modules/@openzeppelin/contracts/token/ERC1155/ERC1155.sol\":8762:8771  _balances */\n      swap1\n        /* \"node_modules/@openzeppelin/contracts/token/ERC1155/ERC1155.sol\":8762:8789  _balances[id][to] += amount */\n      tag_254\n      swap1\n        /* \"node_modules/@openzeppelin/contracts/token/ERC1155/ERC1155.sol\":8783:8789  amount */\n      dup5\n      swap1\n        /* \"node_modules/@openzeppelin/contracts/token/ERC1155/ERC1155.sol\":8762:8789  _balances[id][to] += amount */\n      tag_237\n      jump\t// in\n    tag_254:\n      swap1\n      swap2\n      sstore\n      pop\n      pop\n        /* \"node_modules/@openzeppelin/contracts/token/ERC1155/ERC1155.sol\":8804:8856  TransferSingle(operator, address(0), to, id, amount) */\n      0x40\n      dup1\n      mload\n        /* \"#utility.yul\":20844:20869   */\n      dup6\n      dup2\n      mstore\n        /* \"#utility.yul\":20900:20902   */\n      0x20\n        /* \"#utility.yul\":20885:20903   */\n      dup2\n      add\n        /* \"#utility.yul\":20878:20912   */\n      dup6\n      swap1\n      mstore\n      sub(shl(0xa0, 0x01), 0x01)\n        /* \"node_modules/@openzeppelin/contracts/token/ERC1155/ERC1155.sol\":8804:8856  TransferSingle(operator, address(0), to, id, amount) */\n      dup1\n      dup9\n      and\n      swap3\n        /* \"node_modules/@openzeppelin/contracts/token/ERC1155/ERC1155.sol\":8837:8838  0 */\n      0x00\n      swap3\n        /* \"node_modules/@openzeppelin/contracts/token/ERC1155/ERC1155.sol\":8804:8856  TransferSingle(operator, address(0), to, id, amount) */\n      swap2\n      dup6\n      and\n      swap2\n      0xc3d58168c5ae7397731d063d5bbf3d657854427343f4c083240f7aacaa2d0f62\n      swap2\n        /* \"#utility.yul\":20817:20835   */\n      add\n        /* \"node_modules/@openzeppelin/contracts/token/ERC1155/ERC1155.sol\":8804:8856  TransferSingle(operator, address(0), to, id, amount) */\n      mload(0x40)\n      dup1\n      swap2\n      sub\n      swap1\n      log4\n        /* \"node_modules/@openzeppelin/contracts/token/ERC1155/ERC1155.sol\":8867:8941  _doSafeTransferAcceptanceCheck(operator, address(0), to, id, amount, data) */\n      tag_104\n        /* \"node_modules/@openzeppelin/contracts/token/ERC1155/ERC1155.sol\":8898:8906  operator */\n      dup2\n        /* \"node_modules/@openzeppelin/contracts/token/ERC1155/ERC1155.sol\":8916:8917  0 */\n      0x00\n        /* \"node_modules/@openzeppelin/contracts/token/ERC1155/ERC1155.sol\":8920:8922  to */\n      dup8\n        /* \"node_modules/@openzeppelin/contracts/token/ERC1155/ERC1155.sol\":8924:8926  id */\n      dup8\n        /* \"node_modules/@openzeppelin/contracts/token/ERC1155/ERC1155.sol\":8928:8934  amount */\n      dup8\n        /* \"node_modules/@openzeppelin/contracts/token/ERC1155/ERC1155.sol\":8936:8940  data */\n      dup8\n        /* \"node_modules/@openzeppelin/contracts/token/ERC1155/ERC1155.sol\":8867:8897  _doSafeTransferAcceptanceCheck */\n      tag_258\n        /* \"node_modules/@openzeppelin/contracts/token/ERC1155/ERC1155.sol\":8867:8941  _doSafeTransferAcceptanceCheck(operator, address(0), to, id, amount, data) */\n      jump\t// in\n        /* \"node_modules/@openzeppelin/contracts/access/Ownable.sol\":2270:2457  function _transferOwnership(address newOwner) internal virtual {... */\n    tag_150:\n        /* \"node_modules/@openzeppelin/contracts/access/Ownable.sol\":2362:2368  _owner */\n      0x03\n      dup1\n      sload\n      sub(shl(0xa0, 0x01), 0x01)\n        /* \"node_modules/@openzeppelin/contracts/access/Ownable.sol\":2378:2395  _owner = newOwner */\n      dup4\n      dup2\n      and\n      not(sub(shl(0xa0, 0x01), 0x01))\n      dup4\n      and\n      dup2\n      or\n      swap1\n      swap4\n      sstore\n        /* \"node_modules/@openzeppelin/contracts/access/Ownable.sol\":2410:2450  OwnershipTransferred(oldOwner, newOwner) */\n      mload(0x40)\n        /* \"node_modules/@openzeppelin/contracts/access/Ownable.sol\":2362:2368  _owner */\n      swap2\n      and\n      swap2\n        /* \"node_modules/@openzeppelin/contracts/access/Ownable.sol\":2378:2395  _owner = newOwner */\n      swap1\n        /* \"node_modules/@openzeppelin/contracts/access/Ownable.sol\":2362:2368  _owner */\n      dup3\n      swap1\n        /* \"node_modules/@openzeppelin/contracts/access/Ownable.sol\":2410:2450  OwnershipTransferred(oldOwner, newOwner) */\n      0x8be0079c531659141344cd1fd0a4f28419497f9722a3daafe3b4186f6b6457e0\n      swap1\n        /* \"node_modules/@openzeppelin/contracts/access/Ownable.sol\":2343:2359  address oldOwner */\n      0x00\n      swap1\n        /* \"node_modules/@openzeppelin/contracts/access/Ownable.sol\":2410:2450  OwnershipTransferred(oldOwner, newOwner) */\n      log3\n        /* \"node_modules/@openzeppelin/contracts/access/Ownable.sol\":2270:2457  function _transferOwnership(address newOwner) internal virtual {... */\n      pop\n      pop\n      jump\t// out\n        /* \"node_modules/@openzeppelin/contracts/token/ERC1155/ERC1155.sol\":12074:12397  function _setApprovalForAll(... */\n    tag_194:\n        /* \"node_modules/@openzeppelin/contracts/token/ERC1155/ERC1155.sol\":12224:12232  operator */\n      dup2\n      sub(shl(0xa0, 0x01), 0x01)\n        /* \"node_modules/@openzeppelin/contracts/token/ERC1155/ERC1155.sol\":12215:12232  owner != operator */\n      and\n        /* \"node_modules/@openzeppelin/contracts/token/ERC1155/ERC1155.sol\":12215:12220  owner */\n      dup4\n      sub(shl(0xa0, 0x01), 0x01)\n        /* \"node_modules/@openzeppelin/contracts/token/ERC1155/ERC1155.sol\":12215:12232  owner != operator */\n      and\n      eq\n      iszero\n        /* \"node_modules/@openzeppelin/contracts/token/ERC1155/ERC1155.sol\":12207:12278  require(owner != operator, \"ERC1155: setting approval status for self\") */\n      tag_261\n      jumpi\n      mload(0x40)\n      shl(0xe5, 0x461bcd)\n      dup2\n      mstore\n        /* \"#utility.yul\":17573:17575   */\n      0x20\n        /* \"node_modules/@openzeppelin/contracts/token/ERC1155/ERC1155.sol\":12207:12278  require(owner != operator, \"ERC1155: setting approval status for self\") */\n      0x04\n      dup3\n      add\n        /* \"#utility.yul\":17555:17576   */\n      mstore\n        /* \"#utility.yul\":17612:17614   */\n      0x29\n        /* \"#utility.yul\":17592:17610   */\n      0x24\n      dup3\n      add\n        /* \"#utility.yul\":17585:17615   */\n      mstore\n        /* \"#utility.yul\":17651:17685   */\n      0x455243313135353a2073657474696e6720617070726f76616c20737461747573\n        /* \"#utility.yul\":17631:17649   */\n      0x44\n      dup3\n      add\n        /* \"#utility.yul\":17624:17686   */\n      mstore\n      shl(0xb9, 0x103337b91039b2b633)\n        /* \"#utility.yul\":17702:17720   */\n      0x64\n      dup3\n      add\n        /* \"#utility.yul\":17695:17734   */\n      mstore\n        /* \"#utility.yul\":17751:17770   */\n      0x84\n      add\n        /* \"node_modules/@openzeppelin/contracts/token/ERC1155/ERC1155.sol\":12207:12278  require(owner != operator, \"ERC1155: setting approval status for self\") */\n      tag_81\n        /* \"#utility.yul\":17545:17776   */\n      jump\n        /* \"node_modules/@openzeppelin/contracts/token/ERC1155/ERC1155.sol\":12207:12278  require(owner != operator, \"ERC1155: setting approval status for self\") */\n    tag_261:\n      sub(shl(0xa0, 0x01), 0x01)\n        /* \"node_modules/@openzeppelin/contracts/token/ERC1155/ERC1155.sol\":12288:12313  _operatorApprovals[owner] */\n      dup4\n      dup2\n      and\n      0x00\n      dup2\n      dup2\n      mstore\n        /* \"node_modules/@openzeppelin/contracts/token/ERC1155/ERC1155.sol\":12288:12306  _operatorApprovals */\n      0x01\n        /* \"node_modules/@openzeppelin/contracts/token/ERC1155/ERC1155.sol\":12288:12313  _operatorApprovals[owner] */\n      0x20\n      swap1\n      dup2\n      mstore\n      0x40\n      dup1\n      dup4\n      keccak256\n        /* \"node_modules/@openzeppelin/contracts/token/ERC1155/ERC1155.sol\":12288:12323  _operatorApprovals[owner][operator] */\n      swap5\n      dup8\n      and\n      dup1\n      dup5\n      mstore\n      swap5\n      dup3\n      mstore\n      swap2\n      dup3\n      swap1\n      keccak256\n        /* \"node_modules/@openzeppelin/contracts/token/ERC1155/ERC1155.sol\":12288:12334  _operatorApprovals[owner][operator] = approved */\n      dup1\n      sload\n      not(0xff)\n      and\n      dup7\n      iszero\n      iszero\n      swap1\n      dup2\n      or\n      swap1\n      swap2\n      sstore\n        /* \"node_modules/@openzeppelin/contracts/token/ERC1155/ERC1155.sol\":12349:12390  ApprovalForAll(owner, operator, approved) */\n      swap2\n      mload\n        /* \"#utility.yul\":13439:13480   */\n      swap2\n      dup3\n      mstore\n        /* \"node_modules/@openzeppelin/contracts/token/ERC1155/ERC1155.sol\":12349:12390  ApprovalForAll(owner, operator, approved) */\n      0x17307eab39ab6107e8899845ad3d59bd9653f200f220920489ca2b5937696c31\n      swap2\n        /* \"#utility.yul\":13412:13430   */\n      add\n        /* \"node_modules/@openzeppelin/contracts/token/ERC1155/ERC1155.sol\":12349:12390  ApprovalForAll(owner, operator, approved) */\n      mload(0x40)\n      dup1\n      swap2\n      sub\n      swap1\n      log3\n        /* \"node_modules/@openzeppelin/contracts/token/ERC1155/ERC1155.sol\":12074:12397  function _setApprovalForAll(... */\n      pop\n      pop\n      pop\n      jump\t// out\n        /* \"node_modules/@openzeppelin/contracts/token/ERC1155/ERC1155.sol\":4925:5722  function _safeTransferFrom(... */\n    tag_205:\n      sub(shl(0xa0, 0x01), 0x01)\n        /* \"node_modules/@openzeppelin/contracts/token/ERC1155/ERC1155.sol\":5106:5122  to != address(0) */\n      dup5\n      and\n        /* \"node_modules/@openzeppelin/contracts/token/ERC1155/ERC1155.sol\":5098:5164  require(to != address(0), \"ERC1155: transfer to the zero address\") */\n      tag_266\n      jumpi\n      mload(0x40)\n      shl(0xe5, 0x461bcd)\n      dup2\n      mstore\n      0x04\n      add\n      tag_81\n      swap1\n      tag_224\n      jump\t// in\n    tag_266:\n        /* \"node_modules/@openzeppelin/contracts/utils/Context.sol\":719:729  msg.sender */\n      caller\n        /* \"node_modules/@openzeppelin/contracts/token/ERC1155/ERC1155.sol\":5217:5313  _beforeTokenTransfer(operator, from, to, _asSingletonArray(id), _asSingletonArray(amount), data) */\n      tag_269\n        /* \"node_modules/@openzeppelin/contracts/utils/Context.sol\":719:729  msg.sender */\n      dup2\n        /* \"node_modules/@openzeppelin/contracts/token/ERC1155/ERC1155.sol\":5248:5252  from */\n      dup8\n        /* \"node_modules/@openzeppelin/contracts/token/ERC1155/ERC1155.sol\":5254:5256  to */\n      dup8\n        /* \"node_modules/@openzeppelin/contracts/token/ERC1155/ERC1155.sol\":5258:5279  _asSingletonArray(id) */\n      tag_251\n        /* \"node_modules/@openzeppelin/contracts/token/ERC1155/ERC1155.sol\":5276:5278  id */\n      dup9\n        /* \"node_modules/@openzeppelin/contracts/token/ERC1155/ERC1155.sol\":5258:5275  _asSingletonArray */\n      tag_252\n        /* \"node_modules/@openzeppelin/contracts/token/ERC1155/ERC1155.sol\":5258:5279  _asSingletonArray(id) */\n      jump\t// in\n        /* \"node_modules/@openzeppelin/contracts/token/ERC1155/ERC1155.sol\":5217:5313  _beforeTokenTransfer(operator, from, to, _asSingletonArray(id), _asSingletonArray(amount), data) */\n    tag_269:\n        /* \"node_modules/@openzeppelin/contracts/token/ERC1155/ERC1155.sol\":5324:5343  uint256 fromBalance */\n      0x00\n        /* \"node_modules/@openzeppelin/contracts/token/ERC1155/ERC1155.sol\":5346:5359  _balances[id] */\n      dup5\n      dup2\n      mstore\n      0x20\n      dup2\n      dup2\n      mstore\n      0x40\n      dup1\n      dup4\n      keccak256\n      sub(shl(0xa0, 0x01), 0x01)\n        /* \"node_modules/@openzeppelin/contracts/token/ERC1155/ERC1155.sol\":5346:5365  _balances[id][from] */\n      dup11\n      and\n      dup5\n      mstore\n      swap1\n      swap2\n      mstore\n      swap1\n      keccak256\n      sload\n        /* \"node_modules/@openzeppelin/contracts/token/ERC1155/ERC1155.sol\":5383:5404  fromBalance >= amount */\n      dup4\n      dup2\n      lt\n      iszero\n        /* \"node_modules/@openzeppelin/contracts/token/ERC1155/ERC1155.sol\":5375:5451  require(fromBalance >= amount, \"ERC1155: insufficient balance for transfer\") */\n      tag_272\n      jumpi\n      mload(0x40)\n      shl(0xe5, 0x461bcd)\n      dup2\n      mstore\n      0x04\n      add\n      tag_81\n      swap1\n      tag_235\n      jump\t// in\n    tag_272:\n        /* \"node_modules/@openzeppelin/contracts/token/ERC1155/ERC1155.sol\":5485:5494  _balances */\n      0x00\n        /* \"node_modules/@openzeppelin/contracts/token/ERC1155/ERC1155.sol\":5485:5498  _balances[id] */\n      dup6\n      dup2\n      mstore\n      0x20\n      dup2\n      dup2\n      mstore\n      0x40\n      dup1\n      dup4\n      keccak256\n      sub(shl(0xa0, 0x01), 0x01)\n        /* \"node_modules/@openzeppelin/contracts/token/ERC1155/ERC1155.sol\":5485:5504  _balances[id][from] */\n      dup12\n      dup2\n      and\n      dup6\n      mstore\n      swap3\n      mstore\n      dup1\n      dup4\n      keccak256\n        /* \"node_modules/@openzeppelin/contracts/token/ERC1155/ERC1155.sol\":5507:5527  fromBalance - amount */\n      dup8\n      dup6\n      sub\n        /* \"node_modules/@openzeppelin/contracts/token/ERC1155/ERC1155.sol\":5485:5527  _balances[id][from] = fromBalance - amount */\n      swap1\n      sstore\n        /* \"node_modules/@openzeppelin/contracts/token/ERC1155/ERC1155.sol\":5547:5564  _balances[id][to] */\n      swap1\n      dup9\n      and\n      dup3\n      mstore\n      dup2\n      keccak256\n        /* \"node_modules/@openzeppelin/contracts/token/ERC1155/ERC1155.sol\":5547:5574  _balances[id][to] += amount */\n      dup1\n      sload\n        /* \"node_modules/@openzeppelin/contracts/token/ERC1155/ERC1155.sol\":5507:5527  fromBalance - amount */\n      dup7\n      swap3\n        /* \"node_modules/@openzeppelin/contracts/token/ERC1155/ERC1155.sol\":5485:5494  _balances */\n      swap1\n        /* \"node_modules/@openzeppelin/contracts/token/ERC1155/ERC1155.sol\":5547:5574  _balances[id][to] += amount */\n      tag_274\n      swap1\n        /* \"node_modules/@openzeppelin/contracts/token/ERC1155/ERC1155.sol\":5507:5527  fromBalance - amount */\n      dup5\n      swap1\n        /* \"node_modules/@openzeppelin/contracts/token/ERC1155/ERC1155.sol\":5547:5574  _balances[id][to] += amount */\n      tag_237\n      jump\t// in\n    tag_274:\n      swap1\n      swap2\n      sstore\n      pop\n      pop\n        /* \"node_modules/@openzeppelin/contracts/token/ERC1155/ERC1155.sol\":5590:5636  TransferSingle(operator, from, to, id, amount) */\n      0x40\n      dup1\n      mload\n        /* \"#utility.yul\":20844:20869   */\n      dup7\n      dup2\n      mstore\n        /* \"#utility.yul\":20900:20902   */\n      0x20\n        /* \"#utility.yul\":20885:20903   */\n      dup2\n      add\n        /* \"#utility.yul\":20878:20912   */\n      dup7\n      swap1\n      mstore\n      sub(shl(0xa0, 0x01), 0x01)\n        /* \"node_modules/@openzeppelin/contracts/token/ERC1155/ERC1155.sol\":5590:5636  TransferSingle(operator, from, to, id, amount) */\n      dup1\n      dup10\n      and\n      swap3\n      dup11\n      dup3\n      and\n      swap3\n      swap2\n      dup7\n      and\n      swap2\n      0xc3d58168c5ae7397731d063d5bbf3d657854427343f4c083240f7aacaa2d0f62\n      swap2\n        /* \"#utility.yul\":20817:20835   */\n      add\n        /* \"node_modules/@openzeppelin/contracts/token/ERC1155/ERC1155.sol\":5590:5636  TransferSingle(operator, from, to, id, amount) */\n      mload(0x40)\n      dup1\n      swap2\n      sub\n      swap1\n      log4\n        /* \"node_modules/@openzeppelin/contracts/token/ERC1155/ERC1155.sol\":5647:5715  _doSafeTransferAcceptanceCheck(operator, from, to, id, amount, data) */\n      tag_126\n        /* \"node_modules/@openzeppelin/contracts/token/ERC1155/ERC1155.sol\":5678:5686  operator */\n      dup3\n        /* \"node_modules/@openzeppelin/contracts/token/ERC1155/ERC1155.sol\":5688:5692  from */\n      dup9\n        /* \"node_modules/@openzeppelin/contracts/token/ERC1155/ERC1155.sol\":5694:5696  to */\n      dup9\n        /* \"node_modules/@openzeppelin/contracts/token/ERC1155/ERC1155.sol\":5698:5700  id */\n      dup9\n        /* \"node_modules/@openzeppelin/contracts/token/ERC1155/ERC1155.sol\":5702:5708  amount */\n      dup9\n        /* \"node_modules/@openzeppelin/contracts/token/ERC1155/ERC1155.sol\":5710:5714  data */\n      dup9\n        /* \"node_modules/@openzeppelin/contracts/token/ERC1155/ERC1155.sol\":5647:5677  _doSafeTransferAcceptanceCheck */\n      tag_258\n        /* \"node_modules/@openzeppelin/contracts/token/ERC1155/ERC1155.sol\":5647:5715  _doSafeTransferAcceptanceCheck(operator, from, to, id, amount, data) */\n      jump\t// in\n        /* \"node_modules/@openzeppelin/contracts/token/ERC1155/ERC1155.sol\":14282:15074  function _doSafeBatchTransferAcceptanceCheck(... */\n    tag_242:\n      sub(shl(0xa0, 0x01), 0x01)\n        /* \"node_modules/@openzeppelin/contracts/token/ERC1155/ERC1155.sol\":14514:14527  to.isContract */\n      dup5\n      and\n        /* \"node_modules/@openzeppelin/contracts/utils/Address.sol\":1087:1107  extcodesize(account) */\n      extcodesize\n        /* \"node_modules/@openzeppelin/contracts/utils/Address.sol\":1133:1141  size > 0 */\n      iszero\n        /* \"node_modules/@openzeppelin/contracts/token/ERC1155/ERC1155.sol\":14510:15068  if (to.isContract()) {... */\n      tag_241\n      jumpi\n        /* \"node_modules/@openzeppelin/contracts/token/ERC1155/ERC1155.sol\":14549:14628  IERC1155Receiver(to).onERC1155BatchReceived(operator, from, ids, amounts, data) */\n      mload(0x40)\n      shl(0xe0, 0xbc197c81)\n      dup2\n      mstore\n      sub(shl(0xa0, 0x01), 0x01)\n        /* \"node_modules/@openzeppelin/contracts/token/ERC1155/ERC1155.sol\":14549:14592  IERC1155Receiver(to).onERC1155BatchReceived */\n      dup6\n      and\n      swap1\n      0xbc197c81\n      swap1\n        /* \"node_modules/@openzeppelin/contracts/token/ERC1155/ERC1155.sol\":14549:14628  IERC1155Receiver(to).onERC1155BatchReceived(operator, from, ids, amounts, data) */\n      tag_282\n      swap1\n        /* \"node_modules/@openzeppelin/contracts/token/ERC1155/ERC1155.sol\":14593:14601  operator */\n      dup10\n      swap1\n        /* \"node_modules/@openzeppelin/contracts/token/ERC1155/ERC1155.sol\":14603:14607  from */\n      dup10\n      swap1\n        /* \"node_modules/@openzeppelin/contracts/token/ERC1155/ERC1155.sol\":14609:14612  ids */\n      dup9\n      swap1\n        /* \"node_modules/@openzeppelin/contracts/token/ERC1155/ERC1155.sol\":14614:14621  amounts */\n      dup9\n      swap1\n        /* \"node_modules/@openzeppelin/contracts/token/ERC1155/ERC1155.sol\":14623:14627  data */\n      dup9\n      swap1\n        /* \"node_modules/@openzeppelin/contracts/token/ERC1155/ERC1155.sol\":14549:14628  IERC1155Receiver(to).onERC1155BatchReceived(operator, from, ids, amounts, data) */\n      0x04\n      add\n      tag_283\n      jump\t// in\n    tag_282:\n      0x20\n      mload(0x40)\n      dup1\n      dup4\n      sub\n      dup2\n      0x00\n      dup8\n      dup1\n      extcodesize\n      iszero\n      dup1\n      iszero\n      tag_284\n      jumpi\n      0x00\n      dup1\n      revert\n    tag_284:\n      pop\n      gas\n      call\n      swap3\n      pop\n      pop\n      pop\n      dup1\n      iszero\n      tag_285\n      jumpi\n      pop\n      0x40\n      dup1\n      mload\n      0x1f\n      returndatasize\n      swap1\n      dup2\n      add\n      not(0x1f)\n      and\n      dup3\n      add\n      swap1\n      swap3\n      mstore\n      tag_286\n      swap2\n      dup2\n      add\n      swap1\n      tag_287\n      jump\t// in\n    tag_286:\n      0x01\n    tag_285:\n        /* \"node_modules/@openzeppelin/contracts/token/ERC1155/ERC1155.sol\":14545:15058  try IERC1155Receiver(to).onERC1155BatchReceived(operator, from, ids, amounts, data) returns (... */\n      tag_288\n      jumpi\n      tag_292\n      tag_293\n      jump\t// in\n    tag_292:\n      dup1\n      0x08c379a0\n      eq\n      iszero\n      tag_291\n      jumpi\n      pop\n      tag_294\n      tag_295\n      jump\t// in\n    tag_294:\n      dup1\n      tag_296\n      jumpi\n      pop\n      jump(tag_290)\n    tag_296:\n        /* \"node_modules/@openzeppelin/contracts/token/ERC1155/ERC1155.sol\":14934:14940  reason */\n      dup1\n        /* \"node_modules/@openzeppelin/contracts/token/ERC1155/ERC1155.sol\":14927:14941  revert(reason) */\n      mload(0x40)\n      shl(0xe5, 0x461bcd)\n      dup2\n      mstore\n      0x04\n      add\n      tag_81\n      swap2\n      swap1\n      tag_35\n      jump\t// in\n        /* \"node_modules/@openzeppelin/contracts/token/ERC1155/ERC1155.sol\":14545:15058  try IERC1155Receiver(to).onERC1155BatchReceived(operator, from, ids, amounts, data) returns (... */\n    tag_291:\n      pop\n    tag_290:\n        /* \"node_modules/@openzeppelin/contracts/token/ERC1155/ERC1155.sol\":14981:15043  revert(\"ERC1155: transfer to non ERC1155Receiver implementer\") */\n      mload(0x40)\n      shl(0xe5, 0x461bcd)\n      dup2\n      mstore\n        /* \"#utility.yul\":13917:13919   */\n      0x20\n        /* \"node_modules/@openzeppelin/contracts/token/ERC1155/ERC1155.sol\":14981:15043  revert(\"ERC1155: transfer to non ERC1155Receiver implementer\") */\n      0x04\n      dup3\n      add\n        /* \"#utility.yul\":13899:13920   */\n      mstore\n        /* \"#utility.yul\":13956:13958   */\n      0x34\n        /* \"#utility.yul\":13936:13954   */\n      0x24\n      dup3\n      add\n        /* \"#utility.yul\":13929:13959   */\n      mstore\n        /* \"#utility.yul\":13995:14029   */\n      0x455243313135353a207472616e7366657220746f206e6f6e2045524331313535\n        /* \"#utility.yul\":13975:13993   */\n      0x44\n      dup3\n      add\n        /* \"#utility.yul\":13968:14030   */\n      mstore\n      shl(0x61, 0x2932b1b2b4bb32b91034b6b83632b6b2b73a32b9)\n        /* \"#utility.yul\":14046:14064   */\n      0x64\n      dup3\n      add\n        /* \"#utility.yul\":14039:14089   */\n      mstore\n        /* \"#utility.yul\":14106:14125   */\n      0x84\n      add\n        /* \"node_modules/@openzeppelin/contracts/token/ERC1155/ERC1155.sol\":14981:15043  revert(\"ERC1155: transfer to non ERC1155Receiver implementer\") */\n      tag_81\n        /* \"#utility.yul\":13889:14131   */\n      jump\n        /* \"node_modules/@openzeppelin/contracts/token/ERC1155/ERC1155.sol\":14545:15058  try IERC1155Receiver(to).onERC1155BatchReceived(operator, from, ids, amounts, data) returns (... */\n    tag_288:\n      not(sub(shl(0xe0, 0x01), 0x01))\n        /* \"node_modules/@openzeppelin/contracts/token/ERC1155/ERC1155.sol\":14707:14767  response != IERC1155Receiver.onERC1155BatchReceived.selector */\n      dup2\n      and\n      shl(0xe0, 0xbc197c81)\n      eq\n        /* \"node_modules/@openzeppelin/contracts/token/ERC1155/ERC1155.sol\":14703:14860  if (response != IERC1155Receiver.onERC1155BatchReceived.selector) {... */\n      tag_126\n      jumpi\n        /* \"node_modules/@openzeppelin/contracts/token/ERC1155/ERC1155.sol\":14791:14841  revert(\"ERC1155: ERC1155Receiver rejected tokens\") */\n      mload(0x40)\n      shl(0xe5, 0x461bcd)\n      dup2\n      mstore\n      0x04\n      add\n      tag_81\n      swap1\n      tag_303\n      jump\t// in\n        /* \"node_modules/@openzeppelin/contracts/token/ERC1155/ERC1155.sol\":15080:15273  function _asSingletonArray(uint256 element) private pure returns (uint256[] memory) {... */\n    tag_252:\n        /* \"node_modules/@openzeppelin/contracts/token/ERC1155/ERC1155.sol\":15199:15215  new uint256[](1) */\n      0x40\n      dup1\n      mload\n        /* \"node_modules/@openzeppelin/contracts/token/ERC1155/ERC1155.sol\":15213:15214  1 */\n      0x01\n        /* \"node_modules/@openzeppelin/contracts/token/ERC1155/ERC1155.sol\":15199:15215  new uint256[](1) */\n      dup1\n      dup3\n      mstore\n      dup2\n      dup4\n      add\n      swap1\n      swap3\n      mstore\n        /* \"node_modules/@openzeppelin/contracts/token/ERC1155/ERC1155.sol\":15146:15162  uint256[] memory */\n      0x60\n      swap2\n        /* \"node_modules/@openzeppelin/contracts/token/ERC1155/ERC1155.sol\":15174:15196  uint256[] memory array */\n      0x00\n      swap2\n        /* \"node_modules/@openzeppelin/contracts/token/ERC1155/ERC1155.sol\":15199:15215  new uint256[](1) */\n      swap1\n      0x20\n      dup1\n      dup4\n      add\n      swap1\n      dup1\n      calldatasize\n      dup4\n      calldatacopy\n      add\n      swap1\n      pop\n      pop\n        /* \"node_modules/@openzeppelin/contracts/token/ERC1155/ERC1155.sol\":15174:15215  uint256[] memory array = new uint256[](1) */\n      swap1\n      pop\n        /* \"node_modules/@openzeppelin/contracts/token/ERC1155/ERC1155.sol\":15236:15243  element */\n      dup3\n        /* \"node_modules/@openzeppelin/contracts/token/ERC1155/ERC1155.sol\":15225:15230  array */\n      dup2\n        /* \"node_modules/@openzeppelin/contracts/token/ERC1155/ERC1155.sol\":15231:15232  0 */\n      0x00\n        /* \"node_modules/@openzeppelin/contracts/token/ERC1155/ERC1155.sol\":15225:15233  array[0] */\n      dup2\n      mload\n      dup2\n      lt\n      tag_307\n      jumpi\n      mstore(0x00, shl(0xe0, 0x4e487b71))\n      mstore(0x04, 0x32)\n      revert(0x00, 0x24)\n    tag_307:\n      0x20\n      swap1\n      dup2\n      mul\n      swap2\n      swap1\n      swap2\n      add\n      add\n        /* \"node_modules/@openzeppelin/contracts/token/ERC1155/ERC1155.sol\":15225:15243  array[0] = element */\n      mstore\n        /* \"node_modules/@openzeppelin/contracts/token/ERC1155/ERC1155.sol\":15261:15266  array */\n      swap3\n        /* \"node_modules/@openzeppelin/contracts/token/ERC1155/ERC1155.sol\":15080:15273  function _asSingletonArray(uint256 element) private pure returns (uint256[] memory) {... */\n      swap2\n      pop\n      pop\n      jump\t// out\n        /* \"node_modules/@openzeppelin/contracts/token/ERC1155/ERC1155.sol\":13551:14276  function _doSafeTransferAcceptanceCheck(... */\n    tag_258:\n      sub(shl(0xa0, 0x01), 0x01)\n        /* \"node_modules/@openzeppelin/contracts/token/ERC1155/ERC1155.sol\":13758:13771  to.isContract */\n      dup5\n      and\n        /* \"node_modules/@openzeppelin/contracts/utils/Address.sol\":1087:1107  extcodesize(account) */\n      extcodesize\n        /* \"node_modules/@openzeppelin/contracts/utils/Address.sol\":1133:1141  size > 0 */\n      iszero\n        /* \"node_modules/@openzeppelin/contracts/token/ERC1155/ERC1155.sol\":13754:14270  if (to.isContract()) {... */\n      tag_241\n      jumpi\n        /* \"node_modules/@openzeppelin/contracts/token/ERC1155/ERC1155.sol\":13793:13865  IERC1155Receiver(to).onERC1155Received(operator, from, id, amount, data) */\n      mload(0x40)\n      shl(0xe0, 0xf23a6e61)\n      dup2\n      mstore\n      sub(shl(0xa0, 0x01), 0x01)\n        /* \"node_modules/@openzeppelin/contracts/token/ERC1155/ERC1155.sol\":13793:13831  IERC1155Receiver(to).onERC1155Received */\n      dup6\n      and\n      swap1\n      0xf23a6e61\n      swap1\n        /* \"node_modules/@openzeppelin/contracts/token/ERC1155/ERC1155.sol\":13793:13865  IERC1155Receiver(to).onERC1155Received(operator, from, id, amount, data) */\n      tag_311\n      swap1\n        /* \"node_modules/@openzeppelin/contracts/token/ERC1155/ERC1155.sol\":13832:13840  operator */\n      dup10\n      swap1\n        /* \"node_modules/@openzeppelin/contracts/token/ERC1155/ERC1155.sol\":13842:13846  from */\n      dup10\n      swap1\n        /* \"node_modules/@openzeppelin/contracts/token/ERC1155/ERC1155.sol\":13848:13850  id */\n      dup9\n      swap1\n        /* \"node_modules/@openzeppelin/contracts/token/ERC1155/ERC1155.sol\":13852:13858  amount */\n      dup9\n      swap1\n        /* \"node_modules/@openzeppelin/contracts/token/ERC1155/ERC1155.sol\":13860:13864  data */\n      dup9\n      swap1\n        /* \"node_modules/@openzeppelin/contracts/token/ERC1155/ERC1155.sol\":13793:13865  IERC1155Receiver(to).onERC1155Received(operator, from, id, amount, data) */\n      0x04\n      add\n      tag_312\n      jump\t// in\n    tag_311:\n      0x20\n      mload(0x40)\n      dup1\n      dup4\n      sub\n      dup2\n      0x00\n      dup8\n      dup1\n      extcodesize\n      iszero\n      dup1\n      iszero\n      tag_313\n      jumpi\n      0x00\n      dup1\n      revert\n    tag_313:\n      pop\n      gas\n      call\n      swap3\n      pop\n      pop\n      pop\n      dup1\n      iszero\n      tag_314\n      jumpi\n      pop\n      0x40\n      dup1\n      mload\n      0x1f\n      returndatasize\n      swap1\n      dup2\n      add\n      not(0x1f)\n      and\n      dup3\n      add\n      swap1\n      swap3\n      mstore\n      tag_315\n      swap2\n      dup2\n      add\n      swap1\n      tag_287\n      jump\t// in\n    tag_315:\n      0x01\n    tag_314:\n        /* \"node_modules/@openzeppelin/contracts/token/ERC1155/ERC1155.sol\":13789:14260  try IERC1155Receiver(to).onERC1155Received(operator, from, id, amount, data) returns (bytes4 response) {... */\n      tag_316\n      jumpi\n      tag_292\n      tag_293\n      jump\t// in\n    tag_316:\n      not(sub(shl(0xe0, 0x01), 0x01))\n        /* \"node_modules/@openzeppelin/contracts/token/ERC1155/ERC1155.sol\":13914:13969  response != IERC1155Receiver.onERC1155Received.selector */\n      dup2\n      and\n      shl(0xe0, 0xf23a6e61)\n      eq\n        /* \"node_modules/@openzeppelin/contracts/token/ERC1155/ERC1155.sol\":13910:14062  if (response != IERC1155Receiver.onERC1155Received.selector) {... */\n      tag_126\n      jumpi\n        /* \"node_modules/@openzeppelin/contracts/token/ERC1155/ERC1155.sol\":13993:14043  revert(\"ERC1155: ERC1155Receiver rejected tokens\") */\n      mload(0x40)\n      shl(0xe5, 0x461bcd)\n      dup2\n      mstore\n      0x04\n      add\n      tag_81\n      swap1\n      tag_303\n      jump\t// in\n    tag_118:\n      dup3\n      dup1\n      sload\n      tag_329\n      swap1\n      tag_90\n      jump\t// in\n    tag_329:\n      swap1\n      0x00\n      mstore\n      keccak256(0x00, 0x20)\n      swap1\n      0x1f\n      add\n      0x20\n      swap1\n      div\n      dup2\n      add\n      swap3\n      dup3\n      tag_331\n      jumpi\n      0x00\n      dup6\n      sstore\n      jump(tag_334)\n    tag_331:\n      dup3\n      0x1f\n      lt\n      tag_332\n      jumpi\n      dup1\n      mload\n      not(0xff)\n      and\n      dup4\n      dup1\n      add\n      or\n      dup6\n      sstore\n      jump(tag_334)\n    tag_332:\n      dup3\n      dup1\n      add\n      0x01\n      add\n      dup6\n      sstore\n      dup3\n      iszero\n      tag_334\n      jumpi\n      swap2\n      dup3\n      add\n    tag_333:\n      dup3\n      dup2\n      gt\n      iszero\n      tag_334\n      jumpi\n      dup3\n      mload\n      dup3\n      sstore\n      swap2\n      0x20\n      add\n      swap2\n      swap1\n      0x01\n      add\n      swap1\n      jump(tag_333)\n    tag_334:\n      pop\n      tag_335\n      swap3\n      swap2\n      pop\n      tag_336\n      jump\t// in\n    tag_335:\n      pop\n      swap1\n      jump\t// out\n    tag_336:\n    tag_337:\n      dup1\n      dup3\n      gt\n      iszero\n      tag_335\n      jumpi\n      0x00\n      dup2\n      sstore\n      0x01\n      add\n      jump(tag_337)\n        /* \"#utility.yul\":14:187   */\n    tag_340:\n        /* \"#utility.yul\":82:102   */\n      dup1\n      calldataload\n      sub(shl(0xa0, 0x01), 0x01)\n        /* \"#utility.yul\":131:162   */\n      dup2\n      and\n        /* \"#utility.yul\":121:163   */\n      dup2\n      eq\n        /* \"#utility.yul\":111:113   */\n      tag_342\n      jumpi\n        /* \"#utility.yul\":177:178   */\n      0x00\n        /* \"#utility.yul\":174:175   */\n      dup1\n        /* \"#utility.yul\":167:179   */\n      revert\n        /* \"#utility.yul\":111:113   */\n    tag_342:\n        /* \"#utility.yul\":63:187   */\n      swap2\n      swap1\n      pop\n      jump\t// out\n        /* \"#utility.yul\":192:947   */\n    tag_343:\n        /* \"#utility.yul\":246:251   */\n      0x00\n        /* \"#utility.yul\":299:302   */\n      dup3\n        /* \"#utility.yul\":292:296   */\n      0x1f\n        /* \"#utility.yul\":284:290   */\n      dup4\n        /* \"#utility.yul\":280:297   */\n      add\n        /* \"#utility.yul\":276:303   */\n      slt\n        /* \"#utility.yul\":266:268   */\n      tag_345\n      jumpi\n        /* \"#utility.yul\":321:326   */\n      dup1\n        /* \"#utility.yul\":314:319   */\n      dup2\n        /* \"#utility.yul\":307:327   */\n      revert\n        /* \"#utility.yul\":266:268   */\n    tag_345:\n        /* \"#utility.yul\":361:367   */\n      dup2\n        /* \"#utility.yul\":348:368   */\n      calldataload\n        /* \"#utility.yul\":387:391   */\n      0x20\n        /* \"#utility.yul\":410:453   */\n      tag_346\n        /* \"#utility.yul\":450:452   */\n      dup3\n        /* \"#utility.yul\":410:453   */\n      tag_347\n      jump\t// in\n    tag_346:\n        /* \"#utility.yul\":482:484   */\n      0x40\n        /* \"#utility.yul\":476:485   */\n      mload\n        /* \"#utility.yul\":494:525   */\n      tag_348\n        /* \"#utility.yul\":522:524   */\n      dup3\n        /* \"#utility.yul\":514:520   */\n      dup3\n        /* \"#utility.yul\":494:525   */\n      tag_349\n      jump\t// in\n    tag_348:\n        /* \"#utility.yul\":560:578   */\n      dup4\n      dup2\n      mstore\n        /* \"#utility.yul\":594:609   */\n      dup3\n      dup2\n      add\n      swap2\n      pop\n        /* \"#utility.yul\":629:644   */\n      dup6\n      dup4\n      add\n        /* \"#utility.yul\":679:680   */\n      0x05\n        /* \"#utility.yul\":675:685   */\n      dup6\n      swap1\n      shl\n        /* \"#utility.yul\":663:686   */\n      dup8\n      add\n        /* \"#utility.yul\":659:691   */\n      dup5\n      add\n        /* \"#utility.yul\":656:697   */\n      dup9\n      lt\n        /* \"#utility.yul\":653:655   */\n      iszero\n      tag_350\n      jumpi\n        /* \"#utility.yul\":714:719   */\n      dup6\n        /* \"#utility.yul\":707:712   */\n      dup7\n        /* \"#utility.yul\":700:720   */\n      revert\n        /* \"#utility.yul\":653:655   */\n    tag_350:\n        /* \"#utility.yul\":740:745   */\n      dup6\n        /* \"#utility.yul\":754:917   */\n    tag_351:\n        /* \"#utility.yul\":768:770   */\n      dup6\n        /* \"#utility.yul\":765:766   */\n      dup2\n        /* \"#utility.yul\":762:771   */\n      lt\n        /* \"#utility.yul\":754:917   */\n      iszero\n      tag_353\n      jumpi\n        /* \"#utility.yul\":825:842   */\n      dup2\n      calldataload\n        /* \"#utility.yul\":813:843   */\n      dup5\n      mstore\n        /* \"#utility.yul\":863:875   */\n      swap3\n      dup5\n      add\n      swap3\n        /* \"#utility.yul\":895:907   */\n      swap1\n      dup5\n      add\n      swap1\n        /* \"#utility.yul\":786:787   */\n      0x01\n        /* \"#utility.yul\":779:788   */\n      add\n        /* \"#utility.yul\":754:917   */\n      jump(tag_351)\n    tag_353:\n      pop\n        /* \"#utility.yul\":935:941   */\n      swap1\n      swap8\n        /* \"#utility.yul\":256:947   */\n      swap7\n      pop\n      pop\n      pop\n      pop\n      pop\n      pop\n      pop\n      jump\t// out\n        /* \"#utility.yul\":952:1527   */\n    tag_354:\n        /* \"#utility.yul\":994:999   */\n      0x00\n        /* \"#utility.yul\":1047:1050   */\n      dup3\n        /* \"#utility.yul\":1040:1044   */\n      0x1f\n        /* \"#utility.yul\":1032:1038   */\n      dup4\n        /* \"#utility.yul\":1028:1045   */\n      add\n        /* \"#utility.yul\":1024:1051   */\n      slt\n        /* \"#utility.yul\":1014:1016   */\n      tag_356\n      jumpi\n        /* \"#utility.yul\":1069:1074   */\n      dup1\n        /* \"#utility.yul\":1062:1067   */\n      dup2\n        /* \"#utility.yul\":1055:1075   */\n      revert\n        /* \"#utility.yul\":1014:1016   */\n    tag_356:\n        /* \"#utility.yul\":1109:1115   */\n      dup2\n        /* \"#utility.yul\":1096:1116   */\n      calldataload\n        /* \"#utility.yul\":1135:1153   */\n      0xffffffffffffffff\n        /* \"#utility.yul\":1131:1133   */\n      dup2\n        /* \"#utility.yul\":1128:1154   */\n      gt\n        /* \"#utility.yul\":1125:1127   */\n      iszero\n      tag_358\n      jumpi\n        /* \"#utility.yul\":1157:1175   */\n      tag_358\n      tag_359\n      jump\t// in\n    tag_358:\n        /* \"#utility.yul\":1206:1208   */\n      0x40\n        /* \"#utility.yul\":1200:1209   */\n      mload\n        /* \"#utility.yul\":1218:1285   */\n      tag_360\n        /* \"#utility.yul\":1273:1275   */\n      0x1f\n        /* \"#utility.yul\":1254:1267   */\n      dup4\n      add\n      not(0x1f)\n        /* \"#utility.yul\":1250:1277   */\n      and\n        /* \"#utility.yul\":1279:1283   */\n      0x20\n        /* \"#utility.yul\":1246:1284   */\n      add\n        /* \"#utility.yul\":1200:1209   */\n      dup3\n        /* \"#utility.yul\":1218:1285   */\n      tag_349\n      jump\t// in\n    tag_360:\n        /* \"#utility.yul\":1309:1311   */\n      dup2\n        /* \"#utility.yul\":1301:1307   */\n      dup2\n        /* \"#utility.yul\":1294:1312   */\n      mstore\n        /* \"#utility.yul\":1355:1358   */\n      dup5\n        /* \"#utility.yul\":1348:1352   */\n      0x20\n        /* \"#utility.yul\":1343:1345   */\n      dup4\n        /* \"#utility.yul\":1335:1341   */\n      dup7\n        /* \"#utility.yul\":1331:1346   */\n      add\n        /* \"#utility.yul\":1327:1353   */\n      add\n        /* \"#utility.yul\":1324:1359   */\n      gt\n        /* \"#utility.yul\":1321:1323   */\n      iszero\n      tag_361\n      jumpi\n        /* \"#utility.yul\":1376:1381   */\n      dup3\n        /* \"#utility.yul\":1369:1374   */\n      dup4\n        /* \"#utility.yul\":1362:1382   */\n      revert\n        /* \"#utility.yul\":1321:1323   */\n    tag_361:\n        /* \"#utility.yul\":1444:1446   */\n      dup2\n        /* \"#utility.yul\":1437:1441   */\n      0x20\n        /* \"#utility.yul\":1429:1435   */\n      dup6\n        /* \"#utility.yul\":1425:1442   */\n      add\n        /* \"#utility.yul\":1418:1422   */\n      0x20\n        /* \"#utility.yul\":1410:1416   */\n      dup4\n        /* \"#utility.yul\":1406:1423   */\n      add\n        /* \"#utility.yul\":1393:1447   */\n      calldatacopy\n        /* \"#utility.yul\":1467:1482   */\n      swap1\n      dup2\n      add\n        /* \"#utility.yul\":1484:1488   */\n      0x20\n        /* \"#utility.yul\":1463:1489   */\n      add\n        /* \"#utility.yul\":1456:1497   */\n      swap2\n      swap1\n      swap2\n      mstore\n        /* \"#utility.yul\":1471:1477   */\n      swap3\n        /* \"#utility.yul\":1004:1527   */\n      swap2\n      pop\n      pop\n      jump\t// out\n        /* \"#utility.yul\":1532:1728   */\n    tag_77:\n        /* \"#utility.yul\":1591:1597   */\n      0x00\n        /* \"#utility.yul\":1644:1646   */\n      0x20\n        /* \"#utility.yul\":1632:1641   */\n      dup3\n        /* \"#utility.yul\":1623:1630   */\n      dup5\n        /* \"#utility.yul\":1619:1642   */\n      sub\n        /* \"#utility.yul\":1615:1647   */\n      slt\n        /* \"#utility.yul\":1612:1614   */\n      iszero\n      tag_363\n      jumpi\n        /* \"#utility.yul\":1665:1671   */\n      dup1\n        /* \"#utility.yul\":1657:1663   */\n      dup2\n        /* \"#utility.yul\":1650:1672   */\n      revert\n        /* \"#utility.yul\":1612:1614   */\n    tag_363:\n        /* \"#utility.yul\":1693:1722   */\n      tag_364\n        /* \"#utility.yul\":1712:1721   */\n      dup3\n        /* \"#utility.yul\":1693:1722   */\n      tag_340\n      jump\t// in\n    tag_364:\n        /* \"#utility.yul\":1683:1722   */\n      swap4\n        /* \"#utility.yul\":1602:1728   */\n      swap3\n      pop\n      pop\n      pop\n      jump\t// out\n        /* \"#utility.yul\":1733:2003   */\n    tag_68:\n        /* \"#utility.yul\":1801:1807   */\n      0x00\n        /* \"#utility.yul\":1809:1815   */\n      dup1\n        /* \"#utility.yul\":1862:1864   */\n      0x40\n        /* \"#utility.yul\":1850:1859   */\n      dup4\n        /* \"#utility.yul\":1841:1848   */\n      dup6\n        /* \"#utility.yul\":1837:1860   */\n      sub\n        /* \"#utility.yul\":1833:1865   */\n      slt\n        /* \"#utility.yul\":1830:1832   */\n      iszero\n      tag_366\n      jumpi\n        /* \"#utility.yul\":1883:1889   */\n      dup1\n        /* \"#utility.yul\":1875:1881   */\n      dup2\n        /* \"#utility.yul\":1868:1890   */\n      revert\n        /* \"#utility.yul\":1830:1832   */\n    tag_366:\n        /* \"#utility.yul\":1911:1940   */\n      tag_367\n        /* \"#utility.yul\":1930:1939   */\n      dup4\n        /* \"#utility.yul\":1911:1940   */\n      tag_340\n      jump\t// in\n    tag_367:\n        /* \"#utility.yul\":1901:1940   */\n      swap2\n      pop\n        /* \"#utility.yul\":1959:1997   */\n      tag_368\n        /* \"#utility.yul\":1993:1995   */\n      0x20\n        /* \"#utility.yul\":1982:1991   */\n      dup5\n        /* \"#utility.yul\":1978:1996   */\n      add\n        /* \"#utility.yul\":1959:1997   */\n      tag_340\n      jump\t// in\n    tag_368:\n        /* \"#utility.yul\":1949:1997   */\n      swap1\n      pop\n        /* \"#utility.yul\":1820:2003   */\n      swap3\n      pop\n      swap3\n      swap1\n      pop\n      jump\t// out\n        /* \"#utility.yul\":2008:2991   */\n    tag_38:\n        /* \"#utility.yul\":2162:2168   */\n      0x00\n        /* \"#utility.yul\":2170:2176   */\n      dup1\n        /* \"#utility.yul\":2178:2184   */\n      0x00\n        /* \"#utility.yul\":2186:2192   */\n      dup1\n        /* \"#utility.yul\":2194:2200   */\n      0x00\n        /* \"#utility.yul\":2247:2250   */\n      0xa0\n        /* \"#utility.yul\":2235:2244   */\n      dup7\n        /* \"#utility.yul\":2226:2233   */\n      dup9\n        /* \"#utility.yul\":2222:2245   */\n      sub\n        /* \"#utility.yul\":2218:2251   */\n      slt\n        /* \"#utility.yul\":2215:2217   */\n      iszero\n      tag_370\n      jumpi\n        /* \"#utility.yul\":2269:2275   */\n      dup1\n        /* \"#utility.yul\":2261:2267   */\n      dup2\n        /* \"#utility.yul\":2254:2276   */\n      revert\n        /* \"#utility.yul\":2215:2217   */\n    tag_370:\n        /* \"#utility.yul\":2297:2326   */\n      tag_371\n        /* \"#utility.yul\":2316:2325   */\n      dup7\n        /* \"#utility.yul\":2297:2326   */\n      tag_340\n      jump\t// in\n    tag_371:\n        /* \"#utility.yul\":2287:2326   */\n      swap5\n      pop\n        /* \"#utility.yul\":2345:2383   */\n      tag_372\n        /* \"#utility.yul\":2379:2381   */\n      0x20\n        /* \"#utility.yul\":2368:2377   */\n      dup8\n        /* \"#utility.yul\":2364:2382   */\n      add\n        /* \"#utility.yul\":2345:2383   */\n      tag_340\n      jump\t// in\n    tag_372:\n        /* \"#utility.yul\":2335:2383   */\n      swap4\n      pop\n        /* \"#utility.yul\":2434:2436   */\n      0x40\n        /* \"#utility.yul\":2423:2432   */\n      dup7\n        /* \"#utility.yul\":2419:2437   */\n      add\n        /* \"#utility.yul\":2406:2438   */\n      calldataload\n        /* \"#utility.yul\":2457:2475   */\n      0xffffffffffffffff\n        /* \"#utility.yul\":2498:2500   */\n      dup1\n        /* \"#utility.yul\":2490:2496   */\n      dup3\n        /* \"#utility.yul\":2487:2501   */\n      gt\n        /* \"#utility.yul\":2484:2486   */\n      iszero\n      tag_373\n      jumpi\n        /* \"#utility.yul\":2519:2525   */\n      dup3\n        /* \"#utility.yul\":2511:2517   */\n      dup4\n        /* \"#utility.yul\":2504:2526   */\n      revert\n        /* \"#utility.yul\":2484:2486   */\n    tag_373:\n        /* \"#utility.yul\":2547:2608   */\n      tag_374\n        /* \"#utility.yul\":2600:2607   */\n      dup10\n        /* \"#utility.yul\":2591:2597   */\n      dup4\n        /* \"#utility.yul\":2580:2589   */\n      dup11\n        /* \"#utility.yul\":2576:2598   */\n      add\n        /* \"#utility.yul\":2547:2608   */\n      tag_343\n      jump\t// in\n    tag_374:\n        /* \"#utility.yul\":2537:2608   */\n      swap5\n      pop\n        /* \"#utility.yul\":2661:2663   */\n      0x60\n        /* \"#utility.yul\":2650:2659   */\n      dup9\n        /* \"#utility.yul\":2646:2664   */\n      add\n        /* \"#utility.yul\":2633:2665   */\n      calldataload\n        /* \"#utility.yul\":2617:2665   */\n      swap2\n      pop\n        /* \"#utility.yul\":2690:2692   */\n      dup1\n        /* \"#utility.yul\":2680:2688   */\n      dup3\n        /* \"#utility.yul\":2677:2693   */\n      gt\n        /* \"#utility.yul\":2674:2676   */\n      iszero\n      tag_375\n      jumpi\n        /* \"#utility.yul\":2711:2717   */\n      dup3\n        /* \"#utility.yul\":2703:2709   */\n      dup4\n        /* \"#utility.yul\":2696:2718   */\n      revert\n        /* \"#utility.yul\":2674:2676   */\n    tag_375:\n        /* \"#utility.yul\":2739:2802   */\n      tag_376\n        /* \"#utility.yul\":2794:2801   */\n      dup10\n        /* \"#utility.yul\":2783:2791   */\n      dup4\n        /* \"#utility.yul\":2772:2781   */\n      dup11\n        /* \"#utility.yul\":2768:2792   */\n      add\n        /* \"#utility.yul\":2739:2802   */\n      tag_343\n      jump\t// in\n    tag_376:\n        /* \"#utility.yul\":2729:2802   */\n      swap4\n      pop\n        /* \"#utility.yul\":2855:2858   */\n      0x80\n        /* \"#utility.yul\":2844:2853   */\n      dup9\n        /* \"#utility.yul\":2840:2859   */\n      add\n        /* \"#utility.yul\":2827:2860   */\n      calldataload\n        /* \"#utility.yul\":2811:2860   */\n      swap2\n      pop\n        /* \"#utility.yul\":2885:2887   */\n      dup1\n        /* \"#utility.yul\":2875:2883   */\n      dup3\n        /* \"#utility.yul\":2872:2888   */\n      gt\n        /* \"#utility.yul\":2869:2871   */\n      iszero\n      tag_377\n      jumpi\n        /* \"#utility.yul\":2906:2912   */\n      dup3\n        /* \"#utility.yul\":2898:2904   */\n      dup4\n        /* \"#utility.yul\":2891:2913   */\n      revert\n        /* \"#utility.yul\":2869:2871   */\n    tag_377:\n      pop\n        /* \"#utility.yul\":2934:2985   */\n      tag_378\n        /* \"#utility.yul\":2977:2984   */\n      dup9\n        /* \"#utility.yul\":2966:2974   */\n      dup3\n        /* \"#utility.yul\":2955:2964   */\n      dup10\n        /* \"#utility.yul\":2951:2975   */\n      add\n        /* \"#utility.yul\":2934:2985   */\n      tag_354\n      jump\t// in\n    tag_378:\n        /* \"#utility.yul\":2924:2985   */\n      swap2\n      pop\n      pop\n        /* \"#utility.yul\":2205:2991   */\n      swap3\n      swap6\n      pop\n      swap3\n      swap6\n      swap1\n      swap4\n      pop\n      jump\t// out\n        /* \"#utility.yul\":2996:3622   */\n    tag_73:\n        /* \"#utility.yul\":3100:3106   */\n      0x00\n        /* \"#utility.yul\":3108:3114   */\n      dup1\n        /* \"#utility.yul\":3116:3122   */\n      0x00\n        /* \"#utility.yul\":3124:3130   */\n      dup1\n        /* \"#utility.yul\":3132:3138   */\n      0x00\n        /* \"#utility.yul\":3185:3188   */\n      0xa0\n        /* \"#utility.yul\":3173:3182   */\n      dup7\n        /* \"#utility.yul\":3164:3171   */\n      dup9\n        /* \"#utility.yul\":3160:3183   */\n      sub\n        /* \"#utility.yul\":3156:3189   */\n      slt\n        /* \"#utility.yul\":3153:3155   */\n      iszero\n      tag_380\n      jumpi\n        /* \"#utility.yul\":3207:3213   */\n      dup1\n        /* \"#utility.yul\":3199:3205   */\n      dup2\n        /* \"#utility.yul\":3192:3214   */\n      revert\n        /* \"#utility.yul\":3153:3155   */\n    tag_380:\n        /* \"#utility.yul\":3235:3264   */\n      tag_381\n        /* \"#utility.yul\":3254:3263   */\n      dup7\n        /* \"#utility.yul\":3235:3264   */\n      tag_340\n      jump\t// in\n    tag_381:\n        /* \"#utility.yul\":3225:3264   */\n      swap5\n      pop\n        /* \"#utility.yul\":3283:3321   */\n      tag_382\n        /* \"#utility.yul\":3317:3319   */\n      0x20\n        /* \"#utility.yul\":3306:3315   */\n      dup8\n        /* \"#utility.yul\":3302:3320   */\n      add\n        /* \"#utility.yul\":3283:3321   */\n      tag_340\n      jump\t// in\n    tag_382:\n        /* \"#utility.yul\":3273:3321   */\n      swap4\n      pop\n        /* \"#utility.yul\":3368:3370   */\n      0x40\n        /* \"#utility.yul\":3357:3366   */\n      dup7\n        /* \"#utility.yul\":3353:3371   */\n      add\n        /* \"#utility.yul\":3340:3372   */\n      calldataload\n        /* \"#utility.yul\":3330:3372   */\n      swap3\n      pop\n        /* \"#utility.yul\":3419:3421   */\n      0x60\n        /* \"#utility.yul\":3408:3417   */\n      dup7\n        /* \"#utility.yul\":3404:3422   */\n      add\n        /* \"#utility.yul\":3391:3423   */\n      calldataload\n        /* \"#utility.yul\":3381:3423   */\n      swap2\n      pop\n        /* \"#utility.yul\":3474:3477   */\n      0x80\n        /* \"#utility.yul\":3463:3472   */\n      dup7\n        /* \"#utility.yul\":3459:3478   */\n      add\n        /* \"#utility.yul\":3446:3479   */\n      calldataload\n        /* \"#utility.yul\":3502:3520   */\n      0xffffffffffffffff\n        /* \"#utility.yul\":3494:3500   */\n      dup2\n        /* \"#utility.yul\":3491:3521   */\n      gt\n        /* \"#utility.yul\":3488:3490   */\n      iszero\n      tag_383\n      jumpi\n        /* \"#utility.yul\":3539:3545   */\n      dup2\n        /* \"#utility.yul\":3531:3537   */\n      dup3\n        /* \"#utility.yul\":3524:3546   */\n      revert\n        /* \"#utility.yul\":3488:3490   */\n    tag_383:\n        /* \"#utility.yul\":3567:3616   */\n      tag_378\n        /* \"#utility.yul\":3608:3615   */\n      dup9\n        /* \"#utility.yul\":3599:3605   */\n      dup3\n        /* \"#utility.yul\":3588:3597   */\n      dup10\n        /* \"#utility.yul\":3584:3606   */\n      add\n        /* \"#utility.yul\":3567:3616   */\n      tag_354\n      jump\t// in\n        /* \"#utility.yul\":3627:3994   */\n    tag_64:\n        /* \"#utility.yul\":3692:3698   */\n      0x00\n        /* \"#utility.yul\":3700:3706   */\n      dup1\n        /* \"#utility.yul\":3753:3755   */\n      0x40\n        /* \"#utility.yul\":3741:3750   */\n      dup4\n        /* \"#utility.yul\":3732:3739   */\n      dup6\n        /* \"#utility.yul\":3728:3751   */\n      sub\n        /* \"#utility.yul\":3724:3756   */\n      slt\n        /* \"#utility.yul\":3721:3723   */\n      iszero\n      tag_386\n      jumpi\n        /* \"#utility.yul\":3774:3780   */\n      dup2\n        /* \"#utility.yul\":3766:3772   */\n      dup3\n        /* \"#utility.yul\":3759:3781   */\n      revert\n        /* \"#utility.yul\":3721:3723   */\n    tag_386:\n        /* \"#utility.yul\":3802:3831   */\n      tag_387\n        /* \"#utility.yul\":3821:3830   */\n      dup4\n        /* \"#utility.yul\":3802:3831   */\n      tag_340\n      jump\t// in\n    tag_387:\n        /* \"#utility.yul\":3792:3831   */\n      swap2\n      pop\n        /* \"#utility.yul\":3881:3883   */\n      0x20\n        /* \"#utility.yul\":3870:3879   */\n      dup4\n        /* \"#utility.yul\":3866:3884   */\n      add\n        /* \"#utility.yul\":3853:3885   */\n      calldataload\n        /* \"#utility.yul\":3928:3933   */\n      dup1\n        /* \"#utility.yul\":3921:3934   */\n      iszero\n        /* \"#utility.yul\":3914:3935   */\n      iszero\n        /* \"#utility.yul\":3907:3912   */\n      dup2\n        /* \"#utility.yul\":3904:3936   */\n      eq\n        /* \"#utility.yul\":3894:3896   */\n      tag_388\n      jumpi\n        /* \"#utility.yul\":3955:3961   */\n      dup2\n        /* \"#utility.yul\":3947:3953   */\n      dup3\n        /* \"#utility.yul\":3940:3962   */\n      revert\n        /* \"#utility.yul\":3894:3896   */\n    tag_388:\n        /* \"#utility.yul\":3983:3988   */\n      dup1\n        /* \"#utility.yul\":3973:3988   */\n      swap2\n      pop\n      pop\n        /* \"#utility.yul\":3711:3994   */\n      swap3\n      pop\n      swap3\n      swap1\n      pop\n      jump\t// out\n        /* \"#utility.yul\":3999:6094   */\n    tag_42:\n        /* \"#utility.yul\":4122:4128   */\n      0x00\n        /* \"#utility.yul\":4130:4136   */\n      dup1\n        /* \"#utility.yul\":4138:4144   */\n      0x00\n        /* \"#utility.yul\":4146:4152   */\n      dup1\n        /* \"#utility.yul\":4199:4202   */\n      0x80\n        /* \"#utility.yul\":4187:4196   */\n      dup6\n        /* \"#utility.yul\":4178:4185   */\n      dup8\n        /* \"#utility.yul\":4174:4197   */\n      sub\n        /* \"#utility.yul\":4170:4203   */\n      slt\n        /* \"#utility.yul\":4167:4169   */\n      iszero\n      tag_390\n      jumpi\n        /* \"#utility.yul\":4221:4227   */\n      dup4\n        /* \"#utility.yul\":4213:4219   */\n      dup5\n        /* \"#utility.yul\":4206:4228   */\n      revert\n        /* \"#utility.yul\":4167:4169   */\n    tag_390:\n        /* \"#utility.yul\":4249:4278   */\n      tag_391\n        /* \"#utility.yul\":4268:4277   */\n      dup6\n        /* \"#utility.yul\":4249:4278   */\n      tag_340\n      jump\t// in\n    tag_391:\n        /* \"#utility.yul\":4239:4278   */\n      swap4\n      pop\n        /* \"#utility.yul\":4329:4331   */\n      0x20\n        /* \"#utility.yul\":4318:4327   */\n      dup6\n        /* \"#utility.yul\":4314:4332   */\n      add\n        /* \"#utility.yul\":4301:4333   */\n      calldataload\n        /* \"#utility.yul\":4352:4370   */\n      0xffffffffffffffff\n        /* \"#utility.yul\":4393:4395   */\n      dup1\n        /* \"#utility.yul\":4385:4391   */\n      dup3\n        /* \"#utility.yul\":4382:4396   */\n      gt\n        /* \"#utility.yul\":4379:4381   */\n      iszero\n      tag_392\n      jumpi\n        /* \"#utility.yul\":4414:4420   */\n      dup5\n        /* \"#utility.yul\":4406:4412   */\n      dup6\n        /* \"#utility.yul\":4399:4421   */\n      revert\n        /* \"#utility.yul\":4379:4381   */\n    tag_392:\n        /* \"#utility.yul\":4442:4464   */\n      swap1\n      dup7\n      add\n      swap1\n        /* \"#utility.yul\":4498:4502   */\n      0xe0\n        /* \"#utility.yul\":4480:4496   */\n      dup3\n      dup10\n      sub\n        /* \"#utility.yul\":4476:4503   */\n      slt\n        /* \"#utility.yul\":4473:4475   */\n      iszero\n      tag_393\n      jumpi\n        /* \"#utility.yul\":4521:4527   */\n      dup5\n        /* \"#utility.yul\":4513:4519   */\n      dup6\n        /* \"#utility.yul\":4506:4528   */\n      revert\n        /* \"#utility.yul\":4473:4475   */\n    tag_393:\n        /* \"#utility.yul\":4552:4569   */\n      tag_394\n      tag_395\n      jump\t// in\n    tag_394:\n        /* \"#utility.yul\":4607:4609   */\n      dup3\n        /* \"#utility.yul\":4594:4610   */\n      calldataload\n        /* \"#utility.yul\":4635:4637   */\n      dup3\n        /* \"#utility.yul\":4625:4633   */\n      dup2\n        /* \"#utility.yul\":4622:4638   */\n      gt\n        /* \"#utility.yul\":4619:4621   */\n      iszero\n      tag_396\n      jumpi\n        /* \"#utility.yul\":4656:4662   */\n      dup7\n        /* \"#utility.yul\":4648:4654   */\n      dup8\n        /* \"#utility.yul\":4641:4663   */\n      revert\n        /* \"#utility.yul\":4619:4621   */\n    tag_396:\n        /* \"#utility.yul\":4688:4732   */\n      tag_397\n        /* \"#utility.yul\":4724:4731   */\n      dup11\n        /* \"#utility.yul\":4713:4721   */\n      dup3\n        /* \"#utility.yul\":4709:4711   */\n      dup7\n        /* \"#utility.yul\":4705:4722   */\n      add\n        /* \"#utility.yul\":4688:4732   */\n      tag_354\n      jump\t// in\n    tag_397:\n        /* \"#utility.yul\":4681:4686   */\n      dup3\n        /* \"#utility.yul\":4674:4733   */\n      mstore\n      pop\n        /* \"#utility.yul\":4779:4781   */\n      0x20\n        /* \"#utility.yul\":4775:4777   */\n      dup4\n        /* \"#utility.yul\":4771:4782   */\n      add\n        /* \"#utility.yul\":4758:4783   */\n      calldataload\n        /* \"#utility.yul\":4808:4810   */\n      dup3\n        /* \"#utility.yul\":4798:4806   */\n      dup2\n        /* \"#utility.yul\":4795:4811   */\n      gt\n        /* \"#utility.yul\":4792:4794   */\n      iszero\n      tag_398\n      jumpi\n        /* \"#utility.yul\":4829:4835   */\n      dup7\n        /* \"#utility.yul\":4821:4827   */\n      dup8\n        /* \"#utility.yul\":4814:4836   */\n      revert\n        /* \"#utility.yul\":4792:4794   */\n    tag_398:\n        /* \"#utility.yul\":4870:4914   */\n      tag_399\n        /* \"#utility.yul\":4906:4913   */\n      dup11\n        /* \"#utility.yul\":4895:4903   */\n      dup3\n        /* \"#utility.yul\":4891:4893   */\n      dup7\n        /* \"#utility.yul\":4887:4904   */\n      add\n        /* \"#utility.yul\":4870:4914   */\n      tag_354\n      jump\t// in\n    tag_399:\n        /* \"#utility.yul\":4865:4867   */\n      0x20\n        /* \"#utility.yul\":4858:4863   */\n      dup4\n        /* \"#utility.yul\":4854:4868   */\n      add\n        /* \"#utility.yul\":4847:4915   */\n      mstore\n      pop\n        /* \"#utility.yul\":4961:4963   */\n      0x40\n        /* \"#utility.yul\":4957:4959   */\n      dup4\n        /* \"#utility.yul\":4953:4964   */\n      add\n        /* \"#utility.yul\":4940:4965   */\n      calldataload\n        /* \"#utility.yul\":4990:4992   */\n      dup3\n        /* \"#utility.yul\":4980:4988   */\n      dup2\n        /* \"#utility.yul\":4977:4993   */\n      gt\n        /* \"#utility.yul\":4974:4976   */\n      iszero\n      tag_400\n      jumpi\n        /* \"#utility.yul\":5011:5017   */\n      dup7\n        /* \"#utility.yul\":5003:5009   */\n      dup8\n        /* \"#utility.yul\":4996:5018   */\n      revert\n        /* \"#utility.yul\":4974:4976   */\n    tag_400:\n        /* \"#utility.yul\":5052:5096   */\n      tag_401\n        /* \"#utility.yul\":5088:5095   */\n      dup11\n        /* \"#utility.yul\":5077:5085   */\n      dup3\n        /* \"#utility.yul\":5073:5075   */\n      dup7\n        /* \"#utility.yul\":5069:5086   */\n      add\n        /* \"#utility.yul\":5052:5096   */\n      tag_354\n      jump\t// in\n    tag_401:\n        /* \"#utility.yul\":5047:5049   */\n      0x40\n        /* \"#utility.yul\":5040:5045   */\n      dup4\n        /* \"#utility.yul\":5036:5050   */\n      add\n        /* \"#utility.yul\":5029:5097   */\n      mstore\n      pop\n        /* \"#utility.yul\":5143:5145   */\n      0x60\n        /* \"#utility.yul\":5139:5141   */\n      dup4\n        /* \"#utility.yul\":5135:5146   */\n      add\n        /* \"#utility.yul\":5122:5147   */\n      calldataload\n        /* \"#utility.yul\":5172:5174   */\n      dup3\n        /* \"#utility.yul\":5162:5170   */\n      dup2\n        /* \"#utility.yul\":5159:5175   */\n      gt\n        /* \"#utility.yul\":5156:5158   */\n      iszero\n      tag_402\n      jumpi\n        /* \"#utility.yul\":5193:5199   */\n      dup7\n        /* \"#utility.yul\":5185:5191   */\n      dup8\n        /* \"#utility.yul\":5178:5200   */\n      revert\n        /* \"#utility.yul\":5156:5158   */\n    tag_402:\n        /* \"#utility.yul\":5234:5278   */\n      tag_403\n        /* \"#utility.yul\":5270:5277   */\n      dup11\n        /* \"#utility.yul\":5259:5267   */\n      dup3\n        /* \"#utility.yul\":5255:5257   */\n      dup7\n        /* \"#utility.yul\":5251:5268   */\n      add\n        /* \"#utility.yul\":5234:5278   */\n      tag_354\n      jump\t// in\n    tag_403:\n        /* \"#utility.yul\":5229:5231   */\n      0x60\n        /* \"#utility.yul\":5222:5227   */\n      dup4\n        /* \"#utility.yul\":5218:5232   */\n      add\n        /* \"#utility.yul\":5211:5279   */\n      mstore\n      pop\n        /* \"#utility.yul\":5325:5328   */\n      0x80\n        /* \"#utility.yul\":5321:5323   */\n      dup4\n        /* \"#utility.yul\":5317:5329   */\n      add\n        /* \"#utility.yul\":5304:5330   */\n      calldataload\n        /* \"#utility.yul\":5355:5357   */\n      dup3\n        /* \"#utility.yul\":5345:5353   */\n      dup2\n        /* \"#utility.yul\":5342:5358   */\n      gt\n        /* \"#utility.yul\":5339:5341   */\n      iszero\n      tag_404\n      jumpi\n        /* \"#utility.yul\":5376:5382   */\n      dup7\n        /* \"#utility.yul\":5368:5374   */\n      dup8\n        /* \"#utility.yul\":5361:5383   */\n      revert\n        /* \"#utility.yul\":5339:5341   */\n    tag_404:\n        /* \"#utility.yul\":5418:5462   */\n      tag_405\n        /* \"#utility.yul\":5454:5461   */\n      dup11\n        /* \"#utility.yul\":5443:5451   */\n      dup3\n        /* \"#utility.yul\":5439:5441   */\n      dup7\n        /* \"#utility.yul\":5435:5452   */\n      add\n        /* \"#utility.yul\":5418:5462   */\n      tag_354\n      jump\t// in\n    tag_405:\n        /* \"#utility.yul\":5412:5415   */\n      0x80\n        /* \"#utility.yul\":5405:5410   */\n      dup4\n        /* \"#utility.yul\":5401:5416   */\n      add\n        /* \"#utility.yul\":5394:5463   */\n      mstore\n      pop\n        /* \"#utility.yul\":5509:5512   */\n      0xa0\n        /* \"#utility.yul\":5505:5507   */\n      dup4\n        /* \"#utility.yul\":5501:5513   */\n      add\n        /* \"#utility.yul\":5488:5514   */\n      calldataload\n        /* \"#utility.yul\":5539:5541   */\n      dup3\n        /* \"#utility.yul\":5529:5537   */\n      dup2\n        /* \"#utility.yul\":5526:5542   */\n      gt\n        /* \"#utility.yul\":5523:5525   */\n      iszero\n      tag_406\n      jumpi\n        /* \"#utility.yul\":5560:5566   */\n      dup7\n        /* \"#utility.yul\":5552:5558   */\n      dup8\n        /* \"#utility.yul\":5545:5567   */\n      revert\n        /* \"#utility.yul\":5523:5525   */\n    tag_406:\n        /* \"#utility.yul\":5602:5646   */\n      tag_407\n        /* \"#utility.yul\":5638:5645   */\n      dup11\n        /* \"#utility.yul\":5627:5635   */\n      dup3\n        /* \"#utility.yul\":5623:5625   */\n      dup7\n        /* \"#utility.yul\":5619:5636   */\n      add\n        /* \"#utility.yul\":5602:5646   */\n      tag_354\n      jump\t// in\n    tag_407:\n        /* \"#utility.yul\":5596:5599   */\n      0xa0\n        /* \"#utility.yul\":5589:5594   */\n      dup4\n        /* \"#utility.yul\":5585:5600   */\n      add\n        /* \"#utility.yul\":5578:5647   */\n      mstore\n      pop\n        /* \"#utility.yul\":5693:5696   */\n      0xc0\n        /* \"#utility.yul\":5689:5691   */\n      dup4\n        /* \"#utility.yul\":5685:5697   */\n      add\n        /* \"#utility.yul\":5672:5698   */\n      calldataload\n        /* \"#utility.yul\":5723:5725   */\n      dup3\n        /* \"#utility.yul\":5713:5721   */\n      dup2\n        /* \"#utility.yul\":5710:5726   */\n      gt\n        /* \"#utility.yul\":5707:5709   */\n      iszero\n      tag_408\n      jumpi\n        /* \"#utility.yul\":5744:5750   */\n      dup7\n        /* \"#utility.yul\":5736:5742   */\n      dup8\n        /* \"#utility.yul\":5729:5751   */\n      revert\n        /* \"#utility.yul\":5707:5709   */\n    tag_408:\n        /* \"#utility.yul\":5786:5830   */\n      tag_409\n        /* \"#utility.yul\":5822:5829   */\n      dup11\n        /* \"#utility.yul\":5811:5819   */\n      dup3\n        /* \"#utility.yul\":5807:5809   */\n      dup7\n        /* \"#utility.yul\":5803:5820   */\n      add\n        /* \"#utility.yul\":5786:5830   */\n      tag_354\n      jump\t// in\n    tag_409:\n        /* \"#utility.yul\":5780:5783   */\n      0xc0\n        /* \"#utility.yul\":5769:5784   */\n      dup4\n      add\n        /* \"#utility.yul\":5762:5831   */\n      mstore\n      pop\n        /* \"#utility.yul\":5773:5778   */\n      swap5\n      pop\n        /* \"#utility.yul\":5902:5904   */\n      0x40\n        /* \"#utility.yul\":5887:5905   */\n      dup8\n      add\n        /* \"#utility.yul\":5874:5906   */\n      calldataload\n      swap4\n      pop\n        /* \"#utility.yul\":5959:5961   */\n      0x60\n        /* \"#utility.yul\":5944:5962   */\n      dup8\n      add\n        /* \"#utility.yul\":5931:5963   */\n      calldataload\n      swap2\n      pop\n        /* \"#utility.yul\":5975:5991   */\n      dup1\n      dup3\n      gt\n        /* \"#utility.yul\":5972:5974   */\n      iszero\n      tag_410\n      jumpi\n        /* \"#utility.yul\":6009:6015   */\n      dup3\n        /* \"#utility.yul\":6001:6007   */\n      dup4\n        /* \"#utility.yul\":5994:6016   */\n      revert\n        /* \"#utility.yul\":5972:5974   */\n    tag_410:\n      pop\n        /* \"#utility.yul\":6037:6088   */\n      tag_411\n        /* \"#utility.yul\":6080:6087   */\n      dup8\n        /* \"#utility.yul\":6069:6077   */\n      dup3\n        /* \"#utility.yul\":6058:6067   */\n      dup9\n        /* \"#utility.yul\":6054:6078   */\n      add\n        /* \"#utility.yul\":6037:6088   */\n      tag_354\n      jump\t// in\n    tag_411:\n        /* \"#utility.yul\":6027:6088   */\n      swap2\n      pop\n      pop\n        /* \"#utility.yul\":4157:6094   */\n      swap3\n      swap6\n      swap2\n      swap5\n      pop\n      swap3\n      pop\n      jump\t// out\n        /* \"#utility.yul\":6099:6363   */\n    tag_20:\n        /* \"#utility.yul\":6167:6173   */\n      0x00\n        /* \"#utility.yul\":6175:6181   */\n      dup1\n        /* \"#utility.yul\":6228:6230   */\n      0x40\n        /* \"#utility.yul\":6216:6225   */\n      dup4\n        /* \"#utility.yul\":6207:6214   */\n      dup6\n        /* \"#utility.yul\":6203:6226   */\n      sub\n        /* \"#utility.yul\":6199:6231   */\n      slt\n        /* \"#utility.yul\":6196:6198   */\n      iszero\n      tag_413\n      jumpi\n        /* \"#utility.yul\":6249:6255   */\n      dup2\n        /* \"#utility.yul\":6241:6247   */\n      dup3\n        /* \"#utility.yul\":6234:6256   */\n      revert\n        /* \"#utility.yul\":6196:6198   */\n    tag_413:\n        /* \"#utility.yul\":6277:6306   */\n      tag_414\n        /* \"#utility.yul\":6296:6305   */\n      dup4\n        /* \"#utility.yul\":6277:6306   */\n      tag_340\n      jump\t// in\n    tag_414:\n        /* \"#utility.yul\":6267:6306   */\n      swap5\n        /* \"#utility.yul\":6353:6355   */\n      0x20\n        /* \"#utility.yul\":6338:6356   */\n      swap4\n      swap1\n      swap4\n      add\n        /* \"#utility.yul\":6325:6357   */\n      calldataload\n      swap4\n      pop\n      pop\n      pop\n        /* \"#utility.yul\":6186:6363   */\n      jump\t// out\n        /* \"#utility.yul\":6368:7642   */\n    tag_46:\n        /* \"#utility.yul\":6486:6492   */\n      0x00\n        /* \"#utility.yul\":6494:6500   */\n      dup1\n        /* \"#utility.yul\":6547:6549   */\n      0x40\n        /* \"#utility.yul\":6535:6544   */\n      dup4\n        /* \"#utility.yul\":6526:6533   */\n      dup6\n        /* \"#utility.yul\":6522:6545   */\n      sub\n        /* \"#utility.yul\":6518:6550   */\n      slt\n        /* \"#utility.yul\":6515:6517   */\n      iszero\n      tag_416\n      jumpi\n        /* \"#utility.yul\":6568:6574   */\n      dup2\n        /* \"#utility.yul\":6560:6566   */\n      dup3\n        /* \"#utility.yul\":6553:6575   */\n      revert\n        /* \"#utility.yul\":6515:6517   */\n    tag_416:\n        /* \"#utility.yul\":6613:6622   */\n      dup3\n        /* \"#utility.yul\":6600:6623   */\n      calldataload\n        /* \"#utility.yul\":6642:6660   */\n      0xffffffffffffffff\n        /* \"#utility.yul\":6683:6685   */\n      dup1\n        /* \"#utility.yul\":6675:6681   */\n      dup3\n        /* \"#utility.yul\":6672:6686   */\n      gt\n        /* \"#utility.yul\":6669:6671   */\n      iszero\n      tag_417\n      jumpi\n        /* \"#utility.yul\":6704:6710   */\n      dup4\n        /* \"#utility.yul\":6696:6702   */\n      dup5\n        /* \"#utility.yul\":6689:6711   */\n      revert\n        /* \"#utility.yul\":6669:6671   */\n    tag_417:\n        /* \"#utility.yul\":6747:6753   */\n      dup2\n        /* \"#utility.yul\":6736:6745   */\n      dup6\n        /* \"#utility.yul\":6732:6754   */\n      add\n        /* \"#utility.yul\":6722:6754   */\n      swap2\n      pop\n        /* \"#utility.yul\":6792:6799   */\n      dup6\n        /* \"#utility.yul\":6785:6789   */\n      0x1f\n        /* \"#utility.yul\":6781:6783   */\n      dup4\n        /* \"#utility.yul\":6777:6790   */\n      add\n        /* \"#utility.yul\":6773:6800   */\n      slt\n        /* \"#utility.yul\":6763:6765   */\n      tag_418\n      jumpi\n        /* \"#utility.yul\":6819:6825   */\n      dup4\n        /* \"#utility.yul\":6811:6817   */\n      dup5\n        /* \"#utility.yul\":6804:6826   */\n      revert\n        /* \"#utility.yul\":6763:6765   */\n    tag_418:\n        /* \"#utility.yul\":6860:6862   */\n      dup2\n        /* \"#utility.yul\":6847:6863   */\n      calldataload\n        /* \"#utility.yul\":6882:6886   */\n      0x20\n        /* \"#utility.yul\":6905:6948   */\n      tag_419\n        /* \"#utility.yul\":6945:6947   */\n      dup3\n        /* \"#utility.yul\":6905:6948   */\n      tag_347\n      jump\t// in\n    tag_419:\n        /* \"#utility.yul\":6977:6979   */\n      0x40\n        /* \"#utility.yul\":6971:6980   */\n      mload\n        /* \"#utility.yul\":6989:7020   */\n      tag_420\n        /* \"#utility.yul\":7017:7019   */\n      dup3\n        /* \"#utility.yul\":7009:7015   */\n      dup3\n        /* \"#utility.yul\":6989:7020   */\n      tag_349\n      jump\t// in\n    tag_420:\n        /* \"#utility.yul\":7055:7073   */\n      dup4\n      dup2\n      mstore\n        /* \"#utility.yul\":7089:7104   */\n      dup3\n      dup2\n      add\n      swap2\n      pop\n        /* \"#utility.yul\":7124:7135   */\n      dup6\n      dup4\n      add\n        /* \"#utility.yul\":7166:7167   */\n      0x05\n        /* \"#utility.yul\":7162:7172   */\n      dup6\n      swap1\n      shl\n        /* \"#utility.yul\":7154:7173   */\n      dup8\n      add\n        /* \"#utility.yul\":7150:7178   */\n      dup5\n      add\n        /* \"#utility.yul\":7147:7188   */\n      dup12\n      lt\n        /* \"#utility.yul\":7144:7146   */\n      iszero\n      tag_421\n      jumpi\n        /* \"#utility.yul\":7206:7212   */\n      dup9\n        /* \"#utility.yul\":7198:7204   */\n      dup10\n        /* \"#utility.yul\":7191:7213   */\n      revert\n        /* \"#utility.yul\":7144:7146   */\n    tag_421:\n        /* \"#utility.yul\":7233:7239   */\n      dup9\n        /* \"#utility.yul\":7224:7239   */\n      swap7\n      pop\n        /* \"#utility.yul\":7248:7417   */\n    tag_422:\n        /* \"#utility.yul\":7262:7264   */\n      dup5\n        /* \"#utility.yul\":7259:7260   */\n      dup8\n        /* \"#utility.yul\":7256:7265   */\n      lt\n        /* \"#utility.yul\":7248:7417   */\n      iszero\n      tag_424\n      jumpi\n        /* \"#utility.yul\":7319:7342   */\n      tag_425\n        /* \"#utility.yul\":7338:7341   */\n      dup2\n        /* \"#utility.yul\":7319:7342   */\n      tag_340\n      jump\t// in\n    tag_425:\n        /* \"#utility.yul\":7307:7343   */\n      dup4\n      mstore\n        /* \"#utility.yul\":7280:7281   */\n      0x01\n        /* \"#utility.yul\":7273:7282   */\n      swap7\n      swap1\n      swap7\n      add\n      swap6\n        /* \"#utility.yul\":7363:7375   */\n      swap2\n      dup4\n      add\n      swap2\n        /* \"#utility.yul\":7395:7407   */\n      dup4\n      add\n        /* \"#utility.yul\":7248:7417   */\n      jump(tag_422)\n    tag_424:\n      pop\n        /* \"#utility.yul\":7436:7442   */\n      swap7\n      pop\n      pop\n        /* \"#utility.yul\":7480:7498   */\n      dup7\n      add\n        /* \"#utility.yul\":7467:7499   */\n      calldataload\n      swap3\n      pop\n      pop\n        /* \"#utility.yul\":7511:7527   */\n      dup1\n      dup3\n      gt\n        /* \"#utility.yul\":7508:7510   */\n      iszero\n      tag_426\n      jumpi\n        /* \"#utility.yul\":7545:7551   */\n      dup3\n        /* \"#utility.yul\":7537:7543   */\n      dup4\n        /* \"#utility.yul\":7530:7552   */\n      revert\n        /* \"#utility.yul\":7508:7510   */\n    tag_426:\n      pop\n        /* \"#utility.yul\":7573:7636   */\n      tag_427\n        /* \"#utility.yul\":7628:7635   */\n      dup6\n        /* \"#utility.yul\":7617:7625   */\n      dup3\n        /* \"#utility.yul\":7606:7615   */\n      dup7\n        /* \"#utility.yul\":7602:7626   */\n      add\n        /* \"#utility.yul\":7573:7636   */\n      tag_343\n      jump\t// in\n    tag_427:\n        /* \"#utility.yul\":7563:7636   */\n      swap2\n      pop\n      pop\n        /* \"#utility.yul\":6505:7642   */\n      swap3\n      pop\n      swap3\n      swap1\n      pop\n      jump\t// out\n        /* \"#utility.yul\":7647:7902   */\n    tag_26:\n        /* \"#utility.yul\":7705:7711   */\n      0x00\n        /* \"#utility.yul\":7758:7760   */\n      0x20\n        /* \"#utility.yul\":7746:7755   */\n      dup3\n        /* \"#utility.yul\":7737:7744   */\n      dup5\n        /* \"#utility.yul\":7733:7756   */\n      sub\n        /* \"#utility.yul\":7729:7761   */\n      slt\n        /* \"#utility.yul\":7726:7728   */\n      iszero\n      tag_429\n      jumpi\n        /* \"#utility.yul\":7779:7785   */\n      dup1\n        /* \"#utility.yul\":7771:7777   */\n      dup2\n        /* \"#utility.yul\":7764:7786   */\n      revert\n        /* \"#utility.yul\":7726:7728   */\n    tag_429:\n        /* \"#utility.yul\":7823:7832   */\n      dup2\n        /* \"#utility.yul\":7810:7833   */\n      calldataload\n        /* \"#utility.yul\":7842:7872   */\n      tag_364\n        /* \"#utility.yul\":7866:7871   */\n      dup2\n        /* \"#utility.yul\":7842:7872   */\n      tag_431\n      jump\t// in\n        /* \"#utility.yul\":7907:8166   */\n    tag_287:\n        /* \"#utility.yul\":7976:7982   */\n      0x00\n        /* \"#utility.yul\":8029:8031   */\n      0x20\n        /* \"#utility.yul\":8017:8026   */\n      dup3\n        /* \"#utility.yul\":8008:8015   */\n      dup5\n        /* \"#utility.yul\":8004:8027   */\n      sub\n        /* \"#utility.yul\":8000:8032   */\n      slt\n        /* \"#utility.yul\":7997:7999   */\n      iszero\n      tag_433\n      jumpi\n        /* \"#utility.yul\":8050:8056   */\n      dup1\n        /* \"#utility.yul\":8042:8048   */\n      dup2\n        /* \"#utility.yul\":8035:8057   */\n      revert\n        /* \"#utility.yul\":7997:7999   */\n    tag_433:\n        /* \"#utility.yul\":8087:8096   */\n      dup2\n        /* \"#utility.yul\":8081:8097   */\n      mload\n        /* \"#utility.yul\":8106:8136   */\n      tag_364\n        /* \"#utility.yul\":8130:8135   */\n      dup2\n        /* \"#utility.yul\":8106:8136   */\n      tag_431\n      jump\t// in\n        /* \"#utility.yul\":8171:8512   */\n    tag_54:\n        /* \"#utility.yul\":8240:8246   */\n      0x00\n        /* \"#utility.yul\":8293:8295   */\n      0x20\n        /* \"#utility.yul\":8281:8290   */\n      dup3\n        /* \"#utility.yul\":8272:8279   */\n      dup5\n        /* \"#utility.yul\":8268:8291   */\n      sub\n        /* \"#utility.yul\":8264:8296   */\n      slt\n        /* \"#utility.yul\":8261:8263   */\n      iszero\n      tag_436\n      jumpi\n        /* \"#utility.yul\":8314:8320   */\n      dup1\n        /* \"#utility.yul\":8306:8312   */\n      dup2\n        /* \"#utility.yul\":8299:8321   */\n      revert\n        /* \"#utility.yul\":8261:8263   */\n    tag_436:\n        /* \"#utility.yul\":8359:8368   */\n      dup2\n        /* \"#utility.yul\":8346:8369   */\n      calldataload\n        /* \"#utility.yul\":8392:8410   */\n      0xffffffffffffffff\n        /* \"#utility.yul\":8384:8390   */\n      dup2\n        /* \"#utility.yul\":8381:8411   */\n      gt\n        /* \"#utility.yul\":8378:8380   */\n      iszero\n      tag_437\n      jumpi\n        /* \"#utility.yul\":8429:8435   */\n      dup2\n        /* \"#utility.yul\":8421:8427   */\n      dup3\n        /* \"#utility.yul\":8414:8436   */\n      revert\n        /* \"#utility.yul\":8378:8380   */\n    tag_437:\n        /* \"#utility.yul\":8457:8506   */\n      tag_438\n        /* \"#utility.yul\":8498:8505   */\n      dup5\n        /* \"#utility.yul\":8489:8495   */\n      dup3\n        /* \"#utility.yul\":8478:8487   */\n      dup6\n        /* \"#utility.yul\":8474:8496   */\n      add\n        /* \"#utility.yul\":8457:8506   */\n      tag_354\n      jump\t// in\n    tag_438:\n        /* \"#utility.yul\":8447:8506   */\n      swap5\n        /* \"#utility.yul\":8251:8512   */\n      swap4\n      pop\n      pop\n      pop\n      pop\n      jump\t// out\n        /* \"#utility.yul\":8517:8707   */\n    tag_32:\n        /* \"#utility.yul\":8576:8582   */\n      0x00\n        /* \"#utility.yul\":8629:8631   */\n      0x20\n        /* \"#utility.yul\":8617:8626   */\n      dup3\n        /* \"#utility.yul\":8608:8615   */\n      dup5\n        /* \"#utility.yul\":8604:8627   */\n      sub\n        /* \"#utility.yul\":8600:8632   */\n      slt\n        /* \"#utility.yul\":8597:8599   */\n      iszero\n      tag_440\n      jumpi\n        /* \"#utility.yul\":8650:8656   */\n      dup1\n        /* \"#utility.yul\":8642:8648   */\n      dup2\n        /* \"#utility.yul\":8635:8657   */\n      revert\n        /* \"#utility.yul\":8597:8599   */\n    tag_440:\n      pop\n        /* \"#utility.yul\":8678:8701   */\n      calldataload\n      swap2\n        /* \"#utility.yul\":8587:8707   */\n      swap1\n      pop\n      jump\t// out\n        /* \"#utility.yul\":8712:9149   */\n    tag_441:\n        /* \"#utility.yul\":8765:8768   */\n      0x00\n        /* \"#utility.yul\":8803:8808   */\n      dup2\n        /* \"#utility.yul\":8797:8809   */\n      mload\n        /* \"#utility.yul\":8830:8836   */\n      dup1\n        /* \"#utility.yul\":8825:8828   */\n      dup5\n        /* \"#utility.yul\":8818:8837   */\n      mstore\n        /* \"#utility.yul\":8856:8860   */\n      0x20\n        /* \"#utility.yul\":8885:8887   */\n      dup1\n        /* \"#utility.yul\":8880:8883   */\n      dup6\n        /* \"#utility.yul\":8876:8888   */\n      add\n        /* \"#utility.yul\":8869:8888   */\n      swap5\n      pop\n        /* \"#utility.yul\":8922:8924   */\n      dup1\n        /* \"#utility.yul\":8915:8920   */\n      dup5\n        /* \"#utility.yul\":8911:8925   */\n      add\n        /* \"#utility.yul\":8943:8946   */\n      dup4\n        /* \"#utility.yul\":8955:9124   */\n    tag_443:\n        /* \"#utility.yul\":8969:8975   */\n      dup4\n        /* \"#utility.yul\":8966:8967   */\n      dup2\n        /* \"#utility.yul\":8963:8976   */\n      lt\n        /* \"#utility.yul\":8955:9124   */\n      iszero\n      tag_445\n      jumpi\n        /* \"#utility.yul\":9030:9043   */\n      dup2\n      mload\n        /* \"#utility.yul\":9018:9044   */\n      dup8\n      mstore\n        /* \"#utility.yul\":9064:9076   */\n      swap6\n      dup3\n      add\n      swap6\n        /* \"#utility.yul\":9099:9114   */\n      swap1\n      dup3\n      add\n      swap1\n        /* \"#utility.yul\":8991:8992   */\n      0x01\n        /* \"#utility.yul\":8984:8993   */\n      add\n        /* \"#utility.yul\":8955:9124   */\n      jump(tag_443)\n    tag_445:\n      pop\n        /* \"#utility.yul\":9140:9143   */\n      swap5\n      swap6\n        /* \"#utility.yul\":8773:9149   */\n      swap5\n      pop\n      pop\n      pop\n      pop\n      pop\n      jump\t// out\n        /* \"#utility.yul\":9154:9411   */\n    tag_446:\n        /* \"#utility.yul\":9195:9198   */\n      0x00\n        /* \"#utility.yul\":9233:9238   */\n      dup2\n        /* \"#utility.yul\":9227:9239   */\n      mload\n        /* \"#utility.yul\":9260:9266   */\n      dup1\n        /* \"#utility.yul\":9255:9258   */\n      dup5\n        /* \"#utility.yul\":9248:9267   */\n      mstore\n        /* \"#utility.yul\":9276:9339   */\n      tag_448\n        /* \"#utility.yul\":9332:9338   */\n      dup2\n        /* \"#utility.yul\":9325:9329   */\n      0x20\n        /* \"#utility.yul\":9320:9323   */\n      dup7\n        /* \"#utility.yul\":9316:9330   */\n      add\n        /* \"#utility.yul\":9309:9313   */\n      0x20\n        /* \"#utility.yul\":9302:9307   */\n      dup7\n        /* \"#utility.yul\":9298:9314   */\n      add\n        /* \"#utility.yul\":9276:9339   */\n      tag_449\n      jump\t// in\n    tag_448:\n        /* \"#utility.yul\":9393:9395   */\n      0x1f\n        /* \"#utility.yul\":9372:9387   */\n      add\n      not(0x1f)\n        /* \"#utility.yul\":9368:9397   */\n      and\n        /* \"#utility.yul\":9359:9398   */\n      swap3\n      swap1\n      swap3\n      add\n        /* \"#utility.yul\":9400:9404   */\n      0x20\n        /* \"#utility.yul\":9355:9405   */\n      add\n      swap3\n        /* \"#utility.yul\":9203:9411   */\n      swap2\n      pop\n      pop\n      jump\t// out\n        /* \"#utility.yul\":9416:9692   */\n    tag_116:\n        /* \"#utility.yul\":9547:9550   */\n      0x00\n        /* \"#utility.yul\":9585:9591   */\n      dup3\n        /* \"#utility.yul\":9579:9592   */\n      mload\n        /* \"#utility.yul\":9601:9654   */\n      tag_451\n        /* \"#utility.yul\":9647:9653   */\n      dup2\n        /* \"#utility.yul\":9642:9645   */\n      dup5\n        /* \"#utility.yul\":9635:9639   */\n      0x20\n        /* \"#utility.yul\":9627:9633   */\n      dup8\n        /* \"#utility.yul\":9623:9640   */\n      add\n        /* \"#utility.yul\":9601:9654   */\n      tag_449\n      jump\t// in\n    tag_451:\n        /* \"#utility.yul\":9670:9686   */\n      swap2\n      swap1\n      swap2\n      add\n      swap3\n        /* \"#utility.yul\":9555:9692   */\n      swap2\n      pop\n      pop\n      jump\t// out\n        /* \"#utility.yul\":9697:10954   */\n    tag_112:\n        /* \"#utility.yul\":10068:10071   */\n      0x00\n        /* \"#utility.yul\":10106:10112   */\n      dup8\n        /* \"#utility.yul\":10100:10113   */\n      mload\n        /* \"#utility.yul\":10132:10136   */\n      0x20\n        /* \"#utility.yul\":10145:10196   */\n      tag_453\n        /* \"#utility.yul\":10189:10195   */\n      dup3\n        /* \"#utility.yul\":10184:10187   */\n      dup6\n        /* \"#utility.yul\":10179:10181   */\n      dup4\n        /* \"#utility.yul\":10171:10177   */\n      dup14\n        /* \"#utility.yul\":10167:10182   */\n      add\n        /* \"#utility.yul\":10145:10196   */\n      tag_449\n      jump\t// in\n    tag_453:\n        /* \"#utility.yul\":10259:10272   */\n      dup9\n      mload\n        /* \"#utility.yul\":10218:10234   */\n      swap2\n      dup5\n      add\n      swap2\n        /* \"#utility.yul\":10281:10336   */\n      tag_454\n        /* \"#utility.yul\":10259:10272   */\n      dup2\n        /* \"#utility.yul\":10218:10234   */\n      dup5\n        /* \"#utility.yul\":10303:10318   */\n      dup5\n      dup14\n      add\n        /* \"#utility.yul\":10281:10336   */\n      tag_449\n      jump\t// in\n    tag_454:\n        /* \"#utility.yul\":10403:10416   */\n      dup9\n      mload\n        /* \"#utility.yul\":10358:10378   */\n      swap3\n      add\n      swap2\n        /* \"#utility.yul\":10425:10480   */\n      tag_455\n        /* \"#utility.yul\":10403:10416   */\n      dup2\n        /* \"#utility.yul\":10358:10378   */\n      dup5\n        /* \"#utility.yul\":10447:10462   */\n      dup5\n      dup13\n      add\n        /* \"#utility.yul\":10425:10480   */\n      tag_449\n      jump\t// in\n    tag_455:\n        /* \"#utility.yul\":10547:10560   */\n      dup8\n      mload\n        /* \"#utility.yul\":10502:10522   */\n      swap3\n      add\n      swap2\n        /* \"#utility.yul\":10569:10624   */\n      tag_456\n        /* \"#utility.yul\":10547:10560   */\n      dup2\n        /* \"#utility.yul\":10502:10522   */\n      dup5\n        /* \"#utility.yul\":10591:10606   */\n      dup5\n      dup12\n      add\n        /* \"#utility.yul\":10569:10624   */\n      tag_449\n      jump\t// in\n    tag_456:\n        /* \"#utility.yul\":10691:10704   */\n      dup7\n      mload\n        /* \"#utility.yul\":10646:10666   */\n      swap3\n      add\n      swap2\n        /* \"#utility.yul\":10713:10768   */\n      tag_457\n        /* \"#utility.yul\":10691:10704   */\n      dup2\n        /* \"#utility.yul\":10646:10666   */\n      dup5\n        /* \"#utility.yul\":10735:10750   */\n      dup5\n      dup11\n      add\n        /* \"#utility.yul\":10713:10768   */\n      tag_449\n      jump\t// in\n    tag_457:\n        /* \"#utility.yul\":10835:10848   */\n      dup6\n      mload\n        /* \"#utility.yul\":10790:10810   */\n      swap3\n      add\n      swap2\n        /* \"#utility.yul\":10857:10912   */\n      tag_458\n        /* \"#utility.yul\":10835:10848   */\n      dup2\n        /* \"#utility.yul\":10790:10810   */\n      dup5\n        /* \"#utility.yul\":10879:10894   */\n      dup5\n      dup10\n      add\n        /* \"#utility.yul\":10857:10912   */\n      tag_449\n      jump\t// in\n    tag_458:\n        /* \"#utility.yul\":10928:10948   */\n      swap2\n      swap1\n      swap2\n      add\n      swap10\n        /* \"#utility.yul\":10076:10954   */\n      swap9\n      pop\n      pop\n      pop\n      pop\n      pop\n      pop\n      pop\n      pop\n      pop\n      jump\t// out\n        /* \"#utility.yul\":11167:11993   */\n    tag_283:\n      sub(shl(0xa0, 0x01), 0x01)\n        /* \"#utility.yul\":11564:11579   */\n      dup7\n      dup2\n      and\n        /* \"#utility.yul\":11546:11580   */\n      dup3\n      mstore\n        /* \"#utility.yul\":11616:11631   */\n      dup6\n      and\n        /* \"#utility.yul\":11611:11613   */\n      0x20\n        /* \"#utility.yul\":11596:11614   */\n      dup3\n      add\n        /* \"#utility.yul\":11589:11632   */\n      mstore\n        /* \"#utility.yul\":11526:11529   */\n      0xa0\n        /* \"#utility.yul\":11663:11665   */\n      0x40\n        /* \"#utility.yul\":11648:11666   */\n      dup3\n      add\n        /* \"#utility.yul\":11641:11672   */\n      dup2\n      swap1\n      mstore\n        /* \"#utility.yul\":11489:11493   */\n      0x00\n      swap1\n        /* \"#utility.yul\":11695:11752   */\n      tag_461\n      swap1\n        /* \"#utility.yul\":11732:11751   */\n      dup4\n      add\n        /* \"#utility.yul\":11724:11730   */\n      dup7\n        /* \"#utility.yul\":11695:11752   */\n      tag_441\n      jump\t// in\n    tag_461:\n        /* \"#utility.yul\":11800:11809   */\n      dup3\n        /* \"#utility.yul\":11792:11798   */\n      dup2\n        /* \"#utility.yul\":11788:11810   */\n      sub\n        /* \"#utility.yul\":11783:11785   */\n      0x60\n        /* \"#utility.yul\":11772:11781   */\n      dup5\n        /* \"#utility.yul\":11768:11786   */\n      add\n        /* \"#utility.yul\":11761:11811   */\n      mstore\n        /* \"#utility.yul\":11834:11878   */\n      tag_462\n        /* \"#utility.yul\":11871:11877   */\n      dup2\n        /* \"#utility.yul\":11863:11869   */\n      dup7\n        /* \"#utility.yul\":11834:11878   */\n      tag_441\n      jump\t// in\n    tag_462:\n        /* \"#utility.yul\":11820:11878   */\n      swap1\n      pop\n        /* \"#utility.yul\":11927:11936   */\n      dup3\n        /* \"#utility.yul\":11919:11925   */\n      dup2\n        /* \"#utility.yul\":11915:11937   */\n      sub\n        /* \"#utility.yul\":11909:11912   */\n      0x80\n        /* \"#utility.yul\":11898:11907   */\n      dup5\n        /* \"#utility.yul\":11894:11913   */\n      add\n        /* \"#utility.yul\":11887:11938   */\n      mstore\n        /* \"#utility.yul\":11955:11987   */\n      tag_463\n        /* \"#utility.yul\":11980:11986   */\n      dup2\n        /* \"#utility.yul\":11972:11978   */\n      dup6\n        /* \"#utility.yul\":11955:11987   */\n      tag_446\n      jump\t// in\n    tag_463:\n        /* \"#utility.yul\":11947:11987   */\n      swap9\n        /* \"#utility.yul\":11498:11993   */\n      swap8\n      pop\n      pop\n      pop\n      pop\n      pop\n      pop\n      pop\n      pop\n      jump\t// out\n        /* \"#utility.yul\":11998:12558   */\n    tag_312:\n      sub(shl(0xa0, 0x01), 0x01)\n        /* \"#utility.yul\":12295:12310   */\n      dup7\n      dup2\n      and\n        /* \"#utility.yul\":12277:12311   */\n      dup3\n      mstore\n        /* \"#utility.yul\":12347:12362   */\n      dup6\n      and\n        /* \"#utility.yul\":12342:12344   */\n      0x20\n        /* \"#utility.yul\":12327:12345   */\n      dup3\n      add\n        /* \"#utility.yul\":12320:12363   */\n      mstore\n        /* \"#utility.yul\":12394:12396   */\n      0x40\n        /* \"#utility.yul\":12379:12397   */\n      dup2\n      add\n        /* \"#utility.yul\":12372:12406   */\n      dup5\n      swap1\n      mstore\n        /* \"#utility.yul\":12437:12439   */\n      0x60\n        /* \"#utility.yul\":12422:12440   */\n      dup2\n      add\n        /* \"#utility.yul\":12415:12449   */\n      dup4\n      swap1\n      mstore\n        /* \"#utility.yul\":12257:12260   */\n      0xa0\n        /* \"#utility.yul\":12480:12483   */\n      0x80\n        /* \"#utility.yul\":12465:12484   */\n      dup3\n      add\n        /* \"#utility.yul\":12458:12490   */\n      dup2\n      swap1\n      mstore\n        /* \"#utility.yul\":12220:12224   */\n      0x00\n      swap1\n        /* \"#utility.yul\":12507:12552   */\n      tag_465\n      swap1\n        /* \"#utility.yul\":12532:12551   */\n      dup4\n      add\n        /* \"#utility.yul\":12524:12530   */\n      dup5\n        /* \"#utility.yul\":12507:12552   */\n      tag_446\n      jump\t// in\n    tag_465:\n        /* \"#utility.yul\":12499:12552   */\n      swap8\n        /* \"#utility.yul\":12229:12558   */\n      swap7\n      pop\n      pop\n      pop\n      pop\n      pop\n      pop\n      pop\n      jump\t// out\n        /* \"#utility.yul\":12563:12824   */\n    tag_49:\n        /* \"#utility.yul\":12742:12744   */\n      0x20\n        /* \"#utility.yul\":12731:12740   */\n      dup2\n        /* \"#utility.yul\":12724:12745   */\n      mstore\n        /* \"#utility.yul\":12705:12709   */\n      0x00\n        /* \"#utility.yul\":12762:12818   */\n      tag_364\n        /* \"#utility.yul\":12814:12816   */\n      0x20\n        /* \"#utility.yul\":12803:12812   */\n      dup4\n        /* \"#utility.yul\":12799:12817   */\n      add\n        /* \"#utility.yul\":12791:12797   */\n      dup5\n        /* \"#utility.yul\":12762:12818   */\n      tag_441\n      jump\t// in\n        /* \"#utility.yul\":12829:13294   */\n    tag_240:\n        /* \"#utility.yul\":13086:13088   */\n      0x40\n        /* \"#utility.yul\":13075:13084   */\n      dup2\n        /* \"#utility.yul\":13068:13089   */\n      mstore\n        /* \"#utility.yul\":13049:13053   */\n      0x00\n        /* \"#utility.yul\":13112:13168   */\n      tag_469\n        /* \"#utility.yul\":13164:13166   */\n      0x40\n        /* \"#utility.yul\":13153:13162   */\n      dup4\n        /* \"#utility.yul\":13149:13167   */\n      add\n        /* \"#utility.yul\":13141:13147   */\n      dup6\n        /* \"#utility.yul\":13112:13168   */\n      tag_441\n      jump\t// in\n    tag_469:\n        /* \"#utility.yul\":13216:13225   */\n      dup3\n        /* \"#utility.yul\":13208:13214   */\n      dup2\n        /* \"#utility.yul\":13204:13226   */\n      sub\n        /* \"#utility.yul\":13199:13201   */\n      0x20\n        /* \"#utility.yul\":13188:13197   */\n      dup5\n        /* \"#utility.yul\":13184:13202   */\n      add\n        /* \"#utility.yul\":13177:13227   */\n      mstore\n        /* \"#utility.yul\":13244:13288   */\n      tag_470\n        /* \"#utility.yul\":13281:13287   */\n      dup2\n        /* \"#utility.yul\":13273:13279   */\n      dup6\n        /* \"#utility.yul\":13244:13288   */\n      tag_441\n      jump\t// in\n    tag_470:\n        /* \"#utility.yul\":13236:13288   */\n      swap6\n        /* \"#utility.yul\":13058:13294   */\n      swap5\n      pop\n      pop\n      pop\n      pop\n      pop\n      jump\t// out\n        /* \"#utility.yul\":13491:13710   */\n    tag_35:\n        /* \"#utility.yul\":13640:13642   */\n      0x20\n        /* \"#utility.yul\":13629:13638   */\n      dup2\n        /* \"#utility.yul\":13622:13643   */\n      mstore\n        /* \"#utility.yul\":13603:13607   */\n      0x00\n        /* \"#utility.yul\":13660:13704   */\n      tag_364\n        /* \"#utility.yul\":13700:13702   */\n      0x20\n        /* \"#utility.yul\":13689:13698   */\n      dup4\n        /* \"#utility.yul\":13685:13703   */\n      add\n        /* \"#utility.yul\":13677:13683   */\n      dup5\n        /* \"#utility.yul\":13660:13704   */\n      tag_446\n      jump\t// in\n        /* \"#utility.yul\":14136:14540   */\n    tag_303:\n        /* \"#utility.yul\":14338:14340   */\n      0x20\n        /* \"#utility.yul\":14320:14341   */\n      dup1\n      dup3\n      mstore\n        /* \"#utility.yul\":14377:14379   */\n      0x28\n        /* \"#utility.yul\":14357:14375   */\n      swap1\n      dup3\n      add\n        /* \"#utility.yul\":14350:14380   */\n      mstore\n        /* \"#utility.yul\":14416:14450   */\n      0x455243313135353a204552433131353552656365697665722072656a65637465\n        /* \"#utility.yul\":14411:14413   */\n      0x40\n        /* \"#utility.yul\":14396:14414   */\n      dup3\n      add\n        /* \"#utility.yul\":14389:14451   */\n      mstore\n      shl(0xc0, 0x6420746f6b656e73)\n        /* \"#utility.yul\":14482:14484   */\n      0x60\n        /* \"#utility.yul\":14467:14485   */\n      dup3\n      add\n        /* \"#utility.yul\":14460:14498   */\n      mstore\n        /* \"#utility.yul\":14530:14533   */\n      0x80\n        /* \"#utility.yul\":14515:14534   */\n      add\n      swap1\n        /* \"#utility.yul\":14310:14540   */\n      jump\t// out\n        /* \"#utility.yul\":15774:16175   */\n    tag_224:\n        /* \"#utility.yul\":15976:15978   */\n      0x20\n        /* \"#utility.yul\":15958:15979   */\n      dup1\n      dup3\n      mstore\n        /* \"#utility.yul\":16015:16017   */\n      0x25\n        /* \"#utility.yul\":15995:16013   */\n      swap1\n      dup3\n      add\n        /* \"#utility.yul\":15988:16018   */\n      mstore\n        /* \"#utility.yul\":16054:16088   */\n      0x455243313135353a207472616e7366657220746f20746865207a65726f206164\n        /* \"#utility.yul\":16049:16051   */\n      0x40\n        /* \"#utility.yul\":16034:16052   */\n      dup3\n      add\n        /* \"#utility.yul\":16027:16089   */\n      mstore\n      shl(0xd8, 0x6472657373)\n        /* \"#utility.yul\":16120:16122   */\n      0x60\n        /* \"#utility.yul\":16105:16123   */\n      dup3\n      add\n        /* \"#utility.yul\":16098:16133   */\n      mstore\n        /* \"#utility.yul\":16165:16168   */\n      0x80\n        /* \"#utility.yul\":16150:16169   */\n      add\n      swap1\n        /* \"#utility.yul\":15948:16175   */\n      jump\t// out\n        /* \"#utility.yul\":16599:17005   */\n    tag_235:\n        /* \"#utility.yul\":16801:16803   */\n      0x20\n        /* \"#utility.yul\":16783:16804   */\n      dup1\n      dup3\n      mstore\n        /* \"#utility.yul\":16840:16842   */\n      0x2a\n        /* \"#utility.yul\":16820:16838   */\n      swap1\n      dup3\n      add\n        /* \"#utility.yul\":16813:16843   */\n      mstore\n        /* \"#utility.yul\":16879:16913   */\n      0x455243313135353a20696e73756666696369656e742062616c616e636520666f\n        /* \"#utility.yul\":16874:16876   */\n      0x40\n        /* \"#utility.yul\":16859:16877   */\n      dup3\n      add\n        /* \"#utility.yul\":16852:16914   */\n      mstore\n      shl(0xb1, 0x39103a3930b739b332b9)\n        /* \"#utility.yul\":16945:16947   */\n      0x60\n        /* \"#utility.yul\":16930:16948   */\n      dup3\n      add\n        /* \"#utility.yul\":16923:16963   */\n      mstore\n        /* \"#utility.yul\":16995:16998   */\n      0x80\n        /* \"#utility.yul\":16980:16999   */\n      add\n      swap1\n        /* \"#utility.yul\":16773:17005   */\n      jump\t// out\n        /* \"#utility.yul\":19002:20483   */\n    tag_57:\n        /* \"#utility.yul\":19185:19187   */\n      0x20\n        /* \"#utility.yul\":19174:19183   */\n      dup2\n        /* \"#utility.yul\":19167:19188   */\n      mstore\n        /* \"#utility.yul\":19148:19152   */\n      0x00\n        /* \"#utility.yul\":19223:19229   */\n      dup3\n        /* \"#utility.yul\":19217:19230   */\n      mload\n        /* \"#utility.yul\":19266:19270   */\n      0xe0\n        /* \"#utility.yul\":19261:19263   */\n      0x20\n        /* \"#utility.yul\":19250:19259   */\n      dup5\n        /* \"#utility.yul\":19246:19264   */\n      add\n        /* \"#utility.yul\":19239:19271   */\n      mstore\n        /* \"#utility.yul\":19294:19345   */\n      tag_488\n        /* \"#utility.yul\":19340:19343   */\n      0x0100\n        /* \"#utility.yul\":19329:19338   */\n      dup5\n        /* \"#utility.yul\":19325:19344   */\n      add\n        /* \"#utility.yul\":19311:19323   */\n      dup3\n        /* \"#utility.yul\":19294:19345   */\n      tag_446\n      jump\t// in\n    tag_488:\n        /* \"#utility.yul\":19280:19345   */\n      swap1\n      pop\n        /* \"#utility.yul\":19394:19396   */\n      0x20\n        /* \"#utility.yul\":19386:19392   */\n      dup5\n        /* \"#utility.yul\":19382:19397   */\n      add\n        /* \"#utility.yul\":19376:19398   */\n      mload\n        /* \"#utility.yul\":19421:19423   */\n      0x1f\n        /* \"#utility.yul\":19417:19424   */\n      not\n        /* \"#utility.yul\":19488:19490   */\n      dup1\n        /* \"#utility.yul\":19476:19485   */\n      dup6\n        /* \"#utility.yul\":19468:19474   */\n      dup5\n        /* \"#utility.yul\":19464:19486   */\n      sub\n        /* \"#utility.yul\":19460:19491   */\n      add\n        /* \"#utility.yul\":19455:19457   */\n      0x40\n        /* \"#utility.yul\":19444:19453   */\n      dup7\n        /* \"#utility.yul\":19440:19458   */\n      add\n        /* \"#utility.yul\":19433:19492   */\n      mstore\n        /* \"#utility.yul\":19515:19555   */\n      tag_489\n        /* \"#utility.yul\":19548:19554   */\n      dup4\n        /* \"#utility.yul\":19532:19546   */\n      dup4\n        /* \"#utility.yul\":19515:19555   */\n      tag_446\n      jump\t// in\n    tag_489:\n        /* \"#utility.yul\":19501:19555   */\n      swap3\n      pop\n        /* \"#utility.yul\":19604:19606   */\n      0x40\n        /* \"#utility.yul\":19596:19602   */\n      dup7\n        /* \"#utility.yul\":19592:19607   */\n      add\n        /* \"#utility.yul\":19586:19608   */\n      mload\n        /* \"#utility.yul\":19564:19608   */\n      swap2\n      pop\n        /* \"#utility.yul\":19672:19674   */\n      dup1\n        /* \"#utility.yul\":19660:19669   */\n      dup6\n        /* \"#utility.yul\":19652:19658   */\n      dup5\n        /* \"#utility.yul\":19648:19670   */\n      sub\n        /* \"#utility.yul\":19644:19675   */\n      add\n        /* \"#utility.yul\":19639:19641   */\n      0x60\n        /* \"#utility.yul\":19628:19637   */\n      dup7\n        /* \"#utility.yul\":19624:19642   */\n      add\n        /* \"#utility.yul\":19617:19676   */\n      mstore\n        /* \"#utility.yul\":19699:19739   */\n      tag_490\n        /* \"#utility.yul\":19732:19738   */\n      dup4\n        /* \"#utility.yul\":19716:19730   */\n      dup4\n        /* \"#utility.yul\":19699:19739   */\n      tag_446\n      jump\t// in\n    tag_490:\n        /* \"#utility.yul\":19685:19739   */\n      swap3\n      pop\n        /* \"#utility.yul\":19788:19790   */\n      0x60\n        /* \"#utility.yul\":19780:19786   */\n      dup7\n        /* \"#utility.yul\":19776:19791   */\n      add\n        /* \"#utility.yul\":19770:19792   */\n      mload\n        /* \"#utility.yul\":19748:19792   */\n      swap2\n      pop\n        /* \"#utility.yul\":19857:19859   */\n      dup1\n        /* \"#utility.yul\":19845:19854   */\n      dup6\n        /* \"#utility.yul\":19837:19843   */\n      dup5\n        /* \"#utility.yul\":19833:19855   */\n      sub\n        /* \"#utility.yul\":19829:19860   */\n      add\n        /* \"#utility.yul\":19823:19826   */\n      0x80\n        /* \"#utility.yul\":19812:19821   */\n      dup7\n        /* \"#utility.yul\":19808:19827   */\n      add\n        /* \"#utility.yul\":19801:19861   */\n      mstore\n        /* \"#utility.yul\":19884:19924   */\n      tag_491\n        /* \"#utility.yul\":19917:19923   */\n      dup4\n        /* \"#utility.yul\":19901:19915   */\n      dup4\n        /* \"#utility.yul\":19884:19924   */\n      tag_446\n      jump\t// in\n    tag_491:\n        /* \"#utility.yul\":19870:19924   */\n      swap3\n      pop\n        /* \"#utility.yul\":19973:19976   */\n      0x80\n        /* \"#utility.yul\":19965:19971   */\n      dup7\n        /* \"#utility.yul\":19961:19977   */\n      add\n        /* \"#utility.yul\":19955:19978   */\n      mload\n        /* \"#utility.yul\":19933:19978   */\n      swap2\n      pop\n        /* \"#utility.yul\":20043:20045   */\n      dup1\n        /* \"#utility.yul\":20031:20040   */\n      dup6\n        /* \"#utility.yul\":20023:20029   */\n      dup5\n        /* \"#utility.yul\":20019:20041   */\n      sub\n        /* \"#utility.yul\":20015:20046   */\n      add\n        /* \"#utility.yul\":20009:20012   */\n      0xa0\n        /* \"#utility.yul\":19998:20007   */\n      dup7\n        /* \"#utility.yul\":19994:20013   */\n      add\n        /* \"#utility.yul\":19987:20047   */\n      mstore\n        /* \"#utility.yul\":20070:20110   */\n      tag_492\n        /* \"#utility.yul\":20103:20109   */\n      dup4\n        /* \"#utility.yul\":20087:20101   */\n      dup4\n        /* \"#utility.yul\":20070:20110   */\n      tag_446\n      jump\t// in\n    tag_492:\n        /* \"#utility.yul\":20056:20110   */\n      swap3\n      pop\n        /* \"#utility.yul\":20159:20162   */\n      0xa0\n        /* \"#utility.yul\":20151:20157   */\n      dup7\n        /* \"#utility.yul\":20147:20163   */\n      add\n        /* \"#utility.yul\":20141:20164   */\n      mload\n        /* \"#utility.yul\":20119:20164   */\n      swap2\n      pop\n        /* \"#utility.yul\":20229:20231   */\n      dup1\n        /* \"#utility.yul\":20217:20226   */\n      dup6\n        /* \"#utility.yul\":20209:20215   */\n      dup5\n        /* \"#utility.yul\":20205:20227   */\n      sub\n        /* \"#utility.yul\":20201:20232   */\n      add\n        /* \"#utility.yul\":20195:20198   */\n      0xc0\n        /* \"#utility.yul\":20184:20193   */\n      dup7\n        /* \"#utility.yul\":20180:20199   */\n      add\n        /* \"#utility.yul\":20173:20233   */\n      mstore\n        /* \"#utility.yul\":20256:20296   */\n      tag_493\n        /* \"#utility.yul\":20289:20295   */\n      dup4\n        /* \"#utility.yul\":20273:20287   */\n      dup4\n        /* \"#utility.yul\":20256:20296   */\n      tag_446\n      jump\t// in\n    tag_493:\n        /* \"#utility.yul\":20242:20296   */\n      swap3\n      pop\n        /* \"#utility.yul\":20345:20348   */\n      0xc0\n        /* \"#utility.yul\":20337:20343   */\n      dup7\n        /* \"#utility.yul\":20333:20349   */\n      add\n        /* \"#utility.yul\":20327:20350   */\n      mload\n        /* \"#utility.yul\":20305:20350   */\n      swap2\n      pop\n        /* \"#utility.yul\":20416:20418   */\n      dup1\n        /* \"#utility.yul\":20404:20413   */\n      dup6\n        /* \"#utility.yul\":20396:20402   */\n      dup5\n        /* \"#utility.yul\":20392:20414   */\n      sub\n        /* \"#utility.yul\":20388:20419   */\n      add\n        /* \"#utility.yul\":20381:20385   */\n      0xe0\n        /* \"#utility.yul\":20370:20379   */\n      dup7\n        /* \"#utility.yul\":20366:20386   */\n      add\n        /* \"#utility.yul\":20359:20420   */\n      mstore\n      pop\n        /* \"#utility.yul\":20437:20477   */\n      tag_470\n        /* \"#utility.yul\":20470:20476   */\n      dup3\n        /* \"#utility.yul\":20454:20468   */\n      dup3\n        /* \"#utility.yul\":20437:20477   */\n      tag_446\n      jump\t// in\n        /* \"#utility.yul\":20923:21171   */\n    tag_395:\n        /* \"#utility.yul\":20990:20992   */\n      0x40\n        /* \"#utility.yul\":20984:20993   */\n      mload\n        /* \"#utility.yul\":21032:21036   */\n      0xe0\n        /* \"#utility.yul\":21020:21037   */\n      dup2\n      add\n        /* \"#utility.yul\":21067:21085   */\n      0xffffffffffffffff\n        /* \"#utility.yul\":21052:21086   */\n      dup2\n      gt\n        /* \"#utility.yul\":21088:21110   */\n      dup3\n      dup3\n      lt\n        /* \"#utility.yul\":21049:21111   */\n      or\n        /* \"#utility.yul\":21046:21048   */\n      iszero\n      tag_499\n      jumpi\n        /* \"#utility.yul\":21114:21132   */\n      tag_499\n      tag_359\n      jump\t// in\n    tag_499:\n        /* \"#utility.yul\":21150:21152   */\n      0x40\n        /* \"#utility.yul\":21143:21165   */\n      mstore\n        /* \"#utility.yul\":20964:21171   */\n      swap1\n      jump\t// out\n        /* \"#utility.yul\":21176:21359   */\n    tag_347:\n        /* \"#utility.yul\":21236:21240   */\n      0x00\n        /* \"#utility.yul\":21269:21287   */\n      0xffffffffffffffff\n        /* \"#utility.yul\":21261:21267   */\n      dup3\n        /* \"#utility.yul\":21258:21288   */\n      gt\n        /* \"#utility.yul\":21255:21257   */\n      iszero\n      tag_502\n      jumpi\n        /* \"#utility.yul\":21291:21309   */\n      tag_502\n      tag_359\n      jump\t// in\n    tag_502:\n      pop\n        /* \"#utility.yul\":21336:21337   */\n      0x05\n        /* \"#utility.yul\":21332:21346   */\n      shl\n        /* \"#utility.yul\":21348:21352   */\n      0x20\n        /* \"#utility.yul\":21328:21353   */\n      add\n      swap1\n        /* \"#utility.yul\":21245:21359   */\n      jump\t// out\n        /* \"#utility.yul\":21364:21492   */\n    tag_237:\n        /* \"#utility.yul\":21404:21407   */\n      0x00\n        /* \"#utility.yul\":21435:21436   */\n      dup3\n        /* \"#utility.yul\":21431:21437   */\n      not\n        /* \"#utility.yul\":21428:21429   */\n      dup3\n        /* \"#utility.yul\":21425:21438   */\n      gt\n        /* \"#utility.yul\":21422:21424   */\n      iszero\n      tag_505\n      jumpi\n        /* \"#utility.yul\":21441:21459   */\n      tag_505\n      tag_506\n      jump\t// in\n    tag_505:\n      pop\n        /* \"#utility.yul\":21477:21486   */\n      add\n      swap1\n        /* \"#utility.yul\":21412:21492   */\n      jump\t// out\n        /* \"#utility.yul\":21497:21755   */\n    tag_449:\n        /* \"#utility.yul\":21569:21570   */\n      0x00\n        /* \"#utility.yul\":21579:21692   */\n    tag_508:\n        /* \"#utility.yul\":21593:21599   */\n      dup4\n        /* \"#utility.yul\":21590:21591   */\n      dup2\n        /* \"#utility.yul\":21587:21600   */\n      lt\n        /* \"#utility.yul\":21579:21692   */\n      iszero\n      tag_510\n      jumpi\n        /* \"#utility.yul\":21669:21680   */\n      dup2\n      dup2\n      add\n        /* \"#utility.yul\":21663:21681   */\n      mload\n        /* \"#utility.yul\":21650:21661   */\n      dup4\n      dup3\n      add\n        /* \"#utility.yul\":21643:21682   */\n      mstore\n        /* \"#utility.yul\":21615:21617   */\n      0x20\n        /* \"#utility.yul\":21608:21618   */\n      add\n        /* \"#utility.yul\":21579:21692   */\n      jump(tag_508)\n    tag_510:\n        /* \"#utility.yul\":21710:21716   */\n      dup4\n        /* \"#utility.yul\":21707:21708   */\n      dup2\n        /* \"#utility.yul\":21704:21717   */\n      gt\n        /* \"#utility.yul\":21701:21703   */\n      iszero\n      tag_511\n      jumpi\n        /* \"#utility.yul\":21745:21746   */\n      0x00\n        /* \"#utility.yul\":21736:21742   */\n      dup5\n        /* \"#utility.yul\":21731:21734   */\n      dup5\n        /* \"#utility.yul\":21727:21743   */\n      add\n        /* \"#utility.yul\":21720:21747   */\n      mstore\n        /* \"#utility.yul\":21701:21703   */\n    tag_511:\n      pop\n        /* \"#utility.yul\":21550:21755   */\n      pop\n      pop\n      pop\n      jump\t// out\n        /* \"#utility.yul\":21760:22140   */\n    tag_90:\n        /* \"#utility.yul\":21839:21840   */\n      0x01\n        /* \"#utility.yul\":21835:21847   */\n      dup2\n      dup2\n      shr\n      swap1\n        /* \"#utility.yul\":21882:21894   */\n      dup3\n      and\n      dup1\n        /* \"#utility.yul\":21903:21905   */\n      tag_513\n      jumpi\n        /* \"#utility.yul\":21957:21961   */\n      0x7f\n        /* \"#utility.yul\":21949:21955   */\n      dup3\n        /* \"#utility.yul\":21945:21962   */\n      and\n        /* \"#utility.yul\":21935:21962   */\n      swap2\n      pop\n        /* \"#utility.yul\":21903:21905   */\n    tag_513:\n        /* \"#utility.yul\":22010:22012   */\n      0x20\n        /* \"#utility.yul\":22002:22008   */\n      dup3\n        /* \"#utility.yul\":21999:22013   */\n      lt\n        /* \"#utility.yul\":21979:21997   */\n      dup2\n        /* \"#utility.yul\":21976:22014   */\n      eq\n        /* \"#utility.yul\":21973:21975   */\n      iszero\n      tag_514\n      jumpi\n        /* \"#utility.yul\":22056:22066   */\n      0x4e487b71\n        /* \"#utility.yul\":22051:22054   */\n      0xe0\n        /* \"#utility.yul\":22047:22067   */\n      shl\n        /* \"#utility.yul\":22044:22045   */\n      0x00\n        /* \"#utility.yul\":22037:22068   */\n      mstore\n        /* \"#utility.yul\":22091:22095   */\n      0x22\n        /* \"#utility.yul\":22088:22089   */\n      0x04\n        /* \"#utility.yul\":22081:22096   */\n      mstore\n        /* \"#utility.yul\":22119:22123   */\n      0x24\n        /* \"#utility.yul\":22116:22117   */\n      0x00\n        /* \"#utility.yul\":22109:22124   */\n      revert\n        /* \"#utility.yul\":21973:21975   */\n    tag_514:\n      pop\n        /* \"#utility.yul\":21815:22140   */\n      swap2\n      swap1\n      pop\n      jump\t// out\n        /* \"#utility.yul\":22145:22394   */\n    tag_349:\n        /* \"#utility.yul\":22255:22257   */\n      0x1f\n        /* \"#utility.yul\":22236:22249   */\n      dup3\n      add\n      not(0x1f)\n        /* \"#utility.yul\":22232:22259   */\n      and\n        /* \"#utility.yul\":22220:22260   */\n      dup2\n      add\n        /* \"#utility.yul\":22290:22308   */\n      0xffffffffffffffff\n        /* \"#utility.yul\":22275:22309   */\n      dup2\n      gt\n        /* \"#utility.yul\":22311:22333   */\n      dup3\n      dup3\n      lt\n        /* \"#utility.yul\":22272:22334   */\n      or\n        /* \"#utility.yul\":22269:22271   */\n      iszero\n      tag_517\n      jumpi\n        /* \"#utility.yul\":22337:22355   */\n      tag_517\n      tag_359\n      jump\t// in\n    tag_517:\n        /* \"#utility.yul\":22373:22375   */\n      0x40\n        /* \"#utility.yul\":22366:22388   */\n      mstore\n      pop\n      pop\n        /* \"#utility.yul\":22192:22394   */\n      jump\t// out\n        /* \"#utility.yul\":22399:22534   */\n    tag_141:\n        /* \"#utility.yul\":22438:22441   */\n      0x00\n      not(0x00)\n        /* \"#utility.yul\":22459:22476   */\n      dup3\n      eq\n        /* \"#utility.yul\":22456:22458   */\n      iszero\n      tag_520\n      jumpi\n        /* \"#utility.yul\":22479:22497   */\n      tag_520\n      tag_506\n      jump\t// in\n    tag_520:\n      pop\n        /* \"#utility.yul\":22526:22527   */\n      0x01\n        /* \"#utility.yul\":22515:22528   */\n      add\n      swap1\n        /* \"#utility.yul\":22446:22534   */\n      jump\t// out\n        /* \"#utility.yul\":22539:22666   */\n    tag_506:\n        /* \"#utility.yul\":22600:22610   */\n      0x4e487b71\n        /* \"#utility.yul\":22595:22598   */\n      0xe0\n        /* \"#utility.yul\":22591:22611   */\n      shl\n        /* \"#utility.yul\":22588:22589   */\n      0x00\n        /* \"#utility.yul\":22581:22612   */\n      mstore\n        /* \"#utility.yul\":22631:22635   */\n      0x11\n        /* \"#utility.yul\":22628:22629   */\n      0x04\n        /* \"#utility.yul\":22621:22636   */\n      mstore\n        /* \"#utility.yul\":22655:22659   */\n      0x24\n        /* \"#utility.yul\":22652:22653   */\n      0x00\n        /* \"#utility.yul\":22645:22660   */\n      revert\n        /* \"#utility.yul\":22671:22798   */\n    tag_359:\n        /* \"#utility.yul\":22732:22742   */\n      0x4e487b71\n        /* \"#utility.yul\":22727:22730   */\n      0xe0\n        /* \"#utility.yul\":22723:22743   */\n      shl\n        /* \"#utility.yul\":22720:22721   */\n      0x00\n        /* \"#utility.yul\":22713:22744   */\n      mstore\n        /* \"#utility.yul\":22763:22767   */\n      0x41\n        /* \"#utility.yul\":22760:22761   */\n      0x04\n        /* \"#utility.yul\":22753:22768   */\n      mstore\n        /* \"#utility.yul\":22787:22791   */\n      0x24\n        /* \"#utility.yul\":22784:22785   */\n      0x00\n        /* \"#utility.yul\":22777:22792   */\n      revert\n        /* \"#utility.yul\":22803:22988   */\n    tag_293:\n        /* \"#utility.yul\":22838:22841   */\n      0x00\n        /* \"#utility.yul\":22880:22881   */\n      0x03\n        /* \"#utility.yul\":22862:22878   */\n      returndatasize\n        /* \"#utility.yul\":22859:22882   */\n      gt\n        /* \"#utility.yul\":22856:22858   */\n      iszero\n      tag_524\n      jumpi\n        /* \"#utility.yul\":22930:22931   */\n      0x04\n        /* \"#utility.yul\":22925:22928   */\n      dup2\n        /* \"#utility.yul\":22920:22923   */\n      dup3\n        /* \"#utility.yul\":22905:22932   */\n      returndatacopy\n        /* \"#utility.yul\":22961:22971   */\n      mload\n        /* \"#utility.yul\":22956:22959   */\n      0xe0\n        /* \"#utility.yul\":22952:22972   */\n      shr\n        /* \"#utility.yul\":22856:22858   */\n    tag_524:\n        /* \"#utility.yul\":22846:22988   */\n      swap1\n      jump\t// out\n        /* \"#utility.yul\":22993:23664   */\n    tag_295:\n        /* \"#utility.yul\":23032:23035   */\n      0x00\n        /* \"#utility.yul\":23074:23078   */\n      0x44\n        /* \"#utility.yul\":23056:23072   */\n      returndatasize\n        /* \"#utility.yul\":23053:23079   */\n      lt\n        /* \"#utility.yul\":23050:23052   */\n      iszero\n      tag_526\n      jumpi\n        /* \"#utility.yul\":23040:23664   */\n      swap1\n      jump\t// out\n        /* \"#utility.yul\":23050:23052   */\n    tag_526:\n        /* \"#utility.yul\":23116:23118   */\n      0x40\n        /* \"#utility.yul\":23110:23119   */\n      mload\n      not(0x03)\n        /* \"#utility.yul\":23181:23197   */\n      returndatasize\n        /* \"#utility.yul\":23177:23202   */\n      dup2\n      add\n        /* \"#utility.yul\":23174:23175   */\n      0x04\n        /* \"#utility.yul\":23110:23119   */\n      dup4\n        /* \"#utility.yul\":23153:23203   */\n      returndatacopy\n        /* \"#utility.yul\":23232:23236   */\n      dup2\n        /* \"#utility.yul\":23226:23237   */\n      mload\n        /* \"#utility.yul\":23256:23272   */\n      returndatasize\n        /* \"#utility.yul\":23291:23309   */\n      0xffffffffffffffff\n        /* \"#utility.yul\":23362:23364   */\n      dup2\n        /* \"#utility.yul\":23355:23359   */\n      0x24\n        /* \"#utility.yul\":23347:23353   */\n      dup5\n        /* \"#utility.yul\":23343:23360   */\n      add\n        /* \"#utility.yul\":23340:23365   */\n      gt\n        /* \"#utility.yul\":23335:23337   */\n      dup2\n        /* \"#utility.yul\":23327:23333   */\n      dup5\n        /* \"#utility.yul\":23324:23338   */\n      gt\n        /* \"#utility.yul\":23321:23366   */\n      or\n        /* \"#utility.yul\":23318:23320   */\n      iszero\n      tag_527\n      jumpi\n        /* \"#utility.yul\":23369:23374   */\n      pop\n      pop\n      pop\n      pop\n      pop\n        /* \"#utility.yul\":23040:23664   */\n      swap1\n      jump\t// out\n        /* \"#utility.yul\":23318:23320   */\n    tag_527:\n        /* \"#utility.yul\":23406:23412   */\n      dup3\n        /* \"#utility.yul\":23400:23404   */\n      dup6\n        /* \"#utility.yul\":23396:23413   */\n      add\n        /* \"#utility.yul\":23385:23413   */\n      swap2\n      pop\n        /* \"#utility.yul\":23442:23445   */\n      dup2\n        /* \"#utility.yul\":23436:23446   */\n      mload\n        /* \"#utility.yul\":23469:23471   */\n      dup2\n        /* \"#utility.yul\":23461:23467   */\n      dup2\n        /* \"#utility.yul\":23458:23472   */\n      gt\n        /* \"#utility.yul\":23455:23457   */\n      iszero\n      tag_528\n      jumpi\n        /* \"#utility.yul\":23475:23480   */\n      pop\n      pop\n      pop\n      pop\n      pop\n      pop\n        /* \"#utility.yul\":23040:23664   */\n      swap1\n      jump\t// out\n        /* \"#utility.yul\":23455:23457   */\n    tag_528:\n        /* \"#utility.yul\":23559:23561   */\n      dup5\n        /* \"#utility.yul\":23540:23556   */\n      returndatasize\n        /* \"#utility.yul\":23534:23538   */\n      dup8\n        /* \"#utility.yul\":23530:23557   */\n      add\n        /* \"#utility.yul\":23526:23562   */\n      add\n        /* \"#utility.yul\":23519:23523   */\n      0x20\n        /* \"#utility.yul\":23510:23516   */\n      dup3\n        /* \"#utility.yul\":23505:23508   */\n      dup6\n        /* \"#utility.yul\":23501:23517   */\n      add\n        /* \"#utility.yul\":23497:23524   */\n      add\n        /* \"#utility.yul\":23494:23563   */\n      gt\n        /* \"#utility.yul\":23491:23493   */\n      iszero\n      tag_529\n      jumpi\n        /* \"#utility.yul\":23566:23571   */\n      pop\n      pop\n      pop\n      pop\n      pop\n      pop\n        /* \"#utility.yul\":23040:23664   */\n      swap1\n      jump\t// out\n        /* \"#utility.yul\":23491:23493   */\n    tag_529:\n        /* \"#utility.yul\":23582:23639   */\n      tag_530\n        /* \"#utility.yul\":23633:23637   */\n      0x20\n        /* \"#utility.yul\":23624:23630   */\n      dup3\n        /* \"#utility.yul\":23616:23622   */\n      dup7\n        /* \"#utility.yul\":23612:23631   */\n      add\n        /* \"#utility.yul\":23608:23638   */\n      add\n        /* \"#utility.yul\":23602:23606   */\n      dup8\n        /* \"#utility.yul\":23582:23639   */\n      tag_349\n      jump\t// in\n    tag_530:\n      pop\n        /* \"#utility.yul\":23655:23658   */\n      swap1\n      swap6\n        /* \"#utility.yul\":23040:23664   */\n      swap5\n      pop\n      pop\n      pop\n      pop\n      pop\n      jump\t// out\n        /* \"#utility.yul\":23669:23800   */\n    tag_431:\n      not(sub(shl(0xe0, 0x01), 0x01))\n        /* \"#utility.yul\":23743:23775   */\n      dup2\n      and\n        /* \"#utility.yul\":23733:23776   */\n      dup2\n      eq\n        /* \"#utility.yul\":23723:23725   */\n      tag_215\n      jumpi\n        /* \"#utility.yul\":23790:23791   */\n      0x00\n        /* \"#utility.yul\":23787:23788   */\n      dup1\n        /* \"#utility.yul\":23780:23792   */\n      revert\n\n    auxdata: 0xa26469706673582212207381ea11541cc413442c3c508c792e9abc328b15521fa426e48425e77576bf2f64736f6c63430008040033\n}\n",
				"bytecode": {
					"linkReferences": {},
					"object": "60806040523480156200001157600080fd5b50604080518082019091526012815271151c985e98589a5b1a59185908125919585b60721b6020820152620000468162000058565b50620000523362000071565b620001a6565b80516200006d906002906020840190620000c3565b5050565b600380546001600160a01b038381166001600160a01b0319831681179093556040519116919082907f8be0079c531659141344cd1fd0a4f28419497f9722a3daafe3b4186f6b6457e090600090a35050565b828054620000d19062000169565b90600052602060002090601f016020900481019282620000f5576000855562000140565b82601f106200011057805160ff191683800117855562000140565b8280016001018555821562000140579182015b828111156200014057825182559160200191906001019062000123565b506200014e92915062000152565b5090565b5b808211156200014e576000815560010162000153565b600181811c908216806200017e57607f821691505b60208210811415620001a057634e487b7160e01b600052602260045260246000fd5b50919050565b6121ac80620001b66000396000f3fe608060405234801561001057600080fd5b50600436106100ce5760003560e01c8063715018a61161008c578063a22cb46511610066578063a22cb465146101c7578063e985e9c5146101da578063f242432a14610216578063f2fde38b1461022957600080fd5b8063715018a614610184578063818648e11461018c5780638da5cb5b146101ac57600080fd5b8062fdd58e146100d357806301ffc9a7146100f95780630e89341c1461011c5780632eb2c2d61461013c57806342abd5a4146101515780634e1273f414610164575b600080fd5b6100e66100e1366004611a5f565b61023c565b6040519081526020015b60405180910390f35b61010c610107366004611b53565b6102d3565b60405190151581526020016100f0565b61012f61012a366004611bc6565b610325565b6040516100f09190611dc3565b61014f61014a3660046117a3565b6103c7565b005b61014f61015f3660046118e6565b61045e565b610177610172366004611a88565b610649565b6040516100f09190611d82565b61014f6107ab565b61019f61019a366004611b8b565b610811565b6040516100f09190611ead565b6003546040516001600160a01b0390911681526020016100f0565b61014f6101d53660046118ac565b610c7f565b61010c6101e8366004611771565b6001600160a01b03918216600090815260016020908152604080832093909416825291909152205460ff1690565b61014f610224366004611849565b610c8e565b61014f610237366004611750565b610d15565b60006001600160a01b0383166102ad5760405162461bcd60e51b815260206004820152602b60248201527f455243313135353a2062616c616e636520717565727920666f7220746865207a60448201526a65726f206164647265737360a81b60648201526084015b60405180910390fd5b506000908152602081815260408083206001600160a01b03949094168352929052205490565b60006001600160e01b03198216636cdb3d1360e11b148061030457506001600160e01b031982166303a24d0760e21b145b8061031f57506301ffc9a760e01b6001600160e01b03198316145b92915050565b60008181526006602052604090208054606091906103429061200f565b80601f016020809104026020016040519081016040528092919081815260200182805461036e9061200f565b80156103bb5780601f10610390576101008083540402835291602001916103bb565b820191906000526020600020905b81548152906001019060200180831161039e57829003601f168201915b50505050509050919050565b6001600160a01b0385163314806103e357506103e385336101e8565b61044a5760405162461bcd60e51b815260206004820152603260248201527f455243313135353a207472616e736665722063616c6c6572206973206e6f74206044820152711bdddb995c881b9bdc88185c1c1c9bdd995960721b60648201526084016102a4565b6104578585858585610de0565b5050505050565b600061046960045490565b9050610479600480546001019055565b8351602080860151604080880151608089015160a08a015160c08b015193516000976104a9979096959101611c60565b60405160208183030381529060405290506104c686838684610fd9565b6040518060e0016040528086600001518152602001866020015181526020018660400151815260200186606001518152602001866080015181526020018660a0015181526020018660c00151815250600586600001516040516105299190611c44565b908152602001604051809103902060008201518160000190805190602001906105539291906115b8565b50602082810151805161056c92600185019201906115b8565b50604082015180516105889160028401916020909101906115b8565b50606082015180516105a49160038401916020909101906115b8565b50608082015180516105c09160048401916020909101906115b8565b5060a082015180516105dc9160058401916020909101906115b8565b5060c082015180516105f89160068401916020909101906115b8565b50508551600084815260076020908152604090912082516106209450909291909101906115b8565b5060008281526006602090815260409091208451610640928601906115b8565b50505050505050565b606081518351146106ae5760405162461bcd60e51b815260206004820152602960248201527f455243313135353a206163636f756e747320616e6420696473206c656e677468604482015268040dad2e6dac2e8c6d60bb1b60648201526084016102a4565b6000835167ffffffffffffffff8111156106d857634e487b7160e01b600052604160045260246000fd5b604051908082528060200260200182016040528015610701578160200160208202803683370190505b50905060005b84518110156107a35761076885828151811061073357634e487b7160e01b600052603260045260246000fd5b602002602001015185838151811061075b57634e487b7160e01b600052603260045260246000fd5b602002602001015161023c565b82828151811061078857634e487b7160e01b600052603260045260246000fd5b602090810291909101015261079c81612077565b9050610707565b509392505050565b6003546001600160a01b031633146108055760405162461bcd60e51b815260206004820181905260248201527f4f776e61626c653a2063616c6c6572206973206e6f7420746865206f776e657260448201526064016102a4565b61080f60006110e3565b565b6108516040518060e00160405280606081526020016060815260200160608152602001606081526020016060815260200160608152602001606081525090565b6005826040516108619190611c44565b90815260200160405180910390206040518060e001604052908160008201805461088a9061200f565b80601f01602080910402602001604051908101604052809291908181526020018280546108b69061200f565b80156109035780601f106108d857610100808354040283529160200191610903565b820191906000526020600020905b8154815290600101906020018083116108e657829003601f168201915b5050505050815260200160018201805461091c9061200f565b80601f01602080910402602001604051908101604052809291908181526020018280546109489061200f565b80156109955780601f1061096a57610100808354040283529160200191610995565b820191906000526020600020905b81548152906001019060200180831161097857829003601f168201915b505050505081526020016002820180546109ae9061200f565b80601f01602080910402602001604051908101604052809291908181526020018280546109da9061200f565b8015610a275780601f106109fc57610100808354040283529160200191610a27565b820191906000526020600020905b815481529060010190602001808311610a0a57829003601f168201915b50505050508152602001600382018054610a409061200f565b80601f0160208091040260200160405190810160405280929190818152602001828054610a6c9061200f565b8015610ab95780601f10610a8e57610100808354040283529160200191610ab9565b820191906000526020600020905b815481529060010190602001808311610a9c57829003601f168201915b50505050508152602001600482018054610ad29061200f565b80601f0160208091040260200160405190810160405280929190818152602001828054610afe9061200f565b8015610b4b5780601f10610b2057610100808354040283529160200191610b4b565b820191906000526020600020905b815481529060010190602001808311610b2e57829003601f168201915b50505050508152602001600582018054610b649061200f565b80601f0160208091040260200160405190810160405280929190818152602001828054610b909061200f565b8015610bdd5780601f10610bb257610100808354040283529160200191610bdd565b820191906000526020600020905b815481529060010190602001808311610bc057829003601f168201915b50505050508152602001600682018054610bf69061200f565b80601f0160208091040260200160405190810160405280929190818152602001828054610c229061200f565b8015610c6f5780601f10610c4457610100808354040283529160200191610c6f565b820191906000526020600020905b815481529060010190602001808311610c5257829003601f168201915b5050505050815250509050919050565b610c8a338383611135565b5050565b6001600160a01b038516331480610caa5750610caa85336101e8565b610d085760405162461bcd60e51b815260206004820152602960248201527f455243313135353a2063616c6c6572206973206e6f74206f776e6572206e6f7260448201526808185c1c1c9bdd995960ba1b60648201526084016102a4565b6104578585858585611216565b6003546001600160a01b03163314610d6f5760405162461bcd60e51b815260206004820181905260248201527f4f776e61626c653a2063616c6c6572206973206e6f7420746865206f776e657260448201526064016102a4565b6001600160a01b038116610dd45760405162461bcd60e51b815260206004820152602660248201527f4f776e61626c653a206e6577206f776e657220697320746865207a65726f206160448201526564647265737360d01b60648201526084016102a4565b610ddd816110e3565b50565b8151835114610e425760405162461bcd60e51b815260206004820152602860248201527f455243313135353a2069647320616e6420616d6f756e7473206c656e677468206044820152670dad2e6dac2e8c6d60c31b60648201526084016102a4565b6001600160a01b038416610e685760405162461bcd60e51b81526004016102a490611e1e565b3360005b8451811015610f6b576000858281518110610e9757634e487b7160e01b600052603260045260246000fd5b602002602001015190506000858381518110610ec357634e487b7160e01b600052603260045260246000fd5b602090810291909101810151600084815280835260408082206001600160a01b038e168352909352919091205490915081811015610f135760405162461bcd60e51b81526004016102a490611e63565b6000838152602081815260408083206001600160a01b038e8116855292528083208585039055908b16825281208054849290610f50908490611fc7565b9250508190555050505080610f6490612077565b9050610e6c565b50846001600160a01b0316866001600160a01b0316826001600160a01b03167f4a39dc06d4c0dbc64b70af90fd698a233a518aa5d07e595d983b8c0526c8f7fb8787604051610fbb929190611d95565b60405180910390a4610fd181878787878761132a565b505050505050565b6001600160a01b0384166110395760405162461bcd60e51b815260206004820152602160248201527f455243313135353a206d696e7420746f20746865207a65726f206164647265736044820152607360f81b60648201526084016102a4565b336110538160008761104a88611495565b61045788611495565b6000848152602081815260408083206001600160a01b038916845290915281208054859290611083908490611fc7565b909155505060408051858152602081018590526001600160a01b0380881692600092918516917fc3d58168c5ae7397731d063d5bbf3d657854427343f4c083240f7aacaa2d0f62910160405180910390a4610457816000878787876114ee565b600380546001600160a01b038381166001600160a01b0319831681179093556040519116919082907f8be0079c531659141344cd1fd0a4f28419497f9722a3daafe3b4186f6b6457e090600090a35050565b816001600160a01b0316836001600160a01b031614156111a95760405162461bcd60e51b815260206004820152602960248201527f455243313135353a2073657474696e6720617070726f76616c20737461747573604482015268103337b91039b2b63360b91b60648201526084016102a4565b6001600160a01b03838116600081815260016020908152604080832094871680845294825291829020805460ff191686151590811790915591519182527f17307eab39ab6107e8899845ad3d59bd9653f200f220920489ca2b5937696c31910160405180910390a3505050565b6001600160a01b03841661123c5760405162461bcd60e51b81526004016102a490611e1e565b3361124c81878761104a88611495565b6000848152602081815260408083206001600160a01b038a1684529091529020548381101561128d5760405162461bcd60e51b81526004016102a490611e63565b6000858152602081815260408083206001600160a01b038b81168552925280832087850390559088168252812080548692906112ca908490611fc7565b909155505060408051868152602081018690526001600160a01b03808916928a821692918616917fc3d58168c5ae7397731d063d5bbf3d657854427343f4c083240f7aacaa2d0f62910160405180910390a46106408288888888886114ee565b6001600160a01b0384163b15610fd15760405163bc197c8160e01b81526001600160a01b0385169063bc197c819061136e9089908990889088908890600401611cdf565b602060405180830381600087803b15801561138857600080fd5b505af19250505080156113b8575060408051601f3d908101601f191682019092526113b591810190611b6f565b60015b611465576113c46120be565b806308c379a014156113fe57506113d96120d6565b806113e45750611400565b8060405162461bcd60e51b81526004016102a49190611dc3565b505b60405162461bcd60e51b815260206004820152603460248201527f455243313135353a207472616e7366657220746f206e6f6e20455243313135356044820152732932b1b2b4bb32b91034b6b83632b6b2b73a32b960611b60648201526084016102a4565b6001600160e01b0319811663bc197c8160e01b146106405760405162461bcd60e51b81526004016102a490611dd6565b604080516001808252818301909252606091600091906020808301908036833701905050905082816000815181106114dd57634e487b7160e01b600052603260045260246000fd5b602090810291909101015292915050565b6001600160a01b0384163b15610fd15760405163f23a6e6160e01b81526001600160a01b0385169063f23a6e61906115329089908990889088908890600401611d3d565b602060405180830381600087803b15801561154c57600080fd5b505af192505050801561157c575060408051601f3d908101601f1916820190925261157991810190611b6f565b60015b611588576113c46120be565b6001600160e01b0319811663f23a6e6160e01b146106405760405162461bcd60e51b81526004016102a490611dd6565b8280546115c49061200f565b90600052602060002090601f0160209004810192826115e6576000855561162c565b82601f106115ff57805160ff191683800117855561162c565b8280016001018555821561162c579182015b8281111561162c578251825591602001919060010190611611565b5061163892915061163c565b5090565b5b80821115611638576000815560010161163d565b80356001600160a01b038116811461166857600080fd5b919050565b600082601f83011261167d578081fd5b8135602061168a82611fa3565b604051611697828261204a565b8381528281019150858301600585901b870184018810156116b6578586fd5b855b858110156116d4578135845292840192908401906001016116b8565b5090979650505050505050565b600082601f8301126116f1578081fd5b813567ffffffffffffffff81111561170b5761170b6120a8565b604051611722601f8301601f19166020018261204a565b818152846020838601011115611736578283fd5b816020850160208301379081016020019190915292915050565b600060208284031215611761578081fd5b61176a82611651565b9392505050565b60008060408385031215611783578081fd5b61178c83611651565b915061179a60208401611651565b90509250929050565b600080600080600060a086880312156117ba578081fd5b6117c386611651565b94506117d160208701611651565b9350604086013567ffffffffffffffff808211156117ed578283fd5b6117f989838a0161166d565b9450606088013591508082111561180e578283fd5b61181a89838a0161166d565b9350608088013591508082111561182f578283fd5b5061183c888289016116e1565b9150509295509295909350565b600080600080600060a08688031215611860578081fd5b61186986611651565b945061187760208701611651565b93506040860135925060608601359150608086013567ffffffffffffffff8111156118a0578182fd5b61183c888289016116e1565b600080604083850312156118be578182fd5b6118c783611651565b9150602083013580151581146118db578182fd5b809150509250929050565b600080600080608085870312156118fb578384fd5b61190485611651565b9350602085013567ffffffffffffffff80821115611920578485fd5b9086019060e08289031215611933578485fd5b61193b611f7a565b823582811115611949578687fd5b6119558a8286016116e1565b825250602083013582811115611969578687fd5b6119758a8286016116e1565b60208301525060408301358281111561198c578687fd5b6119988a8286016116e1565b6040830152506060830135828111156119af578687fd5b6119bb8a8286016116e1565b6060830152506080830135828111156119d2578687fd5b6119de8a8286016116e1565b60808301525060a0830135828111156119f5578687fd5b611a018a8286016116e1565b60a08301525060c083013582811115611a18578687fd5b611a248a8286016116e1565b60c0830152509450604087013593506060870135915080821115611a46578283fd5b50611a53878288016116e1565b91505092959194509250565b60008060408385031215611a71578182fd5b611a7a83611651565b946020939093013593505050565b60008060408385031215611a9a578182fd5b823567ffffffffffffffff80821115611ab1578384fd5b818501915085601f830112611ac4578384fd5b81356020611ad182611fa3565b604051611ade828261204a565b8381528281019150858301600585901b870184018b1015611afd578889fd5b8896505b84871015611b2657611b1281611651565b835260019690960195918301918301611b01565b5096505086013592505080821115611b3c578283fd5b50611b498582860161166d565b9150509250929050565b600060208284031215611b64578081fd5b813561176a81612160565b600060208284031215611b80578081fd5b815161176a81612160565b600060208284031215611b9c578081fd5b813567ffffffffffffffff811115611bb2578182fd5b611bbe848285016116e1565b949350505050565b600060208284031215611bd7578081fd5b5035919050565b6000815180845260208085019450808401835b83811015611c0d57815187529582019590820190600101611bf1565b509495945050505050565b60008151808452611c30816020860160208601611fdf565b601f01601f19169290920160200192915050565b60008251611c56818460208701611fdf565b9190910192915050565b600087516020611c738285838d01611fdf565b885191840191611c868184848d01611fdf565b8851920191611c988184848c01611fdf565b8751920191611caa8184848b01611fdf565b8651920191611cbc8184848a01611fdf565b8551920191611cce8184848901611fdf565b919091019998505050505050505050565b6001600160a01b0386811682528516602082015260a060408201819052600090611d0b90830186611bde565b8281036060840152611d1d8186611bde565b90508281036080840152611d318185611c18565b98975050505050505050565b6001600160a01b03868116825285166020820152604081018490526060810183905260a060808201819052600090611d7790830184611c18565b979650505050505050565b60208152600061176a6020830184611bde565b604081526000611da86040830185611bde565b8281036020840152611dba8185611bde565b95945050505050565b60208152600061176a6020830184611c18565b60208082526028908201527f455243313135353a204552433131353552656365697665722072656a656374656040820152676420746f6b656e7360c01b606082015260800190565b60208082526025908201527f455243313135353a207472616e7366657220746f20746865207a65726f206164604082015264647265737360d81b606082015260800190565b6020808252602a908201527f455243313135353a20696e73756666696369656e742062616c616e636520666f60408201526939103a3930b739b332b960b11b606082015260800190565b602081526000825160e06020840152611eca610100840182611c18565b90506020840151601f1980858403016040860152611ee88383611c18565b92506040860151915080858403016060860152611f058383611c18565b92506060860151915080858403016080860152611f228383611c18565b925060808601519150808584030160a0860152611f3f8383611c18565b925060a08601519150808584030160c0860152611f5c8383611c18565b925060c08601519150808584030160e086015250611dba8282611c18565b60405160e0810167ffffffffffffffff81118282101715611f9d57611f9d6120a8565b60405290565b600067ffffffffffffffff821115611fbd57611fbd6120a8565b5060051b60200190565b60008219821115611fda57611fda612092565b500190565b60005b83811015611ffa578181015183820152602001611fe2565b83811115612009576000848401525b50505050565b600181811c9082168061202357607f821691505b6020821081141561204457634e487b7160e01b600052602260045260246000fd5b50919050565b601f8201601f1916810167ffffffffffffffff81118282101715612070576120706120a8565b6040525050565b600060001982141561208b5761208b612092565b5060010190565b634e487b7160e01b600052601160045260246000fd5b634e487b7160e01b600052604160045260246000fd5b600060033d11156120d357600481823e5160e01c5b90565b600060443d10156120e45790565b6040516003193d81016004833e81513d67ffffffffffffffff816024840111818411171561211457505050505090565b828501915081518181111561212c5750505050505090565b843d87010160208285010111156121465750505050505090565b6121556020828601018761204a565b509095945050505050565b6001600160e01b031981168114610ddd57600080fdfea26469706673582212207381ea11541cc413442c3c508c792e9abc328b15521fa426e48425e77576bf2f64736f6c63430008040033",
					"opcodes": "PUSH1 0x80 PUSH1 0x40 MSTORE CALLVALUE DUP1 ISZERO PUSH3 0x11 JUMPI PUSH1 0x0 DUP1 REVERT JUMPDEST POP PUSH1 0x40 DUP1 MLOAD DUP1 DUP3 ADD SWAP1 SWAP2 MSTORE PUSH1 0x12 DUP2 MSTORE PUSH18 0x151C985E98589A5B1A59185908125919585B PUSH1 0x72 SHL PUSH1 0x20 DUP3 ADD MSTORE PUSH3 0x46 DUP2 PUSH3 0x58 JUMP JUMPDEST POP PUSH3 0x52 CALLER PUSH3 0x71 JUMP JUMPDEST PUSH3 0x1A6 JUMP JUMPDEST DUP1 MLOAD PUSH3 0x6D SWAP1 PUSH1 0x2 SWAP1 PUSH1 0x20 DUP5 ADD SWAP1 PUSH3 0xC3 JUMP JUMPDEST POP POP JUMP JUMPDEST PUSH1 0x3 DUP1 SLOAD PUSH1 0x1 PUSH1 0x1 PUSH1 0xA0 SHL SUB DUP4 DUP2 AND PUSH1 0x1 PUSH1 0x1 PUSH1 0xA0 SHL SUB NOT DUP4 AND DUP2 OR SWAP1 SWAP4 SSTORE PUSH1 0x40 MLOAD SWAP2 AND SWAP2 SWAP1 DUP3 SWAP1 PUSH32 0x8BE0079C531659141344CD1FD0A4F28419497F9722A3DAAFE3B4186F6B6457E0 SWAP1 PUSH1 0x0 SWAP1 LOG3 POP POP JUMP JUMPDEST DUP3 DUP1 SLOAD PUSH3 0xD1 SWAP1 PUSH3 0x169 JUMP JUMPDEST SWAP1 PUSH1 0x0 MSTORE PUSH1 0x20 PUSH1 0x0 KECCAK256 SWAP1 PUSH1 0x1F ADD PUSH1 0x20 SWAP1 DIV DUP2 ADD SWAP3 DUP3 PUSH3 0xF5 JUMPI PUSH1 0x0 DUP6 SSTORE PUSH3 0x140 JUMP JUMPDEST DUP3 PUSH1 0x1F LT PUSH3 0x110 JUMPI DUP1 MLOAD PUSH1 0xFF NOT AND DUP4 DUP1 ADD OR DUP6 SSTORE PUSH3 0x140 JUMP JUMPDEST DUP3 DUP1 ADD PUSH1 0x1 ADD DUP6 SSTORE DUP3 ISZERO PUSH3 0x140 JUMPI SWAP2 DUP3 ADD JUMPDEST DUP3 DUP2 GT ISZERO PUSH3 0x140 JUMPI DUP3 MLOAD DUP3 SSTORE SWAP2 PUSH1 0x20 ADD SWAP2 SWAP1 PUSH1 0x1 ADD SWAP1 PUSH3 0x123 JUMP JUMPDEST POP PUSH3 0x14E SWAP3 SWAP2 POP PUSH3 0x152 JUMP JUMPDEST POP SWAP1 JUMP JUMPDEST JUMPDEST DUP1 DUP3 GT ISZERO PUSH3 0x14E JUMPI PUSH1 0x0 DUP2 SSTORE PUSH1 0x1 ADD PUSH3 0x153 JUMP JUMPDEST PUSH1 0x1 DUP2 DUP2 SHR SWAP1 DUP3 AND DUP1 PUSH3 0x17E JUMPI PUSH1 0x7F DUP3 AND SWAP2 POP JUMPDEST PUSH1 0x20 DUP3 LT DUP2 EQ ISZERO PUSH3 0x1A0 JUMPI PUSH4 0x4E487B71 PUSH1 0xE0 SHL PUSH1 0x0 MSTORE PUSH1 0x22 PUSH1 0x4 MSTORE PUSH1 0x24 PUSH1 0x0 REVERT JUMPDEST POP SWAP2 SWAP1 POP JUMP JUMPDEST PUSH2 0x21AC DUP1 PUSH3 0x1B6 PUSH1 0x0 CODECOPY PUSH1 0x0 RETURN INVALID PUSH1 0x80 PUSH1 0x40 MSTORE CALLVALUE DUP1 ISZERO PUSH2 0x10 JUMPI PUSH1 0x0 DUP1 REVERT JUMPDEST POP PUSH1 0x4 CALLDATASIZE LT PUSH2 0xCE JUMPI PUSH1 0x0 CALLDATALOAD PUSH1 0xE0 SHR DUP1 PUSH4 0x715018A6 GT PUSH2 0x8C JUMPI DUP1 PUSH4 0xA22CB465 GT PUSH2 0x66 JUMPI DUP1 PUSH4 0xA22CB465 EQ PUSH2 0x1C7 JUMPI DUP1 PUSH4 0xE985E9C5 EQ PUSH2 0x1DA JUMPI DUP1 PUSH4 0xF242432A EQ PUSH2 0x216 JUMPI DUP1 PUSH4 0xF2FDE38B EQ PUSH2 0x229 JUMPI PUSH1 0x0 DUP1 REVERT JUMPDEST DUP1 PUSH4 0x715018A6 EQ PUSH2 0x184 JUMPI DUP1 PUSH4 0x818648E1 EQ PUSH2 0x18C JUMPI DUP1 PUSH4 0x8DA5CB5B EQ PUSH2 0x1AC JUMPI PUSH1 0x0 DUP1 REVERT JUMPDEST DUP1 PUSH3 0xFDD58E EQ PUSH2 0xD3 JUMPI DUP1 PUSH4 0x1FFC9A7 EQ PUSH2 0xF9 JUMPI DUP1 PUSH4 0xE89341C EQ PUSH2 0x11C JUMPI DUP1 PUSH4 0x2EB2C2D6 EQ PUSH2 0x13C JUMPI DUP1 PUSH4 0x42ABD5A4 EQ PUSH2 0x151 JUMPI DUP1 PUSH4 0x4E1273F4 EQ PUSH2 0x164 JUMPI JUMPDEST PUSH1 0x0 DUP1 REVERT JUMPDEST PUSH2 0xE6 PUSH2 0xE1 CALLDATASIZE PUSH1 0x4 PUSH2 0x1A5F JUMP JUMPDEST PUSH2 0x23C JUMP JUMPDEST PUSH1 0x40 MLOAD SWAP1 DUP2 MSTORE PUSH1 0x20 ADD JUMPDEST PUSH1 0x40 MLOAD DUP1 SWAP2 SUB SWAP1 RETURN JUMPDEST PUSH2 0x10C PUSH2 0x107 CALLDATASIZE PUSH1 0x4 PUSH2 0x1B53 JUMP JUMPDEST PUSH2 0x2D3 JUMP JUMPDEST PUSH1 0x40 MLOAD SWAP1 ISZERO ISZERO DUP2 MSTORE PUSH1 0x20 ADD PUSH2 0xF0 JUMP JUMPDEST PUSH2 0x12F PUSH2 0x12A CALLDATASIZE PUSH1 0x4 PUSH2 0x1BC6 JUMP JUMPDEST PUSH2 0x325 JUMP JUMPDEST PUSH1 0x40 MLOAD PUSH2 0xF0 SWAP2 SWAP1 PUSH2 0x1DC3 JUMP JUMPDEST PUSH2 0x14F PUSH2 0x14A CALLDATASIZE PUSH1 0x4 PUSH2 0x17A3 JUMP JUMPDEST PUSH2 0x3C7 JUMP JUMPDEST STOP JUMPDEST PUSH2 0x14F PUSH2 0x15F CALLDATASIZE PUSH1 0x4 PUSH2 0x18E6 JUMP JUMPDEST PUSH2 0x45E JUMP JUMPDEST PUSH2 0x177 PUSH2 0x172 CALLDATASIZE PUSH1 0x4 PUSH2 0x1A88 JUMP JUMPDEST PUSH2 0x649 JUMP JUMPDEST PUSH1 0x40 MLOAD PUSH2 0xF0 SWAP2 SWAP1 PUSH2 0x1D82 JUMP JUMPDEST PUSH2 0x14F PUSH2 0x7AB JUMP JUMPDEST PUSH2 0x19F PUSH2 0x19A CALLDATASIZE PUSH1 0x4 PUSH2 0x1B8B JUMP JUMPDEST PUSH2 0x811 JUMP JUMPDEST PUSH1 0x40 MLOAD PUSH2 0xF0 SWAP2 SWAP1 PUSH2 0x1EAD JUMP JUMPDEST PUSH1 0x3 SLOAD PUSH1 0x40 MLOAD PUSH1 0x1 PUSH1 0x1 PUSH1 0xA0 SHL SUB SWAP1 SWAP2 AND DUP2 MSTORE PUSH1 0x20 ADD PUSH2 0xF0 JUMP JUMPDEST PUSH2 0x14F PUSH2 0x1D5 CALLDATASIZE PUSH1 0x4 PUSH2 0x18AC JUMP JUMPDEST PUSH2 0xC7F JUMP JUMPDEST PUSH2 0x10C PUSH2 0x1E8 CALLDATASIZE PUSH1 0x4 PUSH2 0x1771 JUMP JUMPDEST PUSH1 0x1 PUSH1 0x1 PUSH1 0xA0 SHL SUB SWAP2 DUP3 AND PUSH1 0x0 SWAP1 DUP2 MSTORE PUSH1 0x1 PUSH1 0x20 SWAP1 DUP2 MSTORE PUSH1 0x40 DUP1 DUP4 KECCAK256 SWAP4 SWAP1 SWAP5 AND DUP3 MSTORE SWAP2 SWAP1 SWAP2 MSTORE KECCAK256 SLOAD PUSH1 0xFF AND SWAP1 JUMP JUMPDEST PUSH2 0x14F PUSH2 0x224 CALLDATASIZE PUSH1 0x4 PUSH2 0x1849 JUMP JUMPDEST PUSH2 0xC8E JUMP JUMPDEST PUSH2 0x14F PUSH2 0x237 CALLDATASIZE PUSH1 0x4 PUSH2 0x1750 JUMP JUMPDEST PUSH2 0xD15 JUMP JUMPDEST PUSH1 0x0 PUSH1 0x1 PUSH1 0x1 PUSH1 0xA0 SHL SUB DUP4 AND PUSH2 0x2AD JUMPI PUSH1 0x40 MLOAD PUSH3 0x461BCD PUSH1 0xE5 SHL DUP2 MSTORE PUSH1 0x20 PUSH1 0x4 DUP3 ADD MSTORE PUSH1 0x2B PUSH1 0x24 DUP3 ADD MSTORE PUSH32 0x455243313135353A2062616C616E636520717565727920666F7220746865207A PUSH1 0x44 DUP3 ADD MSTORE PUSH11 0x65726F2061646472657373 PUSH1 0xA8 SHL PUSH1 0x64 DUP3 ADD MSTORE PUSH1 0x84 ADD JUMPDEST PUSH1 0x40 MLOAD DUP1 SWAP2 SUB SWAP1 REVERT JUMPDEST POP PUSH1 0x0 SWAP1 DUP2 MSTORE PUSH1 0x20 DUP2 DUP2 MSTORE PUSH1 0x40 DUP1 DUP4 KECCAK256 PUSH1 0x1 PUSH1 0x1 PUSH1 0xA0 SHL SUB SWAP5 SWAP1 SWAP5 AND DUP4 MSTORE SWAP3 SWAP1 MSTORE KECCAK256 SLOAD SWAP1 JUMP JUMPDEST PUSH1 0x0 PUSH1 0x1 PUSH1 0x1 PUSH1 0xE0 SHL SUB NOT DUP3 AND PUSH4 0x6CDB3D13 PUSH1 0xE1 SHL EQ DUP1 PUSH2 0x304 JUMPI POP PUSH1 0x1 PUSH1 0x1 PUSH1 0xE0 SHL SUB NOT DUP3 AND PUSH4 0x3A24D07 PUSH1 0xE2 SHL EQ JUMPDEST DUP1 PUSH2 0x31F JUMPI POP PUSH4 0x1FFC9A7 PUSH1 0xE0 SHL PUSH1 0x1 PUSH1 0x1 PUSH1 0xE0 SHL SUB NOT DUP4 AND EQ JUMPDEST SWAP3 SWAP2 POP POP JUMP JUMPDEST PUSH1 0x0 DUP2 DUP2 MSTORE PUSH1 0x6 PUSH1 0x20 MSTORE PUSH1 0x40 SWAP1 KECCAK256 DUP1 SLOAD PUSH1 0x60 SWAP2 SWAP1 PUSH2 0x342 SWAP1 PUSH2 0x200F JUMP JUMPDEST DUP1 PUSH1 0x1F ADD PUSH1 0x20 DUP1 SWAP2 DIV MUL PUSH1 0x20 ADD PUSH1 0x40 MLOAD SWAP1 DUP2 ADD PUSH1 0x40 MSTORE DUP1 SWAP3 SWAP2 SWAP1 DUP2 DUP2 MSTORE PUSH1 0x20 ADD DUP3 DUP1 SLOAD PUSH2 0x36E SWAP1 PUSH2 0x200F JUMP JUMPDEST DUP1 ISZERO PUSH2 0x3BB JUMPI DUP1 PUSH1 0x1F LT PUSH2 0x390 JUMPI PUSH2 0x100 DUP1 DUP4 SLOAD DIV MUL DUP4 MSTORE SWAP2 PUSH1 0x20 ADD SWAP2 PUSH2 0x3BB JUMP JUMPDEST DUP3 ADD SWAP2 SWAP1 PUSH1 0x0 MSTORE PUSH1 0x20 PUSH1 0x0 KECCAK256 SWAP1 JUMPDEST DUP2 SLOAD DUP2 MSTORE SWAP1 PUSH1 0x1 ADD SWAP1 PUSH1 0x20 ADD DUP1 DUP4 GT PUSH2 0x39E JUMPI DUP3 SWAP1 SUB PUSH1 0x1F AND DUP3 ADD SWAP2 JUMPDEST POP POP POP POP POP SWAP1 POP SWAP2 SWAP1 POP JUMP JUMPDEST PUSH1 0x1 PUSH1 0x1 PUSH1 0xA0 SHL SUB DUP6 AND CALLER EQ DUP1 PUSH2 0x3E3 JUMPI POP PUSH2 0x3E3 DUP6 CALLER PUSH2 0x1E8 JUMP JUMPDEST PUSH2 0x44A JUMPI PUSH1 0x40 MLOAD PUSH3 0x461BCD PUSH1 0xE5 SHL DUP2 MSTORE PUSH1 0x20 PUSH1 0x4 DUP3 ADD MSTORE PUSH1 0x32 PUSH1 0x24 DUP3 ADD MSTORE PUSH32 0x455243313135353A207472616E736665722063616C6C6572206973206E6F7420 PUSH1 0x44 DUP3 ADD MSTORE PUSH18 0x1BDDDB995C881B9BDC88185C1C1C9BDD9959 PUSH1 0x72 SHL PUSH1 0x64 DUP3 ADD MSTORE PUSH1 0x84 ADD PUSH2 0x2A4 JUMP JUMPDEST PUSH2 0x457 DUP6 DUP6 DUP6 DUP6 DUP6 PUSH2 0xDE0 JUMP JUMPDEST POP POP POP POP POP JUMP JUMPDEST PUSH1 0x0 PUSH2 0x469 PUSH1 0x4 SLOAD SWAP1 JUMP JUMPDEST SWAP1 POP PUSH2 0x479 PUSH1 0x4 DUP1 SLOAD PUSH1 0x1 ADD SWAP1 SSTORE JUMP JUMPDEST DUP4 MLOAD PUSH1 0x20 DUP1 DUP7 ADD MLOAD PUSH1 0x40 DUP1 DUP9 ADD MLOAD PUSH1 0x80 DUP10 ADD MLOAD PUSH1 0xA0 DUP11 ADD MLOAD PUSH1 0xC0 DUP12 ADD MLOAD SWAP4 MLOAD PUSH1 0x0 SWAP8 PUSH2 0x4A9 SWAP8 SWAP1 SWAP7 SWAP6 SWAP2 ADD PUSH2 0x1C60 JUMP JUMPDEST PUSH1 0x40 MLOAD PUSH1 0x20 DUP2 DUP4 SUB SUB DUP2 MSTORE SWAP1 PUSH1 0x40 MSTORE SWAP1 POP PUSH2 0x4C6 DUP7 DUP4 DUP7 DUP5 PUSH2 0xFD9 JUMP JUMPDEST PUSH1 0x40 MLOAD DUP1 PUSH1 0xE0 ADD PUSH1 0x40 MSTORE DUP1 DUP7 PUSH1 0x0 ADD MLOAD DUP2 MSTORE PUSH1 0x20 ADD DUP7 PUSH1 0x20 ADD MLOAD DUP2 MSTORE PUSH1 0x20 ADD DUP7 PUSH1 0x40 ADD MLOAD DUP2 MSTORE PUSH1 0x20 ADD DUP7 PUSH1 0x60 ADD MLOAD DUP2 MSTORE PUSH1 0x20 ADD DUP7 PUSH1 0x80 ADD MLOAD DUP2 MSTORE PUSH1 0x20 ADD DUP7 PUSH1 0xA0 ADD MLOAD DUP2 MSTORE PUSH1 0x20 ADD DUP7 PUSH1 0xC0 ADD MLOAD DUP2 MSTORE POP PUSH1 0x5 DUP7 PUSH1 0x0 ADD MLOAD PUSH1 0x40 MLOAD PUSH2 0x529 SWAP2 SWAP1 PUSH2 0x1C44 JUMP JUMPDEST SWAP1 DUP2 MSTORE PUSH1 0x20 ADD PUSH1 0x40 MLOAD DUP1 SWAP2 SUB SWAP1 KECCAK256 PUSH1 0x0 DUP3 ADD MLOAD DUP2 PUSH1 0x0 ADD SWAP1 DUP1 MLOAD SWAP1 PUSH1 0x20 ADD SWAP1 PUSH2 0x553 SWAP3 SWAP2 SWAP1 PUSH2 0x15B8 JUMP JUMPDEST POP PUSH1 0x20 DUP3 DUP2 ADD MLOAD DUP1 MLOAD PUSH2 0x56C SWAP3 PUSH1 0x1 DUP6 ADD SWAP3 ADD SWAP1 PUSH2 0x15B8 JUMP JUMPDEST POP PUSH1 0x40 DUP3 ADD MLOAD DUP1 MLOAD PUSH2 0x588 SWAP2 PUSH1 0x2 DUP5 ADD SWAP2 PUSH1 0x20 SWAP1 SWAP2 ADD SWAP1 PUSH2 0x15B8 JUMP JUMPDEST POP PUSH1 0x60 DUP3 ADD MLOAD DUP1 MLOAD PUSH2 0x5A4 SWAP2 PUSH1 0x3 DUP5 ADD SWAP2 PUSH1 0x20 SWAP1 SWAP2 ADD SWAP1 PUSH2 0x15B8 JUMP JUMPDEST POP PUSH1 0x80 DUP3 ADD MLOAD DUP1 MLOAD PUSH2 0x5C0 SWAP2 PUSH1 0x4 DUP5 ADD SWAP2 PUSH1 0x20 SWAP1 SWAP2 ADD SWAP1 PUSH2 0x15B8 JUMP JUMPDEST POP PUSH1 0xA0 DUP3 ADD MLOAD DUP1 MLOAD PUSH2 0x5DC SWAP2 PUSH1 0x5 DUP5 ADD SWAP2 PUSH1 0x20 SWAP1 SWAP2 ADD SWAP1 PUSH2 0x15B8 JUMP JUMPDEST POP PUSH1 0xC0 DUP3 ADD MLOAD DUP1 MLOAD PUSH2 0x5F8 SWAP2 PUSH1 0x6 DUP5 ADD SWAP2 PUSH1 0x20 SWAP1 SWAP2 ADD SWAP1 PUSH2 0x15B8 JUMP JUMPDEST POP POP DUP6 MLOAD PUSH1 0x0 DUP5 DUP2 MSTORE PUSH1 0x7 PUSH1 0x20 SWAP1 DUP2 MSTORE PUSH1 0x40 SWAP1 SWAP2 KECCAK256 DUP3 MLOAD PUSH2 0x620 SWAP5 POP SWAP1 SWAP3 SWAP2 SWAP1 SWAP2 ADD SWAP1 PUSH2 0x15B8 JUMP JUMPDEST POP PUSH1 0x0 DUP3 DUP2 MSTORE PUSH1 0x6 PUSH1 0x20 SWAP1 DUP2 MSTORE PUSH1 0x40 SWAP1 SWAP2 KECCAK256 DUP5 MLOAD PUSH2 0x640 SWAP3 DUP7 ADD SWAP1 PUSH2 0x15B8 JUMP JUMPDEST POP POP POP POP POP POP POP JUMP JUMPDEST PUSH1 0x60 DUP2 MLOAD DUP4 MLOAD EQ PUSH2 0x6AE JUMPI PUSH1 0x40 MLOAD PUSH3 0x461BCD PUSH1 0xE5 SHL DUP2 MSTORE PUSH1 0x20 PUSH1 0x4 DUP3 ADD MSTORE PUSH1 0x29 PUSH1 0x24 DUP3 ADD MSTORE PUSH32 0x455243313135353A206163636F756E747320616E6420696473206C656E677468 PUSH1 0x44 DUP3 ADD MSTORE PUSH9 0x40DAD2E6DAC2E8C6D PUSH1 0xBB SHL PUSH1 0x64 DUP3 ADD MSTORE PUSH1 0x84 ADD PUSH2 0x2A4 JUMP JUMPDEST PUSH1 0x0 DUP4 MLOAD PUSH8 0xFFFFFFFFFFFFFFFF DUP2 GT ISZERO PUSH2 0x6D8 JUMPI PUSH4 0x4E487B71 PUSH1 0xE0 SHL PUSH1 0x0 MSTORE PUSH1 0x41 PUSH1 0x4 MSTORE PUSH1 0x24 PUSH1 0x0 REVERT JUMPDEST PUSH1 0x40 MLOAD SWAP1 DUP1 DUP3 MSTORE DUP1 PUSH1 0x20 MUL PUSH1 0x20 ADD DUP3 ADD PUSH1 0x40 MSTORE DUP1 ISZERO PUSH2 0x701 JUMPI DUP2 PUSH1 0x20 ADD PUSH1 0x20 DUP3 MUL DUP1 CALLDATASIZE DUP4 CALLDATACOPY ADD SWAP1 POP JUMPDEST POP SWAP1 POP PUSH1 0x0 JUMPDEST DUP5 MLOAD DUP2 LT ISZERO PUSH2 0x7A3 JUMPI PUSH2 0x768 DUP6 DUP3 DUP2 MLOAD DUP2 LT PUSH2 0x733 JUMPI PUSH4 0x4E487B71 PUSH1 0xE0 SHL PUSH1 0x0 MSTORE PUSH1 0x32 PUSH1 0x4 MSTORE PUSH1 0x24 PUSH1 0x0 REVERT JUMPDEST PUSH1 0x20 MUL PUSH1 0x20 ADD ADD MLOAD DUP6 DUP4 DUP2 MLOAD DUP2 LT PUSH2 0x75B JUMPI PUSH4 0x4E487B71 PUSH1 0xE0 SHL PUSH1 0x0 MSTORE PUSH1 0x32 PUSH1 0x4 MSTORE PUSH1 0x24 PUSH1 0x0 REVERT JUMPDEST PUSH1 0x20 MUL PUSH1 0x20 ADD ADD MLOAD PUSH2 0x23C JUMP JUMPDEST DUP3 DUP3 DUP2 MLOAD DUP2 LT PUSH2 0x788 JUMPI PUSH4 0x4E487B71 PUSH1 0xE0 SHL PUSH1 0x0 MSTORE PUSH1 0x32 PUSH1 0x4 MSTORE PUSH1 0x24 PUSH1 0x0 REVERT JUMPDEST PUSH1 0x20 SWAP1 DUP2 MUL SWAP2 SWAP1 SWAP2 ADD ADD MSTORE PUSH2 0x79C DUP2 PUSH2 0x2077 JUMP JUMPDEST SWAP1 POP PUSH2 0x707 JUMP JUMPDEST POP SWAP4 SWAP3 POP POP POP JUMP JUMPDEST PUSH1 0x3 SLOAD PUSH1 0x1 PUSH1 0x1 PUSH1 0xA0 SHL SUB AND CALLER EQ PUSH2 0x805 JUMPI PUSH1 0x40 MLOAD PUSH3 0x461BCD PUSH1 0xE5 SHL DUP2 MSTORE PUSH1 0x20 PUSH1 0x4 DUP3 ADD DUP2 SWAP1 MSTORE PUSH1 0x24 DUP3 ADD MSTORE PUSH32 0x4F776E61626C653A2063616C6C6572206973206E6F7420746865206F776E6572 PUSH1 0x44 DUP3 ADD MSTORE PUSH1 0x64 ADD PUSH2 0x2A4 JUMP JUMPDEST PUSH2 0x80F PUSH1 0x0 PUSH2 0x10E3 JUMP JUMPDEST JUMP JUMPDEST PUSH2 0x851 PUSH1 0x40 MLOAD DUP1 PUSH1 0xE0 ADD PUSH1 0x40 MSTORE DUP1 PUSH1 0x60 DUP2 MSTORE PUSH1 0x20 ADD PUSH1 0x60 DUP2 MSTORE PUSH1 0x20 ADD PUSH1 0x60 DUP2 MSTORE PUSH1 0x20 ADD PUSH1 0x60 DUP2 MSTORE PUSH1 0x20 ADD PUSH1 0x60 DUP2 MSTORE PUSH1 0x20 ADD PUSH1 0x60 DUP2 MSTORE PUSH1 0x20 ADD PUSH1 0x60 DUP2 MSTORE POP SWAP1 JUMP JUMPDEST PUSH1 0x5 DUP3 PUSH1 0x40 MLOAD PUSH2 0x861 SWAP2 SWAP1 PUSH2 0x1C44 JUMP JUMPDEST SWAP1 DUP2 MSTORE PUSH1 0x20 ADD PUSH1 0x40 MLOAD DUP1 SWAP2 SUB SWAP1 KECCAK256 PUSH1 0x40 MLOAD DUP1 PUSH1 0xE0 ADD PUSH1 0x40 MSTORE SWAP1 DUP2 PUSH1 0x0 DUP3 ADD DUP1 SLOAD PUSH2 0x88A SWAP1 PUSH2 0x200F JUMP JUMPDEST DUP1 PUSH1 0x1F ADD PUSH1 0x20 DUP1 SWAP2 DIV MUL PUSH1 0x20 ADD PUSH1 0x40 MLOAD SWAP1 DUP2 ADD PUSH1 0x40 MSTORE DUP1 SWAP3 SWAP2 SWAP1 DUP2 DUP2 MSTORE PUSH1 0x20 ADD DUP3 DUP1 SLOAD PUSH2 0x8B6 SWAP1 PUSH2 0x200F JUMP JUMPDEST DUP1 ISZERO PUSH2 0x903 JUMPI DUP1 PUSH1 0x1F LT PUSH2 0x8D8 JUMPI PUSH2 0x100 DUP1 DUP4 SLOAD DIV MUL DUP4 MSTORE SWAP2 PUSH1 0x20 ADD SWAP2 PUSH2 0x903 JUMP JUMPDEST DUP3 ADD SWAP2 SWAP1 PUSH1 0x0 MSTORE PUSH1 0x20 PUSH1 0x0 KECCAK256 SWAP1 JUMPDEST DUP2 SLOAD DUP2 MSTORE SWAP1 PUSH1 0x1 ADD SWAP1 PUSH1 0x20 ADD DUP1 DUP4 GT PUSH2 0x8E6 JUMPI DUP3 SWAP1 SUB PUSH1 0x1F AND DUP3 ADD SWAP2 JUMPDEST POP POP POP POP POP DUP2 MSTORE PUSH1 0x20 ADD PUSH1 0x1 DUP3 ADD DUP1 SLOAD PUSH2 0x91C SWAP1 PUSH2 0x200F JUMP JUMPDEST DUP1 PUSH1 0x1F ADD PUSH1 0x20 DUP1 SWAP2 DIV MUL PUSH1 0x20 ADD PUSH1 0x40 MLOAD SWAP1 DUP2 ADD PUSH1 0x40 MSTORE DUP1 SWAP3 SWAP2 SWAP1 DUP2 DUP2 MSTORE PUSH1 0x20 ADD DUP3 DUP1 SLOAD PUSH2 0x948 SWAP1 PUSH2 0x200F JUMP JUMPDEST DUP1 ISZERO PUSH2 0x995 JUMPI DUP1 PUSH1 0x1F LT PUSH2 0x96A JUMPI PUSH2 0x100 DUP1 DUP4 SLOAD DIV MUL DUP4 MSTORE SWAP2 PUSH1 0x20 ADD SWAP2 PUSH2 0x995 JUMP JUMPDEST DUP3 ADD SWAP2 SWAP1 PUSH1 0x0 MSTORE PUSH1 0x20 PUSH1 0x0 KECCAK256 SWAP1 JUMPDEST DUP2 SLOAD DUP2 MSTORE SWAP1 PUSH1 0x1 ADD SWAP1 PUSH1 0x20 ADD DUP1 DUP4 GT PUSH2 0x978 JUMPI DUP3 SWAP1 SUB PUSH1 0x1F AND DUP3 ADD SWAP2 JUMPDEST POP POP POP POP POP DUP2 MSTORE PUSH1 0x20 ADD PUSH1 0x2 DUP3 ADD DUP1 SLOAD PUSH2 0x9AE SWAP1 PUSH2 0x200F JUMP JUMPDEST DUP1 PUSH1 0x1F ADD PUSH1 0x20 DUP1 SWAP2 DIV MUL PUSH1 0x20 ADD PUSH1 0x40 MLOAD SWAP1 DUP2 ADD PUSH1 0x40 MSTORE DUP1 SWAP3 SWAP2 SWAP1 DUP2 DUP2 MSTORE PUSH1 0x20 ADD DUP3 DUP1 SLOAD PUSH2 0x9DA SWAP1 PUSH2 0x200F JUMP JUMPDEST DUP1 ISZERO PUSH2 0xA27 JUMPI DUP1 PUSH1 0x1F LT PUSH2 0x9FC JUMPI PUSH2 0x100 DUP1 DUP4 SLOAD DIV MUL DUP4 MSTORE SWAP2 PUSH1 0x20 ADD SWAP2 PUSH2 0xA27 JUMP JUMPDEST DUP3 ADD SWAP2 SWAP1 PUSH1 0x0 MSTORE PUSH1 0x20 PUSH1 0x0 KECCAK256 SWAP1 JUMPDEST DUP2 SLOAD DUP2 MSTORE SWAP1 PUSH1 0x1 ADD SWAP1 PUSH1 0x20 ADD DUP1 DUP4 GT PUSH2 0xA0A JUMPI DUP3 SWAP1 SUB PUSH1 0x1F AND DUP3 ADD SWAP2 JUMPDEST POP POP POP POP POP DUP2 MSTORE PUSH1 0x20 ADD PUSH1 0x3 DUP3 ADD DUP1 SLOAD PUSH2 0xA40 SWAP1 PUSH2 0x200F JUMP JUMPDEST DUP1 PUSH1 0x1F ADD PUSH1 0x20 DUP1 SWAP2 DIV MUL PUSH1 0x20 ADD PUSH1 0x40 MLOAD SWAP1 DUP2 ADD PUSH1 0x40 MSTORE DUP1 SWAP3 SWAP2 SWAP1 DUP2 DUP2 MSTORE PUSH1 0x20 ADD DUP3 DUP1 SLOAD PUSH2 0xA6C SWAP1 PUSH2 0x200F JUMP JUMPDEST DUP1 ISZERO PUSH2 0xAB9 JUMPI DUP1 PUSH1 0x1F LT PUSH2 0xA8E JUMPI PUSH2 0x100 DUP1 DUP4 SLOAD DIV MUL DUP4 MSTORE SWAP2 PUSH1 0x20 ADD SWAP2 PUSH2 0xAB9 JUMP JUMPDEST DUP3 ADD SWAP2 SWAP1 PUSH1 0x0 MSTORE PUSH1 0x20 PUSH1 0x0 KECCAK256 SWAP1 JUMPDEST DUP2 SLOAD DUP2 MSTORE SWAP1 PUSH1 0x1 ADD SWAP1 PUSH1 0x20 ADD DUP1 DUP4 GT PUSH2 0xA9C JUMPI DUP3 SWAP1 SUB PUSH1 0x1F AND DUP3 ADD SWAP2 JUMPDEST POP POP POP POP POP DUP2 MSTORE PUSH1 0x20 ADD PUSH1 0x4 DUP3 ADD DUP1 SLOAD PUSH2 0xAD2 SWAP1 PUSH2 0x200F JUMP JUMPDEST DUP1 PUSH1 0x1F ADD PUSH1 0x20 DUP1 SWAP2 DIV MUL PUSH1 0x20 ADD PUSH1 0x40 MLOAD SWAP1 DUP2 ADD PUSH1 0x40 MSTORE DUP1 SWAP3 SWAP2 SWAP1 DUP2 DUP2 MSTORE PUSH1 0x20 ADD DUP3 DUP1 SLOAD PUSH2 0xAFE SWAP1 PUSH2 0x200F JUMP JUMPDEST DUP1 ISZERO PUSH2 0xB4B JUMPI DUP1 PUSH1 0x1F LT PUSH2 0xB20 JUMPI PUSH2 0x100 DUP1 DUP4 SLOAD DIV MUL DUP4 MSTORE SWAP2 PUSH1 0x20 ADD SWAP2 PUSH2 0xB4B JUMP JUMPDEST DUP3 ADD SWAP2 SWAP1 PUSH1 0x0 MSTORE PUSH1 0x20 PUSH1 0x0 KECCAK256 SWAP1 JUMPDEST DUP2 SLOAD DUP2 MSTORE SWAP1 PUSH1 0x1 ADD SWAP1 PUSH1 0x20 ADD DUP1 DUP4 GT PUSH2 0xB2E JUMPI DUP3 SWAP1 SUB PUSH1 0x1F AND DUP3 ADD SWAP2 JUMPDEST POP POP POP POP POP DUP2 MSTORE PUSH1 0x20 ADD PUSH1 0x5 DUP3 ADD DUP1 SLOAD PUSH2 0xB64 SWAP1 PUSH2 0x200F JUMP JUMPDEST DUP1 PUSH1 0x1F ADD PUSH1 0x20 DUP1 SWAP2 DIV MUL PUSH1 0x20 ADD PUSH1 0x40 MLOAD SWAP1 DUP2 ADD PUSH1 0x40 MSTORE DUP1 SWAP3 SWAP2 SWAP1 DUP2 DUP2 MSTORE PUSH1 0x20 ADD DUP3 DUP1 SLOAD PUSH2 0xB90 SWAP1 PUSH2 0x200F JUMP JUMPDEST DUP1 ISZERO PUSH2 0xBDD JUMPI DUP1 PUSH1 0x1F LT PUSH2 0xBB2 JUMPI PUSH2 0x100 DUP1 DUP4 SLOAD DIV MUL DUP4 MSTORE SWAP2 PUSH1 0x20 ADD SWAP2 PUSH2 0xBDD JUMP JUMPDEST DUP3 ADD SWAP2 SWAP1 PUSH1 0x0 MSTORE PUSH1 0x20 PUSH1 0x0 KECCAK256 SWAP1 JUMPDEST DUP2 SLOAD DUP2 MSTORE SWAP1 PUSH1 0x1 ADD SWAP1 PUSH1 0x20 ADD DUP1 DUP4 GT PUSH2 0xBC0 JUMPI DUP3 SWAP1 SUB PUSH1 0x1F AND DUP3 ADD SWAP2 JUMPDEST POP POP POP POP POP DUP2 MSTORE PUSH1 0x20 ADD PUSH1 0x6 DUP3 ADD DUP1 SLOAD PUSH2 0xBF6 SWAP1 PUSH2 0x200F JUMP JUMPDEST DUP1 PUSH1 0x1F ADD PUSH1 0x20 DUP1 SWAP2 DIV MUL PUSH1 0x20 ADD PUSH1 0x40 MLOAD SWAP1 DUP2 ADD PUSH1 0x40 MSTORE DUP1 SWAP3 SWAP2 SWAP1 DUP2 DUP2 MSTORE PUSH1 0x20 ADD DUP3 DUP1 SLOAD PUSH2 0xC22 SWAP1 PUSH2 0x200F JUMP JUMPDEST DUP1 ISZERO PUSH2 0xC6F JUMPI DUP1 PUSH1 0x1F LT PUSH2 0xC44 JUMPI PUSH2 0x100 DUP1 DUP4 SLOAD DIV MUL DUP4 MSTORE SWAP2 PUSH1 0x20 ADD SWAP2 PUSH2 0xC6F JUMP JUMPDEST DUP3 ADD SWAP2 SWAP1 PUSH1 0x0 MSTORE PUSH1 0x20 PUSH1 0x0 KECCAK256 SWAP1 JUMPDEST DUP2 SLOAD DUP2 MSTORE SWAP1 PUSH1 0x1 ADD SWAP1 PUSH1 0x20 ADD DUP1 DUP4 GT PUSH2 0xC52 JUMPI DUP3 SWAP1 SUB PUSH1 0x1F AND DUP3 ADD SWAP2 JUMPDEST POP POP POP POP POP DUP2 MSTORE POP POP SWAP1 POP SWAP2 SWAP1 POP JUMP JUMPDEST PUSH2 0xC8A CALLER DUP4 DUP4 PUSH2 0x1135 JUMP JUMPDEST POP POP JUMP JUMPDEST PUSH1 0x1 PUSH1 0x1 PUSH1 0xA0 SHL SUB DUP6 AND CALLER EQ DUP1 PUSH2 0xCAA JUMPI POP PUSH2 0xCAA DUP6 CALLER PUSH2 0x1E8 JUMP JUMPDEST PUSH2 0xD08 JUMPI PUSH1 0x40 MLOAD PUSH3 0x461BCD PUSH1 0xE5 SHL DUP2 MSTORE PUSH1 0x20 PUSH1 0x4 DUP3 ADD MSTORE PUSH1 0x29 PUSH1 0x24 DUP3 ADD MSTORE PUSH32 0x455243313135353A2063616C6C6572206973206E6F74206F776E6572206E6F72 PUSH1 0x44 DUP3 ADD MSTORE PUSH9 0x8185C1C1C9BDD9959 PUSH1 0xBA SHL PUSH1 0x64 DUP3 ADD MSTORE PUSH1 0x84 ADD PUSH2 0x2A4 JUMP JUMPDEST PUSH2 0x457 DUP6 DUP6 DUP6 DUP6 DUP6 PUSH2 0x1216 JUMP JUMPDEST PUSH1 0x3 SLOAD PUSH1 0x1 PUSH1 0x1 PUSH1 0xA0 SHL SUB AND CALLER EQ PUSH2 0xD6F JUMPI PUSH1 0x40 MLOAD PUSH3 0x461BCD PUSH1 0xE5 SHL DUP2 MSTORE PUSH1 0x20 PUSH1 0x4 DUP3 ADD DUP2 SWAP1 MSTORE PUSH1 0x24 DUP3 ADD MSTORE PUSH32 0x4F776E61626C653A2063616C6C6572206973206E6F7420746865206F776E6572 PUSH1 0x44 DUP3 ADD MSTORE PUSH1 0x64 ADD PUSH2 0x2A4 JUMP JUMPDEST PUSH1 0x1 PUSH1 0x1 PUSH1 0xA0 SHL SUB DUP2 AND PUSH2 0xDD4 JUMPI PUSH1 0x40 MLOAD PUSH3 0x461BCD PUSH1 0xE5 SHL DUP2 MSTORE PUSH1 0x20 PUSH1 0x4 DUP3 ADD MSTORE PUSH1 0x26 PUSH1 0x24 DUP3 ADD MSTORE PUSH32 0x4F776E61626C653A206E6577206F776E657220697320746865207A65726F2061 PUSH1 0x44 DUP3 ADD MSTORE PUSH6 0x646472657373 PUSH1 0xD0 SHL PUSH1 0x64 DUP3 ADD MSTORE PUSH1 0x84 ADD PUSH2 0x2A4 JUMP JUMPDEST PUSH2 0xDDD DUP2 PUSH2 0x10E3 JUMP JUMPDEST POP JUMP JUMPDEST DUP2 MLOAD DUP4 MLOAD EQ PUSH2 0xE42 JUMPI PUSH1 0x40 MLOAD PUSH3 0x461BCD PUSH1 0xE5 SHL DUP2 MSTORE PUSH1 0x20 PUSH1 0x4 DUP3 ADD MSTORE PUSH1 0x28 PUSH1 0x24 DUP3 ADD MSTORE PUSH32 0x455243313135353A2069647320616E6420616D6F756E7473206C656E67746820 PUSH1 0x44 DUP3 ADD MSTORE PUSH8 0xDAD2E6DAC2E8C6D PUSH1 0xC3 SHL PUSH1 0x64 DUP3 ADD MSTORE PUSH1 0x84 ADD PUSH2 0x2A4 JUMP JUMPDEST PUSH1 0x1 PUSH1 0x1 PUSH1 0xA0 SHL SUB DUP5 AND PUSH2 0xE68 JUMPI PUSH1 0x40 MLOAD PUSH3 0x461BCD PUSH1 0xE5 SHL DUP2 MSTORE PUSH1 0x4 ADD PUSH2 0x2A4 SWAP1 PUSH2 0x1E1E JUMP JUMPDEST CALLER PUSH1 0x0 JUMPDEST DUP5 MLOAD DUP2 LT ISZERO PUSH2 0xF6B JUMPI PUSH1 0x0 DUP6 DUP3 DUP2 MLOAD DUP2 LT PUSH2 0xE97 JUMPI PUSH4 0x4E487B71 PUSH1 0xE0 SHL PUSH1 0x0 MSTORE PUSH1 0x32 PUSH1 0x4 MSTORE PUSH1 0x24 PUSH1 0x0 REVERT JUMPDEST PUSH1 0x20 MUL PUSH1 0x20 ADD ADD MLOAD SWAP1 POP PUSH1 0x0 DUP6 DUP4 DUP2 MLOAD DUP2 LT PUSH2 0xEC3 JUMPI PUSH4 0x4E487B71 PUSH1 0xE0 SHL PUSH1 0x0 MSTORE PUSH1 0x32 PUSH1 0x4 MSTORE PUSH1 0x24 PUSH1 0x0 REVERT JUMPDEST PUSH1 0x20 SWAP1 DUP2 MUL SWAP2 SWAP1 SWAP2 ADD DUP2 ADD MLOAD PUSH1 0x0 DUP5 DUP2 MSTORE DUP1 DUP4 MSTORE PUSH1 0x40 DUP1 DUP3 KECCAK256 PUSH1 0x1 PUSH1 0x1 PUSH1 0xA0 SHL SUB DUP15 AND DUP4 MSTORE SWAP1 SWAP4 MSTORE SWAP2 SWAP1 SWAP2 KECCAK256 SLOAD SWAP1 SWAP2 POP DUP2 DUP2 LT ISZERO PUSH2 0xF13 JUMPI PUSH1 0x40 MLOAD PUSH3 0x461BCD PUSH1 0xE5 SHL DUP2 MSTORE PUSH1 0x4 ADD PUSH2 0x2A4 SWAP1 PUSH2 0x1E63 JUMP JUMPDEST PUSH1 0x0 DUP4 DUP2 MSTORE PUSH1 0x20 DUP2 DUP2 MSTORE PUSH1 0x40 DUP1 DUP4 KECCAK256 PUSH1 0x1 PUSH1 0x1 PUSH1 0xA0 SHL SUB DUP15 DUP2 AND DUP6 MSTORE SWAP3 MSTORE DUP1 DUP4 KECCAK256 DUP6 DUP6 SUB SWAP1 SSTORE SWAP1 DUP12 AND DUP3 MSTORE DUP2 KECCAK256 DUP1 SLOAD DUP5 SWAP3 SWAP1 PUSH2 0xF50 SWAP1 DUP5 SWAP1 PUSH2 0x1FC7 JUMP JUMPDEST SWAP3 POP POP DUP2 SWAP1 SSTORE POP POP POP POP DUP1 PUSH2 0xF64 SWAP1 PUSH2 0x2077 JUMP JUMPDEST SWAP1 POP PUSH2 0xE6C JUMP JUMPDEST POP DUP5 PUSH1 0x1 PUSH1 0x1 PUSH1 0xA0 SHL SUB AND DUP7 PUSH1 0x1 PUSH1 0x1 PUSH1 0xA0 SHL SUB AND DUP3 PUSH1 0x1 PUSH1 0x1 PUSH1 0xA0 SHL SUB AND PUSH32 0x4A39DC06D4C0DBC64B70AF90FD698A233A518AA5D07E595D983B8C0526C8F7FB DUP8 DUP8 PUSH1 0x40 MLOAD PUSH2 0xFBB SWAP3 SWAP2 SWAP1 PUSH2 0x1D95 JUMP JUMPDEST PUSH1 0x40 MLOAD DUP1 SWAP2 SUB SWAP1 LOG4 PUSH2 0xFD1 DUP2 DUP8 DUP8 DUP8 DUP8 DUP8 PUSH2 0x132A JUMP JUMPDEST POP POP POP POP POP POP JUMP JUMPDEST PUSH1 0x1 PUSH1 0x1 PUSH1 0xA0 SHL SUB DUP5 AND PUSH2 0x1039 JUMPI PUSH1 0x40 MLOAD PUSH3 0x461BCD PUSH1 0xE5 SHL DUP2 MSTORE PUSH1 0x20 PUSH1 0x4 DUP3 ADD MSTORE PUSH1 0x21 PUSH1 0x24 DUP3 ADD MSTORE PUSH32 0x455243313135353A206D696E7420746F20746865207A65726F20616464726573 PUSH1 0x44 DUP3 ADD MSTORE PUSH1 0x73 PUSH1 0xF8 SHL PUSH1 0x64 DUP3 ADD MSTORE PUSH1 0x84 ADD PUSH2 0x2A4 JUMP JUMPDEST CALLER PUSH2 0x1053 DUP2 PUSH1 0x0 DUP8 PUSH2 0x104A DUP9 PUSH2 0x1495 JUMP JUMPDEST PUSH2 0x457 DUP9 PUSH2 0x1495 JUMP JUMPDEST PUSH1 0x0 DUP5 DUP2 MSTORE PUSH1 0x20 DUP2 DUP2 MSTORE PUSH1 0x40 DUP1 DUP4 KECCAK256 PUSH1 0x1 PUSH1 0x1 PUSH1 0xA0 SHL SUB DUP10 AND DUP5 MSTORE SWAP1 SWAP2 MSTORE DUP2 KECCAK256 DUP1 SLOAD DUP6 SWAP3 SWAP1 PUSH2 0x1083 SWAP1 DUP5 SWAP1 PUSH2 0x1FC7 JUMP JUMPDEST SWAP1 SWAP2 SSTORE POP POP PUSH1 0x40 DUP1 MLOAD DUP6 DUP2 MSTORE PUSH1 0x20 DUP2 ADD DUP6 SWAP1 MSTORE PUSH1 0x1 PUSH1 0x1 PUSH1 0xA0 SHL SUB DUP1 DUP9 AND SWAP3 PUSH1 0x0 SWAP3 SWAP2 DUP6 AND SWAP2 PUSH32 0xC3D58168C5AE7397731D063D5BBF3D657854427343F4C083240F7AACAA2D0F62 SWAP2 ADD PUSH1 0x40 MLOAD DUP1 SWAP2 SUB SWAP1 LOG4 PUSH2 0x457 DUP2 PUSH1 0x0 DUP8 DUP8 DUP8 DUP8 PUSH2 0x14EE JUMP JUMPDEST PUSH1 0x3 DUP1 SLOAD PUSH1 0x1 PUSH1 0x1 PUSH1 0xA0 SHL SUB DUP4 DUP2 AND PUSH1 0x1 PUSH1 0x1 PUSH1 0xA0 SHL SUB NOT DUP4 AND DUP2 OR SWAP1 SWAP4 SSTORE PUSH1 0x40 MLOAD SWAP2 AND SWAP2 SWAP1 DUP3 SWAP1 PUSH32 0x8BE0079C531659141344CD1FD0A4F28419497F9722A3DAAFE3B4186F6B6457E0 SWAP1 PUSH1 0x0 SWAP1 LOG3 POP POP JUMP JUMPDEST DUP2 PUSH1 0x1 PUSH1 0x1 PUSH1 0xA0 SHL SUB AND DUP4 PUSH1 0x1 PUSH1 0x1 PUSH1 0xA0 SHL SUB AND EQ ISZERO PUSH2 0x11A9 JUMPI PUSH1 0x40 MLOAD PUSH3 0x461BCD PUSH1 0xE5 SHL DUP2 MSTORE PUSH1 0x20 PUSH1 0x4 DUP3 ADD MSTORE PUSH1 0x29 PUSH1 0x24 DUP3 ADD MSTORE PUSH32 0x455243313135353A2073657474696E6720617070726F76616C20737461747573 PUSH1 0x44 DUP3 ADD MSTORE PUSH9 0x103337B91039B2B633 PUSH1 0xB9 SHL PUSH1 0x64 DUP3 ADD MSTORE PUSH1 0x84 ADD PUSH2 0x2A4 JUMP JUMPDEST PUSH1 0x1 PUSH1 0x1 PUSH1 0xA0 SHL SUB DUP4 DUP2 AND PUSH1 0x0 DUP2 DUP2 MSTORE PUSH1 0x1 PUSH1 0x20 SWAP1 DUP2 MSTORE PUSH1 0x40 DUP1 DUP4 KECCAK256 SWAP5 DUP8 AND DUP1 DUP5 MSTORE SWAP5 DUP3 MSTORE SWAP2 DUP3 SWAP1 KECCAK256 DUP1 SLOAD PUSH1 0xFF NOT AND DUP7 ISZERO ISZERO SWAP1 DUP2 OR SWAP1 SWAP2 SSTORE SWAP2 MLOAD SWAP2 DUP3 MSTORE PUSH32 0x17307EAB39AB6107E8899845AD3D59BD9653F200F220920489CA2B5937696C31 SWAP2 ADD PUSH1 0x40 MLOAD DUP1 SWAP2 SUB SWAP1 LOG3 POP POP POP JUMP JUMPDEST PUSH1 0x1 PUSH1 0x1 PUSH1 0xA0 SHL SUB DUP5 AND PUSH2 0x123C JUMPI PUSH1 0x40 MLOAD PUSH3 0x461BCD PUSH1 0xE5 SHL DUP2 MSTORE PUSH1 0x4 ADD PUSH2 0x2A4 SWAP1 PUSH2 0x1E1E JUMP JUMPDEST CALLER PUSH2 0x124C DUP2 DUP8 DUP8 PUSH2 0x104A DUP9 PUSH2 0x1495 JUMP JUMPDEST PUSH1 0x0 DUP5 DUP2 MSTORE PUSH1 0x20 DUP2 DUP2 MSTORE PUSH1 0x40 DUP1 DUP4 KECCAK256 PUSH1 0x1 PUSH1 0x1 PUSH1 0xA0 SHL SUB DUP11 AND DUP5 MSTORE SWAP1 SWAP2 MSTORE SWAP1 KECCAK256 SLOAD DUP4 DUP2 LT ISZERO PUSH2 0x128D JUMPI PUSH1 0x40 MLOAD PUSH3 0x461BCD PUSH1 0xE5 SHL DUP2 MSTORE PUSH1 0x4 ADD PUSH2 0x2A4 SWAP1 PUSH2 0x1E63 JUMP JUMPDEST PUSH1 0x0 DUP6 DUP2 MSTORE PUSH1 0x20 DUP2 DUP2 MSTORE PUSH1 0x40 DUP1 DUP4 KECCAK256 PUSH1 0x1 PUSH1 0x1 PUSH1 0xA0 SHL SUB DUP12 DUP2 AND DUP6 MSTORE SWAP3 MSTORE DUP1 DUP4 KECCAK256 DUP8 DUP6 SUB SWAP1 SSTORE SWAP1 DUP9 AND DUP3 MSTORE DUP2 KECCAK256 DUP1 SLOAD DUP7 SWAP3 SWAP1 PUSH2 0x12CA SWAP1 DUP5 SWAP1 PUSH2 0x1FC7 JUMP JUMPDEST SWAP1 SWAP2 SSTORE POP POP PUSH1 0x40 DUP1 MLOAD DUP7 DUP2 MSTORE PUSH1 0x20 DUP2 ADD DUP7 SWAP1 MSTORE PUSH1 0x1 PUSH1 0x1 PUSH1 0xA0 SHL SUB DUP1 DUP10 AND SWAP3 DUP11 DUP3 AND SWAP3 SWAP2 DUP7 AND SWAP2 PUSH32 0xC3D58168C5AE7397731D063D5BBF3D657854427343F4C083240F7AACAA2D0F62 SWAP2 ADD PUSH1 0x40 MLOAD DUP1 SWAP2 SUB SWAP1 LOG4 PUSH2 0x640 DUP3 DUP9 DUP9 DUP9 DUP9 DUP9 PUSH2 0x14EE JUMP JUMPDEST PUSH1 0x1 PUSH1 0x1 PUSH1 0xA0 SHL SUB DUP5 AND EXTCODESIZE ISZERO PUSH2 0xFD1 JUMPI PUSH1 0x40 MLOAD PUSH4 0xBC197C81 PUSH1 0xE0 SHL DUP2 MSTORE PUSH1 0x1 PUSH1 0x1 PUSH1 0xA0 SHL SUB DUP6 AND SWAP1 PUSH4 0xBC197C81 SWAP1 PUSH2 0x136E SWAP1 DUP10 SWAP1 DUP10 SWAP1 DUP9 SWAP1 DUP9 SWAP1 DUP9 SWAP1 PUSH1 0x4 ADD PUSH2 0x1CDF JUMP JUMPDEST PUSH1 0x20 PUSH1 0x40 MLOAD DUP1 DUP4 SUB DUP2 PUSH1 0x0 DUP8 DUP1 EXTCODESIZE ISZERO DUP1 ISZERO PUSH2 0x1388 JUMPI PUSH1 0x0 DUP1 REVERT JUMPDEST POP GAS CALL SWAP3 POP POP POP DUP1 ISZERO PUSH2 0x13B8 JUMPI POP PUSH1 0x40 DUP1 MLOAD PUSH1 0x1F RETURNDATASIZE SWAP1 DUP2 ADD PUSH1 0x1F NOT AND DUP3 ADD SWAP1 SWAP3 MSTORE PUSH2 0x13B5 SWAP2 DUP2 ADD SWAP1 PUSH2 0x1B6F JUMP JUMPDEST PUSH1 0x1 JUMPDEST PUSH2 0x1465 JUMPI PUSH2 0x13C4 PUSH2 0x20BE JUMP JUMPDEST DUP1 PUSH4 0x8C379A0 EQ ISZERO PUSH2 0x13FE JUMPI POP PUSH2 0x13D9 PUSH2 0x20D6 JUMP JUMPDEST DUP1 PUSH2 0x13E4 JUMPI POP PUSH2 0x1400 JUMP JUMPDEST DUP1 PUSH1 0x40 MLOAD PUSH3 0x461BCD PUSH1 0xE5 SHL DUP2 MSTORE PUSH1 0x4 ADD PUSH2 0x2A4 SWAP2 SWAP1 PUSH2 0x1DC3 JUMP JUMPDEST POP JUMPDEST PUSH1 0x40 MLOAD PUSH3 0x461BCD PUSH1 0xE5 SHL DUP2 MSTORE PUSH1 0x20 PUSH1 0x4 DUP3 ADD MSTORE PUSH1 0x34 PUSH1 0x24 DUP3 ADD MSTORE PUSH32 0x455243313135353A207472616E7366657220746F206E6F6E2045524331313535 PUSH1 0x44 DUP3 ADD MSTORE PUSH20 0x2932B1B2B4BB32B91034B6B83632B6B2B73A32B9 PUSH1 0x61 SHL PUSH1 0x64 DUP3 ADD MSTORE PUSH1 0x84 ADD PUSH2 0x2A4 JUMP JUMPDEST PUSH1 0x1 PUSH1 0x1 PUSH1 0xE0 SHL SUB NOT DUP2 AND PUSH4 0xBC197C81 PUSH1 0xE0 SHL EQ PUSH2 0x640 JUMPI PUSH1 0x40 MLOAD PUSH3 0x461BCD PUSH1 0xE5 SHL DUP2 MSTORE PUSH1 0x4 ADD PUSH2 0x2A4 SWAP1 PUSH2 0x1DD6 JUMP JUMPDEST PUSH1 0x40 DUP1 MLOAD PUSH1 0x1 DUP1 DUP3 MSTORE DUP2 DUP4 ADD SWAP1 SWAP3 MSTORE PUSH1 0x60 SWAP2 PUSH1 0x0 SWAP2 SWAP1 PUSH1 0x20 DUP1 DUP4 ADD SWAP1 DUP1 CALLDATASIZE DUP4 CALLDATACOPY ADD SWAP1 POP POP SWAP1 POP DUP3 DUP2 PUSH1 0x0 DUP2 MLOAD DUP2 LT PUSH2 0x14DD JUMPI PUSH4 0x4E487B71 PUSH1 0xE0 SHL PUSH1 0x0 MSTORE PUSH1 0x32 PUSH1 0x4 MSTORE PUSH1 0x24 PUSH1 0x0 REVERT JUMPDEST PUSH1 0x20 SWAP1 DUP2 MUL SWAP2 SWAP1 SWAP2 ADD ADD MSTORE SWAP3 SWAP2 POP POP JUMP JUMPDEST PUSH1 0x1 PUSH1 0x1 PUSH1 0xA0 SHL SUB DUP5 AND EXTCODESIZE ISZERO PUSH2 0xFD1 JUMPI PUSH1 0x40 MLOAD PUSH4 0xF23A6E61 PUSH1 0xE0 SHL DUP2 MSTORE PUSH1 0x1 PUSH1 0x1 PUSH1 0xA0 SHL SUB DUP6 AND SWAP1 PUSH4 0xF23A6E61 SWAP1 PUSH2 0x1532 SWAP1 DUP10 SWAP1 DUP10 SWAP1 DUP9 SWAP1 DUP9 SWAP1 DUP9 SWAP1 PUSH1 0x4 ADD PUSH2 0x1D3D JUMP JUMPDEST PUSH1 0x20 PUSH1 0x40 MLOAD DUP1 DUP4 SUB DUP2 PUSH1 0x0 DUP8 DUP1 EXTCODESIZE ISZERO DUP1 ISZERO PUSH2 0x154C JUMPI PUSH1 0x0 DUP1 REVERT JUMPDEST POP GAS CALL SWAP3 POP POP POP DUP1 ISZERO PUSH2 0x157C JUMPI POP PUSH1 0x40 DUP1 MLOAD PUSH1 0x1F RETURNDATASIZE SWAP1 DUP2 ADD PUSH1 0x1F NOT AND DUP3 ADD SWAP1 SWAP3 MSTORE PUSH2 0x1579 SWAP2 DUP2 ADD SWAP1 PUSH2 0x1B6F JUMP JUMPDEST PUSH1 0x1 JUMPDEST PUSH2 0x1588 JUMPI PUSH2 0x13C4 PUSH2 0x20BE JUMP JUMPDEST PUSH1 0x1 PUSH1 0x1 PUSH1 0xE0 SHL SUB NOT DUP2 AND PUSH4 0xF23A6E61 PUSH1 0xE0 SHL EQ PUSH2 0x640 JUMPI PUSH1 0x40 MLOAD PUSH3 0x461BCD PUSH1 0xE5 SHL DUP2 MSTORE PUSH1 0x4 ADD PUSH2 0x2A4 SWAP1 PUSH2 0x1DD6 JUMP JUMPDEST DUP3 DUP1 SLOAD PUSH2 0x15C4 SWAP1 PUSH2 0x200F JUMP JUMPDEST SWAP1 PUSH1 0x0 MSTORE PUSH1 0x20 PUSH1 0x0 KECCAK256 SWAP1 PUSH1 0x1F ADD PUSH1 0x20 SWAP1 DIV DUP2 ADD SWAP3 DUP3 PUSH2 0x15E6 JUMPI PUSH1 0x0 DUP6 SSTORE PUSH2 0x162C JUMP JUMPDEST DUP3 PUSH1 0x1F LT PUSH2 0x15FF JUMPI DUP1 MLOAD PUSH1 0xFF NOT AND DUP4 DUP1 ADD OR DUP6 SSTORE PUSH2 0x162C JUMP JUMPDEST DUP3 DUP1 ADD PUSH1 0x1 ADD DUP6 SSTORE DUP3 ISZERO PUSH2 0x162C JUMPI SWAP2 DUP3 ADD JUMPDEST DUP3 DUP2 GT ISZERO PUSH2 0x162C JUMPI DUP3 MLOAD DUP3 SSTORE SWAP2 PUSH1 0x20 ADD SWAP2 SWAP1 PUSH1 0x1 ADD SWAP1 PUSH2 0x1611 JUMP JUMPDEST POP PUSH2 0x1638 SWAP3 SWAP2 POP PUSH2 0x163C JUMP JUMPDEST POP SWAP1 JUMP JUMPDEST JUMPDEST DUP1 DUP3 GT ISZERO PUSH2 0x1638 JUMPI PUSH1 0x0 DUP2 SSTORE PUSH1 0x1 ADD PUSH2 0x163D JUMP JUMPDEST DUP1 CALLDATALOAD PUSH1 0x1 PUSH1 0x1 PUSH1 0xA0 SHL SUB DUP2 AND DUP2 EQ PUSH2 0x1668 JUMPI PUSH1 0x0 DUP1 REVERT JUMPDEST SWAP2 SWAP1 POP JUMP JUMPDEST PUSH1 0x0 DUP3 PUSH1 0x1F DUP4 ADD SLT PUSH2 0x167D JUMPI DUP1 DUP2 REVERT JUMPDEST DUP2 CALLDATALOAD PUSH1 0x20 PUSH2 0x168A DUP3 PUSH2 0x1FA3 JUMP JUMPDEST PUSH1 0x40 MLOAD PUSH2 0x1697 DUP3 DUP3 PUSH2 0x204A JUMP JUMPDEST DUP4 DUP2 MSTORE DUP3 DUP2 ADD SWAP2 POP DUP6 DUP4 ADD PUSH1 0x5 DUP6 SWAP1 SHL DUP8 ADD DUP5 ADD DUP9 LT ISZERO PUSH2 0x16B6 JUMPI DUP6 DUP7 REVERT JUMPDEST DUP6 JUMPDEST DUP6 DUP2 LT ISZERO PUSH2 0x16D4 JUMPI DUP2 CALLDATALOAD DUP5 MSTORE SWAP3 DUP5 ADD SWAP3 SWAP1 DUP5 ADD SWAP1 PUSH1 0x1 ADD PUSH2 0x16B8 JUMP JUMPDEST POP SWAP1 SWAP8 SWAP7 POP POP POP POP POP POP POP JUMP JUMPDEST PUSH1 0x0 DUP3 PUSH1 0x1F DUP4 ADD SLT PUSH2 0x16F1 JUMPI DUP1 DUP2 REVERT JUMPDEST DUP2 CALLDATALOAD PUSH8 0xFFFFFFFFFFFFFFFF DUP2 GT ISZERO PUSH2 0x170B JUMPI PUSH2 0x170B PUSH2 0x20A8 JUMP JUMPDEST PUSH1 0x40 MLOAD PUSH2 0x1722 PUSH1 0x1F DUP4 ADD PUSH1 0x1F NOT AND PUSH1 0x20 ADD DUP3 PUSH2 0x204A JUMP JUMPDEST DUP2 DUP2 MSTORE DUP5 PUSH1 0x20 DUP4 DUP7 ADD ADD GT ISZERO PUSH2 0x1736 JUMPI DUP3 DUP4 REVERT JUMPDEST DUP2 PUSH1 0x20 DUP6 ADD PUSH1 0x20 DUP4 ADD CALLDATACOPY SWAP1 DUP2 ADD PUSH1 0x20 ADD SWAP2 SWAP1 SWAP2 MSTORE SWAP3 SWAP2 POP POP JUMP JUMPDEST PUSH1 0x0 PUSH1 0x20 DUP3 DUP5 SUB SLT ISZERO PUSH2 0x1761 JUMPI DUP1 DUP2 REVERT JUMPDEST PUSH2 0x176A DUP3 PUSH2 0x1651 JUMP JUMPDEST SWAP4 SWAP3 POP POP POP JUMP JUMPDEST PUSH1 0x0 DUP1 PUSH1 0x40 DUP4 DUP6 SUB SLT ISZERO PUSH2 0x1783 JUMPI DUP1 DUP2 REVERT JUMPDEST PUSH2 0x178C DUP4 PUSH2 0x1651 JUMP JUMPDEST SWAP2 POP PUSH2 0x179A PUSH1 0x20 DUP5 ADD PUSH2 0x1651 JUMP JUMPDEST SWAP1 POP SWAP3 POP SWAP3 SWAP1 POP JUMP JUMPDEST PUSH1 0x0 DUP1 PUSH1 0x0 DUP1 PUSH1 0x0 PUSH1 0xA0 DUP7 DUP9 SUB SLT ISZERO PUSH2 0x17BA JUMPI DUP1 DUP2 REVERT JUMPDEST PUSH2 0x17C3 DUP7 PUSH2 0x1651 JUMP JUMPDEST SWAP5 POP PUSH2 0x17D1 PUSH1 0x20 DUP8 ADD PUSH2 0x1651 JUMP JUMPDEST SWAP4 POP PUSH1 0x40 DUP7 ADD CALLDATALOAD PUSH8 0xFFFFFFFFFFFFFFFF DUP1 DUP3 GT ISZERO PUSH2 0x17ED JUMPI DUP3 DUP4 REVERT JUMPDEST PUSH2 0x17F9 DUP10 DUP4 DUP11 ADD PUSH2 0x166D JUMP JUMPDEST SWAP5 POP PUSH1 0x60 DUP9 ADD CALLDATALOAD SWAP2 POP DUP1 DUP3 GT ISZERO PUSH2 0x180E JUMPI DUP3 DUP4 REVERT JUMPDEST PUSH2 0x181A DUP10 DUP4 DUP11 ADD PUSH2 0x166D JUMP JUMPDEST SWAP4 POP PUSH1 0x80 DUP9 ADD CALLDATALOAD SWAP2 POP DUP1 DUP3 GT ISZERO PUSH2 0x182F JUMPI DUP3 DUP4 REVERT JUMPDEST POP PUSH2 0x183C DUP9 DUP3 DUP10 ADD PUSH2 0x16E1 JUMP JUMPDEST SWAP2 POP POP SWAP3 SWAP6 POP SWAP3 SWAP6 SWAP1 SWAP4 POP JUMP JUMPDEST PUSH1 0x0 DUP1 PUSH1 0x0 DUP1 PUSH1 0x0 PUSH1 0xA0 DUP7 DUP9 SUB SLT ISZERO PUSH2 0x1860 JUMPI DUP1 DUP2 REVERT JUMPDEST PUSH2 0x1869 DUP7 PUSH2 0x1651 JUMP JUMPDEST SWAP5 POP PUSH2 0x1877 PUSH1 0x20 DUP8 ADD PUSH2 0x1651 JUMP JUMPDEST SWAP4 POP PUSH1 0x40 DUP7 ADD CALLDATALOAD SWAP3 POP PUSH1 0x60 DUP7 ADD CALLDATALOAD SWAP2 POP PUSH1 0x80 DUP7 ADD CALLDATALOAD PUSH8 0xFFFFFFFFFFFFFFFF DUP2 GT ISZERO PUSH2 0x18A0 JUMPI DUP2 DUP3 REVERT JUMPDEST PUSH2 0x183C DUP9 DUP3 DUP10 ADD PUSH2 0x16E1 JUMP JUMPDEST PUSH1 0x0 DUP1 PUSH1 0x40 DUP4 DUP6 SUB SLT ISZERO PUSH2 0x18BE JUMPI DUP2 DUP3 REVERT JUMPDEST PUSH2 0x18C7 DUP4 PUSH2 0x1651 JUMP JUMPDEST SWAP2 POP PUSH1 0x20 DUP4 ADD CALLDATALOAD DUP1 ISZERO ISZERO DUP2 EQ PUSH2 0x18DB JUMPI DUP2 DUP3 REVERT JUMPDEST DUP1 SWAP2 POP POP SWAP3 POP SWAP3 SWAP1 POP JUMP JUMPDEST PUSH1 0x0 DUP1 PUSH1 0x0 DUP1 PUSH1 0x80 DUP6 DUP8 SUB SLT ISZERO PUSH2 0x18FB JUMPI DUP4 DUP5 REVERT JUMPDEST PUSH2 0x1904 DUP6 PUSH2 0x1651 JUMP JUMPDEST SWAP4 POP PUSH1 0x20 DUP6 ADD CALLDATALOAD PUSH8 0xFFFFFFFFFFFFFFFF DUP1 DUP3 GT ISZERO PUSH2 0x1920 JUMPI DUP5 DUP6 REVERT JUMPDEST SWAP1 DUP7 ADD SWAP1 PUSH1 0xE0 DUP3 DUP10 SUB SLT ISZERO PUSH2 0x1933 JUMPI DUP5 DUP6 REVERT JUMPDEST PUSH2 0x193B PUSH2 0x1F7A JUMP JUMPDEST DUP3 CALLDATALOAD DUP3 DUP2 GT ISZERO PUSH2 0x1949 JUMPI DUP7 DUP8 REVERT JUMPDEST PUSH2 0x1955 DUP11 DUP3 DUP7 ADD PUSH2 0x16E1 JUMP JUMPDEST DUP3 MSTORE POP PUSH1 0x20 DUP4 ADD CALLDATALOAD DUP3 DUP2 GT ISZERO PUSH2 0x1969 JUMPI DUP7 DUP8 REVERT JUMPDEST PUSH2 0x1975 DUP11 DUP3 DUP7 ADD PUSH2 0x16E1 JUMP JUMPDEST PUSH1 0x20 DUP4 ADD MSTORE POP PUSH1 0x40 DUP4 ADD CALLDATALOAD DUP3 DUP2 GT ISZERO PUSH2 0x198C JUMPI DUP7 DUP8 REVERT JUMPDEST PUSH2 0x1998 DUP11 DUP3 DUP7 ADD PUSH2 0x16E1 JUMP JUMPDEST PUSH1 0x40 DUP4 ADD MSTORE POP PUSH1 0x60 DUP4 ADD CALLDATALOAD DUP3 DUP2 GT ISZERO PUSH2 0x19AF JUMPI DUP7 DUP8 REVERT JUMPDEST PUSH2 0x19BB DUP11 DUP3 DUP7 ADD PUSH2 0x16E1 JUMP JUMPDEST PUSH1 0x60 DUP4 ADD MSTORE POP PUSH1 0x80 DUP4 ADD CALLDATALOAD DUP3 DUP2 GT ISZERO PUSH2 0x19D2 JUMPI DUP7 DUP8 REVERT JUMPDEST PUSH2 0x19DE DUP11 DUP3 DUP7 ADD PUSH2 0x16E1 JUMP JUMPDEST PUSH1 0x80 DUP4 ADD MSTORE POP PUSH1 0xA0 DUP4 ADD CALLDATALOAD DUP3 DUP2 GT ISZERO PUSH2 0x19F5 JUMPI DUP7 DUP8 REVERT JUMPDEST PUSH2 0x1A01 DUP11 DUP3 DUP7 ADD PUSH2 0x16E1 JUMP JUMPDEST PUSH1 0xA0 DUP4 ADD MSTORE POP PUSH1 0xC0 DUP4 ADD CALLDATALOAD DUP3 DUP2 GT ISZERO PUSH2 0x1A18 JUMPI DUP7 DUP8 REVERT JUMPDEST PUSH2 0x1A24 DUP11 DUP3 DUP7 ADD PUSH2 0x16E1 JUMP JUMPDEST PUSH1 0xC0 DUP4 ADD MSTORE POP SWAP5 POP PUSH1 0x40 DUP8 ADD CALLDATALOAD SWAP4 POP PUSH1 0x60 DUP8 ADD CALLDATALOAD SWAP2 POP DUP1 DUP3 GT ISZERO PUSH2 0x1A46 JUMPI DUP3 DUP4 REVERT JUMPDEST POP PUSH2 0x1A53 DUP8 DUP3 DUP9 ADD PUSH2 0x16E1 JUMP JUMPDEST SWAP2 POP POP SWAP3 SWAP6 SWAP2 SWAP5 POP SWAP3 POP JUMP JUMPDEST PUSH1 0x0 DUP1 PUSH1 0x40 DUP4 DUP6 SUB SLT ISZERO PUSH2 0x1A71 JUMPI DUP2 DUP3 REVERT JUMPDEST PUSH2 0x1A7A DUP4 PUSH2 0x1651 JUMP JUMPDEST SWAP5 PUSH1 0x20 SWAP4 SWAP1 SWAP4 ADD CALLDATALOAD SWAP4 POP POP POP JUMP JUMPDEST PUSH1 0x0 DUP1 PUSH1 0x40 DUP4 DUP6 SUB SLT ISZERO PUSH2 0x1A9A JUMPI DUP2 DUP3 REVERT JUMPDEST DUP3 CALLDATALOAD PUSH8 0xFFFFFFFFFFFFFFFF DUP1 DUP3 GT ISZERO PUSH2 0x1AB1 JUMPI DUP4 DUP5 REVERT JUMPDEST DUP2 DUP6 ADD SWAP2 POP DUP6 PUSH1 0x1F DUP4 ADD SLT PUSH2 0x1AC4 JUMPI DUP4 DUP5 REVERT JUMPDEST DUP2 CALLDATALOAD PUSH1 0x20 PUSH2 0x1AD1 DUP3 PUSH2 0x1FA3 JUMP JUMPDEST PUSH1 0x40 MLOAD PUSH2 0x1ADE DUP3 DUP3 PUSH2 0x204A JUMP JUMPDEST DUP4 DUP2 MSTORE DUP3 DUP2 ADD SWAP2 POP DUP6 DUP4 ADD PUSH1 0x5 DUP6 SWAP1 SHL DUP8 ADD DUP5 ADD DUP12 LT ISZERO PUSH2 0x1AFD JUMPI DUP9 DUP10 REVERT JUMPDEST DUP9 SWAP7 POP JUMPDEST DUP5 DUP8 LT ISZERO PUSH2 0x1B26 JUMPI PUSH2 0x1B12 DUP2 PUSH2 0x1651 JUMP JUMPDEST DUP4 MSTORE PUSH1 0x1 SWAP7 SWAP1 SWAP7 ADD SWAP6 SWAP2 DUP4 ADD SWAP2 DUP4 ADD PUSH2 0x1B01 JUMP JUMPDEST POP SWAP7 POP POP DUP7 ADD CALLDATALOAD SWAP3 POP POP DUP1 DUP3 GT ISZERO PUSH2 0x1B3C JUMPI DUP3 DUP4 REVERT JUMPDEST POP PUSH2 0x1B49 DUP6 DUP3 DUP7 ADD PUSH2 0x166D JUMP JUMPDEST SWAP2 POP POP SWAP3 POP SWAP3 SWAP1 POP JUMP JUMPDEST PUSH1 0x0 PUSH1 0x20 DUP3 DUP5 SUB SLT ISZERO PUSH2 0x1B64 JUMPI DUP1 DUP2 REVERT JUMPDEST DUP2 CALLDATALOAD PUSH2 0x176A DUP2 PUSH2 0x2160 JUMP JUMPDEST PUSH1 0x0 PUSH1 0x20 DUP3 DUP5 SUB SLT ISZERO PUSH2 0x1B80 JUMPI DUP1 DUP2 REVERT JUMPDEST DUP2 MLOAD PUSH2 0x176A DUP2 PUSH2 0x2160 JUMP JUMPDEST PUSH1 0x0 PUSH1 0x20 DUP3 DUP5 SUB SLT ISZERO PUSH2 0x1B9C JUMPI DUP1 DUP2 REVERT JUMPDEST DUP2 CALLDATALOAD PUSH8 0xFFFFFFFFFFFFFFFF DUP2 GT ISZERO PUSH2 0x1BB2 JUMPI DUP2 DUP3 REVERT JUMPDEST PUSH2 0x1BBE DUP5 DUP3 DUP6 ADD PUSH2 0x16E1 JUMP JUMPDEST SWAP5 SWAP4 POP POP POP POP JUMP JUMPDEST PUSH1 0x0 PUSH1 0x20 DUP3 DUP5 SUB SLT ISZERO PUSH2 0x1BD7 JUMPI DUP1 DUP2 REVERT JUMPDEST POP CALLDATALOAD SWAP2 SWAP1 POP JUMP JUMPDEST PUSH1 0x0 DUP2 MLOAD DUP1 DUP5 MSTORE PUSH1 0x20 DUP1 DUP6 ADD SWAP5 POP DUP1 DUP5 ADD DUP4 JUMPDEST DUP4 DUP2 LT ISZERO PUSH2 0x1C0D JUMPI DUP2 MLOAD DUP8 MSTORE SWAP6 DUP3 ADD SWAP6 SWAP1 DUP3 ADD SWAP1 PUSH1 0x1 ADD PUSH2 0x1BF1 JUMP JUMPDEST POP SWAP5 SWAP6 SWAP5 POP POP POP POP POP JUMP JUMPDEST PUSH1 0x0 DUP2 MLOAD DUP1 DUP5 MSTORE PUSH2 0x1C30 DUP2 PUSH1 0x20 DUP7 ADD PUSH1 0x20 DUP7 ADD PUSH2 0x1FDF JUMP JUMPDEST PUSH1 0x1F ADD PUSH1 0x1F NOT AND SWAP3 SWAP1 SWAP3 ADD PUSH1 0x20 ADD SWAP3 SWAP2 POP POP JUMP JUMPDEST PUSH1 0x0 DUP3 MLOAD PUSH2 0x1C56 DUP2 DUP5 PUSH1 0x20 DUP8 ADD PUSH2 0x1FDF JUMP JUMPDEST SWAP2 SWAP1 SWAP2 ADD SWAP3 SWAP2 POP POP JUMP JUMPDEST PUSH1 0x0 DUP8 MLOAD PUSH1 0x20 PUSH2 0x1C73 DUP3 DUP6 DUP4 DUP14 ADD PUSH2 0x1FDF JUMP JUMPDEST DUP9 MLOAD SWAP2 DUP5 ADD SWAP2 PUSH2 0x1C86 DUP2 DUP5 DUP5 DUP14 ADD PUSH2 0x1FDF JUMP JUMPDEST DUP9 MLOAD SWAP3 ADD SWAP2 PUSH2 0x1C98 DUP2 DUP5 DUP5 DUP13 ADD PUSH2 0x1FDF JUMP JUMPDEST DUP8 MLOAD SWAP3 ADD SWAP2 PUSH2 0x1CAA DUP2 DUP5 DUP5 DUP12 ADD PUSH2 0x1FDF JUMP JUMPDEST DUP7 MLOAD SWAP3 ADD SWAP2 PUSH2 0x1CBC DUP2 DUP5 DUP5 DUP11 ADD PUSH2 0x1FDF JUMP JUMPDEST DUP6 MLOAD SWAP3 ADD SWAP2 PUSH2 0x1CCE DUP2 DUP5 DUP5 DUP10 ADD PUSH2 0x1FDF JUMP JUMPDEST SWAP2 SWAP1 SWAP2 ADD SWAP10 SWAP9 POP POP POP POP POP POP POP POP POP JUMP JUMPDEST PUSH1 0x1 PUSH1 0x1 PUSH1 0xA0 SHL SUB DUP7 DUP2 AND DUP3 MSTORE DUP6 AND PUSH1 0x20 DUP3 ADD MSTORE PUSH1 0xA0 PUSH1 0x40 DUP3 ADD DUP2 SWAP1 MSTORE PUSH1 0x0 SWAP1 PUSH2 0x1D0B SWAP1 DUP4 ADD DUP7 PUSH2 0x1BDE JUMP JUMPDEST DUP3 DUP2 SUB PUSH1 0x60 DUP5 ADD MSTORE PUSH2 0x1D1D DUP2 DUP7 PUSH2 0x1BDE JUMP JUMPDEST SWAP1 POP DUP3 DUP2 SUB PUSH1 0x80 DUP5 ADD MSTORE PUSH2 0x1D31 DUP2 DUP6 PUSH2 0x1C18 JUMP JUMPDEST SWAP9 SWAP8 POP POP POP POP POP POP POP POP JUMP JUMPDEST PUSH1 0x1 PUSH1 0x1 PUSH1 0xA0 SHL SUB DUP7 DUP2 AND DUP3 MSTORE DUP6 AND PUSH1 0x20 DUP3 ADD MSTORE PUSH1 0x40 DUP2 ADD DUP5 SWAP1 MSTORE PUSH1 0x60 DUP2 ADD DUP4 SWAP1 MSTORE PUSH1 0xA0 PUSH1 0x80 DUP3 ADD DUP2 SWAP1 MSTORE PUSH1 0x0 SWAP1 PUSH2 0x1D77 SWAP1 DUP4 ADD DUP5 PUSH2 0x1C18 JUMP JUMPDEST SWAP8 SWAP7 POP POP POP POP POP POP POP JUMP JUMPDEST PUSH1 0x20 DUP2 MSTORE PUSH1 0x0 PUSH2 0x176A PUSH1 0x20 DUP4 ADD DUP5 PUSH2 0x1BDE JUMP JUMPDEST PUSH1 0x40 DUP2 MSTORE PUSH1 0x0 PUSH2 0x1DA8 PUSH1 0x40 DUP4 ADD DUP6 PUSH2 0x1BDE JUMP JUMPDEST DUP3 DUP2 SUB PUSH1 0x20 DUP5 ADD MSTORE PUSH2 0x1DBA DUP2 DUP6 PUSH2 0x1BDE JUMP JUMPDEST SWAP6 SWAP5 POP POP POP POP POP JUMP JUMPDEST PUSH1 0x20 DUP2 MSTORE PUSH1 0x0 PUSH2 0x176A PUSH1 0x20 DUP4 ADD DUP5 PUSH2 0x1C18 JUMP JUMPDEST PUSH1 0x20 DUP1 DUP3 MSTORE PUSH1 0x28 SWAP1 DUP3 ADD MSTORE PUSH32 0x455243313135353A204552433131353552656365697665722072656A65637465 PUSH1 0x40 DUP3 ADD MSTORE PUSH8 0x6420746F6B656E73 PUSH1 0xC0 SHL PUSH1 0x60 DUP3 ADD MSTORE PUSH1 0x80 ADD SWAP1 JUMP JUMPDEST PUSH1 0x20 DUP1 DUP3 MSTORE PUSH1 0x25 SWAP1 DUP3 ADD MSTORE PUSH32 0x455243313135353A207472616E7366657220746F20746865207A65726F206164 PUSH1 0x40 DUP3 ADD MSTORE PUSH5 0x6472657373 PUSH1 0xD8 SHL PUSH1 0x60 DUP3 ADD MSTORE PUSH1 0x80 ADD SWAP1 JUMP JUMPDEST PUSH1 0x20 DUP1 DUP3 MSTORE PUSH1 0x2A SWAP1 DUP3 ADD MSTORE PUSH32 0x455243313135353A20696E73756666696369656E742062616C616E636520666F PUSH1 0x40 DUP3 ADD MSTORE PUSH10 0x39103A3930B739B332B9 PUSH1 0xB1 SHL PUSH1 0x60 DUP3 ADD MSTORE PUSH1 0x80 ADD SWAP1 JUMP JUMPDEST PUSH1 0x20 DUP2 MSTORE PUSH1 0x0 DUP3 MLOAD PUSH1 0xE0 PUSH1 0x20 DUP5 ADD MSTORE PUSH2 0x1ECA PUSH2 0x100 DUP5 ADD DUP3 PUSH2 0x1C18 JUMP JUMPDEST SWAP1 POP PUSH1 0x20 DUP5 ADD MLOAD PUSH1 0x1F NOT DUP1 DUP6 DUP5 SUB ADD PUSH1 0x40 DUP7 ADD MSTORE PUSH2 0x1EE8 DUP4 DUP4 PUSH2 0x1C18 JUMP JUMPDEST SWAP3 POP PUSH1 0x40 DUP7 ADD MLOAD SWAP2 POP DUP1 DUP6 DUP5 SUB ADD PUSH1 0x60 DUP7 ADD MSTORE PUSH2 0x1F05 DUP4 DUP4 PUSH2 0x1C18 JUMP JUMPDEST SWAP3 POP PUSH1 0x60 DUP7 ADD MLOAD SWAP2 POP DUP1 DUP6 DUP5 SUB ADD PUSH1 0x80 DUP7 ADD MSTORE PUSH2 0x1F22 DUP4 DUP4 PUSH2 0x1C18 JUMP JUMPDEST SWAP3 POP PUSH1 0x80 DUP7 ADD MLOAD SWAP2 POP DUP1 DUP6 DUP5 SUB ADD PUSH1 0xA0 DUP7 ADD MSTORE PUSH2 0x1F3F DUP4 DUP4 PUSH2 0x1C18 JUMP JUMPDEST SWAP3 POP PUSH1 0xA0 DUP7 ADD MLOAD SWAP2 POP DUP1 DUP6 DUP5 SUB ADD PUSH1 0xC0 DUP7 ADD MSTORE PUSH2 0x1F5C DUP4 DUP4 PUSH2 0x1C18 JUMP JUMPDEST SWAP3 POP PUSH1 0xC0 DUP7 ADD MLOAD SWAP2 POP DUP1 DUP6 DUP5 SUB ADD PUSH1 0xE0 DUP7 ADD MSTORE POP PUSH2 0x1DBA DUP3 DUP3 PUSH2 0x1C18 JUMP JUMPDEST PUSH1 0x40 MLOAD PUSH1 0xE0 DUP2 ADD PUSH8 0xFFFFFFFFFFFFFFFF DUP2 GT DUP3 DUP3 LT OR ISZERO PUSH2 0x1F9D JUMPI PUSH2 0x1F9D PUSH2 0x20A8 JUMP JUMPDEST PUSH1 0x40 MSTORE SWAP1 JUMP JUMPDEST PUSH1 0x0 PUSH8 0xFFFFFFFFFFFFFFFF DUP3 GT ISZERO PUSH2 0x1FBD JUMPI PUSH2 0x1FBD PUSH2 0x20A8 JUMP JUMPDEST POP PUSH1 0x5 SHL PUSH1 0x20 ADD SWAP1 JUMP JUMPDEST PUSH1 0x0 DUP3 NOT DUP3 GT ISZERO PUSH2 0x1FDA JUMPI PUSH2 0x1FDA PUSH2 0x2092 JUMP JUMPDEST POP ADD SWAP1 JUMP JUMPDEST PUSH1 0x0 JUMPDEST DUP4 DUP2 LT ISZERO PUSH2 0x1FFA JUMPI DUP2 DUP2 ADD MLOAD DUP4 DUP3 ADD MSTORE PUSH1 0x20 ADD PUSH2 0x1FE2 JUMP JUMPDEST DUP4 DUP2 GT ISZERO PUSH2 0x2009 JUMPI PUSH1 0x0 DUP5 DUP5 ADD MSTORE JUMPDEST POP POP POP POP JUMP JUMPDEST PUSH1 0x1 DUP2 DUP2 SHR SWAP1 DUP3 AND DUP1 PUSH2 0x2023 JUMPI PUSH1 0x7F DUP3 AND SWAP2 POP JUMPDEST PUSH1 0x20 DUP3 LT DUP2 EQ ISZERO PUSH2 0x2044 JUMPI PUSH4 0x4E487B71 PUSH1 0xE0 SHL PUSH1 0x0 MSTORE PUSH1 0x22 PUSH1 0x4 MSTORE PUSH1 0x24 PUSH1 0x0 REVERT JUMPDEST POP SWAP2 SWAP1 POP JUMP JUMPDEST PUSH1 0x1F DUP3 ADD PUSH1 0x1F NOT AND DUP2 ADD PUSH8 0xFFFFFFFFFFFFFFFF DUP2 GT DUP3 DUP3 LT OR ISZERO PUSH2 0x2070 JUMPI PUSH2 0x2070 PUSH2 0x20A8 JUMP JUMPDEST PUSH1 0x40 MSTORE POP POP JUMP JUMPDEST PUSH1 0x0 PUSH1 0x0 NOT DUP3 EQ ISZERO PUSH2 0x208B JUMPI PUSH2 0x208B PUSH2 0x2092 JUMP JUMPDEST POP PUSH1 0x1 ADD SWAP1 JUMP JUMPDEST PUSH4 0x4E487B71 PUSH1 0xE0 SHL PUSH1 0x0 MSTORE PUSH1 0x11 PUSH1 0x4 MSTORE PUSH1 0x24 PUSH1 0x0 REVERT JUMPDEST PUSH4 0x4E487B71 PUSH1 0xE0 SHL PUSH1 0x0 MSTORE PUSH1 0x41 PUSH1 0x4 MSTORE PUSH1 0x24 PUSH1 0x0 REVERT JUMPDEST PUSH1 0x0 PUSH1 0x3 RETURNDATASIZE GT ISZERO PUSH2 0x20D3 JUMPI PUSH1 0x4 DUP2 DUP3 RETURNDATACOPY MLOAD PUSH1 0xE0 SHR JUMPDEST SWAP1 JUMP JUMPDEST PUSH1 0x0 PUSH1 0x44 RETURNDATASIZE LT ISZERO PUSH2 0x20E4 JUMPI SWAP1 JUMP JUMPDEST PUSH1 0x40 MLOAD PUSH1 0x3 NOT RETURNDATASIZE DUP2 ADD PUSH1 0x4 DUP4 RETURNDATACOPY DUP2 MLOAD RETURNDATASIZE PUSH8 0xFFFFFFFFFFFFFFFF DUP2 PUSH1 0x24 DUP5 ADD GT DUP2 DUP5 GT OR ISZERO PUSH2 0x2114 JUMPI POP POP POP POP POP SWAP1 JUMP JUMPDEST DUP3 DUP6 ADD SWAP2 POP DUP2 MLOAD DUP2 DUP2 GT ISZERO PUSH2 0x212C JUMPI POP POP POP POP POP POP SWAP1 JUMP JUMPDEST DUP5 RETURNDATASIZE DUP8 ADD ADD PUSH1 0x20 DUP3 DUP6 ADD ADD GT ISZERO PUSH2 0x2146 JUMPI POP POP POP POP POP POP SWAP1 JUMP JUMPDEST PUSH2 0x2155 PUSH1 0x20 DUP3 DUP7 ADD ADD DUP8 PUSH2 0x204A JUMP JUMPDEST POP SWAP1 SWAP6 SWAP5 POP POP POP POP POP JUMP JUMPDEST PUSH1 0x1 PUSH1 0x1 PUSH1 0xE0 SHL SUB NOT DUP2 AND DUP2 EQ PUSH2 0xDDD JUMPI PUSH1 0x0 DUP1 REVERT INVALID LOG2 PUSH5 0x6970667358 0x22 SLT KECCAK256 PUSH20 0x81EA11541CC413442C3C508C792E9ABC328B1552 0x1F LOG4 0x26 0xE4 DUP5 0x25 0xE7 PUSH22 0x76BF2F64736F6C634300080400330000000000000000 "
				},
				"gasEstimates": {
					"creation": {
						"codeDepositCost": "1724000",
						"executionCost": "infinite",
						"totalCost": "infinite"
					},
					"external": {
						"balanceOf(address,uint256)": "1372",
						"balanceOfBatch(address[],uint256[])": "infinite",
						"getProductData(string)": "infinite",
						"isApprovedForAll(address,address)": "infinite",
						"owner()": "1068",
						"renounceOwnership()": "23440",
						"safeBatchTransferFrom(address,address,uint256[],uint256[],bytes)": "infinite",
						"safeMint(address,(string,string,string,string,string,string,string),uint256,string)": "infinite",
						"safeTransferFrom(address,address,uint256,uint256,bytes)": "infinite",
						"setApprovalForAll(address,bool)": "23308",
						"supportsInterface(bytes4)": "544",
						"transferOwnership(address)": "23700",
						"uri(uint256)": "infinite"
					}
				},
				"methodIdentifiers": {
					"balanceOf(address,uint256)": "00fdd58e",
					"balanceOfBatch(address[],uint256[])": "4e1273f4",
					"getProductData(string)": "818648e1",
					"isApprovedForAll(address,address)": "e985e9c5",
					"owner()": "8da5cb5b",
					"renounceOwnership()": "715018a6",
					"safeBatchTransferFrom(address,address,uint256[],uint256[],bytes)": "2eb2c2d6",
					"safeMint(address,(string,string,string,string,string,string,string),uint256,string)": "42abd5a4",
					"safeTransferFrom(address,address,uint256,uint256,bytes)": "f242432a",
					"setApprovalForAll(address,bool)": "a22cb465",
					"supportsInterface(bytes4)": "01ffc9a7",
					"transferOwnership(address)": "f2fde38b",
					"uri(uint256)": "0e89341c"
				}
			},
			"storageLayout": {
				"storage": [
					{
						"astId": 292,
						"contract": "contracts/Trazability.sol:Trazability",
						"label": "_balances",
						"offset": 0,
						"slot": "0",
						"type": "t_mapping(t_uint256,t_mapping(t_address,t_uint256))"
					},
					{
						"astId": 298,
						"contract": "contracts/Trazability.sol:Trazability",
						"label": "_operatorApprovals",
						"offset": 0,
						"slot": "1",
						"type": "t_mapping(t_address,t_mapping(t_address,t_bool))"
					},
					{
						"astId": 300,
						"contract": "contracts/Trazability.sol:Trazability",
						"label": "_uri",
						"offset": 0,
						"slot": "2",
						"type": "t_string_storage"
					},
					{
						"astId": 169,
						"contract": "contracts/Trazability.sol:Trazability",
						"label": "_owner",
						"offset": 0,
						"slot": "3",
						"type": "t_address"
					},
					{
						"astId": 15,
						"contract": "contracts/Trazability.sol:Trazability",
						"label": "_tokenIdCounter",
						"offset": 0,
						"slot": "4",
						"type": "t_struct(Counter)1865_storage"
					},
					{
						"astId": 35,
						"contract": "contracts/Trazability.sol:Trazability",
						"label": "productIdToProductData",
						"offset": 0,
						"slot": "5",
						"type": "t_mapping(t_string_memory_ptr,t_struct(ProductData)30_storage)"
					},
					{
						"astId": 39,
						"contract": "contracts/Trazability.sol:Trazability",
						"label": "tokenIdToUri",
						"offset": 0,
						"slot": "6",
						"type": "t_mapping(t_uint256,t_string_storage)"
					},
					{
						"astId": 43,
						"contract": "contracts/Trazability.sol:Trazability",
						"label": "tokenIdToProductId",
						"offset": 0,
						"slot": "7",
						"type": "t_mapping(t_uint256,t_string_storage)"
					}
				],
				"types": {
					"t_address": {
						"encoding": "inplace",
						"label": "address",
						"numberOfBytes": "20"
					},
					"t_bool": {
						"encoding": "inplace",
						"label": "bool",
						"numberOfBytes": "1"
					},
					"t_mapping(t_address,t_bool)": {
						"encoding": "mapping",
						"key": "t_address",
						"label": "mapping(address => bool)",
						"numberOfBytes": "32",
						"value": "t_bool"
					},
					"t_mapping(t_address,t_mapping(t_address,t_bool))": {
						"encoding": "mapping",
						"key": "t_address",
						"label": "mapping(address => mapping(address => bool))",
						"numberOfBytes": "32",
						"value": "t_mapping(t_address,t_bool)"
					},
					"t_mapping(t_address,t_uint256)": {
						"encoding": "mapping",
						"key": "t_address",
						"label": "mapping(address => uint256)",
						"numberOfBytes": "32",
						"value": "t_uint256"
					},
					"t_mapping(t_string_memory_ptr,t_struct(ProductData)30_storage)": {
						"encoding": "mapping",
						"key": "t_string_memory_ptr",
						"label": "mapping(string => struct Trazability.ProductData)",
						"numberOfBytes": "32",
						"value": "t_struct(ProductData)30_storage"
					},
					"t_mapping(t_uint256,t_mapping(t_address,t_uint256))": {
						"encoding": "mapping",
						"key": "t_uint256",
						"label": "mapping(uint256 => mapping(address => uint256))",
						"numberOfBytes": "32",
						"value": "t_mapping(t_address,t_uint256)"
					},
					"t_mapping(t_uint256,t_string_storage)": {
						"encoding": "mapping",
						"key": "t_uint256",
						"label": "mapping(uint256 => string)",
						"numberOfBytes": "32",
						"value": "t_string_storage"
					},
					"t_string_memory_ptr": {
						"encoding": "bytes",
						"label": "string",
						"numberOfBytes": "32"
					},
					"t_string_storage": {
						"encoding": "bytes",
						"label": "string",
						"numberOfBytes": "32"
					},
					"t_struct(Counter)1865_storage": {
						"encoding": "inplace",
						"label": "struct Counters.Counter",
						"members": [
							{
								"astId": 1864,
								"contract": "contracts/Trazability.sol:Trazability",
								"label": "_value",
								"offset": 0,
								"slot": "0",
								"type": "t_uint256"
							}
						],
						"numberOfBytes": "32"
					},
					"t_struct(ProductData)30_storage": {
						"encoding": "inplace",
						"label": "struct Trazability.ProductData",
						"members": [
							{
								"astId": 17,
								"contract": "contracts/Trazability.sol:Trazability",
								"label": "id",
								"offset": 0,
								"slot": "0",
								"type": "t_string_storage"
							},
							{
								"astId": 19,
								"contract": "contracts/Trazability.sol:Trazability",
								"label": "lotNumber",
								"offset": 0,
								"slot": "1",
								"type": "t_string_storage"
							},
							{
								"astId": 21,
								"contract": "contracts/Trazability.sol:Trazability",
								"label": "protocolName",
								"offset": 0,
								"slot": "2",
								"type": "t_string_storage"
							},
							{
								"astId": 23,
								"contract": "contracts/Trazability.sol:Trazability",
								"label": "name",
								"offset": 0,
								"slot": "3",
								"type": "t_string_storage"
							},
							{
								"astId": 25,
								"contract": "contracts/Trazability.sol:Trazability",
								"label": "status",
								"offset": 0,
								"slot": "4",
								"type": "t_string_storage"
							},
							{
								"astId": 27,
								"contract": "contracts/Trazability.sol:Trazability",
								"label": "ownerUid",
								"offset": 0,
								"slot": "5",
								"type": "t_string_storage"
							},
							{
								"astId": 29,
								"contract": "contracts/Trazability.sol:Trazability",
								"label": "trazability",
								"offset": 0,
								"slot": "6",
								"type": "t_string_storage"
							}
						],
						"numberOfBytes": "224"
					},
					"t_uint256": {
						"encoding": "inplace",
						"label": "uint256",
						"numberOfBytes": "32"
					}
				}
			},
			"userdoc": {
				"kind": "user",
				"methods": {},
				"version": 1
			}
		}
	}
}