{
	"contracts/Trazability_2.sol": {
		"Trazability": {
			"abi": [
				{
					"inputs": [],
					"stateMutability": "nonpayable",
					"type": "constructor"
				},
				{
					"anonymous": false,
					"inputs": [
						{
							"indexed": true,
							"internalType": "address",
							"name": "owner",
							"type": "address"
						},
						{
							"indexed": true,
							"internalType": "address",
							"name": "approved",
							"type": "address"
						},
						{
							"indexed": true,
							"internalType": "uint256",
							"name": "tokenId",
							"type": "uint256"
						}
					],
					"name": "Approval",
					"type": "event"
				},
				{
					"anonymous": false,
					"inputs": [
						{
							"indexed": true,
							"internalType": "address",
							"name": "owner",
							"type": "address"
						},
						{
							"indexed": true,
							"internalType": "address",
							"name": "operator",
							"type": "address"
						},
						{
							"indexed": false,
							"internalType": "bool",
							"name": "approved",
							"type": "bool"
						}
					],
					"name": "ApprovalForAll",
					"type": "event"
				},
				{
					"anonymous": false,
					"inputs": [
						{
							"indexed": true,
							"internalType": "address",
							"name": "previousOwner",
							"type": "address"
						},
						{
							"indexed": true,
							"internalType": "address",
							"name": "newOwner",
							"type": "address"
						}
					],
					"name": "OwnershipTransferred",
					"type": "event"
				},
				{
					"anonymous": false,
					"inputs": [
						{
							"indexed": true,
							"internalType": "address",
							"name": "from",
							"type": "address"
						},
						{
							"indexed": true,
							"internalType": "address",
							"name": "to",
							"type": "address"
						},
						{
							"indexed": true,
							"internalType": "uint256",
							"name": "tokenId",
							"type": "uint256"
						}
					],
					"name": "Transfer",
					"type": "event"
				},
				{
					"inputs": [
						{
							"internalType": "address",
							"name": "to",
							"type": "address"
						},
						{
							"internalType": "uint256",
							"name": "tokenId",
							"type": "uint256"
						}
					],
					"name": "approve",
					"outputs": [],
					"stateMutability": "nonpayable",
					"type": "function"
				},
				{
					"inputs": [
						{
							"internalType": "address",
							"name": "owner",
							"type": "address"
						}
					],
					"name": "balanceOf",
					"outputs": [
						{
							"internalType": "uint256",
							"name": "",
							"type": "uint256"
						}
					],
					"stateMutability": "view",
					"type": "function"
				},
				{
					"inputs": [
						{
							"internalType": "uint256",
							"name": "tokenId",
							"type": "uint256"
						}
					],
					"name": "getApproved",
					"outputs": [
						{
							"internalType": "address",
							"name": "",
							"type": "address"
						}
					],
					"stateMutability": "view",
					"type": "function"
				},
				{
					"inputs": [
						{
							"internalType": "uint256",
							"name": "tokenId",
							"type": "uint256"
						}
					],
					"name": "getProductData",
					"outputs": [
						{
							"components": [
								{
									"internalType": "string",
									"name": "id",
									"type": "string"
								},
								{
									"internalType": "string",
									"name": "name",
									"type": "string"
								},
								{
									"internalType": "string",
									"name": "trazability",
									"type": "string"
								},
								{
									"internalType": "string",
									"name": "productReference",
									"type": "string"
								}
							],
							"internalType": "struct Trazability.ProductData",
							"name": "",
							"type": "tuple"
						}
					],
					"stateMutability": "view",
					"type": "function"
				},
				{
					"inputs": [
						{
							"internalType": "string",
							"name": "productId",
							"type": "string"
						}
					],
					"name": "getProductDataById",
					"outputs": [
						{
							"components": [
								{
									"internalType": "string",
									"name": "id",
									"type": "string"
								},
								{
									"internalType": "string",
									"name": "name",
									"type": "string"
								},
								{
									"internalType": "string",
									"name": "trazability",
									"type": "string"
								},
								{
									"internalType": "string",
									"name": "productReference",
									"type": "string"
								}
							],
							"internalType": "struct Trazability.ProductData",
							"name": "",
							"type": "tuple"
						}
					],
					"stateMutability": "view",
					"type": "function"
				},
				{
					"inputs": [
						{
							"internalType": "address",
							"name": "owner",
							"type": "address"
						},
						{
							"internalType": "address",
							"name": "operator",
							"type": "address"
						}
					],
					"name": "isApprovedForAll",
					"outputs": [
						{
							"internalType": "bool",
							"name": "",
							"type": "bool"
						}
					],
					"stateMutability": "view",
					"type": "function"
				},
				{
					"inputs": [],
					"name": "name",
					"outputs": [
						{
							"internalType": "string",
							"name": "",
							"type": "string"
						}
					],
					"stateMutability": "view",
					"type": "function"
				},
				{
					"inputs": [],
					"name": "owner",
					"outputs": [
						{
							"internalType": "address",
							"name": "",
							"type": "address"
						}
					],
					"stateMutability": "view",
					"type": "function"
				},
				{
					"inputs": [
						{
							"internalType": "uint256",
							"name": "tokenId",
							"type": "uint256"
						}
					],
					"name": "ownerOf",
					"outputs": [
						{
							"internalType": "address",
							"name": "",
							"type": "address"
						}
					],
					"stateMutability": "view",
					"type": "function"
				},
				{
					"inputs": [],
					"name": "renounceOwnership",
					"outputs": [],
					"stateMutability": "nonpayable",
					"type": "function"
				},
				{
					"inputs": [
						{
							"internalType": "address",
							"name": "to",
							"type": "address"
						},
						{
							"components": [
								{
									"internalType": "string",
									"name": "id",
									"type": "string"
								},
								{
									"internalType": "string",
									"name": "name",
									"type": "string"
								},
								{
									"internalType": "string",
									"name": "trazability",
									"type": "string"
								},
								{
									"internalType": "string",
									"name": "productReference",
									"type": "string"
								}
							],
							"internalType": "struct Trazability.ProductData",
							"name": "data",
							"type": "tuple"
						},
						{
							"internalType": "string",
							"name": "externalUri",
							"type": "string"
						}
					],
					"name": "safeMint",
					"outputs": [],
					"stateMutability": "nonpayable",
					"type": "function"
				},
				{
					"inputs": [
						{
							"internalType": "address",
							"name": "from",
							"type": "address"
						},
						{
							"internalType": "address",
							"name": "to",
							"type": "address"
						},
						{
							"internalType": "uint256",
							"name": "tokenId",
							"type": "uint256"
						}
					],
					"name": "safeTransferFrom",
					"outputs": [],
					"stateMutability": "nonpayable",
					"type": "function"
				},
				{
					"inputs": [
						{
							"internalType": "address",
							"name": "from",
							"type": "address"
						},
						{
							"internalType": "address",
							"name": "to",
							"type": "address"
						},
						{
							"internalType": "uint256",
							"name": "tokenId",
							"type": "uint256"
						},
						{
							"internalType": "bytes",
							"name": "_data",
							"type": "bytes"
						}
					],
					"name": "safeTransferFrom",
					"outputs": [],
					"stateMutability": "nonpayable",
					"type": "function"
				},
				{
					"inputs": [
						{
							"internalType": "address",
							"name": "operator",
							"type": "address"
						},
						{
							"internalType": "bool",
							"name": "approved",
							"type": "bool"
						}
					],
					"name": "setApprovalForAll",
					"outputs": [],
					"stateMutability": "nonpayable",
					"type": "function"
				},
				{
					"inputs": [
						{
							"internalType": "bytes4",
							"name": "interfaceId",
							"type": "bytes4"
						}
					],
					"name": "supportsInterface",
					"outputs": [
						{
							"internalType": "bool",
							"name": "",
							"type": "bool"
						}
					],
					"stateMutability": "view",
					"type": "function"
				},
				{
					"inputs": [],
					"name": "symbol",
					"outputs": [
						{
							"internalType": "string",
							"name": "",
							"type": "string"
						}
					],
					"stateMutability": "view",
					"type": "function"
				},
				{
					"inputs": [
						{
							"internalType": "uint256",
							"name": "tokenId",
							"type": "uint256"
						}
					],
					"name": "tokenURI",
					"outputs": [
						{
							"internalType": "string",
							"name": "",
							"type": "string"
						}
					],
					"stateMutability": "view",
					"type": "function"
				},
				{
					"inputs": [
						{
							"internalType": "address",
							"name": "from",
							"type": "address"
						},
						{
							"internalType": "address",
							"name": "to",
							"type": "address"
						},
						{
							"internalType": "uint256",
							"name": "tokenId",
							"type": "uint256"
						}
					],
					"name": "transferFrom",
					"outputs": [],
					"stateMutability": "nonpayable",
					"type": "function"
				},
				{
					"inputs": [
						{
							"internalType": "address",
							"name": "newOwner",
							"type": "address"
						}
					],
					"name": "transferOwnership",
					"outputs": [],
					"stateMutability": "nonpayable",
					"type": "function"
				}
			],
			"devdoc": {
				"kind": "dev",
				"methods": {
					"approve(address,uint256)": {
						"details": "See {IERC721-approve}."
					},
					"balanceOf(address)": {
						"details": "See {IERC721-balanceOf}."
					},
					"getApproved(uint256)": {
						"details": "See {IERC721-getApproved}."
					},
					"isApprovedForAll(address,address)": {
						"details": "See {IERC721-isApprovedForAll}."
					},
					"name()": {
						"details": "See {IERC721Metadata-name}."
					},
					"owner()": {
						"details": "Returns the address of the current owner."
					},
					"ownerOf(uint256)": {
						"details": "See {IERC721-ownerOf}."
					},
					"renounceOwnership()": {
						"details": "Leaves the contract without owner. It will not be possible to call `onlyOwner` functions anymore. Can only be called by the current owner. NOTE: Renouncing ownership will leave the contract without an owner, thereby removing any functionality that is only available to the owner."
					},
					"safeTransferFrom(address,address,uint256)": {
						"details": "See {IERC721-safeTransferFrom}."
					},
					"safeTransferFrom(address,address,uint256,bytes)": {
						"details": "See {IERC721-safeTransferFrom}."
					},
					"setApprovalForAll(address,bool)": {
						"details": "See {IERC721-setApprovalForAll}."
					},
					"supportsInterface(bytes4)": {
						"details": "See {IERC165-supportsInterface}."
					},
					"symbol()": {
						"details": "See {IERC721Metadata-symbol}."
					},
					"tokenURI(uint256)": {
						"details": "See {IERC721Metadata-tokenURI}."
					},
					"transferFrom(address,address,uint256)": {
						"details": "See {IERC721-transferFrom}."
					},
					"transferOwnership(address)": {
						"details": "Transfers ownership of the contract to a new account (`newOwner`). Can only be called by the current owner."
					}
				},
				"version": 1
			},
			"evm": {
				"assembly": "    /* \"contracts/Trazability_2.sol\":229:2273  contract Trazability is ERC721, Ownable {\r... */\n  mstore(0x40, 0x80)\n    /* \"contracts/Trazability_2.sol\":629:679  constructor() ERC721(\"TrazabilityToken\", \"TTK\") {} */\n  callvalue\n  dup1\n  iszero\n  tag_1\n  jumpi\n  0x00\n  dup1\n  revert\ntag_1:\n  pop\n    /* \"@openzeppelin/contracts/token/ERC721/ERC721.sol\":1375:1488  constructor(string memory name_, string memory symbol_) {... */\n  0x40\n  dup1\n  mload\n  dup1\n  dup3\n  add\n  dup3\n  mstore\n  0x10\n  dup2\n  mstore\n  shl(0x81, 0x2a3930bd30b134b634ba3caa37b5b2b7)\n  0x20\n  dup1\n  dup4\n  add\n  swap2\n  dup3\n  mstore\n  dup4\n  mload\n  dup1\n  dup6\n  add\n  swap1\n  swap5\n  mstore\n  0x03\n  dup5\n  mstore\n  shl(0xe8, 0x54544b)\n  swap1\n  dup5\n  add\n  mstore\n    /* \"@openzeppelin/contracts/token/ERC721/ERC721.sol\":1441:1454  _name = name_ */\n  dup2\n  mload\n    /* \"@openzeppelin/contracts/token/ERC721/ERC721.sol\":1375:1488  constructor(string memory name_, string memory symbol_) {... */\n  swap2\n  swap3\n  swap2\n    /* \"@openzeppelin/contracts/token/ERC721/ERC721.sol\":1441:1454  _name = name_ */\n  tag_6\n  swap2\n  0x00\n  swap2\n  tag_7\n  jump\t// in\ntag_6:\n  pop\n    /* \"@openzeppelin/contracts/token/ERC721/ERC721.sol\":1464:1481  _symbol = symbol_ */\n  dup1\n  mload\n  tag_8\n  swap1\n    /* \"@openzeppelin/contracts/token/ERC721/ERC721.sol\":1464:1471  _symbol */\n  0x01\n  swap1\n    /* \"@openzeppelin/contracts/token/ERC721/ERC721.sol\":1464:1481  _symbol = symbol_ */\n  0x20\n  dup5\n  add\n  swap1\n  tag_7\n  jump\t// in\ntag_8:\n  pop\n    /* \"@openzeppelin/contracts/token/ERC721/ERC721.sol\":1375:1488  constructor(string memory name_, string memory symbol_) {... */\n  pop\n  pop\n    /* \"@openzeppelin/contracts/access/Ownable.sol\":921:953  _transferOwnership(_msgSender()) */\n  tag_10\n    /* \"@openzeppelin/contracts/access/Ownable.sol\":940:952  _msgSender() */\n  tag_11\n    /* \"@openzeppelin/contracts/access/Ownable.sol\":940:950  _msgSender */\n  shl(0x20, tag_12)\n    /* \"@openzeppelin/contracts/access/Ownable.sol\":940:952  _msgSender() */\n  0x20\n  shr\n  jump\t// in\ntag_11:\n    /* \"@openzeppelin/contracts/access/Ownable.sol\":921:939  _transferOwnership */\n  tag_13\n    /* \"@openzeppelin/contracts/access/Ownable.sol\":921:953  _transferOwnership(_msgSender()) */\n  jump\t// in\ntag_10:\n    /* \"contracts/Trazability_2.sol\":229:2273  contract Trazability is ERC721, Ownable {\r... */\n  jump(tag_29)\n    /* \"@openzeppelin/contracts/utils/Context.sol\":640:736  function _msgSender() internal view virtual returns (address) {... */\ntag_12:\n    /* \"@openzeppelin/contracts/utils/Context.sol\":719:729  msg.sender */\n  caller\n    /* \"@openzeppelin/contracts/utils/Context.sol\":640:736  function _msgSender() internal view virtual returns (address) {... */\n  swap1\n  jump\t// out\n    /* \"@openzeppelin/contracts/access/Ownable.sol\":2270:2457  function _transferOwnership(address newOwner) internal virtual {... */\ntag_13:\n    /* \"@openzeppelin/contracts/access/Ownable.sol\":2362:2368  _owner */\n  0x06\n  dup1\n  sload\n  sub(shl(0xa0, 0x01), 0x01)\n    /* \"@openzeppelin/contracts/access/Ownable.sol\":2378:2395  _owner = newOwner */\n  dup4\n  dup2\n  and\n  not(sub(shl(0xa0, 0x01), 0x01))\n  dup4\n  and\n  dup2\n  or\n  swap1\n  swap4\n  sstore\n    /* \"@openzeppelin/contracts/access/Ownable.sol\":2410:2450  OwnershipTransferred(oldOwner, newOwner) */\n  mload(0x40)\n    /* \"@openzeppelin/contracts/access/Ownable.sol\":2362:2368  _owner */\n  swap2\n  and\n  swap2\n    /* \"@openzeppelin/contracts/access/Ownable.sol\":2378:2395  _owner = newOwner */\n  swap1\n    /* \"@openzeppelin/contracts/access/Ownable.sol\":2362:2368  _owner */\n  dup3\n  swap1\n    /* \"@openzeppelin/contracts/access/Ownable.sol\":2410:2450  OwnershipTransferred(oldOwner, newOwner) */\n  0x8be0079c531659141344cd1fd0a4f28419497f9722a3daafe3b4186f6b6457e0\n  swap1\n    /* \"@openzeppelin/contracts/access/Ownable.sol\":2343:2359  address oldOwner */\n  0x00\n  swap1\n    /* \"@openzeppelin/contracts/access/Ownable.sol\":2410:2450  OwnershipTransferred(oldOwner, newOwner) */\n  log3\n    /* \"@openzeppelin/contracts/access/Ownable.sol\":2270:2457  function _transferOwnership(address newOwner) internal virtual {... */\n  pop\n  pop\n  jump\t// out\n    /* \"contracts/Trazability_2.sol\":229:2273  contract Trazability is ERC721, Ownable {\r... */\ntag_7:\n  dup3\n  dup1\n  sload\n  tag_18\n  swap1\n  tag_19\n  jump\t// in\ntag_18:\n  swap1\n  0x00\n  mstore\n  keccak256(0x00, 0x20)\n  swap1\n  0x1f\n  add\n  0x20\n  swap1\n  div\n  dup2\n  add\n  swap3\n  dup3\n  tag_21\n  jumpi\n  0x00\n  dup6\n  sstore\n  jump(tag_24)\ntag_21:\n  dup3\n  0x1f\n  lt\n  tag_22\n  jumpi\n  dup1\n  mload\n  not(0xff)\n  and\n  dup4\n  dup1\n  add\n  or\n  dup6\n  sstore\n  jump(tag_24)\ntag_22:\n  dup3\n  dup1\n  add\n  0x01\n  add\n  dup6\n  sstore\n  dup3\n  iszero\n  tag_24\n  jumpi\n  swap2\n  dup3\n  add\ntag_23:\n  dup3\n  dup2\n  gt\n  iszero\n  tag_24\n  jumpi\n  dup3\n  mload\n  dup3\n  sstore\n  swap2\n  0x20\n  add\n  swap2\n  swap1\n  0x01\n  add\n  swap1\n  jump(tag_23)\ntag_24:\n  pop\n  tag_25\n  swap3\n  swap2\n  pop\n  tag_26\n  jump\t// in\ntag_25:\n  pop\n  swap1\n  jump\t// out\ntag_26:\ntag_27:\n  dup1\n  dup3\n  gt\n  iszero\n  tag_25\n  jumpi\n  0x00\n  dup2\n  sstore\n  0x01\n  add\n  jump(tag_27)\n    /* \"#utility.yul\":14:394   */\ntag_19:\n    /* \"#utility.yul\":99:100   */\n  0x02\n    /* \"#utility.yul\":89:101   */\n  dup2\n  div\n    /* \"#utility.yul\":146:147   */\n  0x01\n    /* \"#utility.yul\":136:148   */\n  dup3\n  and\n  dup1\n    /* \"#utility.yul\":157:159   */\n  tag_31\n  jumpi\n    /* \"#utility.yul\":211:215   */\n  0x7f\n    /* \"#utility.yul\":203:209   */\n  dup3\n    /* \"#utility.yul\":199:216   */\n  and\n    /* \"#utility.yul\":189:216   */\n  swap2\n  pop\n    /* \"#utility.yul\":157:159   */\ntag_31:\n    /* \"#utility.yul\":264:266   */\n  0x20\n    /* \"#utility.yul\":256:262   */\n  dup3\n    /* \"#utility.yul\":253:267   */\n  lt\n    /* \"#utility.yul\":233:251   */\n  dup2\n    /* \"#utility.yul\":230:268   */\n  eq\n    /* \"#utility.yul\":227:229   */\n  iszero\n  tag_32\n  jumpi\n    /* \"#utility.yul\":310:320   */\n  0x4e487b71\n    /* \"#utility.yul\":305:308   */\n  0xe0\n    /* \"#utility.yul\":301:321   */\n  shl\n    /* \"#utility.yul\":298:299   */\n  0x00\n    /* \"#utility.yul\":291:322   */\n  mstore\n    /* \"#utility.yul\":345:349   */\n  0x22\n    /* \"#utility.yul\":342:343   */\n  0x04\n    /* \"#utility.yul\":335:350   */\n  mstore\n    /* \"#utility.yul\":373:377   */\n  0x24\n    /* \"#utility.yul\":370:371   */\n  0x00\n    /* \"#utility.yul\":363:378   */\n  revert\n    /* \"#utility.yul\":227:229   */\ntag_32:\n  pop\n    /* \"#utility.yul\":69:394   */\n  swap2\n  swap1\n  pop\n  jump\t// out\ntag_29:\n    /* \"contracts/Trazability_2.sol\":229:2273  contract Trazability is ERC721, Ownable {\r... */\n  dataSize(sub_0)\n  dup1\n  dataOffset(sub_0)\n  0x00\n  codecopy\n  0x00\n  return\nstop\n\nsub_0: assembly {\n        /* \"contracts/Trazability_2.sol\":229:2273  contract Trazability is ERC721, Ownable {\r... */\n      mstore(0x40, 0x80)\n      callvalue\n      dup1\n      iszero\n      tag_1\n      jumpi\n      0x00\n      dup1\n      revert\n    tag_1:\n      pop\n      jumpi(tag_2, lt(calldatasize, 0x04))\n      shr(0xe0, calldataload(0x00))\n      dup1\n      0x715018a6\n      gt\n      tag_22\n      jumpi\n      dup1\n      0xc87b56dd\n      gt\n      tag_23\n      jumpi\n      dup1\n      0xc87b56dd\n      eq\n      tag_17\n      jumpi\n      dup1\n      0xd6d0be9f\n      eq\n      tag_18\n      jumpi\n      dup1\n      0xe985e9c5\n      eq\n      tag_19\n      jumpi\n      dup1\n      0xf2fde38b\n      eq\n      tag_20\n      jumpi\n      dup1\n      0xfa8383b7\n      eq\n      tag_21\n      jumpi\n      jump(tag_2)\n    tag_23:\n      dup1\n      0x715018a6\n      eq\n      tag_12\n      jumpi\n      dup1\n      0x8da5cb5b\n      eq\n      tag_13\n      jumpi\n      dup1\n      0x95d89b41\n      eq\n      tag_14\n      jumpi\n      dup1\n      0xa22cb465\n      eq\n      tag_15\n      jumpi\n      dup1\n      0xb88d4fde\n      eq\n      tag_16\n      jumpi\n      jump(tag_2)\n    tag_22:\n      dup1\n      0x23b872dd\n      gt\n      tag_24\n      jumpi\n      dup1\n      0x23b872dd\n      eq\n      tag_7\n      jumpi\n      dup1\n      0x42842e0e\n      eq\n      tag_8\n      jumpi\n      dup1\n      0x61288550\n      eq\n      tag_9\n      jumpi\n      dup1\n      0x6352211e\n      eq\n      tag_10\n      jumpi\n      dup1\n      0x70a08231\n      eq\n      tag_11\n      jumpi\n      jump(tag_2)\n    tag_24:\n      dup1\n      0x01ffc9a7\n      eq\n      tag_3\n      jumpi\n      dup1\n      0x06fdde03\n      eq\n      tag_4\n      jumpi\n      dup1\n      0x081812fc\n      eq\n      tag_5\n      jumpi\n      dup1\n      0x095ea7b3\n      eq\n      tag_6\n      jumpi\n    tag_2:\n      0x00\n      dup1\n      revert\n        /* \"contracts/Trazability_2.sol\":2109:2270  function supportsInterface(bytes4 interfaceId) public view virtual override(ERC721) returns (bool) {\r... */\n    tag_3:\n      tag_25\n      tag_26\n      calldatasize\n      0x04\n      tag_27\n      jump\t// in\n    tag_26:\n      tag_28\n      jump\t// in\n    tag_25:\n      mload(0x40)\n      tag_29\n      swap2\n      swap1\n      tag_30\n      jump\t// in\n    tag_29:\n      mload(0x40)\n      dup1\n      swap2\n      sub\n      swap1\n      return\n        /* \"@openzeppelin/contracts/token/ERC721/ERC721.sol\":2473:2571  function name() public view virtual override returns (string memory) {... */\n    tag_4:\n      tag_31\n      tag_32\n      jump\t// in\n    tag_31:\n      mload(0x40)\n      tag_29\n      swap2\n      swap1\n      tag_34\n      jump\t// in\n        /* \"@openzeppelin/contracts/token/ERC721/ERC721.sol\":3984:4201  function getApproved(uint256 tokenId) public view virtual override returns (address) {... */\n    tag_5:\n      tag_35\n      tag_36\n      calldatasize\n      0x04\n      tag_37\n      jump\t// in\n    tag_36:\n      tag_38\n      jump\t// in\n    tag_35:\n      mload(0x40)\n      tag_29\n      swap2\n      swap1\n      tag_40\n      jump\t// in\n        /* \"@openzeppelin/contracts/token/ERC721/ERC721.sol\":3522:3923  function approve(address to, uint256 tokenId) public virtual override {... */\n    tag_6:\n      tag_41\n      tag_42\n      calldatasize\n      0x04\n      tag_43\n      jump\t// in\n    tag_42:\n      tag_44\n      jump\t// in\n    tag_41:\n      stop\n        /* \"@openzeppelin/contracts/token/ERC721/ERC721.sol\":4711:5041  function transferFrom(... */\n    tag_7:\n      tag_41\n      tag_46\n      calldatasize\n      0x04\n      tag_47\n      jump\t// in\n    tag_46:\n      tag_48\n      jump\t// in\n        /* \"@openzeppelin/contracts/token/ERC721/ERC721.sol\":5107:5286  function safeTransferFrom(... */\n    tag_8:\n      tag_41\n      tag_50\n      calldatasize\n      0x04\n      tag_47\n      jump\t// in\n    tag_50:\n      tag_51\n      jump\t// in\n        /* \"contracts/Trazability_2.sol\":1291:1556  function getProductDataById(string memory productId) public view returns (ProductData memory) {\r... */\n    tag_9:\n      tag_52\n      tag_53\n      calldatasize\n      0x04\n      tag_54\n      jump\t// in\n    tag_53:\n      tag_55\n      jump\t// in\n    tag_52:\n      mload(0x40)\n      tag_29\n      swap2\n      swap1\n      tag_57\n      jump\t// in\n        /* \"@openzeppelin/contracts/token/ERC721/ERC721.sol\":2176:2411  function ownerOf(uint256 tokenId) public view virtual override returns (address) {... */\n    tag_10:\n      tag_35\n      tag_59\n      calldatasize\n      0x04\n      tag_37\n      jump\t// in\n    tag_59:\n      tag_60\n      jump\t// in\n        /* \"@openzeppelin/contracts/token/ERC721/ERC721.sol\":1914:2119  function balanceOf(address owner) public view virtual override returns (uint256) {... */\n    tag_11:\n      tag_62\n      tag_63\n      calldatasize\n      0x04\n      tag_64\n      jump\t// in\n    tag_63:\n      tag_65\n      jump\t// in\n    tag_62:\n      mload(0x40)\n      tag_29\n      swap2\n      swap1\n      tag_67\n      jump\t// in\n        /* \"@openzeppelin/contracts/access/Ownable.sol\":1668:1769  function renounceOwnership() public virtual onlyOwner {... */\n    tag_12:\n      tag_41\n      tag_69\n      jump\t// in\n        /* \"@openzeppelin/contracts/access/Ownable.sol\":1036:1121  function owner() public view virtual returns (address) {... */\n    tag_13:\n      tag_35\n      tag_71\n      jump\t// in\n        /* \"@openzeppelin/contracts/token/ERC721/ERC721.sol\":2635:2737  function symbol() public view virtual override returns (string memory) {... */\n    tag_14:\n      tag_31\n      tag_74\n      jump\t// in\n        /* \"@openzeppelin/contracts/token/ERC721/ERC721.sol\":4268:4421  function setApprovalForAll(address operator, bool approved) public virtual override {... */\n    tag_15:\n      tag_41\n      tag_77\n      calldatasize\n      0x04\n      tag_78\n      jump\t// in\n    tag_77:\n      tag_79\n      jump\t// in\n        /* \"@openzeppelin/contracts/token/ERC721/ERC721.sol\":5352:5672  function safeTransferFrom(... */\n    tag_16:\n      tag_41\n      tag_81\n      calldatasize\n      0x04\n      tag_82\n      jump\t// in\n    tag_81:\n      tag_83\n      jump\t// in\n        /* \"contracts/Trazability_2.sol\":1841:2101  function tokenURI(uint256 tokenId) public view override returns (string memory) {\r... */\n    tag_17:\n      tag_31\n      tag_85\n      calldatasize\n      0x04\n      tag_37\n      jump\t// in\n    tag_85:\n      tag_86\n      jump\t// in\n        /* \"contracts/Trazability_2.sol\":1094:1283  function getProductData(uint256 tokenId) public view returns (ProductData memory) {\r... */\n    tag_18:\n      tag_52\n      tag_89\n      calldatasize\n      0x04\n      tag_37\n      jump\t// in\n    tag_89:\n      tag_90\n      jump\t// in\n        /* \"@openzeppelin/contracts/token/ERC721/ERC721.sol\":4487:4649  function isApprovedForAll(address owner, address operator) public view virtual override returns (bool) {... */\n    tag_19:\n      tag_25\n      tag_93\n      calldatasize\n      0x04\n      tag_94\n      jump\t// in\n    tag_93:\n      tag_95\n      jump\t// in\n        /* \"@openzeppelin/contracts/access/Ownable.sol\":1918:2116  function transferOwnership(address newOwner) public virtual onlyOwner {... */\n    tag_20:\n      tag_41\n      tag_98\n      calldatasize\n      0x04\n      tag_64\n      jump\t// in\n    tag_98:\n      tag_99\n      jump\t// in\n        /* \"contracts/Trazability_2.sol\":687:1086  function safeMint(\r... */\n    tag_21:\n      tag_41\n      tag_101\n      calldatasize\n      0x04\n      tag_102\n      jump\t// in\n    tag_101:\n      tag_103\n      jump\t// in\n        /* \"contracts/Trazability_2.sol\":2109:2270  function supportsInterface(bytes4 interfaceId) public view virtual override(ERC721) returns (bool) {\r... */\n    tag_28:\n        /* \"contracts/Trazability_2.sol\":2202:2206  bool */\n      0x00\n        /* \"contracts/Trazability_2.sol\":2226:2262  super.supportsInterface(interfaceId) */\n      tag_105\n        /* \"contracts/Trazability_2.sol\":2250:2261  interfaceId */\n      dup3\n        /* \"contracts/Trazability_2.sol\":2226:2249  super.supportsInterface */\n      tag_106\n        /* \"contracts/Trazability_2.sol\":2226:2262  super.supportsInterface(interfaceId) */\n      jump\t// in\n    tag_105:\n        /* \"contracts/Trazability_2.sol\":2219:2262  return super.supportsInterface(interfaceId) */\n      swap1\n      pop\n        /* \"contracts/Trazability_2.sol\":2109:2270  function supportsInterface(bytes4 interfaceId) public view virtual override(ERC721) returns (bool) {\r... */\n    tag_104:\n      swap2\n      swap1\n      pop\n      jump\t// out\n        /* \"@openzeppelin/contracts/token/ERC721/ERC721.sol\":2473:2571  function name() public view virtual override returns (string memory) {... */\n    tag_32:\n        /* \"@openzeppelin/contracts/token/ERC721/ERC721.sol\":2527:2540  string memory */\n      0x60\n        /* \"@openzeppelin/contracts/token/ERC721/ERC721.sol\":2559:2564  _name */\n      0x00\n        /* \"@openzeppelin/contracts/token/ERC721/ERC721.sol\":2552:2564  return _name */\n      dup1\n      sload\n      tag_108\n      swap1\n      tag_109\n      jump\t// in\n    tag_108:\n      dup1\n      0x1f\n      add\n      0x20\n      dup1\n      swap2\n      div\n      mul\n      0x20\n      add\n      mload(0x40)\n      swap1\n      dup2\n      add\n      0x40\n      mstore\n      dup1\n      swap3\n      swap2\n      swap1\n      dup2\n      dup2\n      mstore\n      0x20\n      add\n      dup3\n      dup1\n      sload\n      tag_110\n      swap1\n      tag_109\n      jump\t// in\n    tag_110:\n      dup1\n      iszero\n      tag_111\n      jumpi\n      dup1\n      0x1f\n      lt\n      tag_112\n      jumpi\n      0x0100\n      dup1\n      dup4\n      sload\n      div\n      mul\n      dup4\n      mstore\n      swap2\n      0x20\n      add\n      swap2\n      jump(tag_111)\n    tag_112:\n      dup3\n      add\n      swap2\n      swap1\n      0x00\n      mstore\n      keccak256(0x00, 0x20)\n      swap1\n    tag_113:\n      dup2\n      sload\n      dup2\n      mstore\n      swap1\n      0x01\n      add\n      swap1\n      0x20\n      add\n      dup1\n      dup4\n      gt\n      tag_113\n      jumpi\n      dup3\n      swap1\n      sub\n      0x1f\n      and\n      dup3\n      add\n      swap2\n    tag_111:\n      pop\n      pop\n      pop\n      pop\n      pop\n      swap1\n      pop\n        /* \"@openzeppelin/contracts/token/ERC721/ERC721.sol\":2473:2571  function name() public view virtual override returns (string memory) {... */\n      swap1\n      jump\t// out\n        /* \"@openzeppelin/contracts/token/ERC721/ERC721.sol\":3984:4201  function getApproved(uint256 tokenId) public view virtual override returns (address) {... */\n    tag_38:\n        /* \"@openzeppelin/contracts/token/ERC721/ERC721.sol\":4060:4067  address */\n      0x00\n        /* \"@openzeppelin/contracts/token/ERC721/ERC721.sol\":4087:4103  _exists(tokenId) */\n      tag_115\n        /* \"@openzeppelin/contracts/token/ERC721/ERC721.sol\":4095:4102  tokenId */\n      dup3\n        /* \"@openzeppelin/contracts/token/ERC721/ERC721.sol\":4087:4094  _exists */\n      tag_116\n        /* \"@openzeppelin/contracts/token/ERC721/ERC721.sol\":4087:4103  _exists(tokenId) */\n      jump\t// in\n    tag_115:\n        /* \"@openzeppelin/contracts/token/ERC721/ERC721.sol\":4079:4152  require(_exists(tokenId), \"ERC721: approved query for nonexistent token\") */\n      tag_117\n      jumpi\n      mload(0x40)\n      shl(0xe5, 0x461bcd)\n      dup2\n      mstore\n      0x04\n      add\n      tag_118\n      swap1\n      tag_119\n      jump\t// in\n    tag_118:\n      mload(0x40)\n      dup1\n      swap2\n      sub\n      swap1\n      revert\n    tag_117:\n      pop\n        /* \"@openzeppelin/contracts/token/ERC721/ERC721.sol\":4170:4194  _tokenApprovals[tokenId] */\n      0x00\n      swap1\n      dup2\n      mstore\n        /* \"@openzeppelin/contracts/token/ERC721/ERC721.sol\":4170:4185  _tokenApprovals */\n      0x04\n        /* \"@openzeppelin/contracts/token/ERC721/ERC721.sol\":4170:4194  _tokenApprovals[tokenId] */\n      0x20\n      mstore\n      0x40\n      swap1\n      keccak256\n      sload\n      sub(shl(0xa0, 0x01), 0x01)\n      and\n      swap1\n        /* \"@openzeppelin/contracts/token/ERC721/ERC721.sol\":3984:4201  function getApproved(uint256 tokenId) public view virtual override returns (address) {... */\n      jump\t// out\n        /* \"@openzeppelin/contracts/token/ERC721/ERC721.sol\":3522:3923  function approve(address to, uint256 tokenId) public virtual override {... */\n    tag_44:\n        /* \"@openzeppelin/contracts/token/ERC721/ERC721.sol\":3602:3615  address owner */\n      0x00\n        /* \"@openzeppelin/contracts/token/ERC721/ERC721.sol\":3618:3641  ERC721.ownerOf(tokenId) */\n      tag_121\n        /* \"@openzeppelin/contracts/token/ERC721/ERC721.sol\":3633:3640  tokenId */\n      dup3\n        /* \"@openzeppelin/contracts/token/ERC721/ERC721.sol\":3618:3632  ERC721.ownerOf */\n      tag_60\n        /* \"@openzeppelin/contracts/token/ERC721/ERC721.sol\":3618:3641  ERC721.ownerOf(tokenId) */\n      jump\t// in\n    tag_121:\n        /* \"@openzeppelin/contracts/token/ERC721/ERC721.sol\":3602:3641  address owner = ERC721.ownerOf(tokenId) */\n      swap1\n      pop\n        /* \"@openzeppelin/contracts/token/ERC721/ERC721.sol\":3665:3670  owner */\n      dup1\n      sub(shl(0xa0, 0x01), 0x01)\n        /* \"@openzeppelin/contracts/token/ERC721/ERC721.sol\":3659:3670  to != owner */\n      and\n        /* \"@openzeppelin/contracts/token/ERC721/ERC721.sol\":3659:3661  to */\n      dup4\n      sub(shl(0xa0, 0x01), 0x01)\n        /* \"@openzeppelin/contracts/token/ERC721/ERC721.sol\":3659:3670  to != owner */\n      and\n      eq\n      iszero\n        /* \"@openzeppelin/contracts/token/ERC721/ERC721.sol\":3651:3708  require(to != owner, \"ERC721: approval to current owner\") */\n      tag_122\n      jumpi\n      mload(0x40)\n      shl(0xe5, 0x461bcd)\n      dup2\n      mstore\n      0x04\n      add\n      tag_118\n      swap1\n      tag_124\n      jump\t// in\n    tag_122:\n        /* \"@openzeppelin/contracts/token/ERC721/ERC721.sol\":3756:3761  owner */\n      dup1\n      sub(shl(0xa0, 0x01), 0x01)\n        /* \"@openzeppelin/contracts/token/ERC721/ERC721.sol\":3740:3761  _msgSender() == owner */\n      and\n        /* \"@openzeppelin/contracts/token/ERC721/ERC721.sol\":3740:3752  _msgSender() */\n      tag_125\n        /* \"@openzeppelin/contracts/token/ERC721/ERC721.sol\":3740:3750  _msgSender */\n      tag_126\n        /* \"@openzeppelin/contracts/token/ERC721/ERC721.sol\":3740:3752  _msgSender() */\n      jump\t// in\n    tag_125:\n      sub(shl(0xa0, 0x01), 0x01)\n        /* \"@openzeppelin/contracts/token/ERC721/ERC721.sol\":3740:3761  _msgSender() == owner */\n      and\n      eq\n        /* \"@openzeppelin/contracts/token/ERC721/ERC721.sol\":3740:3802  _msgSender() == owner || isApprovedForAll(owner, _msgSender()) */\n      dup1\n      tag_128\n      jumpi\n      pop\n        /* \"@openzeppelin/contracts/token/ERC721/ERC721.sol\":3765:3802  isApprovedForAll(owner, _msgSender()) */\n      tag_128\n        /* \"@openzeppelin/contracts/token/ERC721/ERC721.sol\":3782:3787  owner */\n      dup2\n        /* \"@openzeppelin/contracts/token/ERC721/ERC721.sol\":3789:3801  _msgSender() */\n      tag_93\n        /* \"@openzeppelin/contracts/token/ERC721/ERC721.sol\":3789:3799  _msgSender */\n      tag_126\n        /* \"@openzeppelin/contracts/token/ERC721/ERC721.sol\":3789:3801  _msgSender() */\n      jump\t// in\n        /* \"@openzeppelin/contracts/token/ERC721/ERC721.sol\":3765:3802  isApprovedForAll(owner, _msgSender()) */\n    tag_128:\n        /* \"@openzeppelin/contracts/token/ERC721/ERC721.sol\":3719:3884  require(... */\n      tag_130\n      jumpi\n      mload(0x40)\n      shl(0xe5, 0x461bcd)\n      dup2\n      mstore\n      0x04\n      add\n      tag_118\n      swap1\n      tag_132\n      jump\t// in\n    tag_130:\n        /* \"@openzeppelin/contracts/token/ERC721/ERC721.sol\":3895:3916  _approve(to, tokenId) */\n      tag_133\n        /* \"@openzeppelin/contracts/token/ERC721/ERC721.sol\":3904:3906  to */\n      dup4\n        /* \"@openzeppelin/contracts/token/ERC721/ERC721.sol\":3908:3915  tokenId */\n      dup4\n        /* \"@openzeppelin/contracts/token/ERC721/ERC721.sol\":3895:3903  _approve */\n      tag_134\n        /* \"@openzeppelin/contracts/token/ERC721/ERC721.sol\":3895:3916  _approve(to, tokenId) */\n      jump\t// in\n    tag_133:\n        /* \"@openzeppelin/contracts/token/ERC721/ERC721.sol\":3522:3923  function approve(address to, uint256 tokenId) public virtual override {... */\n      pop\n      pop\n      pop\n      jump\t// out\n        /* \"@openzeppelin/contracts/token/ERC721/ERC721.sol\":4711:5041  function transferFrom(... */\n    tag_48:\n        /* \"@openzeppelin/contracts/token/ERC721/ERC721.sol\":4900:4941  _isApprovedOrOwner(_msgSender(), tokenId) */\n      tag_136\n        /* \"@openzeppelin/contracts/token/ERC721/ERC721.sol\":4919:4931  _msgSender() */\n      tag_137\n        /* \"@openzeppelin/contracts/token/ERC721/ERC721.sol\":4919:4929  _msgSender */\n      tag_126\n        /* \"@openzeppelin/contracts/token/ERC721/ERC721.sol\":4919:4931  _msgSender() */\n      jump\t// in\n    tag_137:\n        /* \"@openzeppelin/contracts/token/ERC721/ERC721.sol\":4933:4940  tokenId */\n      dup3\n        /* \"@openzeppelin/contracts/token/ERC721/ERC721.sol\":4900:4918  _isApprovedOrOwner */\n      tag_138\n        /* \"@openzeppelin/contracts/token/ERC721/ERC721.sol\":4900:4941  _isApprovedOrOwner(_msgSender(), tokenId) */\n      jump\t// in\n    tag_136:\n        /* \"@openzeppelin/contracts/token/ERC721/ERC721.sol\":4892:4995  require(_isApprovedOrOwner(_msgSender(), tokenId), \"ERC721: transfer caller is not owner nor approved\") */\n      tag_139\n      jumpi\n      mload(0x40)\n      shl(0xe5, 0x461bcd)\n      dup2\n      mstore\n      0x04\n      add\n      tag_118\n      swap1\n      tag_141\n      jump\t// in\n    tag_139:\n        /* \"@openzeppelin/contracts/token/ERC721/ERC721.sol\":5006:5034  _transfer(from, to, tokenId) */\n      tag_133\n        /* \"@openzeppelin/contracts/token/ERC721/ERC721.sol\":5016:5020  from */\n      dup4\n        /* \"@openzeppelin/contracts/token/ERC721/ERC721.sol\":5022:5024  to */\n      dup4\n        /* \"@openzeppelin/contracts/token/ERC721/ERC721.sol\":5026:5033  tokenId */\n      dup4\n        /* \"@openzeppelin/contracts/token/ERC721/ERC721.sol\":5006:5015  _transfer */\n      tag_143\n        /* \"@openzeppelin/contracts/token/ERC721/ERC721.sol\":5006:5034  _transfer(from, to, tokenId) */\n      jump\t// in\n        /* \"@openzeppelin/contracts/token/ERC721/ERC721.sol\":5107:5286  function safeTransferFrom(... */\n    tag_51:\n        /* \"@openzeppelin/contracts/token/ERC721/ERC721.sol\":5240:5279  safeTransferFrom(from, to, tokenId, \"\") */\n      tag_133\n        /* \"@openzeppelin/contracts/token/ERC721/ERC721.sol\":5257:5261  from */\n      dup4\n        /* \"@openzeppelin/contracts/token/ERC721/ERC721.sol\":5263:5265  to */\n      dup4\n        /* \"@openzeppelin/contracts/token/ERC721/ERC721.sol\":5267:5274  tokenId */\n      dup4\n        /* \"@openzeppelin/contracts/token/ERC721/ERC721.sol\":5240:5279  safeTransferFrom(from, to, tokenId, \"\") */\n      mload(0x40)\n      dup1\n      0x20\n      add\n      0x40\n      mstore\n      dup1\n      0x00\n      dup2\n      mstore\n      pop\n        /* \"@openzeppelin/contracts/token/ERC721/ERC721.sol\":5240:5256  safeTransferFrom */\n      tag_83\n        /* \"@openzeppelin/contracts/token/ERC721/ERC721.sol\":5240:5279  safeTransferFrom(from, to, tokenId, \"\") */\n      jump\t// in\n        /* \"contracts/Trazability_2.sol\":1291:1556  function getProductDataById(string memory productId) public view returns (ProductData memory) {\r... */\n    tag_55:\n        /* \"contracts/Trazability_2.sol\":1365:1383  ProductData memory */\n      tag_146\n      tag_147\n      jump\t// in\n    tag_146:\n        /* \"contracts/Trazability_2.sol\":1396:1411  uint256 tokenId */\n      0x00\n        /* \"contracts/Trazability_2.sol\":1414:1433  _productIdToTokenId */\n      0x09\n        /* \"contracts/Trazability_2.sol\":1434:1443  productId */\n      dup4\n        /* \"contracts/Trazability_2.sol\":1414:1444  _productIdToTokenId[productId] */\n      mload(0x40)\n      tag_149\n      swap2\n      swap1\n      tag_150\n      jump\t// in\n    tag_149:\n      swap1\n      dup2\n      mstore\n      0x20\n      add\n      mload(0x40)\n      dup1\n      swap2\n      sub\n      swap1\n      keccak256\n      sload\n        /* \"contracts/Trazability_2.sol\":1396:1444  uint256 tokenId = _productIdToTokenId[productId] */\n      swap1\n      pop\n        /* \"contracts/Trazability_2.sol\":1463:1479  _exists(tokenId) */\n      tag_151\n        /* \"contracts/Trazability_2.sol\":1471:1478  tokenId */\n      dup2\n        /* \"contracts/Trazability_2.sol\":1463:1470  _exists */\n      tag_116\n        /* \"contracts/Trazability_2.sol\":1463:1479  _exists(tokenId) */\n      jump\t// in\n    tag_151:\n        /* \"contracts/Trazability_2.sol\":1455:1509  require(_exists(tokenId), \"Product ID does not exist\") */\n      tag_152\n      jumpi\n      mload(0x40)\n      shl(0xe5, 0x461bcd)\n      dup2\n      mstore\n      0x04\n      add\n      tag_118\n      swap1\n      tag_154\n      jump\t// in\n    tag_152:\n        /* \"contracts/Trazability_2.sol\":1527:1548  _productData[tokenId] */\n      0x00\n      dup2\n      dup2\n      mstore\n        /* \"contracts/Trazability_2.sol\":1527:1539  _productData */\n      0x08\n        /* \"contracts/Trazability_2.sol\":1527:1548  _productData[tokenId] */\n      0x20\n      mstore\n      0x40\n      swap1\n      dup2\n      swap1\n      keccak256\n        /* \"contracts/Trazability_2.sol\":1520:1548  return _productData[tokenId] */\n      dup2\n      mload\n      0x80\n      dup2\n      add\n      swap1\n      swap3\n      mstore\n      dup1\n      sload\n      dup3\n      swap1\n        /* \"contracts/Trazability_2.sol\":1527:1548  _productData[tokenId] */\n      dup3\n      swap1\n        /* \"contracts/Trazability_2.sol\":1520:1548  return _productData[tokenId] */\n      tag_155\n      swap1\n      tag_109\n      jump\t// in\n    tag_155:\n      dup1\n      0x1f\n      add\n      0x20\n      dup1\n      swap2\n      div\n      mul\n      0x20\n      add\n      mload(0x40)\n      swap1\n      dup2\n      add\n      0x40\n      mstore\n      dup1\n      swap3\n      swap2\n      swap1\n      dup2\n      dup2\n      mstore\n      0x20\n      add\n      dup3\n      dup1\n      sload\n      tag_156\n      swap1\n      tag_109\n      jump\t// in\n    tag_156:\n      dup1\n      iszero\n      tag_157\n      jumpi\n      dup1\n      0x1f\n      lt\n      tag_158\n      jumpi\n      0x0100\n      dup1\n      dup4\n      sload\n      div\n      mul\n      dup4\n      mstore\n      swap2\n      0x20\n      add\n      swap2\n      jump(tag_157)\n    tag_158:\n      dup3\n      add\n      swap2\n      swap1\n      0x00\n      mstore\n      keccak256(0x00, 0x20)\n      swap1\n    tag_159:\n      dup2\n      sload\n      dup2\n      mstore\n      swap1\n      0x01\n      add\n      swap1\n      0x20\n      add\n      dup1\n      dup4\n      gt\n      tag_159\n      jumpi\n      dup3\n      swap1\n      sub\n      0x1f\n      and\n      dup3\n      add\n      swap2\n    tag_157:\n      pop\n      pop\n      pop\n      pop\n      pop\n      dup2\n      mstore\n      0x20\n      add\n      0x01\n      dup3\n      add\n      dup1\n      sload\n      tag_160\n      swap1\n      tag_109\n      jump\t// in\n    tag_160:\n      dup1\n      0x1f\n      add\n      0x20\n      dup1\n      swap2\n      div\n      mul\n      0x20\n      add\n      mload(0x40)\n      swap1\n      dup2\n      add\n      0x40\n      mstore\n      dup1\n      swap3\n      swap2\n      swap1\n      dup2\n      dup2\n      mstore\n      0x20\n      add\n      dup3\n      dup1\n      sload\n      tag_161\n      swap1\n      tag_109\n      jump\t// in\n    tag_161:\n      dup1\n      iszero\n      tag_162\n      jumpi\n      dup1\n      0x1f\n      lt\n      tag_163\n      jumpi\n      0x0100\n      dup1\n      dup4\n      sload\n      div\n      mul\n      dup4\n      mstore\n      swap2\n      0x20\n      add\n      swap2\n      jump(tag_162)\n    tag_163:\n      dup3\n      add\n      swap2\n      swap1\n      0x00\n      mstore\n      keccak256(0x00, 0x20)\n      swap1\n    tag_164:\n      dup2\n      sload\n      dup2\n      mstore\n      swap1\n      0x01\n      add\n      swap1\n      0x20\n      add\n      dup1\n      dup4\n      gt\n      tag_164\n      jumpi\n      dup3\n      swap1\n      sub\n      0x1f\n      and\n      dup3\n      add\n      swap2\n    tag_162:\n      pop\n      pop\n      pop\n      pop\n      pop\n      dup2\n      mstore\n      0x20\n      add\n      0x02\n      dup3\n      add\n      dup1\n      sload\n      tag_165\n      swap1\n      tag_109\n      jump\t// in\n    tag_165:\n      dup1\n      0x1f\n      add\n      0x20\n      dup1\n      swap2\n      div\n      mul\n      0x20\n      add\n      mload(0x40)\n      swap1\n      dup2\n      add\n      0x40\n      mstore\n      dup1\n      swap3\n      swap2\n      swap1\n      dup2\n      dup2\n      mstore\n      0x20\n      add\n      dup3\n      dup1\n      sload\n      tag_166\n      swap1\n      tag_109\n      jump\t// in\n    tag_166:\n      dup1\n      iszero\n      tag_167\n      jumpi\n      dup1\n      0x1f\n      lt\n      tag_168\n      jumpi\n      0x0100\n      dup1\n      dup4\n      sload\n      div\n      mul\n      dup4\n      mstore\n      swap2\n      0x20\n      add\n      swap2\n      jump(tag_167)\n    tag_168:\n      dup3\n      add\n      swap2\n      swap1\n      0x00\n      mstore\n      keccak256(0x00, 0x20)\n      swap1\n    tag_169:\n      dup2\n      sload\n      dup2\n      mstore\n      swap1\n      0x01\n      add\n      swap1\n      0x20\n      add\n      dup1\n      dup4\n      gt\n      tag_169\n      jumpi\n      dup3\n      swap1\n      sub\n      0x1f\n      and\n      dup3\n      add\n      swap2\n    tag_167:\n      pop\n      pop\n      pop\n      pop\n      pop\n      dup2\n      mstore\n      0x20\n      add\n      0x03\n      dup3\n      add\n      dup1\n      sload\n      tag_170\n      swap1\n      tag_109\n      jump\t// in\n    tag_170:\n      dup1\n      0x1f\n      add\n      0x20\n      dup1\n      swap2\n      div\n      mul\n      0x20\n      add\n      mload(0x40)\n      swap1\n      dup2\n      add\n      0x40\n      mstore\n      dup1\n      swap3\n      swap2\n      swap1\n      dup2\n      dup2\n      mstore\n      0x20\n      add\n      dup3\n      dup1\n      sload\n      tag_171\n      swap1\n      tag_109\n      jump\t// in\n    tag_171:\n      dup1\n      iszero\n      tag_172\n      jumpi\n      dup1\n      0x1f\n      lt\n      tag_173\n      jumpi\n      0x0100\n      dup1\n      dup4\n      sload\n      div\n      mul\n      dup4\n      mstore\n      swap2\n      0x20\n      add\n      swap2\n      jump(tag_172)\n    tag_173:\n      dup3\n      add\n      swap2\n      swap1\n      0x00\n      mstore\n      keccak256(0x00, 0x20)\n      swap1\n    tag_174:\n      dup2\n      sload\n      dup2\n      mstore\n      swap1\n      0x01\n      add\n      swap1\n      0x20\n      add\n      dup1\n      dup4\n      gt\n      tag_174\n      jumpi\n      dup3\n      swap1\n      sub\n      0x1f\n      and\n      dup3\n      add\n      swap2\n    tag_172:\n      pop\n      pop\n      pop\n      pop\n      pop\n      dup2\n      mstore\n      pop\n      pop\n      swap2\n      pop\n      pop\n        /* \"contracts/Trazability_2.sol\":1291:1556  function getProductDataById(string memory productId) public view returns (ProductData memory) {\r... */\n      swap2\n      swap1\n      pop\n      jump\t// out\n        /* \"@openzeppelin/contracts/token/ERC721/ERC721.sol\":2176:2411  function ownerOf(uint256 tokenId) public view virtual override returns (address) {... */\n    tag_60:\n        /* \"@openzeppelin/contracts/token/ERC721/ERC721.sol\":2248:2255  address */\n      0x00\n        /* \"@openzeppelin/contracts/token/ERC721/ERC721.sol\":2283:2299  _owners[tokenId] */\n      dup2\n      dup2\n      mstore\n        /* \"@openzeppelin/contracts/token/ERC721/ERC721.sol\":2283:2290  _owners */\n      0x02\n        /* \"@openzeppelin/contracts/token/ERC721/ERC721.sol\":2283:2299  _owners[tokenId] */\n      0x20\n      mstore\n      0x40\n      dup2\n      keccak256\n      sload\n      sub(shl(0xa0, 0x01), 0x01)\n      and\n        /* \"@openzeppelin/contracts/token/ERC721/ERC721.sol\":2317:2336  owner != address(0) */\n      dup1\n        /* \"@openzeppelin/contracts/token/ERC721/ERC721.sol\":2309:2382  require(owner != address(0), \"ERC721: owner query for nonexistent token\") */\n      tag_105\n      jumpi\n      mload(0x40)\n      shl(0xe5, 0x461bcd)\n      dup2\n      mstore\n      0x04\n      add\n      tag_118\n      swap1\n      tag_178\n      jump\t// in\n        /* \"@openzeppelin/contracts/token/ERC721/ERC721.sol\":1914:2119  function balanceOf(address owner) public view virtual override returns (uint256) {... */\n    tag_65:\n        /* \"@openzeppelin/contracts/token/ERC721/ERC721.sol\":1986:1993  uint256 */\n      0x00\n      sub(shl(0xa0, 0x01), 0x01)\n        /* \"@openzeppelin/contracts/token/ERC721/ERC721.sol\":2013:2032  owner != address(0) */\n      dup3\n      and\n        /* \"@openzeppelin/contracts/token/ERC721/ERC721.sol\":2005:2079  require(owner != address(0), \"ERC721: balance query for the zero address\") */\n      tag_180\n      jumpi\n      mload(0x40)\n      shl(0xe5, 0x461bcd)\n      dup2\n      mstore\n      0x04\n      add\n      tag_118\n      swap1\n      tag_182\n      jump\t// in\n    tag_180:\n      pop\n      sub(shl(0xa0, 0x01), 0x01)\n        /* \"@openzeppelin/contracts/token/ERC721/ERC721.sol\":2096:2112  _balances[owner] */\n      and\n      0x00\n      swap1\n      dup2\n      mstore\n        /* \"@openzeppelin/contracts/token/ERC721/ERC721.sol\":2096:2105  _balances */\n      0x03\n        /* \"@openzeppelin/contracts/token/ERC721/ERC721.sol\":2096:2112  _balances[owner] */\n      0x20\n      mstore\n      0x40\n      swap1\n      keccak256\n      sload\n      swap1\n        /* \"@openzeppelin/contracts/token/ERC721/ERC721.sol\":1914:2119  function balanceOf(address owner) public view virtual override returns (uint256) {... */\n      jump\t// out\n        /* \"@openzeppelin/contracts/access/Ownable.sol\":1668:1769  function renounceOwnership() public virtual onlyOwner {... */\n    tag_69:\n        /* \"@openzeppelin/contracts/access/Ownable.sol\":1259:1271  _msgSender() */\n      tag_184\n        /* \"@openzeppelin/contracts/access/Ownable.sol\":1259:1269  _msgSender */\n      tag_126\n        /* \"@openzeppelin/contracts/access/Ownable.sol\":1259:1271  _msgSender() */\n      jump\t// in\n    tag_184:\n      sub(shl(0xa0, 0x01), 0x01)\n        /* \"@openzeppelin/contracts/access/Ownable.sol\":1248:1271  owner() == _msgSender() */\n      and\n        /* \"@openzeppelin/contracts/access/Ownable.sol\":1248:1255  owner() */\n      tag_185\n        /* \"@openzeppelin/contracts/access/Ownable.sol\":1248:1253  owner */\n      tag_71\n        /* \"@openzeppelin/contracts/access/Ownable.sol\":1248:1255  owner() */\n      jump\t// in\n    tag_185:\n      sub(shl(0xa0, 0x01), 0x01)\n        /* \"@openzeppelin/contracts/access/Ownable.sol\":1248:1271  owner() == _msgSender() */\n      and\n      eq\n        /* \"@openzeppelin/contracts/access/Ownable.sol\":1240:1308  require(owner() == _msgSender(), \"Ownable: caller is not the owner\") */\n      tag_186\n      jumpi\n      mload(0x40)\n      shl(0xe5, 0x461bcd)\n      dup2\n      mstore\n      0x04\n      add\n      tag_118\n      swap1\n      tag_188\n      jump\t// in\n    tag_186:\n        /* \"@openzeppelin/contracts/access/Ownable.sol\":1732:1762  _transferOwnership(address(0)) */\n      tag_190\n        /* \"@openzeppelin/contracts/access/Ownable.sol\":1759:1760  0 */\n      0x00\n        /* \"@openzeppelin/contracts/access/Ownable.sol\":1732:1750  _transferOwnership */\n      tag_191\n        /* \"@openzeppelin/contracts/access/Ownable.sol\":1732:1762  _transferOwnership(address(0)) */\n      jump\t// in\n    tag_190:\n        /* \"@openzeppelin/contracts/access/Ownable.sol\":1668:1769  function renounceOwnership() public virtual onlyOwner {... */\n      jump\t// out\n        /* \"@openzeppelin/contracts/access/Ownable.sol\":1036:1121  function owner() public view virtual returns (address) {... */\n    tag_71:\n        /* \"@openzeppelin/contracts/access/Ownable.sol\":1108:1114  _owner */\n      and(sub(shl(0xa0, 0x01), 0x01), sload(0x06))\n        /* \"@openzeppelin/contracts/access/Ownable.sol\":1036:1121  function owner() public view virtual returns (address) {... */\n      swap1\n      jump\t// out\n        /* \"@openzeppelin/contracts/token/ERC721/ERC721.sol\":2635:2737  function symbol() public view virtual override returns (string memory) {... */\n    tag_74:\n        /* \"@openzeppelin/contracts/token/ERC721/ERC721.sol\":2691:2704  string memory */\n      0x60\n        /* \"@openzeppelin/contracts/token/ERC721/ERC721.sol\":2723:2730  _symbol */\n      0x01\n        /* \"@openzeppelin/contracts/token/ERC721/ERC721.sol\":2716:2730  return _symbol */\n      dup1\n      sload\n      tag_108\n      swap1\n      tag_109\n      jump\t// in\n        /* \"@openzeppelin/contracts/token/ERC721/ERC721.sol\":4268:4421  function setApprovalForAll(address operator, bool approved) public virtual override {... */\n    tag_79:\n        /* \"@openzeppelin/contracts/token/ERC721/ERC721.sol\":4362:4414  _setApprovalForAll(_msgSender(), operator, approved) */\n      tag_200\n        /* \"@openzeppelin/contracts/token/ERC721/ERC721.sol\":4381:4393  _msgSender() */\n      tag_201\n        /* \"@openzeppelin/contracts/token/ERC721/ERC721.sol\":4381:4391  _msgSender */\n      tag_126\n        /* \"@openzeppelin/contracts/token/ERC721/ERC721.sol\":4381:4393  _msgSender() */\n      jump\t// in\n    tag_201:\n        /* \"@openzeppelin/contracts/token/ERC721/ERC721.sol\":4395:4403  operator */\n      dup4\n        /* \"@openzeppelin/contracts/token/ERC721/ERC721.sol\":4405:4413  approved */\n      dup4\n        /* \"@openzeppelin/contracts/token/ERC721/ERC721.sol\":4362:4380  _setApprovalForAll */\n      tag_202\n        /* \"@openzeppelin/contracts/token/ERC721/ERC721.sol\":4362:4414  _setApprovalForAll(_msgSender(), operator, approved) */\n      jump\t// in\n    tag_200:\n        /* \"@openzeppelin/contracts/token/ERC721/ERC721.sol\":4268:4421  function setApprovalForAll(address operator, bool approved) public virtual override {... */\n      pop\n      pop\n      jump\t// out\n        /* \"@openzeppelin/contracts/token/ERC721/ERC721.sol\":5352:5672  function safeTransferFrom(... */\n    tag_83:\n        /* \"@openzeppelin/contracts/token/ERC721/ERC721.sol\":5521:5562  _isApprovedOrOwner(_msgSender(), tokenId) */\n      tag_204\n        /* \"@openzeppelin/contracts/token/ERC721/ERC721.sol\":5540:5552  _msgSender() */\n      tag_205\n        /* \"@openzeppelin/contracts/token/ERC721/ERC721.sol\":5540:5550  _msgSender */\n      tag_126\n        /* \"@openzeppelin/contracts/token/ERC721/ERC721.sol\":5540:5552  _msgSender() */\n      jump\t// in\n    tag_205:\n        /* \"@openzeppelin/contracts/token/ERC721/ERC721.sol\":5554:5561  tokenId */\n      dup4\n        /* \"@openzeppelin/contracts/token/ERC721/ERC721.sol\":5521:5539  _isApprovedOrOwner */\n      tag_138\n        /* \"@openzeppelin/contracts/token/ERC721/ERC721.sol\":5521:5562  _isApprovedOrOwner(_msgSender(), tokenId) */\n      jump\t// in\n    tag_204:\n        /* \"@openzeppelin/contracts/token/ERC721/ERC721.sol\":5513:5616  require(_isApprovedOrOwner(_msgSender(), tokenId), \"ERC721: transfer caller is not owner nor approved\") */\n      tag_206\n      jumpi\n      mload(0x40)\n      shl(0xe5, 0x461bcd)\n      dup2\n      mstore\n      0x04\n      add\n      tag_118\n      swap1\n      tag_141\n      jump\t// in\n    tag_206:\n        /* \"@openzeppelin/contracts/token/ERC721/ERC721.sol\":5626:5665  _safeTransfer(from, to, tokenId, _data) */\n      tag_208\n        /* \"@openzeppelin/contracts/token/ERC721/ERC721.sol\":5640:5644  from */\n      dup5\n        /* \"@openzeppelin/contracts/token/ERC721/ERC721.sol\":5646:5648  to */\n      dup5\n        /* \"@openzeppelin/contracts/token/ERC721/ERC721.sol\":5650:5657  tokenId */\n      dup5\n        /* \"@openzeppelin/contracts/token/ERC721/ERC721.sol\":5659:5664  _data */\n      dup5\n        /* \"@openzeppelin/contracts/token/ERC721/ERC721.sol\":5626:5639  _safeTransfer */\n      tag_209\n        /* \"@openzeppelin/contracts/token/ERC721/ERC721.sol\":5626:5665  _safeTransfer(from, to, tokenId, _data) */\n      jump\t// in\n    tag_208:\n        /* \"@openzeppelin/contracts/token/ERC721/ERC721.sol\":5352:5672  function safeTransferFrom(... */\n      pop\n      pop\n      pop\n      pop\n      jump\t// out\n        /* \"contracts/Trazability_2.sol\":1841:2101  function tokenURI(uint256 tokenId) public view override returns (string memory) {\r... */\n    tag_86:\n        /* \"contracts/Trazability_2.sol\":1906:1919  string memory */\n      0x60\n        /* \"contracts/Trazability_2.sol\":1940:1956  _exists(tokenId) */\n      tag_211\n        /* \"contracts/Trazability_2.sol\":1948:1955  tokenId */\n      dup3\n        /* \"contracts/Trazability_2.sol\":1940:1947  _exists */\n      tag_116\n        /* \"contracts/Trazability_2.sol\":1940:1956  _exists(tokenId) */\n      jump\t// in\n    tag_211:\n        /* \"contracts/Trazability_2.sol\":1932:2008  require(_exists(tokenId), \"ERC721Metadata: URI query for nonexistent token\") */\n      tag_212\n      jumpi\n      mload(0x40)\n      shl(0xe5, 0x461bcd)\n      dup2\n      mstore\n      0x04\n      add\n      tag_118\n      swap1\n      tag_214\n      jump\t// in\n    tag_212:\n        /* \"contracts/Trazability_2.sol\":2021:2044  string memory _tokenURI */\n      0x00\n        /* \"contracts/Trazability_2.sol\":2047:2066  _tokenURIs[tokenId] */\n      dup3\n      dup2\n      mstore\n        /* \"contracts/Trazability_2.sol\":2047:2057  _tokenURIs */\n      0x0a\n        /* \"contracts/Trazability_2.sol\":2047:2066  _tokenURIs[tokenId] */\n      0x20\n      mstore\n      0x40\n      dup2\n      keccak256\n        /* \"contracts/Trazability_2.sol\":2021:2066  string memory _tokenURI = _tokenURIs[tokenId] */\n      dup1\n      sload\n      tag_215\n      swap1\n      tag_109\n      jump\t// in\n    tag_215:\n      dup1\n      0x1f\n      add\n      0x20\n      dup1\n      swap2\n      div\n      mul\n      0x20\n      add\n      mload(0x40)\n      swap1\n      dup2\n      add\n      0x40\n      mstore\n      dup1\n      swap3\n      swap2\n      swap1\n      dup2\n      dup2\n      mstore\n      0x20\n      add\n      dup3\n      dup1\n      sload\n      tag_216\n      swap1\n      tag_109\n      jump\t// in\n    tag_216:\n      dup1\n      iszero\n      tag_217\n      jumpi\n      dup1\n      0x1f\n      lt\n      tag_218\n      jumpi\n      0x0100\n      dup1\n      dup4\n      sload\n      div\n      mul\n      dup4\n      mstore\n      swap2\n      0x20\n      add\n      swap2\n      jump(tag_217)\n    tag_218:\n      dup3\n      add\n      swap2\n      swap1\n      0x00\n      mstore\n      keccak256(0x00, 0x20)\n      swap1\n    tag_219:\n      dup2\n      sload\n      dup2\n      mstore\n      swap1\n      0x01\n      add\n      swap1\n      0x20\n      add\n      dup1\n      dup4\n      gt\n      tag_219\n      jumpi\n      dup3\n      swap1\n      sub\n      0x1f\n      and\n      dup3\n      add\n      swap2\n    tag_217:\n      pop\n      swap4\n      swap8\n        /* \"contracts/Trazability_2.sol\":1841:2101  function tokenURI(uint256 tokenId) public view override returns (string memory) {\r... */\n      swap7\n      pop\n      pop\n      pop\n      pop\n      pop\n      pop\n      pop\n      jump\t// out\n        /* \"contracts/Trazability_2.sol\":1094:1283  function getProductData(uint256 tokenId) public view returns (ProductData memory) {\r... */\n    tag_90:\n        /* \"contracts/Trazability_2.sol\":1156:1174  ProductData memory */\n      tag_220\n      tag_147\n      jump\t// in\n    tag_220:\n        /* \"contracts/Trazability_2.sol\":1195:1211  _exists(tokenId) */\n      tag_222\n        /* \"contracts/Trazability_2.sol\":1203:1210  tokenId */\n      dup3\n        /* \"contracts/Trazability_2.sol\":1195:1202  _exists */\n      tag_116\n        /* \"contracts/Trazability_2.sol\":1195:1211  _exists(tokenId) */\n      jump\t// in\n    tag_222:\n        /* \"contracts/Trazability_2.sol\":1187:1236  require(_exists(tokenId), \"Token does not exist\") */\n      tag_223\n      jumpi\n      mload(0x40)\n      shl(0xe5, 0x461bcd)\n      dup2\n      mstore\n      0x04\n      add\n      tag_118\n      swap1\n      tag_225\n      jump\t// in\n    tag_223:\n        /* \"contracts/Trazability_2.sol\":1254:1275  _productData[tokenId] */\n      0x00\n      dup3\n      dup2\n      mstore\n        /* \"contracts/Trazability_2.sol\":1254:1266  _productData */\n      0x08\n        /* \"contracts/Trazability_2.sol\":1254:1275  _productData[tokenId] */\n      0x20\n      mstore\n      0x40\n      swap1\n      dup2\n      swap1\n      keccak256\n        /* \"contracts/Trazability_2.sol\":1247:1275  return _productData[tokenId] */\n      dup2\n      mload\n      0x80\n      dup2\n      add\n      swap1\n      swap3\n      mstore\n      dup1\n      sload\n      dup3\n      swap1\n        /* \"contracts/Trazability_2.sol\":1254:1275  _productData[tokenId] */\n      dup3\n      swap1\n        /* \"contracts/Trazability_2.sol\":1247:1275  return _productData[tokenId] */\n      tag_226\n      swap1\n      tag_109\n      jump\t// in\n    tag_226:\n      dup1\n      0x1f\n      add\n      0x20\n      dup1\n      swap2\n      div\n      mul\n      0x20\n      add\n      mload(0x40)\n      swap1\n      dup2\n      add\n      0x40\n      mstore\n      dup1\n      swap3\n      swap2\n      swap1\n      dup2\n      dup2\n      mstore\n      0x20\n      add\n      dup3\n      dup1\n      sload\n      tag_227\n      swap1\n      tag_109\n      jump\t// in\n    tag_227:\n      dup1\n      iszero\n      tag_228\n      jumpi\n      dup1\n      0x1f\n      lt\n      tag_229\n      jumpi\n      0x0100\n      dup1\n      dup4\n      sload\n      div\n      mul\n      dup4\n      mstore\n      swap2\n      0x20\n      add\n      swap2\n      jump(tag_228)\n    tag_229:\n      dup3\n      add\n      swap2\n      swap1\n      0x00\n      mstore\n      keccak256(0x00, 0x20)\n      swap1\n    tag_230:\n      dup2\n      sload\n      dup2\n      mstore\n      swap1\n      0x01\n      add\n      swap1\n      0x20\n      add\n      dup1\n      dup4\n      gt\n      tag_230\n      jumpi\n      dup3\n      swap1\n      sub\n      0x1f\n      and\n      dup3\n      add\n      swap2\n    tag_228:\n      pop\n      pop\n      pop\n      pop\n      pop\n      dup2\n      mstore\n      0x20\n      add\n      0x01\n      dup3\n      add\n      dup1\n      sload\n      tag_231\n      swap1\n      tag_109\n      jump\t// in\n    tag_231:\n      dup1\n      0x1f\n      add\n      0x20\n      dup1\n      swap2\n      div\n      mul\n      0x20\n      add\n      mload(0x40)\n      swap1\n      dup2\n      add\n      0x40\n      mstore\n      dup1\n      swap3\n      swap2\n      swap1\n      dup2\n      dup2\n      mstore\n      0x20\n      add\n      dup3\n      dup1\n      sload\n      tag_232\n      swap1\n      tag_109\n      jump\t// in\n    tag_232:\n      dup1\n      iszero\n      tag_233\n      jumpi\n      dup1\n      0x1f\n      lt\n      tag_234\n      jumpi\n      0x0100\n      dup1\n      dup4\n      sload\n      div\n      mul\n      dup4\n      mstore\n      swap2\n      0x20\n      add\n      swap2\n      jump(tag_233)\n    tag_234:\n      dup3\n      add\n      swap2\n      swap1\n      0x00\n      mstore\n      keccak256(0x00, 0x20)\n      swap1\n    tag_235:\n      dup2\n      sload\n      dup2\n      mstore\n      swap1\n      0x01\n      add\n      swap1\n      0x20\n      add\n      dup1\n      dup4\n      gt\n      tag_235\n      jumpi\n      dup3\n      swap1\n      sub\n      0x1f\n      and\n      dup3\n      add\n      swap2\n    tag_233:\n      pop\n      pop\n      pop\n      pop\n      pop\n      dup2\n      mstore\n      0x20\n      add\n      0x02\n      dup3\n      add\n      dup1\n      sload\n      tag_236\n      swap1\n      tag_109\n      jump\t// in\n    tag_236:\n      dup1\n      0x1f\n      add\n      0x20\n      dup1\n      swap2\n      div\n      mul\n      0x20\n      add\n      mload(0x40)\n      swap1\n      dup2\n      add\n      0x40\n      mstore\n      dup1\n      swap3\n      swap2\n      swap1\n      dup2\n      dup2\n      mstore\n      0x20\n      add\n      dup3\n      dup1\n      sload\n      tag_237\n      swap1\n      tag_109\n      jump\t// in\n    tag_237:\n      dup1\n      iszero\n      tag_238\n      jumpi\n      dup1\n      0x1f\n      lt\n      tag_239\n      jumpi\n      0x0100\n      dup1\n      dup4\n      sload\n      div\n      mul\n      dup4\n      mstore\n      swap2\n      0x20\n      add\n      swap2\n      jump(tag_238)\n    tag_239:\n      dup3\n      add\n      swap2\n      swap1\n      0x00\n      mstore\n      keccak256(0x00, 0x20)\n      swap1\n    tag_240:\n      dup2\n      sload\n      dup2\n      mstore\n      swap1\n      0x01\n      add\n      swap1\n      0x20\n      add\n      dup1\n      dup4\n      gt\n      tag_240\n      jumpi\n      dup3\n      swap1\n      sub\n      0x1f\n      and\n      dup3\n      add\n      swap2\n    tag_238:\n      pop\n      pop\n      pop\n      pop\n      pop\n      dup2\n      mstore\n      0x20\n      add\n      0x03\n      dup3\n      add\n      dup1\n      sload\n      tag_241\n      swap1\n      tag_109\n      jump\t// in\n    tag_241:\n      dup1\n      0x1f\n      add\n      0x20\n      dup1\n      swap2\n      div\n      mul\n      0x20\n      add\n      mload(0x40)\n      swap1\n      dup2\n      add\n      0x40\n      mstore\n      dup1\n      swap3\n      swap2\n      swap1\n      dup2\n      dup2\n      mstore\n      0x20\n      add\n      dup3\n      dup1\n      sload\n      tag_242\n      swap1\n      tag_109\n      jump\t// in\n    tag_242:\n      dup1\n      iszero\n      tag_243\n      jumpi\n      dup1\n      0x1f\n      lt\n      tag_244\n      jumpi\n      0x0100\n      dup1\n      dup4\n      sload\n      div\n      mul\n      dup4\n      mstore\n      swap2\n      0x20\n      add\n      swap2\n      jump(tag_243)\n    tag_244:\n      dup3\n      add\n      swap2\n      swap1\n      0x00\n      mstore\n      keccak256(0x00, 0x20)\n      swap1\n    tag_245:\n      dup2\n      sload\n      dup2\n      mstore\n      swap1\n      0x01\n      add\n      swap1\n      0x20\n      add\n      dup1\n      dup4\n      gt\n      tag_245\n      jumpi\n      dup3\n      swap1\n      sub\n      0x1f\n      and\n      dup3\n      add\n      swap2\n    tag_243:\n      pop\n      pop\n      pop\n      pop\n      pop\n      dup2\n      mstore\n      pop\n      pop\n      swap1\n      pop\n        /* \"contracts/Trazability_2.sol\":1094:1283  function getProductData(uint256 tokenId) public view returns (ProductData memory) {\r... */\n      swap2\n      swap1\n      pop\n      jump\t// out\n        /* \"@openzeppelin/contracts/token/ERC721/ERC721.sol\":4487:4649  function isApprovedForAll(address owner, address operator) public view virtual override returns (bool) {... */\n    tag_95:\n      sub(shl(0xa0, 0x01), 0x01)\n        /* \"@openzeppelin/contracts/token/ERC721/ERC721.sol\":4607:4632  _operatorApprovals[owner] */\n      swap2\n      dup3\n      and\n        /* \"@openzeppelin/contracts/token/ERC721/ERC721.sol\":4584:4588  bool */\n      0x00\n        /* \"@openzeppelin/contracts/token/ERC721/ERC721.sol\":4607:4632  _operatorApprovals[owner] */\n      swap1\n      dup2\n      mstore\n        /* \"@openzeppelin/contracts/token/ERC721/ERC721.sol\":4607:4625  _operatorApprovals */\n      0x05\n        /* \"@openzeppelin/contracts/token/ERC721/ERC721.sol\":4607:4632  _operatorApprovals[owner] */\n      0x20\n      swap1\n      dup2\n      mstore\n      0x40\n      dup1\n      dup4\n      keccak256\n        /* \"@openzeppelin/contracts/token/ERC721/ERC721.sol\":4607:4642  _operatorApprovals[owner][operator] */\n      swap4\n      swap1\n      swap5\n      and\n      dup3\n      mstore\n      swap2\n      swap1\n      swap2\n      mstore\n      keccak256\n      sload\n      0xff\n      and\n      swap1\n        /* \"@openzeppelin/contracts/token/ERC721/ERC721.sol\":4487:4649  function isApprovedForAll(address owner, address operator) public view virtual override returns (bool) {... */\n      jump\t// out\n        /* \"@openzeppelin/contracts/access/Ownable.sol\":1918:2116  function transferOwnership(address newOwner) public virtual onlyOwner {... */\n    tag_99:\n        /* \"@openzeppelin/contracts/access/Ownable.sol\":1259:1271  _msgSender() */\n      tag_248\n        /* \"@openzeppelin/contracts/access/Ownable.sol\":1259:1269  _msgSender */\n      tag_126\n        /* \"@openzeppelin/contracts/access/Ownable.sol\":1259:1271  _msgSender() */\n      jump\t// in\n    tag_248:\n      sub(shl(0xa0, 0x01), 0x01)\n        /* \"@openzeppelin/contracts/access/Ownable.sol\":1248:1271  owner() == _msgSender() */\n      and\n        /* \"@openzeppelin/contracts/access/Ownable.sol\":1248:1255  owner() */\n      tag_249\n        /* \"@openzeppelin/contracts/access/Ownable.sol\":1248:1253  owner */\n      tag_71\n        /* \"@openzeppelin/contracts/access/Ownable.sol\":1248:1255  owner() */\n      jump\t// in\n    tag_249:\n      sub(shl(0xa0, 0x01), 0x01)\n        /* \"@openzeppelin/contracts/access/Ownable.sol\":1248:1271  owner() == _msgSender() */\n      and\n      eq\n        /* \"@openzeppelin/contracts/access/Ownable.sol\":1240:1308  require(owner() == _msgSender(), \"Ownable: caller is not the owner\") */\n      tag_250\n      jumpi\n      mload(0x40)\n      shl(0xe5, 0x461bcd)\n      dup2\n      mstore\n      0x04\n      add\n      tag_118\n      swap1\n      tag_188\n      jump\t// in\n    tag_250:\n      sub(shl(0xa0, 0x01), 0x01)\n        /* \"@openzeppelin/contracts/access/Ownable.sol\":2006:2028  newOwner != address(0) */\n      dup2\n      and\n        /* \"@openzeppelin/contracts/access/Ownable.sol\":1998:2071  require(newOwner != address(0), \"Ownable: new owner is the zero address\") */\n      tag_253\n      jumpi\n      mload(0x40)\n      shl(0xe5, 0x461bcd)\n      dup2\n      mstore\n      0x04\n      add\n      tag_118\n      swap1\n      tag_255\n      jump\t// in\n    tag_253:\n        /* \"@openzeppelin/contracts/access/Ownable.sol\":2081:2109  _transferOwnership(newOwner) */\n      tag_256\n        /* \"@openzeppelin/contracts/access/Ownable.sol\":2100:2108  newOwner */\n      dup2\n        /* \"@openzeppelin/contracts/access/Ownable.sol\":2081:2099  _transferOwnership */\n      tag_191\n        /* \"@openzeppelin/contracts/access/Ownable.sol\":2081:2109  _transferOwnership(newOwner) */\n      jump\t// in\n    tag_256:\n        /* \"@openzeppelin/contracts/access/Ownable.sol\":1918:2116  function transferOwnership(address newOwner) public virtual onlyOwner {... */\n      pop\n      jump\t// out\n        /* \"contracts/Trazability_2.sol\":687:1086  function safeMint(\r... */\n    tag_103:\n        /* \"@openzeppelin/contracts/access/Ownable.sol\":1259:1271  _msgSender() */\n      tag_258\n        /* \"@openzeppelin/contracts/access/Ownable.sol\":1259:1269  _msgSender */\n      tag_126\n        /* \"@openzeppelin/contracts/access/Ownable.sol\":1259:1271  _msgSender() */\n      jump\t// in\n    tag_258:\n      sub(shl(0xa0, 0x01), 0x01)\n        /* \"@openzeppelin/contracts/access/Ownable.sol\":1248:1271  owner() == _msgSender() */\n      and\n        /* \"@openzeppelin/contracts/access/Ownable.sol\":1248:1255  owner() */\n      tag_259\n        /* \"@openzeppelin/contracts/access/Ownable.sol\":1248:1253  owner */\n      tag_71\n        /* \"@openzeppelin/contracts/access/Ownable.sol\":1248:1255  owner() */\n      jump\t// in\n    tag_259:\n      sub(shl(0xa0, 0x01), 0x01)\n        /* \"@openzeppelin/contracts/access/Ownable.sol\":1248:1271  owner() == _msgSender() */\n      and\n      eq\n        /* \"@openzeppelin/contracts/access/Ownable.sol\":1240:1308  require(owner() == _msgSender(), \"Ownable: caller is not the owner\") */\n      tag_260\n      jumpi\n      mload(0x40)\n      shl(0xe5, 0x461bcd)\n      dup2\n      mstore\n      0x04\n      add\n      tag_118\n      swap1\n      tag_188\n      jump\t// in\n    tag_260:\n        /* \"contracts/Trazability_2.sol\":831:846  uint256 tokenId */\n      0x00\n        /* \"contracts/Trazability_2.sol\":849:874  _tokenIdCounter.current() */\n      tag_263\n        /* \"contracts/Trazability_2.sol\":849:864  _tokenIdCounter */\n      0x07\n        /* \"contracts/Trazability_2.sol\":849:872  _tokenIdCounter.current */\n      tag_264\n        /* \"contracts/Trazability_2.sol\":849:874  _tokenIdCounter.current() */\n      jump\t// in\n    tag_263:\n        /* \"contracts/Trazability_2.sol\":831:874  uint256 tokenId = _tokenIdCounter.current() */\n      swap1\n      pop\n        /* \"contracts/Trazability_2.sol\":885:912  _tokenIdCounter.increment() */\n      tag_265\n        /* \"contracts/Trazability_2.sol\":885:900  _tokenIdCounter */\n      0x07\n        /* \"contracts/Trazability_2.sol\":885:910  _tokenIdCounter.increment */\n      tag_266\n        /* \"contracts/Trazability_2.sol\":885:912  _tokenIdCounter.increment() */\n      jump\t// in\n    tag_265:\n        /* \"contracts/Trazability_2.sol\":923:945  _safeMint(to, tokenId) */\n      tag_267\n        /* \"contracts/Trazability_2.sol\":933:935  to */\n      dup5\n        /* \"contracts/Trazability_2.sol\":937:944  tokenId */\n      dup3\n        /* \"contracts/Trazability_2.sol\":923:932  _safeMint */\n      tag_268\n        /* \"contracts/Trazability_2.sol\":923:945  _safeMint(to, tokenId) */\n      jump\t// in\n    tag_267:\n        /* \"contracts/Trazability_2.sol\":956:977  _productData[tokenId] */\n      0x00\n      dup2\n      dup2\n      mstore\n        /* \"contracts/Trazability_2.sol\":956:968  _productData */\n      0x08\n        /* \"contracts/Trazability_2.sol\":956:977  _productData[tokenId] */\n      0x20\n      swap1\n      dup2\n      mstore\n      0x40\n      swap1\n      swap2\n      keccak256\n        /* \"contracts/Trazability_2.sol\":956:984  _productData[tokenId] = data */\n      dup5\n      mload\n      dup1\n      mload\n        /* \"contracts/Trazability_2.sol\":980:984  data */\n      dup7\n      swap4\n        /* \"contracts/Trazability_2.sol\":956:984  _productData[tokenId] = data */\n      tag_269\n      swap3\n        /* \"contracts/Trazability_2.sol\":956:977  _productData[tokenId] */\n      dup5\n      swap3\n        /* \"contracts/Trazability_2.sol\":956:984  _productData[tokenId] = data */\n      swap2\n      add\n      swap1\n      tag_270\n      jump\t// in\n    tag_269:\n      pop\n      0x20\n      dup3\n      dup2\n      add\n      mload\n      dup1\n      mload\n      tag_271\n      swap3\n      0x01\n      dup6\n      add\n      swap3\n      add\n      swap1\n      tag_270\n      jump\t// in\n    tag_271:\n      pop\n      0x40\n      dup3\n      add\n      mload\n      dup1\n      mload\n      tag_272\n      swap2\n      0x02\n      dup5\n      add\n      swap2\n      0x20\n      swap1\n      swap2\n      add\n      swap1\n      tag_270\n      jump\t// in\n    tag_272:\n      pop\n      0x60\n      dup3\n      add\n      mload\n      dup1\n      mload\n      tag_273\n      swap2\n      0x03\n      dup5\n      add\n      swap2\n      0x20\n      swap1\n      swap2\n      add\n      swap1\n      tag_270\n      jump\t// in\n    tag_273:\n      pop\n      pop\n        /* \"contracts/Trazability_2.sol\":1015:1022  data.id */\n      dup4\n      mload\n        /* \"contracts/Trazability_2.sol\":995:1023  _productIdToTokenId[data.id] */\n      mload(0x40)\n        /* \"contracts/Trazability_2.sol\":1026:1033  tokenId */\n      dup4\n      swap3\n      pop\n        /* \"contracts/Trazability_2.sol\":995:1014  _productIdToTokenId */\n      0x09\n      swap2\n        /* \"contracts/Trazability_2.sol\":995:1023  _productIdToTokenId[data.id] */\n      tag_274\n      swap2\n      tag_150\n      jump\t// in\n    tag_274:\n      swap1\n      dup2\n      mstore\n      mload(0x40)\n      swap1\n      dup2\n      swap1\n      sub\n      0x20\n      add\n      swap1\n      keccak256\n        /* \"contracts/Trazability_2.sol\":995:1033  _productIdToTokenId[data.id] = tokenId */\n      sstore\n        /* \"contracts/Trazability_2.sol\":1044:1078  _setTokenURI(tokenId, externalUri) */\n      tag_208\n        /* \"contracts/Trazability_2.sol\":1057:1064  tokenId */\n      dup2\n        /* \"contracts/Trazability_2.sol\":1066:1077  externalUri */\n      dup4\n        /* \"contracts/Trazability_2.sol\":1044:1056  _setTokenURI */\n      tag_276\n        /* \"contracts/Trazability_2.sol\":1044:1078  _setTokenURI(tokenId, externalUri) */\n      jump\t// in\n        /* \"@openzeppelin/contracts/token/ERC721/ERC721.sol\":1555:1855  function supportsInterface(bytes4 interfaceId) public view virtual override(ERC165, IERC165) returns (bool) {... */\n    tag_106:\n        /* \"@openzeppelin/contracts/token/ERC721/ERC721.sol\":1657:1661  bool */\n      0x00\n      not(sub(shl(0xe0, 0x01), 0x01))\n        /* \"@openzeppelin/contracts/token/ERC721/ERC721.sol\":1692:1732  interfaceId == type(IERC721).interfaceId */\n      dup3\n      and\n      shl(0xe0, 0x80ac58cd)\n      eq\n      dup1\n        /* \"@openzeppelin/contracts/token/ERC721/ERC721.sol\":1692:1796  interfaceId == type(IERC721).interfaceId ||... */\n      tag_278\n      jumpi\n      pop\n      not(sub(shl(0xe0, 0x01), 0x01))\n        /* \"@openzeppelin/contracts/token/ERC721/ERC721.sol\":1748:1796  interfaceId == type(IERC721Metadata).interfaceId */\n      dup3\n      and\n      shl(0xe0, 0x5b5e139f)\n      eq\n        /* \"@openzeppelin/contracts/token/ERC721/ERC721.sol\":1692:1796  interfaceId == type(IERC721).interfaceId ||... */\n    tag_278:\n        /* \"@openzeppelin/contracts/token/ERC721/ERC721.sol\":1692:1848  interfaceId == type(IERC721).interfaceId ||... */\n      dup1\n      tag_105\n      jumpi\n      pop\n        /* \"@openzeppelin/contracts/token/ERC721/ERC721.sol\":1812:1848  super.supportsInterface(interfaceId) */\n      tag_105\n        /* \"@openzeppelin/contracts/token/ERC721/ERC721.sol\":1836:1847  interfaceId */\n      dup3\n        /* \"@openzeppelin/contracts/token/ERC721/ERC721.sol\":1812:1835  super.supportsInterface */\n      tag_281\n        /* \"@openzeppelin/contracts/token/ERC721/ERC721.sol\":1812:1848  super.supportsInterface(interfaceId) */\n      jump\t// in\n        /* \"@openzeppelin/contracts/token/ERC721/ERC721.sol\":7144:7269  function _exists(uint256 tokenId) internal view virtual returns (bool) {... */\n    tag_116:\n        /* \"@openzeppelin/contracts/token/ERC721/ERC721.sol\":7209:7213  bool */\n      0x00\n        /* \"@openzeppelin/contracts/token/ERC721/ERC721.sol\":7232:7248  _owners[tokenId] */\n      swap1\n      dup2\n      mstore\n        /* \"@openzeppelin/contracts/token/ERC721/ERC721.sol\":7232:7239  _owners */\n      0x02\n        /* \"@openzeppelin/contracts/token/ERC721/ERC721.sol\":7232:7248  _owners[tokenId] */\n      0x20\n      mstore\n      0x40\n      swap1\n      keccak256\n      sload\n      sub(shl(0xa0, 0x01), 0x01)\n      and\n        /* \"@openzeppelin/contracts/token/ERC721/ERC721.sol\":7232:7262  _owners[tokenId] != address(0) */\n      iszero\n      iszero\n      swap1\n        /* \"@openzeppelin/contracts/token/ERC721/ERC721.sol\":7144:7269  function _exists(uint256 tokenId) internal view virtual returns (bool) {... */\n      jump\t// out\n        /* \"@openzeppelin/contracts/utils/Context.sol\":640:736  function _msgSender() internal view virtual returns (address) {... */\n    tag_126:\n        /* \"@openzeppelin/contracts/utils/Context.sol\":719:729  msg.sender */\n      caller\n        /* \"@openzeppelin/contracts/utils/Context.sol\":640:736  function _msgSender() internal view virtual returns (address) {... */\n      swap1\n      jump\t// out\n        /* \"@openzeppelin/contracts/token/ERC721/ERC721.sol\":10995:11166  function _approve(address to, uint256 tokenId) internal virtual {... */\n    tag_134:\n        /* \"@openzeppelin/contracts/token/ERC721/ERC721.sol\":11069:11093  _tokenApprovals[tokenId] */\n      0x00\n      dup2\n      dup2\n      mstore\n        /* \"@openzeppelin/contracts/token/ERC721/ERC721.sol\":11069:11084  _tokenApprovals */\n      0x04\n        /* \"@openzeppelin/contracts/token/ERC721/ERC721.sol\":11069:11093  _tokenApprovals[tokenId] */\n      0x20\n      mstore\n      0x40\n      swap1\n      keccak256\n        /* \"@openzeppelin/contracts/token/ERC721/ERC721.sol\":11069:11098  _tokenApprovals[tokenId] = to */\n      dup1\n      sload\n      not(sub(shl(0xa0, 0x01), 0x01))\n      and\n      sub(shl(0xa0, 0x01), 0x01)\n      dup5\n      and\n      swap1\n      dup2\n      or\n      swap1\n      swap2\n      sstore\n        /* \"@openzeppelin/contracts/token/ERC721/ERC721.sol\":11069:11093  _tokenApprovals[tokenId] */\n      dup2\n      swap1\n        /* \"@openzeppelin/contracts/token/ERC721/ERC721.sol\":11122:11145  ERC721.ownerOf(tokenId) */\n      tag_285\n        /* \"@openzeppelin/contracts/token/ERC721/ERC721.sol\":11069:11093  _tokenApprovals[tokenId] */\n      dup3\n        /* \"@openzeppelin/contracts/token/ERC721/ERC721.sol\":11122:11136  ERC721.ownerOf */\n      tag_60\n        /* \"@openzeppelin/contracts/token/ERC721/ERC721.sol\":11122:11145  ERC721.ownerOf(tokenId) */\n      jump\t// in\n    tag_285:\n      sub(shl(0xa0, 0x01), 0x01)\n        /* \"@openzeppelin/contracts/token/ERC721/ERC721.sol\":11113:11159  Approval(ERC721.ownerOf(tokenId), to, tokenId) */\n      and\n      0x8c5be1e5ebec7d5bd14f71427d1e84f3dd0314c0f7b2291e5b200ac8c7c3b925\n      mload(0x40)\n      mload(0x40)\n      dup1\n      swap2\n      sub\n      swap1\n      log4\n        /* \"@openzeppelin/contracts/token/ERC721/ERC721.sol\":10995:11166  function _approve(address to, uint256 tokenId) internal virtual {... */\n      pop\n      pop\n      jump\t// out\n        /* \"@openzeppelin/contracts/token/ERC721/ERC721.sol\":7427:7771  function _isApprovedOrOwner(address spender, uint256 tokenId) internal view virtual returns (bool) {... */\n    tag_138:\n        /* \"@openzeppelin/contracts/token/ERC721/ERC721.sol\":7520:7524  bool */\n      0x00\n        /* \"@openzeppelin/contracts/token/ERC721/ERC721.sol\":7544:7560  _exists(tokenId) */\n      tag_287\n        /* \"@openzeppelin/contracts/token/ERC721/ERC721.sol\":7552:7559  tokenId */\n      dup3\n        /* \"@openzeppelin/contracts/token/ERC721/ERC721.sol\":7544:7551  _exists */\n      tag_116\n        /* \"@openzeppelin/contracts/token/ERC721/ERC721.sol\":7544:7560  _exists(tokenId) */\n      jump\t// in\n    tag_287:\n        /* \"@openzeppelin/contracts/token/ERC721/ERC721.sol\":7536:7609  require(_exists(tokenId), \"ERC721: operator query for nonexistent token\") */\n      tag_288\n      jumpi\n      mload(0x40)\n      shl(0xe5, 0x461bcd)\n      dup2\n      mstore\n      0x04\n      add\n      tag_118\n      swap1\n      tag_290\n      jump\t// in\n    tag_288:\n        /* \"@openzeppelin/contracts/token/ERC721/ERC721.sol\":7619:7632  address owner */\n      0x00\n        /* \"@openzeppelin/contracts/token/ERC721/ERC721.sol\":7635:7658  ERC721.ownerOf(tokenId) */\n      tag_291\n        /* \"@openzeppelin/contracts/token/ERC721/ERC721.sol\":7650:7657  tokenId */\n      dup4\n        /* \"@openzeppelin/contracts/token/ERC721/ERC721.sol\":7635:7649  ERC721.ownerOf */\n      tag_60\n        /* \"@openzeppelin/contracts/token/ERC721/ERC721.sol\":7635:7658  ERC721.ownerOf(tokenId) */\n      jump\t// in\n    tag_291:\n        /* \"@openzeppelin/contracts/token/ERC721/ERC721.sol\":7619:7658  address owner = ERC721.ownerOf(tokenId) */\n      swap1\n      pop\n        /* \"@openzeppelin/contracts/token/ERC721/ERC721.sol\":7687:7692  owner */\n      dup1\n      sub(shl(0xa0, 0x01), 0x01)\n        /* \"@openzeppelin/contracts/token/ERC721/ERC721.sol\":7676:7692  spender == owner */\n      and\n        /* \"@openzeppelin/contracts/token/ERC721/ERC721.sol\":7676:7683  spender */\n      dup5\n      sub(shl(0xa0, 0x01), 0x01)\n        /* \"@openzeppelin/contracts/token/ERC721/ERC721.sol\":7676:7692  spender == owner */\n      and\n      eq\n        /* \"@openzeppelin/contracts/token/ERC721/ERC721.sol\":7676:7727  spender == owner || getApproved(tokenId) == spender */\n      dup1\n      tag_292\n      jumpi\n      pop\n        /* \"@openzeppelin/contracts/token/ERC721/ERC721.sol\":7720:7727  spender */\n      dup4\n      sub(shl(0xa0, 0x01), 0x01)\n        /* \"@openzeppelin/contracts/token/ERC721/ERC721.sol\":7696:7727  getApproved(tokenId) == spender */\n      and\n        /* \"@openzeppelin/contracts/token/ERC721/ERC721.sol\":7696:7716  getApproved(tokenId) */\n      tag_293\n        /* \"@openzeppelin/contracts/token/ERC721/ERC721.sol\":7708:7715  tokenId */\n      dup5\n        /* \"@openzeppelin/contracts/token/ERC721/ERC721.sol\":7696:7707  getApproved */\n      tag_38\n        /* \"@openzeppelin/contracts/token/ERC721/ERC721.sol\":7696:7716  getApproved(tokenId) */\n      jump\t// in\n    tag_293:\n      sub(shl(0xa0, 0x01), 0x01)\n        /* \"@openzeppelin/contracts/token/ERC721/ERC721.sol\":7696:7727  getApproved(tokenId) == spender */\n      and\n      eq\n        /* \"@openzeppelin/contracts/token/ERC721/ERC721.sol\":7676:7727  spender == owner || getApproved(tokenId) == spender */\n    tag_292:\n        /* \"@openzeppelin/contracts/token/ERC721/ERC721.sol\":7676:7763  spender == owner || getApproved(tokenId) == spender || isApprovedForAll(owner, spender) */\n      dup1\n      tag_295\n      jumpi\n      pop\n        /* \"@openzeppelin/contracts/token/ERC721/ERC721.sol\":7731:7763  isApprovedForAll(owner, spender) */\n      tag_295\n        /* \"@openzeppelin/contracts/token/ERC721/ERC721.sol\":7748:7753  owner */\n      dup2\n        /* \"@openzeppelin/contracts/token/ERC721/ERC721.sol\":7755:7762  spender */\n      dup6\n        /* \"@openzeppelin/contracts/token/ERC721/ERC721.sol\":7731:7747  isApprovedForAll */\n      tag_95\n        /* \"@openzeppelin/contracts/token/ERC721/ERC721.sol\":7731:7763  isApprovedForAll(owner, spender) */\n      jump\t// in\n    tag_295:\n        /* \"@openzeppelin/contracts/token/ERC721/ERC721.sol\":7668:7764  return (spender == owner || getApproved(tokenId) == spender || isApprovedForAll(owner, spender)) */\n      swap5\n        /* \"@openzeppelin/contracts/token/ERC721/ERC721.sol\":7427:7771  function _isApprovedOrOwner(address spender, uint256 tokenId) internal view virtual returns (bool) {... */\n      swap4\n      pop\n      pop\n      pop\n      pop\n      jump\t// out\n        /* \"@openzeppelin/contracts/token/ERC721/ERC721.sol\":10324:10884  function _transfer(... */\n    tag_143:\n        /* \"@openzeppelin/contracts/token/ERC721/ERC721.sol\":10478:10482  from */\n      dup3\n      sub(shl(0xa0, 0x01), 0x01)\n        /* \"@openzeppelin/contracts/token/ERC721/ERC721.sol\":10451:10482  ERC721.ownerOf(tokenId) == from */\n      and\n        /* \"@openzeppelin/contracts/token/ERC721/ERC721.sol\":10451:10474  ERC721.ownerOf(tokenId) */\n      tag_297\n        /* \"@openzeppelin/contracts/token/ERC721/ERC721.sol\":10466:10473  tokenId */\n      dup3\n        /* \"@openzeppelin/contracts/token/ERC721/ERC721.sol\":10451:10465  ERC721.ownerOf */\n      tag_60\n        /* \"@openzeppelin/contracts/token/ERC721/ERC721.sol\":10451:10474  ERC721.ownerOf(tokenId) */\n      jump\t// in\n    tag_297:\n      sub(shl(0xa0, 0x01), 0x01)\n        /* \"@openzeppelin/contracts/token/ERC721/ERC721.sol\":10451:10482  ERC721.ownerOf(tokenId) == from */\n      and\n      eq\n        /* \"@openzeppelin/contracts/token/ERC721/ERC721.sol\":10443:10528  require(ERC721.ownerOf(tokenId) == from, \"ERC721: transfer of token that is not own\") */\n      tag_298\n      jumpi\n      mload(0x40)\n      shl(0xe5, 0x461bcd)\n      dup2\n      mstore\n      0x04\n      add\n      tag_118\n      swap1\n      tag_300\n      jump\t// in\n    tag_298:\n      sub(shl(0xa0, 0x01), 0x01)\n        /* \"@openzeppelin/contracts/token/ERC721/ERC721.sol\":10546:10562  to != address(0) */\n      dup3\n      and\n        /* \"@openzeppelin/contracts/token/ERC721/ERC721.sol\":10538:10603  require(to != address(0), \"ERC721: transfer to the zero address\") */\n      tag_301\n      jumpi\n      mload(0x40)\n      shl(0xe5, 0x461bcd)\n      dup2\n      mstore\n      0x04\n      add\n      tag_118\n      swap1\n      tag_303\n      jump\t// in\n    tag_301:\n        /* \"@openzeppelin/contracts/token/ERC721/ERC721.sol\":10614:10653  _beforeTokenTransfer(from, to, tokenId) */\n      tag_304\n        /* \"@openzeppelin/contracts/token/ERC721/ERC721.sol\":10635:10639  from */\n      dup4\n        /* \"@openzeppelin/contracts/token/ERC721/ERC721.sol\":10641:10643  to */\n      dup4\n        /* \"@openzeppelin/contracts/token/ERC721/ERC721.sol\":10645:10652  tokenId */\n      dup4\n        /* \"@openzeppelin/contracts/token/ERC721/ERC721.sol\":10614:10634  _beforeTokenTransfer */\n      tag_133\n        /* \"@openzeppelin/contracts/token/ERC721/ERC721.sol\":10614:10653  _beforeTokenTransfer(from, to, tokenId) */\n      jump\t// in\n    tag_304:\n        /* \"@openzeppelin/contracts/token/ERC721/ERC721.sol\":10715:10744  _approve(address(0), tokenId) */\n      tag_306\n        /* \"@openzeppelin/contracts/token/ERC721/ERC721.sol\":10732:10733  0 */\n      0x00\n        /* \"@openzeppelin/contracts/token/ERC721/ERC721.sol\":10736:10743  tokenId */\n      dup3\n        /* \"@openzeppelin/contracts/token/ERC721/ERC721.sol\":10715:10723  _approve */\n      tag_134\n        /* \"@openzeppelin/contracts/token/ERC721/ERC721.sol\":10715:10744  _approve(address(0), tokenId) */\n      jump\t// in\n    tag_306:\n      sub(shl(0xa0, 0x01), 0x01)\n        /* \"@openzeppelin/contracts/token/ERC721/ERC721.sol\":10755:10770  _balances[from] */\n      dup4\n      and\n      0x00\n      swap1\n      dup2\n      mstore\n        /* \"@openzeppelin/contracts/token/ERC721/ERC721.sol\":10755:10764  _balances */\n      0x03\n        /* \"@openzeppelin/contracts/token/ERC721/ERC721.sol\":10755:10770  _balances[from] */\n      0x20\n      mstore\n      0x40\n      dup2\n      keccak256\n        /* \"@openzeppelin/contracts/token/ERC721/ERC721.sol\":10755:10775  _balances[from] -= 1 */\n      dup1\n      sload\n        /* \"@openzeppelin/contracts/token/ERC721/ERC721.sol\":10774:10775  1 */\n      0x01\n      swap3\n        /* \"@openzeppelin/contracts/token/ERC721/ERC721.sol\":10755:10770  _balances[from] */\n      swap1\n        /* \"@openzeppelin/contracts/token/ERC721/ERC721.sol\":10755:10775  _balances[from] -= 1 */\n      tag_307\n      swap1\n        /* \"@openzeppelin/contracts/token/ERC721/ERC721.sol\":10774:10775  1 */\n      dup5\n      swap1\n        /* \"@openzeppelin/contracts/token/ERC721/ERC721.sol\":10755:10775  _balances[from] -= 1 */\n      tag_308\n      jump\t// in\n    tag_307:\n      swap1\n      swap2\n      sstore\n      pop\n      pop\n      sub(shl(0xa0, 0x01), 0x01)\n        /* \"@openzeppelin/contracts/token/ERC721/ERC721.sol\":10785:10798  _balances[to] */\n      dup3\n      and\n      0x00\n      swap1\n      dup2\n      mstore\n        /* \"@openzeppelin/contracts/token/ERC721/ERC721.sol\":10785:10794  _balances */\n      0x03\n        /* \"@openzeppelin/contracts/token/ERC721/ERC721.sol\":10785:10798  _balances[to] */\n      0x20\n      mstore\n      0x40\n      dup2\n      keccak256\n        /* \"@openzeppelin/contracts/token/ERC721/ERC721.sol\":10785:10803  _balances[to] += 1 */\n      dup1\n      sload\n        /* \"@openzeppelin/contracts/token/ERC721/ERC721.sol\":10802:10803  1 */\n      0x01\n      swap3\n        /* \"@openzeppelin/contracts/token/ERC721/ERC721.sol\":10785:10798  _balances[to] */\n      swap1\n        /* \"@openzeppelin/contracts/token/ERC721/ERC721.sol\":10785:10803  _balances[to] += 1 */\n      tag_309\n      swap1\n        /* \"@openzeppelin/contracts/token/ERC721/ERC721.sol\":10802:10803  1 */\n      dup5\n      swap1\n        /* \"@openzeppelin/contracts/token/ERC721/ERC721.sol\":10785:10803  _balances[to] += 1 */\n      tag_310\n      jump\t// in\n    tag_309:\n      swap1\n      swap2\n      sstore\n      pop\n      pop\n        /* \"@openzeppelin/contracts/token/ERC721/ERC721.sol\":10813:10829  _owners[tokenId] */\n      0x00\n      dup2\n      dup2\n      mstore\n        /* \"@openzeppelin/contracts/token/ERC721/ERC721.sol\":10813:10820  _owners */\n      0x02\n        /* \"@openzeppelin/contracts/token/ERC721/ERC721.sol\":10813:10829  _owners[tokenId] */\n      0x20\n      mstore\n      0x40\n      dup1\n      dup3\n      keccak256\n        /* \"@openzeppelin/contracts/token/ERC721/ERC721.sol\":10813:10834  _owners[tokenId] = to */\n      dup1\n      sload\n      not(sub(shl(0xa0, 0x01), 0x01))\n      and\n      sub(shl(0xa0, 0x01), 0x01)\n      dup7\n      dup2\n      and\n      swap2\n      dup3\n      or\n      swap1\n      swap3\n      sstore\n        /* \"@openzeppelin/contracts/token/ERC721/ERC721.sol\":10850:10877  Transfer(from, to, tokenId) */\n      swap2\n      mload\n        /* \"@openzeppelin/contracts/token/ERC721/ERC721.sol\":10813:10829  _owners[tokenId] */\n      dup5\n      swap4\n        /* \"@openzeppelin/contracts/token/ERC721/ERC721.sol\":10850:10877  Transfer(from, to, tokenId) */\n      swap2\n      dup8\n      and\n      swap2\n      0xddf252ad1be2c89b69c2b068fc378daa952ba7f163c4a11628f55a4df523b3ef\n      swap2\n      log4\n        /* \"@openzeppelin/contracts/token/ERC721/ERC721.sol\":10324:10884  function _transfer(... */\n      pop\n      pop\n      pop\n      jump\t// out\n        /* \"@openzeppelin/contracts/access/Ownable.sol\":2270:2457  function _transferOwnership(address newOwner) internal virtual {... */\n    tag_191:\n        /* \"@openzeppelin/contracts/access/Ownable.sol\":2362:2368  _owner */\n      0x06\n      dup1\n      sload\n      sub(shl(0xa0, 0x01), 0x01)\n        /* \"@openzeppelin/contracts/access/Ownable.sol\":2378:2395  _owner = newOwner */\n      dup4\n      dup2\n      and\n      not(sub(shl(0xa0, 0x01), 0x01))\n      dup4\n      and\n      dup2\n      or\n      swap1\n      swap4\n      sstore\n        /* \"@openzeppelin/contracts/access/Ownable.sol\":2410:2450  OwnershipTransferred(oldOwner, newOwner) */\n      mload(0x40)\n        /* \"@openzeppelin/contracts/access/Ownable.sol\":2362:2368  _owner */\n      swap2\n      and\n      swap2\n        /* \"@openzeppelin/contracts/access/Ownable.sol\":2378:2395  _owner = newOwner */\n      swap1\n        /* \"@openzeppelin/contracts/access/Ownable.sol\":2362:2368  _owner */\n      dup3\n      swap1\n        /* \"@openzeppelin/contracts/access/Ownable.sol\":2410:2450  OwnershipTransferred(oldOwner, newOwner) */\n      0x8be0079c531659141344cd1fd0a4f28419497f9722a3daafe3b4186f6b6457e0\n      swap1\n        /* \"@openzeppelin/contracts/access/Ownable.sol\":2343:2359  address oldOwner */\n      0x00\n      swap1\n        /* \"@openzeppelin/contracts/access/Ownable.sol\":2410:2450  OwnershipTransferred(oldOwner, newOwner) */\n      log3\n        /* \"@openzeppelin/contracts/access/Ownable.sol\":2270:2457  function _transferOwnership(address newOwner) internal virtual {... */\n      pop\n      pop\n      jump\t// out\n        /* \"@openzeppelin/contracts/token/ERC721/ERC721.sol\":11301:11608  function _setApprovalForAll(... */\n    tag_202:\n        /* \"@openzeppelin/contracts/token/ERC721/ERC721.sol\":11451:11459  operator */\n      dup2\n      sub(shl(0xa0, 0x01), 0x01)\n        /* \"@openzeppelin/contracts/token/ERC721/ERC721.sol\":11442:11459  owner != operator */\n      and\n        /* \"@openzeppelin/contracts/token/ERC721/ERC721.sol\":11442:11447  owner */\n      dup4\n      sub(shl(0xa0, 0x01), 0x01)\n        /* \"@openzeppelin/contracts/token/ERC721/ERC721.sol\":11442:11459  owner != operator */\n      and\n      eq\n      iszero\n        /* \"@openzeppelin/contracts/token/ERC721/ERC721.sol\":11434:11489  require(owner != operator, \"ERC721: approve to caller\") */\n      tag_313\n      jumpi\n      mload(0x40)\n      shl(0xe5, 0x461bcd)\n      dup2\n      mstore\n      0x04\n      add\n      tag_118\n      swap1\n      tag_315\n      jump\t// in\n    tag_313:\n      sub(shl(0xa0, 0x01), 0x01)\n        /* \"@openzeppelin/contracts/token/ERC721/ERC721.sol\":11499:11524  _operatorApprovals[owner] */\n      dup4\n      dup2\n      and\n      0x00\n      dup2\n      dup2\n      mstore\n        /* \"@openzeppelin/contracts/token/ERC721/ERC721.sol\":11499:11517  _operatorApprovals */\n      0x05\n        /* \"@openzeppelin/contracts/token/ERC721/ERC721.sol\":11499:11524  _operatorApprovals[owner] */\n      0x20\n      swap1\n      dup2\n      mstore\n      0x40\n      dup1\n      dup4\n      keccak256\n        /* \"@openzeppelin/contracts/token/ERC721/ERC721.sol\":11499:11534  _operatorApprovals[owner][operator] */\n      swap5\n      dup8\n      and\n      dup1\n      dup5\n      mstore\n      swap5\n      swap1\n      swap2\n      mstore\n      swap1\n      dup2\n      swap1\n      keccak256\n        /* \"@openzeppelin/contracts/token/ERC721/ERC721.sol\":11499:11545  _operatorApprovals[owner][operator] = approved */\n      dup1\n      sload\n      not(0xff)\n      and\n      dup6\n      iszero\n      iszero\n      or\n      swap1\n      sstore\n        /* \"@openzeppelin/contracts/token/ERC721/ERC721.sol\":11560:11601  ApprovalForAll(owner, operator, approved) */\n      mload\n      0x17307eab39ab6107e8899845ad3d59bd9653f200f220920489ca2b5937696c31\n      swap1\n      tag_316\n      swap1\n        /* \"@openzeppelin/contracts/token/ERC721/ERC721.sol\":11499:11545  _operatorApprovals[owner][operator] = approved */\n      dup6\n      swap1\n        /* \"@openzeppelin/contracts/token/ERC721/ERC721.sol\":11560:11601  ApprovalForAll(owner, operator, approved) */\n      tag_30\n      jump\t// in\n    tag_316:\n      mload(0x40)\n      dup1\n      swap2\n      sub\n      swap1\n      log3\n        /* \"@openzeppelin/contracts/token/ERC721/ERC721.sol\":11301:11608  function _setApprovalForAll(... */\n      pop\n      pop\n      pop\n      jump\t// out\n        /* \"@openzeppelin/contracts/token/ERC721/ERC721.sol\":6534:6841  function _safeTransfer(... */\n    tag_209:\n        /* \"@openzeppelin/contracts/token/ERC721/ERC721.sol\":6685:6713  _transfer(from, to, tokenId) */\n      tag_318\n        /* \"@openzeppelin/contracts/token/ERC721/ERC721.sol\":6695:6699  from */\n      dup5\n        /* \"@openzeppelin/contracts/token/ERC721/ERC721.sol\":6701:6703  to */\n      dup5\n        /* \"@openzeppelin/contracts/token/ERC721/ERC721.sol\":6705:6712  tokenId */\n      dup5\n        /* \"@openzeppelin/contracts/token/ERC721/ERC721.sol\":6685:6694  _transfer */\n      tag_143\n        /* \"@openzeppelin/contracts/token/ERC721/ERC721.sol\":6685:6713  _transfer(from, to, tokenId) */\n      jump\t// in\n    tag_318:\n        /* \"@openzeppelin/contracts/token/ERC721/ERC721.sol\":6731:6779  _checkOnERC721Received(from, to, tokenId, _data) */\n      tag_319\n        /* \"@openzeppelin/contracts/token/ERC721/ERC721.sol\":6754:6758  from */\n      dup5\n        /* \"@openzeppelin/contracts/token/ERC721/ERC721.sol\":6760:6762  to */\n      dup5\n        /* \"@openzeppelin/contracts/token/ERC721/ERC721.sol\":6764:6771  tokenId */\n      dup5\n        /* \"@openzeppelin/contracts/token/ERC721/ERC721.sol\":6773:6778  _data */\n      dup5\n        /* \"@openzeppelin/contracts/token/ERC721/ERC721.sol\":6731:6753  _checkOnERC721Received */\n      tag_320\n        /* \"@openzeppelin/contracts/token/ERC721/ERC721.sol\":6731:6779  _checkOnERC721Received(from, to, tokenId, _data) */\n      jump\t// in\n    tag_319:\n        /* \"@openzeppelin/contracts/token/ERC721/ERC721.sol\":6723:6834  require(_checkOnERC721Received(from, to, tokenId, _data), \"ERC721: transfer to non ERC721Receiver implementer\") */\n      tag_208\n      jumpi\n      mload(0x40)\n      shl(0xe5, 0x461bcd)\n      dup2\n      mstore\n      0x04\n      add\n      tag_118\n      swap1\n      tag_323\n      jump\t// in\n        /* \"@openzeppelin/contracts/utils/Counters.sol\":827:939  function current(Counter storage counter) internal view returns (uint256) {... */\n    tag_264:\n        /* \"@openzeppelin/contracts/utils/Counters.sol\":918:932  counter._value */\n      sload\n      swap1\n        /* \"@openzeppelin/contracts/utils/Counters.sol\":827:939  function current(Counter storage counter) internal view returns (uint256) {... */\n      jump\t// out\n        /* \"@openzeppelin/contracts/utils/Counters.sol\":945:1068  function increment(Counter storage counter) internal {... */\n    tag_266:\n        /* \"@openzeppelin/contracts/utils/Counters.sol\":1032:1051  counter._value += 1 */\n      dup1\n      sload\n        /* \"@openzeppelin/contracts/utils/Counters.sol\":1050:1051  1 */\n      0x01\n        /* \"@openzeppelin/contracts/utils/Counters.sol\":1032:1051  counter._value += 1 */\n      add\n      swap1\n      sstore\n        /* \"@openzeppelin/contracts/utils/Counters.sol\":945:1068  function increment(Counter storage counter) internal {... */\n      jump\t// out\n        /* \"@openzeppelin/contracts/token/ERC721/ERC721.sol\":8101:8209  function _safeMint(address to, uint256 tokenId) internal virtual {... */\n    tag_268:\n        /* \"@openzeppelin/contracts/token/ERC721/ERC721.sol\":8176:8202  _safeMint(to, tokenId, \"\") */\n      tag_200\n        /* \"@openzeppelin/contracts/token/ERC721/ERC721.sol\":8186:8188  to */\n      dup3\n        /* \"@openzeppelin/contracts/token/ERC721/ERC721.sol\":8190:8197  tokenId */\n      dup3\n        /* \"@openzeppelin/contracts/token/ERC721/ERC721.sol\":8176:8202  _safeMint(to, tokenId, \"\") */\n      mload(0x40)\n      dup1\n      0x20\n      add\n      0x40\n      mstore\n      dup1\n      0x00\n      dup2\n      mstore\n      pop\n        /* \"@openzeppelin/contracts/token/ERC721/ERC721.sol\":8176:8185  _safeMint */\n      tag_328\n        /* \"@openzeppelin/contracts/token/ERC721/ERC721.sol\":8176:8202  _safeMint(to, tokenId, \"\") */\n      jump\t// in\n        /* \"contracts/Trazability_2.sol\":1564:1779  function _setTokenURI(uint256 tokenId, string memory _tokenURI) internal virtual {\r... */\n    tag_276:\n        /* \"contracts/Trazability_2.sol\":1664:1680  _exists(tokenId) */\n      tag_330\n        /* \"contracts/Trazability_2.sol\":1672:1679  tokenId */\n      dup3\n        /* \"contracts/Trazability_2.sol\":1664:1671  _exists */\n      tag_116\n        /* \"contracts/Trazability_2.sol\":1664:1680  _exists(tokenId) */\n      jump\t// in\n    tag_330:\n        /* \"contracts/Trazability_2.sol\":1656:1729  require(_exists(tokenId), \"ERC721Metadata: URI set of nonexistent token\") */\n      tag_331\n      jumpi\n      mload(0x40)\n      shl(0xe5, 0x461bcd)\n      dup2\n      mstore\n      0x04\n      add\n      tag_118\n      swap1\n      tag_333\n      jump\t// in\n    tag_331:\n        /* \"contracts/Trazability_2.sol\":1740:1759  _tokenURIs[tokenId] */\n      0x00\n      dup3\n      dup2\n      mstore\n        /* \"contracts/Trazability_2.sol\":1740:1750  _tokenURIs */\n      0x0a\n        /* \"contracts/Trazability_2.sol\":1740:1759  _tokenURIs[tokenId] */\n      0x20\n      swap1\n      dup2\n      mstore\n      0x40\n      swap1\n      swap2\n      keccak256\n        /* \"contracts/Trazability_2.sol\":1740:1771  _tokenURIs[tokenId] = _tokenURI */\n      dup3\n      mload\n      tag_133\n      swap3\n      dup5\n      add\n      swap1\n      tag_270\n      jump\t// in\n        /* \"@openzeppelin/contracts/utils/introspection/ERC165.sol\":829:984  function supportsInterface(bytes4 interfaceId) public view virtual override returns (bool) {... */\n    tag_281:\n      not(sub(shl(0xe0, 0x01), 0x01))\n        /* \"@openzeppelin/contracts/utils/introspection/ERC165.sol\":937:977  interfaceId == type(IERC165).interfaceId */\n      dup2\n      and\n      shl(0xe0, 0x01ffc9a7)\n      eq\n        /* \"@openzeppelin/contracts/utils/introspection/ERC165.sol\":829:984  function supportsInterface(bytes4 interfaceId) public view virtual override returns (bool) {... */\n      swap2\n      swap1\n      pop\n      jump\t// out\n        /* \"@openzeppelin/contracts/token/ERC721/ERC721.sol\":12161:12939  function _checkOnERC721Received(... */\n    tag_320:\n        /* \"@openzeppelin/contracts/token/ERC721/ERC721.sol\":12311:12315  bool */\n      0x00\n        /* \"@openzeppelin/contracts/token/ERC721/ERC721.sol\":12331:12346  to.isContract() */\n      tag_338\n        /* \"@openzeppelin/contracts/token/ERC721/ERC721.sol\":12331:12333  to */\n      dup5\n      sub(shl(0xa0, 0x01), 0x01)\n        /* \"@openzeppelin/contracts/token/ERC721/ERC721.sol\":12331:12344  to.isContract */\n      and\n      tag_339\n        /* \"@openzeppelin/contracts/token/ERC721/ERC721.sol\":12331:12346  to.isContract() */\n      jump\t// in\n    tag_338:\n        /* \"@openzeppelin/contracts/token/ERC721/ERC721.sol\":12327:12933  if (to.isContract()) {... */\n      iszero\n      tag_340\n      jumpi\n        /* \"@openzeppelin/contracts/token/ERC721/ERC721.sol\":12382:12384  to */\n      dup4\n      sub(shl(0xa0, 0x01), 0x01)\n        /* \"@openzeppelin/contracts/token/ERC721/ERC721.sol\":12366:12402  IERC721Receiver(to).onERC721Received */\n      and\n      0x150b7a02\n        /* \"@openzeppelin/contracts/token/ERC721/ERC721.sol\":12403:12415  _msgSender() */\n      tag_341\n        /* \"@openzeppelin/contracts/token/ERC721/ERC721.sol\":12403:12413  _msgSender */\n      tag_126\n        /* \"@openzeppelin/contracts/token/ERC721/ERC721.sol\":12403:12415  _msgSender() */\n      jump\t// in\n    tag_341:\n        /* \"@openzeppelin/contracts/token/ERC721/ERC721.sol\":12417:12421  from */\n      dup8\n        /* \"@openzeppelin/contracts/token/ERC721/ERC721.sol\":12423:12430  tokenId */\n      dup7\n        /* \"@openzeppelin/contracts/token/ERC721/ERC721.sol\":12432:12437  _data */\n      dup7\n        /* \"@openzeppelin/contracts/token/ERC721/ERC721.sol\":12366:12438  IERC721Receiver(to).onERC721Received(_msgSender(), from, tokenId, _data) */\n      mload(0x40)\n      dup6\n      0xffffffff\n      and\n      0xe0\n      shl\n      dup2\n      mstore\n      0x04\n      add\n      tag_342\n      swap5\n      swap4\n      swap3\n      swap2\n      swap1\n      tag_343\n      jump\t// in\n    tag_342:\n      0x20\n      mload(0x40)\n      dup1\n      dup4\n      sub\n      dup2\n      0x00\n      dup8\n      dup1\n      extcodesize\n      iszero\n      dup1\n      iszero\n      tag_344\n      jumpi\n      0x00\n      dup1\n      revert\n    tag_344:\n      pop\n      gas\n      call\n      swap3\n      pop\n      pop\n      pop\n      dup1\n      iszero\n      tag_345\n      jumpi\n      pop\n      0x40\n      dup1\n      mload\n      0x1f\n      returndatasize\n      swap1\n      dup2\n      add\n      not(0x1f)\n      and\n      dup3\n      add\n      swap1\n      swap3\n      mstore\n      tag_346\n      swap2\n      dup2\n      add\n      swap1\n      tag_347\n      jump\t// in\n    tag_346:\n      0x01\n    tag_345:\n        /* \"@openzeppelin/contracts/token/ERC721/ERC721.sol\":12362:12881  try IERC721Receiver(to).onERC721Received(_msgSender(), from, tokenId, _data) returns (bytes4 retval) {... */\n      tag_348\n      jumpi\n      returndatasize\n      dup1\n      dup1\n      iszero\n      tag_352\n      jumpi\n      mload(0x40)\n      swap2\n      pop\n      and(add(returndatasize, 0x3f), not(0x1f))\n      dup3\n      add\n      0x40\n      mstore\n      returndatasize\n      dup3\n      mstore\n      returndatasize\n      0x00\n      0x20\n      dup5\n      add\n      returndatacopy\n      jump(tag_351)\n    tag_352:\n      0x60\n      swap2\n      pop\n    tag_351:\n      pop\n        /* \"@openzeppelin/contracts/token/ERC721/ERC721.sol\":12605:12618  reason.length */\n      dup1\n      mload\n        /* \"@openzeppelin/contracts/token/ERC721/ERC721.sol\":12601:12867  if (reason.length == 0) {... */\n      tag_353\n      jumpi\n        /* \"@openzeppelin/contracts/token/ERC721/ERC721.sol\":12647:12707  revert(\"ERC721: transfer to non ERC721Receiver implementer\") */\n      mload(0x40)\n      shl(0xe5, 0x461bcd)\n      dup2\n      mstore\n      0x04\n      add\n      tag_118\n      swap1\n      tag_323\n      jump\t// in\n        /* \"@openzeppelin/contracts/token/ERC721/ERC721.sol\":12601:12867  if (reason.length == 0) {... */\n    tag_353:\n        /* \"@openzeppelin/contracts/token/ERC721/ERC721.sol\":12819:12825  reason */\n      dup1\n        /* \"@openzeppelin/contracts/token/ERC721/ERC721.sol\":12813:12826  mload(reason) */\n      mload\n        /* \"@openzeppelin/contracts/token/ERC721/ERC721.sol\":12804:12810  reason */\n      dup2\n        /* \"@openzeppelin/contracts/token/ERC721/ERC721.sol\":12800:12802  32 */\n      0x20\n        /* \"@openzeppelin/contracts/token/ERC721/ERC721.sol\":12796:12811  add(32, reason) */\n      add\n        /* \"@openzeppelin/contracts/token/ERC721/ERC721.sol\":12789:12827  revert(add(32, reason), mload(reason)) */\n      revert\n        /* \"@openzeppelin/contracts/token/ERC721/ERC721.sol\":12362:12881  try IERC721Receiver(to).onERC721Received(_msgSender(), from, tokenId, _data) returns (bytes4 retval) {... */\n    tag_348:\n      not(sub(shl(0xe0, 0x01), 0x01))\n        /* \"@openzeppelin/contracts/token/ERC721/ERC721.sol\":12488:12539  retval == IERC721Receiver.onERC721Received.selector */\n      and\n      shl(0xe1, 0x0a85bd01)\n      eq\n      swap1\n      pop\n        /* \"@openzeppelin/contracts/token/ERC721/ERC721.sol\":12481:12539  return retval == IERC721Receiver.onERC721Received.selector */\n      jump(tag_295)\n        /* \"@openzeppelin/contracts/token/ERC721/ERC721.sol\":12327:12933  if (to.isContract()) {... */\n    tag_340:\n      pop\n        /* \"@openzeppelin/contracts/token/ERC721/ERC721.sol\":12918:12922  true */\n      0x01\n        /* \"@openzeppelin/contracts/token/ERC721/ERC721.sol\":12161:12939  function _checkOnERC721Received(... */\n      swap5\n      swap4\n      pop\n      pop\n      pop\n      pop\n      jump\t// out\n        /* \"@openzeppelin/contracts/token/ERC721/ERC721.sol\":8430:8741  function _safeMint(... */\n    tag_328:\n        /* \"@openzeppelin/contracts/token/ERC721/ERC721.sol\":8555:8573  _mint(to, tokenId) */\n      tag_359\n        /* \"@openzeppelin/contracts/token/ERC721/ERC721.sol\":8561:8563  to */\n      dup4\n        /* \"@openzeppelin/contracts/token/ERC721/ERC721.sol\":8565:8572  tokenId */\n      dup4\n        /* \"@openzeppelin/contracts/token/ERC721/ERC721.sol\":8555:8560  _mint */\n      tag_360\n        /* \"@openzeppelin/contracts/token/ERC721/ERC721.sol\":8555:8573  _mint(to, tokenId) */\n      jump\t// in\n    tag_359:\n        /* \"@openzeppelin/contracts/token/ERC721/ERC721.sol\":8604:8658  _checkOnERC721Received(address(0), to, tokenId, _data) */\n      tag_361\n        /* \"@openzeppelin/contracts/token/ERC721/ERC721.sol\":8635:8636  0 */\n      0x00\n        /* \"@openzeppelin/contracts/token/ERC721/ERC721.sol\":8639:8641  to */\n      dup5\n        /* \"@openzeppelin/contracts/token/ERC721/ERC721.sol\":8643:8650  tokenId */\n      dup5\n        /* \"@openzeppelin/contracts/token/ERC721/ERC721.sol\":8652:8657  _data */\n      dup5\n        /* \"@openzeppelin/contracts/token/ERC721/ERC721.sol\":8604:8626  _checkOnERC721Received */\n      tag_320\n        /* \"@openzeppelin/contracts/token/ERC721/ERC721.sol\":8604:8658  _checkOnERC721Received(address(0), to, tokenId, _data) */\n      jump\t// in\n    tag_361:\n        /* \"@openzeppelin/contracts/token/ERC721/ERC721.sol\":8583:8734  require(... */\n      tag_133\n      jumpi\n      mload(0x40)\n      shl(0xe5, 0x461bcd)\n      dup2\n      mstore\n      0x04\n      add\n      tag_118\n      swap1\n      tag_323\n      jump\t// in\n        /* \"@openzeppelin/contracts/utils/Address.sol\":771:1148  function isContract(address account) internal view returns (bool) {... */\n    tag_339:\n        /* \"@openzeppelin/contracts/utils/Address.sol\":1087:1107  extcodesize(account) */\n      extcodesize\n        /* \"@openzeppelin/contracts/utils/Address.sol\":1133:1141  size > 0 */\n      iszero\n      iszero\n      swap1\n        /* \"@openzeppelin/contracts/utils/Address.sol\":771:1148  function isContract(address account) internal view returns (bool) {... */\n      jump\t// out\n        /* \"@openzeppelin/contracts/token/ERC721/ERC721.sol\":9063:9435  function _mint(address to, uint256 tokenId) internal virtual {... */\n    tag_360:\n      sub(shl(0xa0, 0x01), 0x01)\n        /* \"@openzeppelin/contracts/token/ERC721/ERC721.sol\":9142:9158  to != address(0) */\n      dup3\n      and\n        /* \"@openzeppelin/contracts/token/ERC721/ERC721.sol\":9134:9195  require(to != address(0), \"ERC721: mint to the zero address\") */\n      tag_366\n      jumpi\n      mload(0x40)\n      shl(0xe5, 0x461bcd)\n      dup2\n      mstore\n      0x04\n      add\n      tag_118\n      swap1\n      tag_368\n      jump\t// in\n    tag_366:\n        /* \"@openzeppelin/contracts/token/ERC721/ERC721.sol\":9214:9230  _exists(tokenId) */\n      tag_369\n        /* \"@openzeppelin/contracts/token/ERC721/ERC721.sol\":9222:9229  tokenId */\n      dup2\n        /* \"@openzeppelin/contracts/token/ERC721/ERC721.sol\":9214:9221  _exists */\n      tag_116\n        /* \"@openzeppelin/contracts/token/ERC721/ERC721.sol\":9214:9230  _exists(tokenId) */\n      jump\t// in\n    tag_369:\n        /* \"@openzeppelin/contracts/token/ERC721/ERC721.sol\":9213:9230  !_exists(tokenId) */\n      iszero\n        /* \"@openzeppelin/contracts/token/ERC721/ERC721.sol\":9205:9263  require(!_exists(tokenId), \"ERC721: token already minted\") */\n      tag_370\n      jumpi\n      mload(0x40)\n      shl(0xe5, 0x461bcd)\n      dup2\n      mstore\n      0x04\n      add\n      tag_118\n      swap1\n      tag_372\n      jump\t// in\n    tag_370:\n        /* \"@openzeppelin/contracts/token/ERC721/ERC721.sol\":9274:9319  _beforeTokenTransfer(address(0), to, tokenId) */\n      tag_373\n        /* \"@openzeppelin/contracts/token/ERC721/ERC721.sol\":9303:9304  0 */\n      0x00\n        /* \"@openzeppelin/contracts/token/ERC721/ERC721.sol\":9307:9309  to */\n      dup4\n        /* \"@openzeppelin/contracts/token/ERC721/ERC721.sol\":9311:9318  tokenId */\n      dup4\n        /* \"@openzeppelin/contracts/token/ERC721/ERC721.sol\":9274:9294  _beforeTokenTransfer */\n      tag_133\n        /* \"@openzeppelin/contracts/token/ERC721/ERC721.sol\":9274:9319  _beforeTokenTransfer(address(0), to, tokenId) */\n      jump\t// in\n    tag_373:\n      sub(shl(0xa0, 0x01), 0x01)\n        /* \"@openzeppelin/contracts/token/ERC721/ERC721.sol\":9330:9343  _balances[to] */\n      dup3\n      and\n      0x00\n      swap1\n      dup2\n      mstore\n        /* \"@openzeppelin/contracts/token/ERC721/ERC721.sol\":9330:9339  _balances */\n      0x03\n        /* \"@openzeppelin/contracts/token/ERC721/ERC721.sol\":9330:9343  _balances[to] */\n      0x20\n      mstore\n      0x40\n      dup2\n      keccak256\n        /* \"@openzeppelin/contracts/token/ERC721/ERC721.sol\":9330:9348  _balances[to] += 1 */\n      dup1\n      sload\n        /* \"@openzeppelin/contracts/token/ERC721/ERC721.sol\":9347:9348  1 */\n      0x01\n      swap3\n        /* \"@openzeppelin/contracts/token/ERC721/ERC721.sol\":9330:9343  _balances[to] */\n      swap1\n        /* \"@openzeppelin/contracts/token/ERC721/ERC721.sol\":9330:9348  _balances[to] += 1 */\n      tag_374\n      swap1\n        /* \"@openzeppelin/contracts/token/ERC721/ERC721.sol\":9347:9348  1 */\n      dup5\n      swap1\n        /* \"@openzeppelin/contracts/token/ERC721/ERC721.sol\":9330:9348  _balances[to] += 1 */\n      tag_310\n      jump\t// in\n    tag_374:\n      swap1\n      swap2\n      sstore\n      pop\n      pop\n        /* \"@openzeppelin/contracts/token/ERC721/ERC721.sol\":9358:9374  _owners[tokenId] */\n      0x00\n      dup2\n      dup2\n      mstore\n        /* \"@openzeppelin/contracts/token/ERC721/ERC721.sol\":9358:9365  _owners */\n      0x02\n        /* \"@openzeppelin/contracts/token/ERC721/ERC721.sol\":9358:9374  _owners[tokenId] */\n      0x20\n      mstore\n      0x40\n      dup1\n      dup3\n      keccak256\n        /* \"@openzeppelin/contracts/token/ERC721/ERC721.sol\":9358:9379  _owners[tokenId] = to */\n      dup1\n      sload\n      not(sub(shl(0xa0, 0x01), 0x01))\n      and\n      sub(shl(0xa0, 0x01), 0x01)\n      dup7\n      and\n      swap1\n      dup2\n      or\n      swap1\n      swap2\n      sstore\n        /* \"@openzeppelin/contracts/token/ERC721/ERC721.sol\":9395:9428  Transfer(address(0), to, tokenId) */\n      swap1\n      mload\n        /* \"@openzeppelin/contracts/token/ERC721/ERC721.sol\":9358:9374  _owners[tokenId] */\n      dup4\n      swap3\n      swap1\n        /* \"@openzeppelin/contracts/token/ERC721/ERC721.sol\":9395:9428  Transfer(address(0), to, tokenId) */\n      0xddf252ad1be2c89b69c2b068fc378daa952ba7f163c4a11628f55a4df523b3ef\n      swap1\n        /* \"@openzeppelin/contracts/token/ERC721/ERC721.sol\":9358:9374  _owners[tokenId] */\n      dup3\n      swap1\n        /* \"@openzeppelin/contracts/token/ERC721/ERC721.sol\":9395:9428  Transfer(address(0), to, tokenId) */\n      log4\n        /* \"@openzeppelin/contracts/token/ERC721/ERC721.sol\":9063:9435  function _mint(address to, uint256 tokenId) internal virtual {... */\n      pop\n      pop\n      jump\t// out\n    tag_147:\n      mload(0x40)\n      dup1\n      0x80\n      add\n      0x40\n      mstore\n      dup1\n      0x60\n      dup2\n      mstore\n      0x20\n      add\n      0x60\n      dup2\n      mstore\n      0x20\n      add\n      0x60\n      dup2\n      mstore\n      0x20\n      add\n      0x60\n      dup2\n      mstore\n      pop\n      swap1\n      jump\t// out\n    tag_270:\n      dup3\n      dup1\n      sload\n      tag_375\n      swap1\n      tag_109\n      jump\t// in\n    tag_375:\n      swap1\n      0x00\n      mstore\n      keccak256(0x00, 0x20)\n      swap1\n      0x1f\n      add\n      0x20\n      swap1\n      div\n      dup2\n      add\n      swap3\n      dup3\n      tag_377\n      jumpi\n      0x00\n      dup6\n      sstore\n      jump(tag_380)\n    tag_377:\n      dup3\n      0x1f\n      lt\n      tag_378\n      jumpi\n      dup1\n      mload\n      not(0xff)\n      and\n      dup4\n      dup1\n      add\n      or\n      dup6\n      sstore\n      jump(tag_380)\n    tag_378:\n      dup3\n      dup1\n      add\n      0x01\n      add\n      dup6\n      sstore\n      dup3\n      iszero\n      tag_380\n      jumpi\n      swap2\n      dup3\n      add\n    tag_379:\n      dup3\n      dup2\n      gt\n      iszero\n      tag_380\n      jumpi\n      dup3\n      mload\n      dup3\n      sstore\n      swap2\n      0x20\n      add\n      swap2\n      swap1\n      0x01\n      add\n      swap1\n      jump(tag_379)\n    tag_380:\n      pop\n      tag_381\n      swap3\n      swap2\n      pop\n      tag_382\n      jump\t// in\n    tag_381:\n      pop\n      swap1\n      jump\t// out\n    tag_382:\n    tag_383:\n      dup1\n      dup3\n      gt\n      iszero\n      tag_381\n      jumpi\n      0x00\n      dup2\n      sstore\n      0x01\n      add\n      jump(tag_383)\n        /* \"#utility.yul\":14:423   */\n    tag_386:\n      0x00\n        /* \"#utility.yul\":114:132   */\n      0xffffffffffffffff\n        /* \"#utility.yul\":106:112   */\n      dup4\n        /* \"#utility.yul\":103:133   */\n      gt\n        /* \"#utility.yul\":100:102   */\n      iszero\n      tag_389\n      jumpi\n        /* \"#utility.yul\":136:154   */\n      tag_389\n      tag_390\n      jump\t// in\n    tag_389:\n        /* \"#utility.yul\":174:232   */\n      tag_391\n        /* \"#utility.yul\":220:222   */\n      0x1f\n        /* \"#utility.yul\":197:214   */\n      dup5\n      add\n      not(0x1f)\n        /* \"#utility.yul\":193:224   */\n      and\n        /* \"#utility.yul\":226:230   */\n      0x20\n        /* \"#utility.yul\":189:231   */\n      add\n        /* \"#utility.yul\":174:232   */\n      tag_392\n      jump\t// in\n    tag_391:\n        /* \"#utility.yul\":165:232   */\n      swap1\n      pop\n        /* \"#utility.yul\":255:261   */\n      dup3\n        /* \"#utility.yul\":248:253   */\n      dup2\n        /* \"#utility.yul\":241:262   */\n      mstore\n        /* \"#utility.yul\":295:298   */\n      dup4\n        /* \"#utility.yul\":286:292   */\n      dup4\n        /* \"#utility.yul\":281:284   */\n      dup4\n        /* \"#utility.yul\":277:293   */\n      add\n        /* \"#utility.yul\":274:299   */\n      gt\n        /* \"#utility.yul\":271:273   */\n      iszero\n      tag_393\n      jumpi\n        /* \"#utility.yul\":312:313   */\n      0x00\n        /* \"#utility.yul\":309:310   */\n      dup1\n        /* \"#utility.yul\":302:314   */\n      revert\n        /* \"#utility.yul\":271:273   */\n    tag_393:\n        /* \"#utility.yul\":361:367   */\n      dup3\n        /* \"#utility.yul\":356:359   */\n      dup3\n        /* \"#utility.yul\":349:353   */\n      0x20\n        /* \"#utility.yul\":342:347   */\n      dup4\n        /* \"#utility.yul\":338:354   */\n      add\n        /* \"#utility.yul\":325:368   */\n      calldatacopy\n        /* \"#utility.yul\":415:416   */\n      0x00\n        /* \"#utility.yul\":408:412   */\n      0x20\n        /* \"#utility.yul\":399:405   */\n      dup5\n        /* \"#utility.yul\":392:397   */\n      dup4\n        /* \"#utility.yul\":388:406   */\n      add\n        /* \"#utility.yul\":384:413   */\n      add\n        /* \"#utility.yul\":377:417   */\n      mstore\n        /* \"#utility.yul\":90:423   */\n      swap4\n      swap3\n      pop\n      pop\n      pop\n      jump\t// out\n        /* \"#utility.yul\":428:603   */\n    tag_394:\n        /* \"#utility.yul\":498:518   */\n      dup1\n      calldataload\n      sub(shl(0xa0, 0x01), 0x01)\n        /* \"#utility.yul\":547:578   */\n      dup2\n      and\n        /* \"#utility.yul\":537:579   */\n      dup2\n      eq\n        /* \"#utility.yul\":527:529   */\n      tag_104\n      jumpi\n        /* \"#utility.yul\":593:594   */\n      0x00\n        /* \"#utility.yul\":590:591   */\n      dup1\n        /* \"#utility.yul\":583:595   */\n      revert\n        /* \"#utility.yul\":608:841   */\n    tag_397:\n      0x00\n        /* \"#utility.yul\":706:709   */\n      dup3\n        /* \"#utility.yul\":699:703   */\n      0x1f\n        /* \"#utility.yul\":691:697   */\n      dup4\n        /* \"#utility.yul\":687:704   */\n      add\n        /* \"#utility.yul\":683:710   */\n      slt\n        /* \"#utility.yul\":673:675   */\n      tag_399\n      jumpi\n        /* \"#utility.yul\":728:733   */\n      dup1\n        /* \"#utility.yul\":721:726   */\n      dup2\n        /* \"#utility.yul\":714:734   */\n      revert\n        /* \"#utility.yul\":673:675   */\n    tag_399:\n        /* \"#utility.yul\":754:835   */\n      tag_400\n        /* \"#utility.yul\":831:834   */\n      dup4\n        /* \"#utility.yul\":822:828   */\n      dup4\n        /* \"#utility.yul\":809:829   */\n      calldataload\n        /* \"#utility.yul\":802:806   */\n      0x20\n        /* \"#utility.yul\":794:800   */\n      dup6\n        /* \"#utility.yul\":790:807   */\n      add\n        /* \"#utility.yul\":754:835   */\n      tag_386\n      jump\t// in\n    tag_400:\n        /* \"#utility.yul\":745:835   */\n      swap4\n        /* \"#utility.yul\":663:841   */\n      swap3\n      pop\n      pop\n      pop\n      jump\t// out\n        /* \"#utility.yul\":846:1044   */\n    tag_64:\n      0x00\n        /* \"#utility.yul\":958:960   */\n      0x20\n        /* \"#utility.yul\":946:955   */\n      dup3\n        /* \"#utility.yul\":937:944   */\n      dup5\n        /* \"#utility.yul\":933:956   */\n      sub\n        /* \"#utility.yul\":929:961   */\n      slt\n        /* \"#utility.yul\":926:928   */\n      iszero\n      tag_402\n      jumpi\n        /* \"#utility.yul\":979:985   */\n      dup1\n        /* \"#utility.yul\":971:977   */\n      dup2\n        /* \"#utility.yul\":964:986   */\n      revert\n        /* \"#utility.yul\":926:928   */\n    tag_402:\n        /* \"#utility.yul\":1007:1038   */\n      tag_400\n        /* \"#utility.yul\":1028:1037   */\n      dup3\n        /* \"#utility.yul\":1007:1038   */\n      tag_394\n      jump\t// in\n        /* \"#utility.yul\":1049:1323   */\n    tag_94:\n      0x00\n      dup1\n        /* \"#utility.yul\":1178:1180   */\n      0x40\n        /* \"#utility.yul\":1166:1175   */\n      dup4\n        /* \"#utility.yul\":1157:1164   */\n      dup6\n        /* \"#utility.yul\":1153:1176   */\n      sub\n        /* \"#utility.yul\":1149:1181   */\n      slt\n        /* \"#utility.yul\":1146:1148   */\n      iszero\n      tag_405\n      jumpi\n        /* \"#utility.yul\":1199:1205   */\n      dup1\n        /* \"#utility.yul\":1191:1197   */\n      dup2\n        /* \"#utility.yul\":1184:1206   */\n      revert\n        /* \"#utility.yul\":1146:1148   */\n    tag_405:\n        /* \"#utility.yul\":1227:1258   */\n      tag_406\n        /* \"#utility.yul\":1248:1257   */\n      dup4\n        /* \"#utility.yul\":1227:1258   */\n      tag_394\n      jump\t// in\n    tag_406:\n        /* \"#utility.yul\":1217:1258   */\n      swap2\n      pop\n        /* \"#utility.yul\":1277:1317   */\n      tag_407\n        /* \"#utility.yul\":1313:1315   */\n      0x20\n        /* \"#utility.yul\":1302:1311   */\n      dup5\n        /* \"#utility.yul\":1298:1316   */\n      add\n        /* \"#utility.yul\":1277:1317   */\n      tag_394\n      jump\t// in\n    tag_407:\n        /* \"#utility.yul\":1267:1317   */\n      swap1\n      pop\n        /* \"#utility.yul\":1136:1323   */\n      swap3\n      pop\n      swap3\n      swap1\n      pop\n      jump\t// out\n        /* \"#utility.yul\":1328:1670   */\n    tag_47:\n      0x00\n      dup1\n      0x00\n        /* \"#utility.yul\":1474:1476   */\n      0x60\n        /* \"#utility.yul\":1462:1471   */\n      dup5\n        /* \"#utility.yul\":1453:1460   */\n      dup7\n        /* \"#utility.yul\":1449:1472   */\n      sub\n        /* \"#utility.yul\":1445:1477   */\n      slt\n        /* \"#utility.yul\":1442:1444   */\n      iszero\n      tag_409\n      jumpi\n        /* \"#utility.yul\":1495:1501   */\n      dup1\n        /* \"#utility.yul\":1487:1493   */\n      dup2\n        /* \"#utility.yul\":1480:1502   */\n      revert\n        /* \"#utility.yul\":1442:1444   */\n    tag_409:\n        /* \"#utility.yul\":1523:1554   */\n      tag_410\n        /* \"#utility.yul\":1544:1553   */\n      dup5\n        /* \"#utility.yul\":1523:1554   */\n      tag_394\n      jump\t// in\n    tag_410:\n        /* \"#utility.yul\":1513:1554   */\n      swap3\n      pop\n        /* \"#utility.yul\":1573:1613   */\n      tag_411\n        /* \"#utility.yul\":1609:1611   */\n      0x20\n        /* \"#utility.yul\":1598:1607   */\n      dup6\n        /* \"#utility.yul\":1594:1612   */\n      add\n        /* \"#utility.yul\":1573:1613   */\n      tag_394\n      jump\t// in\n    tag_411:\n        /* \"#utility.yul\":1563:1613   */\n      swap2\n      pop\n        /* \"#utility.yul\":1660:1662   */\n      0x40\n        /* \"#utility.yul\":1649:1658   */\n      dup5\n        /* \"#utility.yul\":1645:1663   */\n      add\n        /* \"#utility.yul\":1632:1664   */\n      calldataload\n        /* \"#utility.yul\":1622:1664   */\n      swap1\n      pop\n        /* \"#utility.yul\":1432:1670   */\n      swap3\n      pop\n      swap3\n      pop\n      swap3\n      jump\t// out\n        /* \"#utility.yul\":1675:2377   */\n    tag_82:\n      0x00\n      dup1\n      0x00\n      dup1\n        /* \"#utility.yul\":1847:1850   */\n      0x80\n        /* \"#utility.yul\":1835:1844   */\n      dup6\n        /* \"#utility.yul\":1826:1833   */\n      dup8\n        /* \"#utility.yul\":1822:1845   */\n      sub\n        /* \"#utility.yul\":1818:1851   */\n      slt\n        /* \"#utility.yul\":1815:1817   */\n      iszero\n      tag_413\n      jumpi\n        /* \"#utility.yul\":1869:1875   */\n      dup1\n        /* \"#utility.yul\":1861:1867   */\n      dup2\n        /* \"#utility.yul\":1854:1876   */\n      revert\n        /* \"#utility.yul\":1815:1817   */\n    tag_413:\n        /* \"#utility.yul\":1897:1928   */\n      tag_414\n        /* \"#utility.yul\":1918:1927   */\n      dup6\n        /* \"#utility.yul\":1897:1928   */\n      tag_394\n      jump\t// in\n    tag_414:\n        /* \"#utility.yul\":1887:1928   */\n      swap4\n      pop\n        /* \"#utility.yul\":1947:1987   */\n      tag_415\n        /* \"#utility.yul\":1983:1985   */\n      0x20\n        /* \"#utility.yul\":1972:1981   */\n      dup7\n        /* \"#utility.yul\":1968:1986   */\n      add\n        /* \"#utility.yul\":1947:1987   */\n      tag_394\n      jump\t// in\n    tag_415:\n        /* \"#utility.yul\":1937:1987   */\n      swap3\n      pop\n        /* \"#utility.yul\":2034:2036   */\n      0x40\n        /* \"#utility.yul\":2023:2032   */\n      dup6\n        /* \"#utility.yul\":2019:2037   */\n      add\n        /* \"#utility.yul\":2006:2038   */\n      calldataload\n        /* \"#utility.yul\":1996:2038   */\n      swap2\n      pop\n        /* \"#utility.yul\":2089:2091   */\n      0x60\n        /* \"#utility.yul\":2078:2087   */\n      dup6\n        /* \"#utility.yul\":2074:2092   */\n      add\n        /* \"#utility.yul\":2061:2093   */\n      calldataload\n        /* \"#utility.yul\":2116:2134   */\n      0xffffffffffffffff\n        /* \"#utility.yul\":2108:2114   */\n      dup2\n        /* \"#utility.yul\":2105:2135   */\n      gt\n        /* \"#utility.yul\":2102:2104   */\n      iszero\n      tag_416\n      jumpi\n        /* \"#utility.yul\":2153:2159   */\n      dup2\n        /* \"#utility.yul\":2145:2151   */\n      dup3\n        /* \"#utility.yul\":2138:2160   */\n      revert\n        /* \"#utility.yul\":2102:2104   */\n    tag_416:\n        /* \"#utility.yul\":2181:2203   */\n      dup6\n      add\n        /* \"#utility.yul\":2234:2238   */\n      0x1f\n        /* \"#utility.yul\":2226:2239   */\n      dup2\n      add\n        /* \"#utility.yul\":2222:2249   */\n      dup8\n      sgt\n        /* \"#utility.yul\":2212:2214   */\n      tag_417\n      jumpi\n        /* \"#utility.yul\":2268:2274   */\n      dup2\n        /* \"#utility.yul\":2260:2266   */\n      dup3\n        /* \"#utility.yul\":2253:2275   */\n      revert\n        /* \"#utility.yul\":2212:2214   */\n    tag_417:\n        /* \"#utility.yul\":2296:2371   */\n      tag_418\n        /* \"#utility.yul\":2363:2370   */\n      dup8\n        /* \"#utility.yul\":2358:2360   */\n      dup3\n        /* \"#utility.yul\":2345:2361   */\n      calldataload\n        /* \"#utility.yul\":2340:2342   */\n      0x20\n        /* \"#utility.yul\":2336:2338   */\n      dup5\n        /* \"#utility.yul\":2332:2343   */\n      add\n        /* \"#utility.yul\":2296:2371   */\n      tag_386\n      jump\t// in\n    tag_418:\n        /* \"#utility.yul\":2286:2371   */\n      swap2\n      pop\n      pop\n        /* \"#utility.yul\":1805:2377   */\n      swap3\n      swap6\n      swap2\n      swap5\n      pop\n      swap3\n      pop\n      jump\t// out\n        /* \"#utility.yul\":2382:2751   */\n    tag_78:\n      0x00\n      dup1\n        /* \"#utility.yul\":2508:2510   */\n      0x40\n        /* \"#utility.yul\":2496:2505   */\n      dup4\n        /* \"#utility.yul\":2487:2494   */\n      dup6\n        /* \"#utility.yul\":2483:2506   */\n      sub\n        /* \"#utility.yul\":2479:2511   */\n      slt\n        /* \"#utility.yul\":2476:2478   */\n      iszero\n      tag_420\n      jumpi\n        /* \"#utility.yul\":2529:2535   */\n      dup2\n        /* \"#utility.yul\":2521:2527   */\n      dup3\n        /* \"#utility.yul\":2514:2536   */\n      revert\n        /* \"#utility.yul\":2476:2478   */\n    tag_420:\n        /* \"#utility.yul\":2557:2588   */\n      tag_421\n        /* \"#utility.yul\":2578:2587   */\n      dup4\n        /* \"#utility.yul\":2557:2588   */\n      tag_394\n      jump\t// in\n    tag_421:\n        /* \"#utility.yul\":2547:2588   */\n      swap2\n      pop\n        /* \"#utility.yul\":2638:2640   */\n      0x20\n        /* \"#utility.yul\":2627:2636   */\n      dup4\n        /* \"#utility.yul\":2623:2641   */\n      add\n        /* \"#utility.yul\":2610:2642   */\n      calldataload\n        /* \"#utility.yul\":2685:2690   */\n      dup1\n        /* \"#utility.yul\":2678:2691   */\n      iszero\n        /* \"#utility.yul\":2671:2692   */\n      iszero\n        /* \"#utility.yul\":2664:2669   */\n      dup2\n        /* \"#utility.yul\":2661:2693   */\n      eq\n        /* \"#utility.yul\":2651:2653   */\n      tag_422\n      jumpi\n        /* \"#utility.yul\":2712:2718   */\n      dup2\n        /* \"#utility.yul\":2704:2710   */\n      dup3\n        /* \"#utility.yul\":2697:2719   */\n      revert\n        /* \"#utility.yul\":2651:2653   */\n    tag_422:\n        /* \"#utility.yul\":2740:2745   */\n      dup1\n        /* \"#utility.yul\":2730:2745   */\n      swap2\n      pop\n      pop\n        /* \"#utility.yul\":2466:2751   */\n      swap3\n      pop\n      swap3\n      swap1\n      pop\n      jump\t// out\n        /* \"#utility.yul\":2756:4252   */\n    tag_102:\n      0x00\n      dup1\n      0x00\n        /* \"#utility.yul\":2941:2943   */\n      0x60\n        /* \"#utility.yul\":2929:2938   */\n      dup5\n        /* \"#utility.yul\":2920:2927   */\n      dup7\n        /* \"#utility.yul\":2916:2939   */\n      sub\n        /* \"#utility.yul\":2912:2944   */\n      slt\n        /* \"#utility.yul\":2909:2911   */\n      iszero\n      tag_424\n      jumpi\n        /* \"#utility.yul\":2962:2968   */\n      dup3\n        /* \"#utility.yul\":2954:2960   */\n      dup4\n        /* \"#utility.yul\":2947:2969   */\n      revert\n        /* \"#utility.yul\":2909:2911   */\n    tag_424:\n        /* \"#utility.yul\":2990:3021   */\n      tag_425\n        /* \"#utility.yul\":3011:3020   */\n      dup5\n        /* \"#utility.yul\":2990:3021   */\n      tag_394\n      jump\t// in\n    tag_425:\n        /* \"#utility.yul\":2980:3021   */\n      swap3\n      pop\n        /* \"#utility.yul\":3072:3074   */\n      0x20\n        /* \"#utility.yul\":3061:3070   */\n      dup5\n        /* \"#utility.yul\":3057:3075   */\n      add\n        /* \"#utility.yul\":3044:3076   */\n      calldataload\n        /* \"#utility.yul\":3095:3113   */\n      0xffffffffffffffff\n        /* \"#utility.yul\":3136:3138   */\n      dup1\n        /* \"#utility.yul\":3128:3134   */\n      dup3\n        /* \"#utility.yul\":3125:3139   */\n      gt\n        /* \"#utility.yul\":3122:3124   */\n      iszero\n      tag_426\n      jumpi\n        /* \"#utility.yul\":3157:3163   */\n      dup4\n        /* \"#utility.yul\":3149:3155   */\n      dup5\n        /* \"#utility.yul\":3142:3164   */\n      revert\n        /* \"#utility.yul\":3122:3124   */\n    tag_426:\n        /* \"#utility.yul\":3185:3207   */\n      swap1\n      dup6\n      add\n      swap1\n        /* \"#utility.yul\":3241:3245   */\n      0x80\n        /* \"#utility.yul\":3223:3239   */\n      dup3\n      dup9\n      sub\n        /* \"#utility.yul\":3219:3246   */\n      slt\n        /* \"#utility.yul\":3216:3218   */\n      iszero\n      tag_427\n      jumpi\n        /* \"#utility.yul\":3264:3270   */\n      dup4\n        /* \"#utility.yul\":3256:3262   */\n      dup5\n        /* \"#utility.yul\":3249:3271   */\n      revert\n        /* \"#utility.yul\":3216:3218   */\n    tag_427:\n        /* \"#utility.yul\":3295:3315   */\n      tag_428\n        /* \"#utility.yul\":3310:3314   */\n      0x80\n        /* \"#utility.yul\":3295:3315   */\n      tag_392\n      jump\t// in\n    tag_428:\n        /* \"#utility.yul\":3353:3355   */\n      dup3\n        /* \"#utility.yul\":3340:3356   */\n      calldataload\n        /* \"#utility.yul\":3381:3383   */\n      dup3\n        /* \"#utility.yul\":3371:3379   */\n      dup2\n        /* \"#utility.yul\":3368:3384   */\n      gt\n        /* \"#utility.yul\":3365:3367   */\n      iszero\n      tag_429\n      jumpi\n        /* \"#utility.yul\":3402:3408   */\n      dup6\n        /* \"#utility.yul\":3394:3400   */\n      dup7\n        /* \"#utility.yul\":3387:3409   */\n      revert\n        /* \"#utility.yul\":3365:3367   */\n    tag_429:\n        /* \"#utility.yul\":3434:3481   */\n      tag_430\n        /* \"#utility.yul\":3473:3480   */\n      dup10\n        /* \"#utility.yul\":3462:3470   */\n      dup3\n        /* \"#utility.yul\":3458:3460   */\n      dup7\n        /* \"#utility.yul\":3454:3471   */\n      add\n        /* \"#utility.yul\":3434:3481   */\n      tag_397\n      jump\t// in\n    tag_430:\n        /* \"#utility.yul\":3427:3432   */\n      dup3\n        /* \"#utility.yul\":3420:3482   */\n      mstore\n      pop\n        /* \"#utility.yul\":3528:3530   */\n      0x20\n        /* \"#utility.yul\":3524:3526   */\n      dup4\n        /* \"#utility.yul\":3520:3531   */\n      add\n        /* \"#utility.yul\":3507:3532   */\n      calldataload\n        /* \"#utility.yul\":3557:3559   */\n      dup3\n        /* \"#utility.yul\":3547:3555   */\n      dup2\n        /* \"#utility.yul\":3544:3560   */\n      gt\n        /* \"#utility.yul\":3541:3543   */\n      iszero\n      tag_431\n      jumpi\n        /* \"#utility.yul\":3578:3584   */\n      dup6\n        /* \"#utility.yul\":3570:3576   */\n      dup7\n        /* \"#utility.yul\":3563:3585   */\n      revert\n        /* \"#utility.yul\":3541:3543   */\n    tag_431:\n        /* \"#utility.yul\":3619:3666   */\n      tag_432\n        /* \"#utility.yul\":3658:3665   */\n      dup10\n        /* \"#utility.yul\":3647:3655   */\n      dup3\n        /* \"#utility.yul\":3643:3645   */\n      dup7\n        /* \"#utility.yul\":3639:3656   */\n      add\n        /* \"#utility.yul\":3619:3666   */\n      tag_397\n      jump\t// in\n    tag_432:\n        /* \"#utility.yul\":3614:3616   */\n      0x20\n        /* \"#utility.yul\":3607:3612   */\n      dup4\n        /* \"#utility.yul\":3603:3617   */\n      add\n        /* \"#utility.yul\":3596:3667   */\n      mstore\n      pop\n        /* \"#utility.yul\":3713:3715   */\n      0x40\n        /* \"#utility.yul\":3709:3711   */\n      dup4\n        /* \"#utility.yul\":3705:3716   */\n      add\n        /* \"#utility.yul\":3692:3717   */\n      calldataload\n        /* \"#utility.yul\":3742:3744   */\n      dup3\n        /* \"#utility.yul\":3732:3740   */\n      dup2\n        /* \"#utility.yul\":3729:3745   */\n      gt\n        /* \"#utility.yul\":3726:3728   */\n      iszero\n      tag_433\n      jumpi\n        /* \"#utility.yul\":3763:3769   */\n      dup6\n        /* \"#utility.yul\":3755:3761   */\n      dup7\n        /* \"#utility.yul\":3748:3770   */\n      revert\n        /* \"#utility.yul\":3726:3728   */\n    tag_433:\n        /* \"#utility.yul\":3804:3851   */\n      tag_434\n        /* \"#utility.yul\":3843:3850   */\n      dup10\n        /* \"#utility.yul\":3832:3840   */\n      dup3\n        /* \"#utility.yul\":3828:3830   */\n      dup7\n        /* \"#utility.yul\":3824:3841   */\n      add\n        /* \"#utility.yul\":3804:3851   */\n      tag_397\n      jump\t// in\n    tag_434:\n        /* \"#utility.yul\":3799:3801   */\n      0x40\n        /* \"#utility.yul\":3792:3797   */\n      dup4\n        /* \"#utility.yul\":3788:3802   */\n      add\n        /* \"#utility.yul\":3781:3852   */\n      mstore\n      pop\n        /* \"#utility.yul\":3898:3900   */\n      0x60\n        /* \"#utility.yul\":3894:3896   */\n      dup4\n        /* \"#utility.yul\":3890:3901   */\n      add\n        /* \"#utility.yul\":3877:3902   */\n      calldataload\n        /* \"#utility.yul\":3927:3929   */\n      dup3\n        /* \"#utility.yul\":3917:3925   */\n      dup2\n        /* \"#utility.yul\":3914:3930   */\n      gt\n        /* \"#utility.yul\":3911:3913   */\n      iszero\n      tag_435\n      jumpi\n        /* \"#utility.yul\":3948:3954   */\n      dup6\n        /* \"#utility.yul\":3940:3946   */\n      dup7\n        /* \"#utility.yul\":3933:3955   */\n      revert\n        /* \"#utility.yul\":3911:3913   */\n    tag_435:\n        /* \"#utility.yul\":3989:4036   */\n      tag_436\n        /* \"#utility.yul\":4028:4035   */\n      dup10\n        /* \"#utility.yul\":4017:4025   */\n      dup3\n        /* \"#utility.yul\":4013:4015   */\n      dup7\n        /* \"#utility.yul\":4009:4026   */\n      add\n        /* \"#utility.yul\":3989:4036   */\n      tag_397\n      jump\t// in\n    tag_436:\n        /* \"#utility.yul\":3984:3986   */\n      0x60\n        /* \"#utility.yul\":3973:3987   */\n      dup4\n      add\n        /* \"#utility.yul\":3966:4037   */\n      mstore\n      pop\n        /* \"#utility.yul\":3977:3982   */\n      swap4\n      pop\n        /* \"#utility.yul\":4114:4116   */\n      0x40\n        /* \"#utility.yul\":4099:4117   */\n      dup7\n      add\n        /* \"#utility.yul\":4086:4118   */\n      calldataload\n      swap2\n      pop\n        /* \"#utility.yul\":4130:4146   */\n      dup1\n      dup3\n      gt\n        /* \"#utility.yul\":4127:4129   */\n      iszero\n      tag_437\n      jumpi\n        /* \"#utility.yul\":4164:4170   */\n      dup3\n        /* \"#utility.yul\":4156:4162   */\n      dup4\n        /* \"#utility.yul\":4149:4171   */\n      revert\n        /* \"#utility.yul\":4127:4129   */\n    tag_437:\n      pop\n        /* \"#utility.yul\":4192:4246   */\n      tag_438\n        /* \"#utility.yul\":4238:4245   */\n      dup7\n        /* \"#utility.yul\":4227:4235   */\n      dup3\n        /* \"#utility.yul\":4216:4225   */\n      dup8\n        /* \"#utility.yul\":4212:4236   */\n      add\n        /* \"#utility.yul\":4192:4246   */\n      tag_397\n      jump\t// in\n    tag_438:\n        /* \"#utility.yul\":4182:4246   */\n      swap2\n      pop\n      pop\n        /* \"#utility.yul\":2899:4252   */\n      swap3\n      pop\n      swap3\n      pop\n      swap3\n      jump\t// out\n        /* \"#utility.yul\":4257:4523   */\n    tag_43:\n      0x00\n      dup1\n        /* \"#utility.yul\":4386:4388   */\n      0x40\n        /* \"#utility.yul\":4374:4383   */\n      dup4\n        /* \"#utility.yul\":4365:4372   */\n      dup6\n        /* \"#utility.yul\":4361:4384   */\n      sub\n        /* \"#utility.yul\":4357:4389   */\n      slt\n        /* \"#utility.yul\":4354:4356   */\n      iszero\n      tag_440\n      jumpi\n        /* \"#utility.yul\":4407:4413   */\n      dup2\n        /* \"#utility.yul\":4399:4405   */\n      dup3\n        /* \"#utility.yul\":4392:4414   */\n      revert\n        /* \"#utility.yul\":4354:4356   */\n    tag_440:\n        /* \"#utility.yul\":4435:4466   */\n      tag_441\n        /* \"#utility.yul\":4456:4465   */\n      dup4\n        /* \"#utility.yul\":4435:4466   */\n      tag_394\n      jump\t// in\n    tag_441:\n        /* \"#utility.yul\":4425:4466   */\n      swap5\n        /* \"#utility.yul\":4513:4515   */\n      0x20\n        /* \"#utility.yul\":4498:4516   */\n      swap4\n      swap1\n      swap4\n      add\n        /* \"#utility.yul\":4485:4517   */\n      calldataload\n      swap4\n      pop\n      pop\n      pop\n        /* \"#utility.yul\":4344:4523   */\n      jump\t// out\n        /* \"#utility.yul\":4528:4785   */\n    tag_27:\n      0x00\n        /* \"#utility.yul\":4639:4641   */\n      0x20\n        /* \"#utility.yul\":4627:4636   */\n      dup3\n        /* \"#utility.yul\":4618:4625   */\n      dup5\n        /* \"#utility.yul\":4614:4637   */\n      sub\n        /* \"#utility.yul\":4610:4642   */\n      slt\n        /* \"#utility.yul\":4607:4609   */\n      iszero\n      tag_443\n      jumpi\n        /* \"#utility.yul\":4660:4666   */\n      dup1\n        /* \"#utility.yul\":4652:4658   */\n      dup2\n        /* \"#utility.yul\":4645:4667   */\n      revert\n        /* \"#utility.yul\":4607:4609   */\n    tag_443:\n        /* \"#utility.yul\":4704:4713   */\n      dup2\n        /* \"#utility.yul\":4691:4714   */\n      calldataload\n        /* \"#utility.yul\":4723:4755   */\n      tag_400\n        /* \"#utility.yul\":4749:4754   */\n      dup2\n        /* \"#utility.yul\":4723:4755   */\n      tag_445\n      jump\t// in\n        /* \"#utility.yul\":4790:5051   */\n    tag_347:\n      0x00\n        /* \"#utility.yul\":4912:4914   */\n      0x20\n        /* \"#utility.yul\":4900:4909   */\n      dup3\n        /* \"#utility.yul\":4891:4898   */\n      dup5\n        /* \"#utility.yul\":4887:4910   */\n      sub\n        /* \"#utility.yul\":4883:4915   */\n      slt\n        /* \"#utility.yul\":4880:4882   */\n      iszero\n      tag_447\n      jumpi\n        /* \"#utility.yul\":4933:4939   */\n      dup1\n        /* \"#utility.yul\":4925:4931   */\n      dup2\n        /* \"#utility.yul\":4918:4940   */\n      revert\n        /* \"#utility.yul\":4880:4882   */\n    tag_447:\n        /* \"#utility.yul\":4970:4979   */\n      dup2\n        /* \"#utility.yul\":4964:4980   */\n      mload\n        /* \"#utility.yul\":4989:5021   */\n      tag_400\n        /* \"#utility.yul\":5015:5020   */\n      dup2\n        /* \"#utility.yul\":4989:5021   */\n      tag_445\n      jump\t// in\n        /* \"#utility.yul\":5056:5400   */\n    tag_54:\n      0x00\n        /* \"#utility.yul\":5178:5180   */\n      0x20\n        /* \"#utility.yul\":5166:5175   */\n      dup3\n        /* \"#utility.yul\":5157:5164   */\n      dup5\n        /* \"#utility.yul\":5153:5176   */\n      sub\n        /* \"#utility.yul\":5149:5181   */\n      slt\n        /* \"#utility.yul\":5146:5148   */\n      iszero\n      tag_450\n      jumpi\n        /* \"#utility.yul\":5199:5205   */\n      dup1\n        /* \"#utility.yul\":5191:5197   */\n      dup2\n        /* \"#utility.yul\":5184:5206   */\n      revert\n        /* \"#utility.yul\":5146:5148   */\n    tag_450:\n        /* \"#utility.yul\":5244:5253   */\n      dup2\n        /* \"#utility.yul\":5231:5254   */\n      calldataload\n        /* \"#utility.yul\":5277:5295   */\n      0xffffffffffffffff\n        /* \"#utility.yul\":5269:5275   */\n      dup2\n        /* \"#utility.yul\":5266:5296   */\n      gt\n        /* \"#utility.yul\":5263:5265   */\n      iszero\n      tag_451\n      jumpi\n        /* \"#utility.yul\":5314:5320   */\n      dup2\n        /* \"#utility.yul\":5306:5312   */\n      dup3\n        /* \"#utility.yul\":5299:5321   */\n      revert\n        /* \"#utility.yul\":5263:5265   */\n    tag_451:\n        /* \"#utility.yul\":5342:5394   */\n      tag_295\n        /* \"#utility.yul\":5386:5393   */\n      dup5\n        /* \"#utility.yul\":5377:5383   */\n      dup3\n        /* \"#utility.yul\":5366:5375   */\n      dup6\n        /* \"#utility.yul\":5362:5384   */\n      add\n        /* \"#utility.yul\":5342:5394   */\n      tag_397\n      jump\t// in\n        /* \"#utility.yul\":5405:5595   */\n    tag_37:\n      0x00\n        /* \"#utility.yul\":5517:5519   */\n      0x20\n        /* \"#utility.yul\":5505:5514   */\n      dup3\n        /* \"#utility.yul\":5496:5503   */\n      dup5\n        /* \"#utility.yul\":5492:5515   */\n      sub\n        /* \"#utility.yul\":5488:5520   */\n      slt\n        /* \"#utility.yul\":5485:5487   */\n      iszero\n      tag_454\n      jumpi\n        /* \"#utility.yul\":5538:5544   */\n      dup1\n        /* \"#utility.yul\":5530:5536   */\n      dup2\n        /* \"#utility.yul\":5523:5545   */\n      revert\n        /* \"#utility.yul\":5485:5487   */\n    tag_454:\n      pop\n        /* \"#utility.yul\":5566:5589   */\n      calldataload\n      swap2\n        /* \"#utility.yul\":5475:5595   */\n      swap1\n      pop\n      jump\t// out\n        /* \"#utility.yul\":5600:5859   */\n    tag_455:\n      0x00\n        /* \"#utility.yul\":5681:5686   */\n      dup2\n        /* \"#utility.yul\":5675:5687   */\n      mload\n        /* \"#utility.yul\":5708:5714   */\n      dup1\n        /* \"#utility.yul\":5703:5706   */\n      dup5\n        /* \"#utility.yul\":5696:5715   */\n      mstore\n        /* \"#utility.yul\":5724:5787   */\n      tag_457\n        /* \"#utility.yul\":5780:5786   */\n      dup2\n        /* \"#utility.yul\":5773:5777   */\n      0x20\n        /* \"#utility.yul\":5768:5771   */\n      dup7\n        /* \"#utility.yul\":5764:5778   */\n      add\n        /* \"#utility.yul\":5757:5761   */\n      0x20\n        /* \"#utility.yul\":5750:5755   */\n      dup7\n        /* \"#utility.yul\":5746:5762   */\n      add\n        /* \"#utility.yul\":5724:5787   */\n      tag_458\n      jump\t// in\n    tag_457:\n        /* \"#utility.yul\":5841:5843   */\n      0x1f\n        /* \"#utility.yul\":5820:5835   */\n      add\n      not(0x1f)\n        /* \"#utility.yul\":5816:5845   */\n      and\n        /* \"#utility.yul\":5807:5846   */\n      swap3\n      swap1\n      swap3\n      add\n        /* \"#utility.yul\":5848:5852   */\n      0x20\n        /* \"#utility.yul\":5803:5853   */\n      add\n      swap3\n        /* \"#utility.yul\":5651:5859   */\n      swap2\n      pop\n      pop\n      jump\t// out\n        /* \"#utility.yul\":5864:6140   */\n    tag_150:\n      0x00\n        /* \"#utility.yul\":6033:6039   */\n      dup3\n        /* \"#utility.yul\":6027:6040   */\n      mload\n        /* \"#utility.yul\":6049:6102   */\n      tag_460\n        /* \"#utility.yul\":6095:6101   */\n      dup2\n        /* \"#utility.yul\":6090:6093   */\n      dup5\n        /* \"#utility.yul\":6083:6087   */\n      0x20\n        /* \"#utility.yul\":6075:6081   */\n      dup8\n        /* \"#utility.yul\":6071:6088   */\n      add\n        /* \"#utility.yul\":6049:6102   */\n      tag_458\n      jump\t// in\n    tag_460:\n        /* \"#utility.yul\":6118:6134   */\n      swap2\n      swap1\n      swap2\n      add\n      swap3\n        /* \"#utility.yul\":6003:6140   */\n      swap2\n      pop\n      pop\n      jump\t// out\n        /* \"#utility.yul\":6145:6348   */\n    tag_40:\n      sub(shl(0xa0, 0x01), 0x01)\n        /* \"#utility.yul\":6309:6341   */\n      swap2\n      swap1\n      swap2\n      and\n        /* \"#utility.yul\":6291:6342   */\n      dup2\n      mstore\n        /* \"#utility.yul\":6279:6281   */\n      0x20\n        /* \"#utility.yul\":6264:6282   */\n      add\n      swap1\n        /* \"#utility.yul\":6246:6348   */\n      jump\t// out\n        /* \"#utility.yul\":6353:6843   */\n    tag_343:\n      sub(shl(0xa0, 0x01), 0x01)\n        /* \"#utility.yul\":6622:6637   */\n      dup6\n      dup2\n      and\n        /* \"#utility.yul\":6604:6638   */\n      dup3\n      mstore\n        /* \"#utility.yul\":6674:6689   */\n      dup5\n      and\n        /* \"#utility.yul\":6669:6671   */\n      0x20\n        /* \"#utility.yul\":6654:6672   */\n      dup3\n      add\n        /* \"#utility.yul\":6647:6690   */\n      mstore\n        /* \"#utility.yul\":6721:6723   */\n      0x40\n        /* \"#utility.yul\":6706:6724   */\n      dup2\n      add\n        /* \"#utility.yul\":6699:6733   */\n      dup4\n      swap1\n      mstore\n        /* \"#utility.yul\":6769:6772   */\n      0x80\n        /* \"#utility.yul\":6764:6766   */\n      0x60\n        /* \"#utility.yul\":6749:6767   */\n      dup3\n      add\n        /* \"#utility.yul\":6742:6773   */\n      dup2\n      swap1\n      mstore\n        /* \"#utility.yul\":6353:6843   */\n      0x00\n      swap1\n        /* \"#utility.yul\":6790:6837   */\n      tag_463\n      swap1\n        /* \"#utility.yul\":6817:6836   */\n      dup4\n      add\n        /* \"#utility.yul\":6809:6815   */\n      dup5\n        /* \"#utility.yul\":6790:6837   */\n      tag_455\n      jump\t// in\n    tag_463:\n        /* \"#utility.yul\":6782:6837   */\n      swap7\n        /* \"#utility.yul\":6556:6843   */\n      swap6\n      pop\n      pop\n      pop\n      pop\n      pop\n      pop\n      jump\t// out\n        /* \"#utility.yul\":6848:7035   */\n    tag_30:\n        /* \"#utility.yul\":7013:7027   */\n      swap1\n      iszero\n        /* \"#utility.yul\":7006:7028   */\n      iszero\n        /* \"#utility.yul\":6988:7029   */\n      dup2\n      mstore\n        /* \"#utility.yul\":6976:6978   */\n      0x20\n        /* \"#utility.yul\":6961:6979   */\n      add\n      swap1\n        /* \"#utility.yul\":6943:7035   */\n      jump\t// out\n        /* \"#utility.yul\":7040:7261   */\n    tag_34:\n      0x00\n        /* \"#utility.yul\":7189:7191   */\n      0x20\n        /* \"#utility.yul\":7178:7187   */\n      dup3\n        /* \"#utility.yul\":7171:7192   */\n      mstore\n        /* \"#utility.yul\":7209:7255   */\n      tag_400\n        /* \"#utility.yul\":7251:7253   */\n      0x20\n        /* \"#utility.yul\":7240:7249   */\n      dup4\n        /* \"#utility.yul\":7236:7254   */\n      add\n        /* \"#utility.yul\":7228:7234   */\n      dup5\n        /* \"#utility.yul\":7209:7255   */\n      tag_455\n      jump\t// in\n        /* \"#utility.yul\":7266:7680   */\n    tag_323:\n        /* \"#utility.yul\":7468:7470   */\n      0x20\n        /* \"#utility.yul\":7450:7471   */\n      dup1\n      dup3\n      mstore\n        /* \"#utility.yul\":7507:7509   */\n      0x32\n        /* \"#utility.yul\":7487:7505   */\n      swap1\n      dup3\n      add\n        /* \"#utility.yul\":7480:7510   */\n      mstore\n        /* \"#utility.yul\":7546:7580   */\n      0x4552433732313a207472616e7366657220746f206e6f6e204552433732315265\n        /* \"#utility.yul\":7541:7543   */\n      0x40\n        /* \"#utility.yul\":7526:7544   */\n      dup3\n      add\n        /* \"#utility.yul\":7519:7581   */\n      mstore\n      shl(0x71, 0x31b2b4bb32b91034b6b83632b6b2b73a32b9)\n        /* \"#utility.yul\":7612:7614   */\n      0x60\n        /* \"#utility.yul\":7597:7615   */\n      dup3\n      add\n        /* \"#utility.yul\":7590:7638   */\n      mstore\n        /* \"#utility.yul\":7670:7673   */\n      0x80\n        /* \"#utility.yul\":7655:7674   */\n      add\n      swap1\n        /* \"#utility.yul\":7440:7680   */\n      jump\t// out\n        /* \"#utility.yul\":7685:8087   */\n    tag_255:\n        /* \"#utility.yul\":7887:7889   */\n      0x20\n        /* \"#utility.yul\":7869:7890   */\n      dup1\n      dup3\n      mstore\n        /* \"#utility.yul\":7926:7928   */\n      0x26\n        /* \"#utility.yul\":7906:7924   */\n      swap1\n      dup3\n      add\n        /* \"#utility.yul\":7899:7929   */\n      mstore\n        /* \"#utility.yul\":7965:7999   */\n      0x4f776e61626c653a206e6577206f776e657220697320746865207a65726f2061\n        /* \"#utility.yul\":7960:7962   */\n      0x40\n        /* \"#utility.yul\":7945:7963   */\n      dup3\n      add\n        /* \"#utility.yul\":7938:8000   */\n      mstore\n      shl(0xd0, 0x646472657373)\n        /* \"#utility.yul\":8031:8033   */\n      0x60\n        /* \"#utility.yul\":8016:8034   */\n      dup3\n      add\n        /* \"#utility.yul\":8009:8045   */\n      mstore\n        /* \"#utility.yul\":8077:8080   */\n      0x80\n        /* \"#utility.yul\":8062:8081   */\n      add\n      swap1\n        /* \"#utility.yul\":7859:8087   */\n      jump\t// out\n        /* \"#utility.yul\":8092:8444   */\n    tag_372:\n        /* \"#utility.yul\":8294:8296   */\n      0x20\n        /* \"#utility.yul\":8276:8297   */\n      dup1\n      dup3\n      mstore\n        /* \"#utility.yul\":8333:8335   */\n      0x1c\n        /* \"#utility.yul\":8313:8331   */\n      swap1\n      dup3\n      add\n        /* \"#utility.yul\":8306:8336   */\n      mstore\n        /* \"#utility.yul\":8372:8402   */\n      0x4552433732313a20746f6b656e20616c7265616479206d696e74656400000000\n        /* \"#utility.yul\":8367:8369   */\n      0x40\n        /* \"#utility.yul\":8352:8370   */\n      dup3\n      add\n        /* \"#utility.yul\":8345:8403   */\n      mstore\n        /* \"#utility.yul\":8435:8437   */\n      0x60\n        /* \"#utility.yul\":8420:8438   */\n      add\n      swap1\n        /* \"#utility.yul\":8266:8444   */\n      jump\t// out\n        /* \"#utility.yul\":8449:8849   */\n    tag_303:\n        /* \"#utility.yul\":8651:8653   */\n      0x20\n        /* \"#utility.yul\":8633:8654   */\n      dup1\n      dup3\n      mstore\n        /* \"#utility.yul\":8690:8692   */\n      0x24\n        /* \"#utility.yul\":8670:8688   */\n      swap1\n      dup3\n      add\n        /* \"#utility.yul\":8663:8693   */\n      mstore\n        /* \"#utility.yul\":8729:8763   */\n      0x4552433732313a207472616e7366657220746f20746865207a65726f20616464\n        /* \"#utility.yul\":8724:8726   */\n      0x40\n        /* \"#utility.yul\":8709:8727   */\n      dup3\n      add\n        /* \"#utility.yul\":8702:8764   */\n      mstore\n      shl(0xe0, 0x72657373)\n        /* \"#utility.yul\":8795:8797   */\n      0x60\n        /* \"#utility.yul\":8780:8798   */\n      dup3\n      add\n        /* \"#utility.yul\":8773:8807   */\n      mstore\n        /* \"#utility.yul\":8839:8842   */\n      0x80\n        /* \"#utility.yul\":8824:8843   */\n      add\n      swap1\n        /* \"#utility.yul\":8623:8849   */\n      jump\t// out\n        /* \"#utility.yul\":8854:9203   */\n    tag_315:\n        /* \"#utility.yul\":9056:9058   */\n      0x20\n        /* \"#utility.yul\":9038:9059   */\n      dup1\n      dup3\n      mstore\n        /* \"#utility.yul\":9095:9097   */\n      0x19\n        /* \"#utility.yul\":9075:9093   */\n      swap1\n      dup3\n      add\n        /* \"#utility.yul\":9068:9098   */\n      mstore\n        /* \"#utility.yul\":9134:9161   */\n      0x4552433732313a20617070726f766520746f2063616c6c657200000000000000\n        /* \"#utility.yul\":9129:9131   */\n      0x40\n        /* \"#utility.yul\":9114:9132   */\n      dup3\n      add\n        /* \"#utility.yul\":9107:9162   */\n      mstore\n        /* \"#utility.yul\":9194:9196   */\n      0x60\n        /* \"#utility.yul\":9179:9197   */\n      add\n      swap1\n        /* \"#utility.yul\":9028:9203   */\n      jump\t// out\n        /* \"#utility.yul\":9208:9552   */\n    tag_225:\n        /* \"#utility.yul\":9410:9412   */\n      0x20\n        /* \"#utility.yul\":9392:9413   */\n      dup1\n      dup3\n      mstore\n        /* \"#utility.yul\":9449:9451   */\n      0x14\n        /* \"#utility.yul\":9429:9447   */\n      swap1\n      dup3\n      add\n        /* \"#utility.yul\":9422:9452   */\n      mstore\n      shl(0x62, 0x151bdad95b88191bd95cc81b9bdd08195e1a5cdd)\n        /* \"#utility.yul\":9483:9485   */\n      0x40\n        /* \"#utility.yul\":9468:9486   */\n      dup3\n      add\n        /* \"#utility.yul\":9461:9511   */\n      mstore\n        /* \"#utility.yul\":9543:9545   */\n      0x60\n        /* \"#utility.yul\":9528:9546   */\n      add\n      swap1\n        /* \"#utility.yul\":9382:9552   */\n      jump\t// out\n        /* \"#utility.yul\":9557:9906   */\n    tag_154:\n        /* \"#utility.yul\":9759:9761   */\n      0x20\n        /* \"#utility.yul\":9741:9762   */\n      dup1\n      dup3\n      mstore\n        /* \"#utility.yul\":9798:9800   */\n      0x19\n        /* \"#utility.yul\":9778:9796   */\n      swap1\n      dup3\n      add\n        /* \"#utility.yul\":9771:9801   */\n      mstore\n        /* \"#utility.yul\":9837:9864   */\n      0x50726f6475637420494420646f6573206e6f7420657869737400000000000000\n        /* \"#utility.yul\":9832:9834   */\n      0x40\n        /* \"#utility.yul\":9817:9835   */\n      dup3\n      add\n        /* \"#utility.yul\":9810:9865   */\n      mstore\n        /* \"#utility.yul\":9897:9899   */\n      0x60\n        /* \"#utility.yul\":9882:9900   */\n      add\n      swap1\n        /* \"#utility.yul\":9731:9906   */\n      jump\t// out\n        /* \"#utility.yul\":9911:10319   */\n    tag_290:\n        /* \"#utility.yul\":10113:10115   */\n      0x20\n        /* \"#utility.yul\":10095:10116   */\n      dup1\n      dup3\n      mstore\n        /* \"#utility.yul\":10152:10154   */\n      0x2c\n        /* \"#utility.yul\":10132:10150   */\n      swap1\n      dup3\n      add\n        /* \"#utility.yul\":10125:10155   */\n      mstore\n        /* \"#utility.yul\":10191:10225   */\n      0x4552433732313a206f70657261746f7220717565727920666f72206e6f6e6578\n        /* \"#utility.yul\":10186:10188   */\n      0x40\n        /* \"#utility.yul\":10171:10189   */\n      dup3\n      add\n        /* \"#utility.yul\":10164:10226   */\n      mstore\n      shl(0xa1, 0x34b9ba32b73a103a37b5b2b7)\n        /* \"#utility.yul\":10257:10259   */\n      0x60\n        /* \"#utility.yul\":10242:10260   */\n      dup3\n      add\n        /* \"#utility.yul\":10235:10277   */\n      mstore\n        /* \"#utility.yul\":10309:10312   */\n      0x80\n        /* \"#utility.yul\":10294:10313   */\n      add\n      swap1\n        /* \"#utility.yul\":10085:10319   */\n      jump\t// out\n        /* \"#utility.yul\":10324:10744   */\n    tag_132:\n        /* \"#utility.yul\":10526:10528   */\n      0x20\n        /* \"#utility.yul\":10508:10529   */\n      dup1\n      dup3\n      mstore\n        /* \"#utility.yul\":10565:10567   */\n      0x38\n        /* \"#utility.yul\":10545:10563   */\n      swap1\n      dup3\n      add\n        /* \"#utility.yul\":10538:10568   */\n      mstore\n        /* \"#utility.yul\":10604:10638   */\n      0x4552433732313a20617070726f76652063616c6c6572206973206e6f74206f77\n        /* \"#utility.yul\":10599:10601   */\n      0x40\n        /* \"#utility.yul\":10584:10602   */\n      dup3\n      add\n        /* \"#utility.yul\":10577:10639   */\n      mstore\n        /* \"#utility.yul\":10675:10701   */\n      0x6e6572206e6f7220617070726f76656420666f7220616c6c0000000000000000\n        /* \"#utility.yul\":10670:10672   */\n      0x60\n        /* \"#utility.yul\":10655:10673   */\n      dup3\n      add\n        /* \"#utility.yul\":10648:10702   */\n      mstore\n        /* \"#utility.yul\":10734:10737   */\n      0x80\n        /* \"#utility.yul\":10719:10738   */\n      add\n      swap1\n        /* \"#utility.yul\":10498:10744   */\n      jump\t// out\n        /* \"#utility.yul\":10749:11155   */\n    tag_182:\n        /* \"#utility.yul\":10951:10953   */\n      0x20\n        /* \"#utility.yul\":10933:10954   */\n      dup1\n      dup3\n      mstore\n        /* \"#utility.yul\":10990:10992   */\n      0x2a\n        /* \"#utility.yul\":10970:10988   */\n      swap1\n      dup3\n      add\n        /* \"#utility.yul\":10963:10993   */\n      mstore\n        /* \"#utility.yul\":11029:11063   */\n      0x4552433732313a2062616c616e636520717565727920666f7220746865207a65\n        /* \"#utility.yul\":11024:11026   */\n      0x40\n        /* \"#utility.yul\":11009:11027   */\n      dup3\n      add\n        /* \"#utility.yul\":11002:11064   */\n      mstore\n      shl(0xb0, 0x726f2061646472657373)\n        /* \"#utility.yul\":11095:11097   */\n      0x60\n        /* \"#utility.yul\":11080:11098   */\n      dup3\n      add\n        /* \"#utility.yul\":11073:11113   */\n      mstore\n        /* \"#utility.yul\":11145:11148   */\n      0x80\n        /* \"#utility.yul\":11130:11149   */\n      add\n      swap1\n        /* \"#utility.yul\":10923:11155   */\n      jump\t// out\n        /* \"#utility.yul\":11160:11565   */\n    tag_178:\n        /* \"#utility.yul\":11362:11364   */\n      0x20\n        /* \"#utility.yul\":11344:11365   */\n      dup1\n      dup3\n      mstore\n        /* \"#utility.yul\":11401:11403   */\n      0x29\n        /* \"#utility.yul\":11381:11399   */\n      swap1\n      dup3\n      add\n        /* \"#utility.yul\":11374:11404   */\n      mstore\n        /* \"#utility.yul\":11440:11474   */\n      0x4552433732313a206f776e657220717565727920666f72206e6f6e6578697374\n        /* \"#utility.yul\":11435:11437   */\n      0x40\n        /* \"#utility.yul\":11420:11438   */\n      dup3\n      add\n        /* \"#utility.yul\":11413:11475   */\n      mstore\n      shl(0xb9, 0x32b73a103a37b5b2b7)\n        /* \"#utility.yul\":11506:11508   */\n      0x60\n        /* \"#utility.yul\":11491:11509   */\n      dup3\n      add\n        /* \"#utility.yul\":11484:11523   */\n      mstore\n        /* \"#utility.yul\":11555:11558   */\n      0x80\n        /* \"#utility.yul\":11540:11559   */\n      add\n      swap1\n        /* \"#utility.yul\":11334:11565   */\n      jump\t// out\n        /* \"#utility.yul\":11570:11926   */\n    tag_368:\n        /* \"#utility.yul\":11772:11774   */\n      0x20\n        /* \"#utility.yul\":11754:11775   */\n      dup1\n      dup3\n      mstore\n        /* \"#utility.yul\":11791:11809   */\n      dup2\n      dup2\n      add\n        /* \"#utility.yul\":11784:11814   */\n      mstore\n        /* \"#utility.yul\":11850:11884   */\n      0x4552433732313a206d696e7420746f20746865207a65726f2061646472657373\n        /* \"#utility.yul\":11845:11847   */\n      0x40\n        /* \"#utility.yul\":11830:11848   */\n      dup3\n      add\n        /* \"#utility.yul\":11823:11885   */\n      mstore\n        /* \"#utility.yul\":11917:11919   */\n      0x60\n        /* \"#utility.yul\":11902:11920   */\n      add\n      swap1\n        /* \"#utility.yul\":11744:11926   */\n      jump\t// out\n        /* \"#utility.yul\":11931:12339   */\n    tag_119:\n        /* \"#utility.yul\":12133:12135   */\n      0x20\n        /* \"#utility.yul\":12115:12136   */\n      dup1\n      dup3\n      mstore\n        /* \"#utility.yul\":12172:12174   */\n      0x2c\n        /* \"#utility.yul\":12152:12170   */\n      swap1\n      dup3\n      add\n        /* \"#utility.yul\":12145:12175   */\n      mstore\n        /* \"#utility.yul\":12211:12245   */\n      0x4552433732313a20617070726f76656420717565727920666f72206e6f6e6578\n        /* \"#utility.yul\":12206:12208   */\n      0x40\n        /* \"#utility.yul\":12191:12209   */\n      dup3\n      add\n        /* \"#utility.yul\":12184:12246   */\n      mstore\n      shl(0xa1, 0x34b9ba32b73a103a37b5b2b7)\n        /* \"#utility.yul\":12277:12279   */\n      0x60\n        /* \"#utility.yul\":12262:12280   */\n      dup3\n      add\n        /* \"#utility.yul\":12255:12297   */\n      mstore\n        /* \"#utility.yul\":12329:12332   */\n      0x80\n        /* \"#utility.yul\":12314:12333   */\n      add\n      swap1\n        /* \"#utility.yul\":12105:12339   */\n      jump\t// out\n        /* \"#utility.yul\":12344:12752   */\n    tag_333:\n        /* \"#utility.yul\":12546:12548   */\n      0x20\n        /* \"#utility.yul\":12528:12549   */\n      dup1\n      dup3\n      mstore\n        /* \"#utility.yul\":12585:12587   */\n      0x2c\n        /* \"#utility.yul\":12565:12583   */\n      swap1\n      dup3\n      add\n        /* \"#utility.yul\":12558:12588   */\n      mstore\n        /* \"#utility.yul\":12624:12658   */\n      0x4552433732314d657461646174613a2055524920736574206f66206e6f6e6578\n        /* \"#utility.yul\":12619:12621   */\n      0x40\n        /* \"#utility.yul\":12604:12622   */\n      dup3\n      add\n        /* \"#utility.yul\":12597:12659   */\n      mstore\n      shl(0xa1, 0x34b9ba32b73a103a37b5b2b7)\n        /* \"#utility.yul\":12690:12692   */\n      0x60\n        /* \"#utility.yul\":12675:12693   */\n      dup3\n      add\n        /* \"#utility.yul\":12668:12710   */\n      mstore\n        /* \"#utility.yul\":12742:12745   */\n      0x80\n        /* \"#utility.yul\":12727:12746   */\n      add\n      swap1\n        /* \"#utility.yul\":12518:12752   */\n      jump\t// out\n        /* \"#utility.yul\":12757:13113   */\n    tag_188:\n        /* \"#utility.yul\":12959:12961   */\n      0x20\n        /* \"#utility.yul\":12941:12962   */\n      dup1\n      dup3\n      mstore\n        /* \"#utility.yul\":12978:12996   */\n      dup2\n      dup2\n      add\n        /* \"#utility.yul\":12971:13001   */\n      mstore\n        /* \"#utility.yul\":13037:13071   */\n      0x4f776e61626c653a2063616c6c6572206973206e6f7420746865206f776e6572\n        /* \"#utility.yul\":13032:13034   */\n      0x40\n        /* \"#utility.yul\":13017:13035   */\n      dup3\n      add\n        /* \"#utility.yul\":13010:13072   */\n      mstore\n        /* \"#utility.yul\":13104:13106   */\n      0x60\n        /* \"#utility.yul\":13089:13107   */\n      add\n      swap1\n        /* \"#utility.yul\":12931:13113   */\n      jump\t// out\n        /* \"#utility.yul\":13118:13523   */\n    tag_300:\n        /* \"#utility.yul\":13320:13322   */\n      0x20\n        /* \"#utility.yul\":13302:13323   */\n      dup1\n      dup3\n      mstore\n        /* \"#utility.yul\":13359:13361   */\n      0x29\n        /* \"#utility.yul\":13339:13357   */\n      swap1\n      dup3\n      add\n        /* \"#utility.yul\":13332:13362   */\n      mstore\n        /* \"#utility.yul\":13398:13432   */\n      0x4552433732313a207472616e73666572206f6620746f6b656e20746861742069\n        /* \"#utility.yul\":13393:13395   */\n      0x40\n        /* \"#utility.yul\":13378:13396   */\n      dup3\n      add\n        /* \"#utility.yul\":13371:13433   */\n      mstore\n      shl(0xb9, 0x39903737ba1037bbb7)\n        /* \"#utility.yul\":13464:13466   */\n      0x60\n        /* \"#utility.yul\":13449:13467   */\n      dup3\n      add\n        /* \"#utility.yul\":13442:13481   */\n      mstore\n        /* \"#utility.yul\":13513:13516   */\n      0x80\n        /* \"#utility.yul\":13498:13517   */\n      add\n      swap1\n        /* \"#utility.yul\":13292:13523   */\n      jump\t// out\n        /* \"#utility.yul\":13528:13939   */\n    tag_214:\n        /* \"#utility.yul\":13730:13732   */\n      0x20\n        /* \"#utility.yul\":13712:13733   */\n      dup1\n      dup3\n      mstore\n        /* \"#utility.yul\":13769:13771   */\n      0x2f\n        /* \"#utility.yul\":13749:13767   */\n      swap1\n      dup3\n      add\n        /* \"#utility.yul\":13742:13772   */\n      mstore\n        /* \"#utility.yul\":13808:13842   */\n      0x4552433732314d657461646174613a2055524920717565727920666f72206e6f\n        /* \"#utility.yul\":13803:13805   */\n      0x40\n        /* \"#utility.yul\":13788:13806   */\n      dup3\n      add\n        /* \"#utility.yul\":13781:13843   */\n      mstore\n      shl(0x89, 0x3732bc34b9ba32b73a103a37b5b2b7)\n        /* \"#utility.yul\":13874:13876   */\n      0x60\n        /* \"#utility.yul\":13859:13877   */\n      dup3\n      add\n        /* \"#utility.yul\":13852:13897   */\n      mstore\n        /* \"#utility.yul\":13929:13932   */\n      0x80\n        /* \"#utility.yul\":13914:13933   */\n      add\n      swap1\n        /* \"#utility.yul\":13702:13939   */\n      jump\t// out\n        /* \"#utility.yul\":13944:14341   */\n    tag_124:\n        /* \"#utility.yul\":14146:14148   */\n      0x20\n        /* \"#utility.yul\":14128:14149   */\n      dup1\n      dup3\n      mstore\n        /* \"#utility.yul\":14185:14187   */\n      0x21\n        /* \"#utility.yul\":14165:14183   */\n      swap1\n      dup3\n      add\n        /* \"#utility.yul\":14158:14188   */\n      mstore\n        /* \"#utility.yul\":14224:14258   */\n      0x4552433732313a20617070726f76616c20746f2063757272656e74206f776e65\n        /* \"#utility.yul\":14219:14221   */\n      0x40\n        /* \"#utility.yul\":14204:14222   */\n      dup3\n      add\n        /* \"#utility.yul\":14197:14259   */\n      mstore\n      shl(0xf9, 0x39)\n        /* \"#utility.yul\":14290:14292   */\n      0x60\n        /* \"#utility.yul\":14275:14293   */\n      dup3\n      add\n        /* \"#utility.yul\":14268:14299   */\n      mstore\n        /* \"#utility.yul\":14331:14334   */\n      0x80\n        /* \"#utility.yul\":14316:14335   */\n      add\n      swap1\n        /* \"#utility.yul\":14118:14341   */\n      jump\t// out\n        /* \"#utility.yul\":14346:14759   */\n    tag_141:\n        /* \"#utility.yul\":14548:14550   */\n      0x20\n        /* \"#utility.yul\":14530:14551   */\n      dup1\n      dup3\n      mstore\n        /* \"#utility.yul\":14587:14589   */\n      0x31\n        /* \"#utility.yul\":14567:14585   */\n      swap1\n      dup3\n      add\n        /* \"#utility.yul\":14560:14590   */\n      mstore\n        /* \"#utility.yul\":14626:14660   */\n      0x4552433732313a207472616e736665722063616c6c6572206973206e6f74206f\n        /* \"#utility.yul\":14621:14623   */\n      0x40\n        /* \"#utility.yul\":14606:14624   */\n      dup3\n      add\n        /* \"#utility.yul\":14599:14661   */\n      mstore\n      shl(0x7a, 0x1ddb995c881b9bdc88185c1c1c9bdd9959)\n        /* \"#utility.yul\":14692:14694   */\n      0x60\n        /* \"#utility.yul\":14677:14695   */\n      dup3\n      add\n        /* \"#utility.yul\":14670:14717   */\n      mstore\n        /* \"#utility.yul\":14749:14752   */\n      0x80\n        /* \"#utility.yul\":14734:14753   */\n      add\n      swap1\n        /* \"#utility.yul\":14520:14759   */\n      jump\t// out\n        /* \"#utility.yul\":14764:15699   */\n    tag_57:\n      0x00\n        /* \"#utility.yul\":14951:14953   */\n      0x20\n        /* \"#utility.yul\":14940:14949   */\n      dup3\n        /* \"#utility.yul\":14933:14954   */\n      mstore\n        /* \"#utility.yul\":14989:14995   */\n      dup3\n        /* \"#utility.yul\":14983:14996   */\n      mload\n        /* \"#utility.yul\":15032:15036   */\n      0x80\n        /* \"#utility.yul\":15027:15029   */\n      0x20\n        /* \"#utility.yul\":15016:15025   */\n      dup5\n        /* \"#utility.yul\":15012:15030   */\n      add\n        /* \"#utility.yul\":15005:15037   */\n      mstore\n        /* \"#utility.yul\":15060:15113   */\n      tag_487\n        /* \"#utility.yul\":15108:15111   */\n      0xa0\n        /* \"#utility.yul\":15097:15106   */\n      dup5\n        /* \"#utility.yul\":15093:15112   */\n      add\n        /* \"#utility.yul\":15079:15091   */\n      dup3\n        /* \"#utility.yul\":15060:15113   */\n      tag_455\n      jump\t// in\n    tag_487:\n        /* \"#utility.yul\":15046:15113   */\n      swap1\n      pop\n        /* \"#utility.yul\":15162:15164   */\n      0x20\n        /* \"#utility.yul\":15154:15160   */\n      dup5\n        /* \"#utility.yul\":15150:15165   */\n      add\n        /* \"#utility.yul\":15144:15166   */\n      mload\n        /* \"#utility.yul\":15189:15191   */\n      0x1f\n        /* \"#utility.yul\":15185:15192   */\n      not\n        /* \"#utility.yul\":15256:15258   */\n      dup1\n        /* \"#utility.yul\":15244:15253   */\n      dup6\n        /* \"#utility.yul\":15236:15242   */\n      dup5\n        /* \"#utility.yul\":15232:15254   */\n      sub\n        /* \"#utility.yul\":15228:15259   */\n      add\n        /* \"#utility.yul\":15223:15225   */\n      0x40\n        /* \"#utility.yul\":15212:15221   */\n      dup7\n        /* \"#utility.yul\":15208:15226   */\n      add\n        /* \"#utility.yul\":15201:15260   */\n      mstore\n        /* \"#utility.yul\":15283:15325   */\n      tag_488\n        /* \"#utility.yul\":15318:15324   */\n      dup4\n        /* \"#utility.yul\":15302:15316   */\n      dup4\n        /* \"#utility.yul\":15283:15325   */\n      tag_455\n      jump\t// in\n    tag_488:\n        /* \"#utility.yul\":15269:15325   */\n      swap3\n      pop\n        /* \"#utility.yul\":15374:15376   */\n      0x40\n        /* \"#utility.yul\":15366:15372   */\n      dup7\n        /* \"#utility.yul\":15362:15377   */\n      add\n        /* \"#utility.yul\":15356:15378   */\n      mload\n        /* \"#utility.yul\":15334:15378   */\n      swap2\n      pop\n        /* \"#utility.yul\":15442:15444   */\n      dup1\n        /* \"#utility.yul\":15430:15439   */\n      dup6\n        /* \"#utility.yul\":15422:15428   */\n      dup5\n        /* \"#utility.yul\":15418:15440   */\n      sub\n        /* \"#utility.yul\":15414:15445   */\n      add\n        /* \"#utility.yul\":15409:15411   */\n      0x60\n        /* \"#utility.yul\":15398:15407   */\n      dup7\n        /* \"#utility.yul\":15394:15412   */\n      add\n        /* \"#utility.yul\":15387:15446   */\n      mstore\n        /* \"#utility.yul\":15469:15511   */\n      tag_489\n        /* \"#utility.yul\":15504:15510   */\n      dup4\n        /* \"#utility.yul\":15488:15502   */\n      dup4\n        /* \"#utility.yul\":15469:15511   */\n      tag_455\n      jump\t// in\n    tag_489:\n        /* \"#utility.yul\":15455:15511   */\n      swap3\n      pop\n        /* \"#utility.yul\":15560:15562   */\n      0x60\n        /* \"#utility.yul\":15552:15558   */\n      dup7\n        /* \"#utility.yul\":15548:15563   */\n      add\n        /* \"#utility.yul\":15542:15564   */\n      mload\n        /* \"#utility.yul\":15520:15564   */\n      swap2\n      pop\n        /* \"#utility.yul\":15630:15632   */\n      dup1\n        /* \"#utility.yul\":15618:15627   */\n      dup6\n        /* \"#utility.yul\":15610:15616   */\n      dup5\n        /* \"#utility.yul\":15606:15628   */\n      sub\n        /* \"#utility.yul\":15602:15633   */\n      add\n        /* \"#utility.yul\":15595:15599   */\n      0x80\n        /* \"#utility.yul\":15584:15593   */\n      dup7\n        /* \"#utility.yul\":15580:15600   */\n      add\n        /* \"#utility.yul\":15573:15634   */\n      mstore\n      pop\n        /* \"#utility.yul\":15651:15693   */\n      tag_490\n        /* \"#utility.yul\":15686:15692   */\n      dup3\n        /* \"#utility.yul\":15670:15684   */\n      dup3\n        /* \"#utility.yul\":15651:15693   */\n      tag_455\n      jump\t// in\n    tag_490:\n        /* \"#utility.yul\":15643:15693   */\n      swap6\n        /* \"#utility.yul\":14923:15699   */\n      swap5\n      pop\n      pop\n      pop\n      pop\n      pop\n      jump\t// out\n        /* \"#utility.yul\":15704:15881   */\n    tag_67:\n        /* \"#utility.yul\":15850:15875   */\n      swap1\n      dup2\n      mstore\n        /* \"#utility.yul\":15838:15840   */\n      0x20\n        /* \"#utility.yul\":15823:15841   */\n      add\n      swap1\n        /* \"#utility.yul\":15805:15881   */\n      jump\t// out\n        /* \"#utility.yul\":15886:16137   */\n    tag_392:\n        /* \"#utility.yul\":15956:15958   */\n      0x40\n        /* \"#utility.yul\":15950:15959   */\n      mload\n        /* \"#utility.yul\":15986:16003   */\n      dup2\n      dup2\n      add\n        /* \"#utility.yul\":16033:16051   */\n      0xffffffffffffffff\n        /* \"#utility.yul\":16018:16052   */\n      dup2\n      gt\n        /* \"#utility.yul\":16054:16076   */\n      dup3\n      dup3\n      lt\n        /* \"#utility.yul\":16015:16077   */\n      or\n        /* \"#utility.yul\":16012:16014   */\n      iszero\n      tag_494\n      jumpi\n        /* \"#utility.yul\":16080:16098   */\n      tag_494\n      tag_390\n      jump\t// in\n    tag_494:\n        /* \"#utility.yul\":16116:16118   */\n      0x40\n        /* \"#utility.yul\":16109:16131   */\n      mstore\n        /* \"#utility.yul\":15930:16137   */\n      swap2\n      swap1\n      pop\n      jump\t// out\n        /* \"#utility.yul\":16142:16270   */\n    tag_310:\n      0x00\n        /* \"#utility.yul\":16213:16214   */\n      dup3\n        /* \"#utility.yul\":16209:16215   */\n      not\n        /* \"#utility.yul\":16206:16207   */\n      dup3\n        /* \"#utility.yul\":16203:16216   */\n      gt\n        /* \"#utility.yul\":16200:16202   */\n      iszero\n      tag_497\n      jumpi\n        /* \"#utility.yul\":16219:16237   */\n      tag_497\n      tag_498\n      jump\t// in\n    tag_497:\n      pop\n        /* \"#utility.yul\":16255:16264   */\n      add\n      swap1\n        /* \"#utility.yul\":16190:16270   */\n      jump\t// out\n        /* \"#utility.yul\":16275:16400   */\n    tag_308:\n      0x00\n        /* \"#utility.yul\":16343:16344   */\n      dup3\n        /* \"#utility.yul\":16340:16341   */\n      dup3\n        /* \"#utility.yul\":16337:16345   */\n      lt\n        /* \"#utility.yul\":16334:16336   */\n      iszero\n      tag_501\n      jumpi\n        /* \"#utility.yul\":16348:16366   */\n      tag_501\n      tag_498\n      jump\t// in\n    tag_501:\n      pop\n        /* \"#utility.yul\":16385:16394   */\n      sub\n      swap1\n        /* \"#utility.yul\":16324:16400   */\n      jump\t// out\n        /* \"#utility.yul\":16405:16663   */\n    tag_458:\n        /* \"#utility.yul\":16477:16478   */\n      0x00\n        /* \"#utility.yul\":16487:16600   */\n    tag_503:\n        /* \"#utility.yul\":16501:16507   */\n      dup4\n        /* \"#utility.yul\":16498:16499   */\n      dup2\n        /* \"#utility.yul\":16495:16508   */\n      lt\n        /* \"#utility.yul\":16487:16600   */\n      iszero\n      tag_505\n      jumpi\n        /* \"#utility.yul\":16577:16588   */\n      dup2\n      dup2\n      add\n        /* \"#utility.yul\":16571:16589   */\n      mload\n        /* \"#utility.yul\":16558:16569   */\n      dup4\n      dup3\n      add\n        /* \"#utility.yul\":16551:16590   */\n      mstore\n        /* \"#utility.yul\":16523:16525   */\n      0x20\n        /* \"#utility.yul\":16516:16526   */\n      add\n        /* \"#utility.yul\":16487:16600   */\n      jump(tag_503)\n    tag_505:\n        /* \"#utility.yul\":16618:16624   */\n      dup4\n        /* \"#utility.yul\":16615:16616   */\n      dup2\n        /* \"#utility.yul\":16612:16625   */\n      gt\n        /* \"#utility.yul\":16609:16611   */\n      iszero\n      tag_208\n      jumpi\n      pop\n      pop\n        /* \"#utility.yul\":16653:16654   */\n      0x00\n        /* \"#utility.yul\":16635:16651   */\n      swap2\n      add\n        /* \"#utility.yul\":16628:16655   */\n      mstore\n        /* \"#utility.yul\":16458:16663   */\n      jump\t// out\n        /* \"#utility.yul\":16668:17048   */\n    tag_109:\n        /* \"#utility.yul\":16753:16754   */\n      0x02\n        /* \"#utility.yul\":16743:16755   */\n      dup2\n      div\n        /* \"#utility.yul\":16800:16801   */\n      0x01\n        /* \"#utility.yul\":16790:16802   */\n      dup3\n      and\n      dup1\n        /* \"#utility.yul\":16811:16813   */\n      tag_508\n      jumpi\n        /* \"#utility.yul\":16865:16869   */\n      0x7f\n        /* \"#utility.yul\":16857:16863   */\n      dup3\n        /* \"#utility.yul\":16853:16870   */\n      and\n        /* \"#utility.yul\":16843:16870   */\n      swap2\n      pop\n        /* \"#utility.yul\":16811:16813   */\n    tag_508:\n        /* \"#utility.yul\":16918:16920   */\n      0x20\n        /* \"#utility.yul\":16910:16916   */\n      dup3\n        /* \"#utility.yul\":16907:16921   */\n      lt\n        /* \"#utility.yul\":16887:16905   */\n      dup2\n        /* \"#utility.yul\":16884:16922   */\n      eq\n        /* \"#utility.yul\":16881:16883   */\n      iszero\n      tag_509\n      jumpi\n        /* \"#utility.yul\":16964:16974   */\n      0x4e487b71\n        /* \"#utility.yul\":16959:16962   */\n      0xe0\n        /* \"#utility.yul\":16955:16975   */\n      shl\n        /* \"#utility.yul\":16952:16953   */\n      0x00\n        /* \"#utility.yul\":16945:16976   */\n      mstore\n        /* \"#utility.yul\":16999:17003   */\n      0x22\n        /* \"#utility.yul\":16996:16997   */\n      0x04\n        /* \"#utility.yul\":16989:17004   */\n      mstore\n        /* \"#utility.yul\":17027:17031   */\n      0x24\n        /* \"#utility.yul\":17024:17025   */\n      0x00\n        /* \"#utility.yul\":17017:17032   */\n      revert\n        /* \"#utility.yul\":16881:16883   */\n    tag_509:\n      pop\n        /* \"#utility.yul\":16723:17048   */\n      swap2\n      swap1\n      pop\n      jump\t// out\n        /* \"#utility.yul\":17053:17180   */\n    tag_498:\n        /* \"#utility.yul\":17114:17124   */\n      0x4e487b71\n        /* \"#utility.yul\":17109:17112   */\n      0xe0\n        /* \"#utility.yul\":17105:17125   */\n      shl\n        /* \"#utility.yul\":17102:17103   */\n      0x00\n        /* \"#utility.yul\":17095:17126   */\n      mstore\n        /* \"#utility.yul\":17145:17149   */\n      0x11\n        /* \"#utility.yul\":17142:17143   */\n      0x04\n        /* \"#utility.yul\":17135:17150   */\n      mstore\n        /* \"#utility.yul\":17169:17173   */\n      0x24\n        /* \"#utility.yul\":17166:17167   */\n      0x00\n        /* \"#utility.yul\":17159:17174   */\n      revert\n        /* \"#utility.yul\":17185:17312   */\n    tag_390:\n        /* \"#utility.yul\":17246:17256   */\n      0x4e487b71\n        /* \"#utility.yul\":17241:17244   */\n      0xe0\n        /* \"#utility.yul\":17237:17257   */\n      shl\n        /* \"#utility.yul\":17234:17235   */\n      0x00\n        /* \"#utility.yul\":17227:17258   */\n      mstore\n        /* \"#utility.yul\":17277:17281   */\n      0x41\n        /* \"#utility.yul\":17274:17275   */\n      0x04\n        /* \"#utility.yul\":17267:17282   */\n      mstore\n        /* \"#utility.yul\":17301:17305   */\n      0x24\n        /* \"#utility.yul\":17298:17299   */\n      0x00\n        /* \"#utility.yul\":17291:17306   */\n      revert\n        /* \"#utility.yul\":17317:17450   */\n    tag_445:\n      not(sub(shl(0xe0, 0x01), 0x01))\n        /* \"#utility.yul\":17393:17425   */\n      dup2\n      and\n        /* \"#utility.yul\":17383:17426   */\n      dup2\n      eq\n        /* \"#utility.yul\":17373:17375   */\n      tag_256\n      jumpi\n        /* \"#utility.yul\":17440:17441   */\n      0x00\n        /* \"#utility.yul\":17437:17438   */\n      dup1\n        /* \"#utility.yul\":17430:17442   */\n      revert\n\n    auxdata: 0xa2646970667358221220c4ad9978fb99991329d1d418d189023c494a05c18da673417d107bef27b5479364736f6c63430008000033\n}\n",
				"bytecode": {
					"linkReferences": {},
					"object": "60806040523480156200001157600080fd5b50604080518082018252601081526f2a3930bd30b134b634ba3caa37b5b2b760811b60208083019182528351808501909452600384526254544b60e81b9084015281519192916200006591600091620000f4565b5080516200007b906001906020840190620000f4565b50505062000098620000926200009e60201b60201c565b620000a2565b620001d7565b3390565b600680546001600160a01b038381166001600160a01b0319831681179093556040519116919082907f8be0079c531659141344cd1fd0a4f28419497f9722a3daafe3b4186f6b6457e090600090a35050565b82805462000102906200019a565b90600052602060002090601f01602090048101928262000126576000855562000171565b82601f106200014157805160ff191683800117855562000171565b8280016001018555821562000171579182015b828111156200017157825182559160200191906001019062000154565b506200017f92915062000183565b5090565b5b808211156200017f576000815560010162000184565b600281046001821680620001af57607f821691505b60208210811415620001d157634e487b7160e01b600052602260045260246000fd5b50919050565b611fab80620001e76000396000f3fe608060405234801561001057600080fd5b50600436106101215760003560e01c8063715018a6116100ad578063c87b56dd11610071578063c87b56dd14610250578063d6d0be9f14610263578063e985e9c514610276578063f2fde38b14610289578063fa8383b71461029c57610121565b8063715018a6146102125780638da5cb5b1461021a57806395d89b4114610222578063a22cb4651461022a578063b88d4fde1461023d57610121565b806323b872dd116100f457806323b872dd1461019957806342842e0e146101ac57806361288550146101bf5780636352211e146101df57806370a08231146101f257610121565b806301ffc9a71461012657806306fdde031461014f578063081812fc14610164578063095ea7b314610184575b600080fd5b61013961013436600461179b565b6102af565b60405161014691906118b7565b60405180910390f35b6101576102c2565b60405161014691906118c2565b610177610172366004611806565b610354565b6040516101469190611866565b610197610192366004611772565b6103a0565b005b6101976101a736600461157c565b610438565b6101976101ba36600461157c565b610470565b6101d26101cd3660046117d3565b61048b565b6040516101469190611dec565b6101776101ed366004611806565b610743565b610205610200366004611530565b610778565b6040516101469190611e6a565b6101976107bc565b610177610807565b610157610816565b610197610238366004611630565b610825565b61019761024b3660046115b7565b61083b565b61015761025e366004611806565b61087a565b6101d2610271366004611806565b610940565b61013961028436600461154a565b610bd4565b610197610297366004611530565b610c02565b6101976102aa36600461166a565b610c73565b60006102ba82610d7a565b90505b919050565b6060600080546102d190611ef8565b80601f01602080910402602001604051908101604052809291908181526020018280546102fd90611ef8565b801561034a5780601f1061031f5761010080835404028352916020019161034a565b820191906000526020600020905b81548152906001019060200180831161032d57829003601f168201915b5050505050905090565b600061035f82610dba565b6103845760405162461bcd60e51b815260040161037b90611bf5565b60405180910390fd5b506000908152600460205260409020546001600160a01b031690565b60006103ab82610743565b9050806001600160a01b0316836001600160a01b031614156103df5760405162461bcd60e51b815260040161037b90611d5a565b806001600160a01b03166103f1610dd7565b6001600160a01b0316148061040d575061040d81610284610dd7565b6104295760405162461bcd60e51b815260040161037b90611ad0565b6104338383610ddb565b505050565b610449610443610dd7565b82610e49565b6104655760405162461bcd60e51b815260040161037b90611d9b565b610433838383610ece565b6104338383836040518060200160405280600081525061083b565b6104936113da565b60006009836040516104a5919061184a565b90815260200160405180910390205490506104bf81610dba565b6104db5760405162461bcd60e51b815260040161037b90611a4d565b6000818152600860205260409081902081516080810190925280548290829061050390611ef8565b80601f016020809104026020016040519081016040528092919081815260200182805461052f90611ef8565b801561057c5780601f106105515761010080835404028352916020019161057c565b820191906000526020600020905b81548152906001019060200180831161055f57829003601f168201915b5050505050815260200160018201805461059590611ef8565b80601f01602080910402602001604051908101604052809291908181526020018280546105c190611ef8565b801561060e5780601f106105e35761010080835404028352916020019161060e565b820191906000526020600020905b8154815290600101906020018083116105f157829003601f168201915b5050505050815260200160028201805461062790611ef8565b80601f016020809104026020016040519081016040528092919081815260200182805461065390611ef8565b80156106a05780601f10610675576101008083540402835291602001916106a0565b820191906000526020600020905b81548152906001019060200180831161068357829003601f168201915b505050505081526020016003820180546106b990611ef8565b80601f01602080910402602001604051908101604052809291908181526020018280546106e590611ef8565b80156107325780601f1061070757610100808354040283529160200191610732565b820191906000526020600020905b81548152906001019060200180831161071557829003601f168201915b505050505081525050915050919050565b6000818152600260205260408120546001600160a01b0316806102ba5760405162461bcd60e51b815260040161037b90611b77565b60006001600160a01b0382166107a05760405162461bcd60e51b815260040161037b90611b2d565b506001600160a01b031660009081526003602052604090205490565b6107c4610dd7565b6001600160a01b03166107d5610807565b6001600160a01b0316146107fb5760405162461bcd60e51b815260040161037b90611c8d565b6108056000610ffb565b565b6006546001600160a01b031690565b6060600180546102d190611ef8565b610837610830610dd7565b838361104d565b5050565b61084c610846610dd7565b83610e49565b6108685760405162461bcd60e51b815260040161037b90611d9b565b610874848484846110f0565b50505050565b606061088582610dba565b6108a15760405162461bcd60e51b815260040161037b90611d0b565b6000828152600a6020526040812080546108ba90611ef8565b80601f01602080910402602001604051908101604052809291908181526020018280546108e690611ef8565b80156109335780601f1061090857610100808354040283529160200191610933565b820191906000526020600020905b81548152906001019060200180831161091657829003601f168201915b5093979650505050505050565b6109486113da565b61095182610dba565b61096d5760405162461bcd60e51b815260040161037b90611a1f565b6000828152600860205260409081902081516080810190925280548290829061099590611ef8565b80601f01602080910402602001604051908101604052809291908181526020018280546109c190611ef8565b8015610a0e5780601f106109e357610100808354040283529160200191610a0e565b820191906000526020600020905b8154815290600101906020018083116109f157829003601f168201915b50505050508152602001600182018054610a2790611ef8565b80601f0160208091040260200160405190810160405280929190818152602001828054610a5390611ef8565b8015610aa05780601f10610a7557610100808354040283529160200191610aa0565b820191906000526020600020905b815481529060010190602001808311610a8357829003601f168201915b50505050508152602001600282018054610ab990611ef8565b80601f0160208091040260200160405190810160405280929190818152602001828054610ae590611ef8565b8015610b325780601f10610b0757610100808354040283529160200191610b32565b820191906000526020600020905b815481529060010190602001808311610b1557829003601f168201915b50505050508152602001600382018054610b4b90611ef8565b80601f0160208091040260200160405190810160405280929190818152602001828054610b7790611ef8565b8015610bc45780601f10610b9957610100808354040283529160200191610bc4565b820191906000526020600020905b815481529060010190602001808311610ba757829003601f168201915b5050505050815250509050919050565b6001600160a01b03918216600090815260056020908152604080832093909416825291909152205460ff1690565b610c0a610dd7565b6001600160a01b0316610c1b610807565b6001600160a01b031614610c415760405162461bcd60e51b815260040161037b90611c8d565b6001600160a01b038116610c675760405162461bcd60e51b815260040161037b90611927565b610c7081610ffb565b50565b610c7b610dd7565b6001600160a01b0316610c8c610807565b6001600160a01b031614610cb25760405162461bcd60e51b815260040161037b90611c8d565b6000610cbe6007611123565b9050610cca6007611127565b610cd48482611130565b6000818152600860209081526040909120845180518693610cf9928492910190611402565b506020828101518051610d129260018501920190611402565b5060408201518051610d2e916002840191602090910190611402565b5060608201518051610d4a916003840191602090910190611402565b50508351604051839250600991610d609161184a565b90815260405190819003602001902055610874818361114a565b60006001600160e01b031982166380ac58cd60e01b1480610dab57506001600160e01b03198216635b5e139f60e01b145b806102ba57506102ba8261118e565b6000908152600260205260409020546001600160a01b0316151590565b3390565b600081815260046020526040902080546001600160a01b0319166001600160a01b0384169081179091558190610e1082610743565b6001600160a01b03167f8c5be1e5ebec7d5bd14f71427d1e84f3dd0314c0f7b2291e5b200ac8c7c3b92560405160405180910390a45050565b6000610e5482610dba565b610e705760405162461bcd60e51b815260040161037b90611a84565b6000610e7b83610743565b9050806001600160a01b0316846001600160a01b03161480610eb65750836001600160a01b0316610eab84610354565b6001600160a01b0316145b80610ec65750610ec68185610bd4565b949350505050565b826001600160a01b0316610ee182610743565b6001600160a01b031614610f075760405162461bcd60e51b815260040161037b90611cc2565b6001600160a01b038216610f2d5760405162461bcd60e51b815260040161037b906119a4565b610f38838383610433565b610f43600082610ddb565b6001600160a01b0383166000908152600360205260408120805460019290610f6c908490611eb5565b90915550506001600160a01b0382166000908152600360205260408120805460019290610f9a908490611e9d565b909155505060008181526002602052604080822080546001600160a01b0319166001600160a01b0386811691821790925591518493918716917fddf252ad1be2c89b69c2b068fc378daa952ba7f163c4a11628f55a4df523b3ef91a4505050565b600680546001600160a01b038381166001600160a01b0319831681179093556040519116919082907f8be0079c531659141344cd1fd0a4f28419497f9722a3daafe3b4186f6b6457e090600090a35050565b816001600160a01b0316836001600160a01b0316141561107f5760405162461bcd60e51b815260040161037b906119e8565b6001600160a01b0383811660008181526005602090815260408083209487168084529490915290819020805460ff1916851515179055517f17307eab39ab6107e8899845ad3d59bd9653f200f220920489ca2b5937696c31906110e39085906118b7565b60405180910390a3505050565b6110fb848484610ece565b611107848484846111a7565b6108745760405162461bcd60e51b815260040161037b906118d5565b5490565b80546001019055565b6108378282604051806020016040528060008152506112c2565b61115382610dba565b61116f5760405162461bcd60e51b815260040161037b90611c41565b6000828152600a60209081526040909120825161043392840190611402565b6001600160e01b031981166301ffc9a760e01b14919050565b60006111bb846001600160a01b03166112f5565b156112b757836001600160a01b031663150b7a026111d7610dd7565b8786866040518563ffffffff1660e01b81526004016111f9949392919061187a565b602060405180830381600087803b15801561121357600080fd5b505af1925050508015611243575060408051601f3d908101601f19168201909252611240918101906117b7565b60015b61129d573d808015611271576040519150601f19603f3d011682016040523d82523d6000602084013e611276565b606091505b5080516112955760405162461bcd60e51b815260040161037b906118d5565b805181602001fd5b6001600160e01b031916630a85bd0160e11b149050610ec6565b506001949350505050565b6112cc83836112fb565b6112d960008484846111a7565b6104335760405162461bcd60e51b815260040161037b906118d5565b3b151590565b6001600160a01b0382166113215760405162461bcd60e51b815260040161037b90611bc0565b61132a81610dba565b156113475760405162461bcd60e51b815260040161037b9061196d565b61135360008383610433565b6001600160a01b038216600090815260036020526040812080546001929061137c908490611e9d565b909155505060008181526002602052604080822080546001600160a01b0319166001600160a01b03861690811790915590518392907fddf252ad1be2c89b69c2b068fc378daa952ba7f163c4a11628f55a4df523b3ef908290a45050565b6040518060800160405280606081526020016060815260200160608152602001606081525090565b82805461140e90611ef8565b90600052602060002090601f0160209004810192826114305760008555611476565b82601f1061144957805160ff1916838001178555611476565b82800160010185558215611476579182015b8281111561147657825182559160200191906001019061145b565b50611482929150611486565b5090565b5b808211156114825760008155600101611487565b600067ffffffffffffffff8311156114b5576114b5611f49565b6114c8601f8401601f1916602001611e73565b90508281528383830111156114dc57600080fd5b828260208301376000602084830101529392505050565b80356001600160a01b03811681146102bd57600080fd5b600082601f83011261151a578081fd5b6115298383356020850161149b565b9392505050565b600060208284031215611541578081fd5b611529826114f3565b6000806040838503121561155c578081fd5b611565836114f3565b9150611573602084016114f3565b90509250929050565b600080600060608486031215611590578081fd5b611599846114f3565b92506115a7602085016114f3565b9150604084013590509250925092565b600080600080608085870312156115cc578081fd5b6115d5856114f3565b93506115e3602086016114f3565b925060408501359150606085013567ffffffffffffffff811115611605578182fd5b8501601f81018713611615578182fd5b6116248782356020840161149b565b91505092959194509250565b60008060408385031215611642578182fd5b61164b836114f3565b91506020830135801515811461165f578182fd5b809150509250929050565b60008060006060848603121561167e578283fd5b611687846114f3565b9250602084013567ffffffffffffffff808211156116a3578384fd5b90850190608082880312156116b6578384fd5b6116c06080611e73565b8235828111156116ce578586fd5b6116da8982860161150a565b8252506020830135828111156116ee578586fd5b6116fa8982860161150a565b602083015250604083013582811115611711578586fd5b61171d8982860161150a565b604083015250606083013582811115611734578586fd5b6117408982860161150a565b6060830152509350604086013591508082111561175b578283fd5b506117688682870161150a565b9150509250925092565b60008060408385031215611784578182fd5b61178d836114f3565b946020939093013593505050565b6000602082840312156117ac578081fd5b813561152981611f5f565b6000602082840312156117c8578081fd5b815161152981611f5f565b6000602082840312156117e4578081fd5b813567ffffffffffffffff8111156117fa578182fd5b610ec68482850161150a565b600060208284031215611817578081fd5b5035919050565b60008151808452611836816020860160208601611ecc565b601f01601f19169290920160200192915050565b6000825161185c818460208701611ecc565b9190910192915050565b6001600160a01b0391909116815260200190565b6001600160a01b03858116825284166020820152604081018390526080606082018190526000906118ad9083018461181e565b9695505050505050565b901515815260200190565b600060208252611529602083018461181e565b60208082526032908201527f4552433732313a207472616e7366657220746f206e6f6e20455243373231526560408201527131b2b4bb32b91034b6b83632b6b2b73a32b960711b606082015260800190565b60208082526026908201527f4f776e61626c653a206e6577206f776e657220697320746865207a65726f206160408201526564647265737360d01b606082015260800190565b6020808252601c908201527f4552433732313a20746f6b656e20616c7265616479206d696e74656400000000604082015260600190565b60208082526024908201527f4552433732313a207472616e7366657220746f20746865207a65726f206164646040820152637265737360e01b606082015260800190565b60208082526019908201527f4552433732313a20617070726f766520746f2063616c6c657200000000000000604082015260600190565b602080825260149082015273151bdad95b88191bd95cc81b9bdd08195e1a5cdd60621b604082015260600190565b60208082526019908201527f50726f6475637420494420646f6573206e6f7420657869737400000000000000604082015260600190565b6020808252602c908201527f4552433732313a206f70657261746f7220717565727920666f72206e6f6e657860408201526b34b9ba32b73a103a37b5b2b760a11b606082015260800190565b60208082526038908201527f4552433732313a20617070726f76652063616c6c6572206973206e6f74206f7760408201527f6e6572206e6f7220617070726f76656420666f7220616c6c0000000000000000606082015260800190565b6020808252602a908201527f4552433732313a2062616c616e636520717565727920666f7220746865207a65604082015269726f206164647265737360b01b606082015260800190565b60208082526029908201527f4552433732313a206f776e657220717565727920666f72206e6f6e657869737460408201526832b73a103a37b5b2b760b91b606082015260800190565b6020808252818101527f4552433732313a206d696e7420746f20746865207a65726f2061646472657373604082015260600190565b6020808252602c908201527f4552433732313a20617070726f76656420717565727920666f72206e6f6e657860408201526b34b9ba32b73a103a37b5b2b760a11b606082015260800190565b6020808252602c908201527f4552433732314d657461646174613a2055524920736574206f66206e6f6e657860408201526b34b9ba32b73a103a37b5b2b760a11b606082015260800190565b6020808252818101527f4f776e61626c653a2063616c6c6572206973206e6f7420746865206f776e6572604082015260600190565b60208082526029908201527f4552433732313a207472616e73666572206f6620746f6b656e2074686174206960408201526839903737ba1037bbb760b91b606082015260800190565b6020808252602f908201527f4552433732314d657461646174613a2055524920717565727920666f72206e6f60408201526e3732bc34b9ba32b73a103a37b5b2b760891b606082015260800190565b60208082526021908201527f4552433732313a20617070726f76616c20746f2063757272656e74206f776e656040820152603960f91b606082015260800190565b60208082526031908201527f4552433732313a207472616e736665722063616c6c6572206973206e6f74206f6040820152701ddb995c881b9bdc88185c1c1c9bdd9959607a1b606082015260800190565b600060208252825160806020840152611e0860a084018261181e565b90506020840151601f1980858403016040860152611e26838361181e565b92506040860151915080858403016060860152611e43838361181e565b9250606086015191508085840301608086015250611e61828261181e565b95945050505050565b90815260200190565b60405181810167ffffffffffffffff81118282101715611e9557611e95611f49565b604052919050565b60008219821115611eb057611eb0611f33565b500190565b600082821015611ec757611ec7611f33565b500390565b60005b83811015611ee7578181015183820152602001611ecf565b838111156108745750506000910152565b600281046001821680611f0c57607f821691505b60208210811415611f2d57634e487b7160e01b600052602260045260246000fd5b50919050565b634e487b7160e01b600052601160045260246000fd5b634e487b7160e01b600052604160045260246000fd5b6001600160e01b031981168114610c7057600080fdfea2646970667358221220c4ad9978fb99991329d1d418d189023c494a05c18da673417d107bef27b5479364736f6c63430008000033",
					"opcodes": "PUSH1 0x80 PUSH1 0x40 MSTORE CALLVALUE DUP1 ISZERO PUSH3 0x11 JUMPI PUSH1 0x0 DUP1 REVERT JUMPDEST POP PUSH1 0x40 DUP1 MLOAD DUP1 DUP3 ADD DUP3 MSTORE PUSH1 0x10 DUP2 MSTORE PUSH16 0x2A3930BD30B134B634BA3CAA37B5B2B7 PUSH1 0x81 SHL PUSH1 0x20 DUP1 DUP4 ADD SWAP2 DUP3 MSTORE DUP4 MLOAD DUP1 DUP6 ADD SWAP1 SWAP5 MSTORE PUSH1 0x3 DUP5 MSTORE PUSH3 0x54544B PUSH1 0xE8 SHL SWAP1 DUP5 ADD MSTORE DUP2 MLOAD SWAP2 SWAP3 SWAP2 PUSH3 0x65 SWAP2 PUSH1 0x0 SWAP2 PUSH3 0xF4 JUMP JUMPDEST POP DUP1 MLOAD PUSH3 0x7B SWAP1 PUSH1 0x1 SWAP1 PUSH1 0x20 DUP5 ADD SWAP1 PUSH3 0xF4 JUMP JUMPDEST POP POP POP PUSH3 0x98 PUSH3 0x92 PUSH3 0x9E PUSH1 0x20 SHL PUSH1 0x20 SHR JUMP JUMPDEST PUSH3 0xA2 JUMP JUMPDEST PUSH3 0x1D7 JUMP JUMPDEST CALLER SWAP1 JUMP JUMPDEST PUSH1 0x6 DUP1 SLOAD PUSH1 0x1 PUSH1 0x1 PUSH1 0xA0 SHL SUB DUP4 DUP2 AND PUSH1 0x1 PUSH1 0x1 PUSH1 0xA0 SHL SUB NOT DUP4 AND DUP2 OR SWAP1 SWAP4 SSTORE PUSH1 0x40 MLOAD SWAP2 AND SWAP2 SWAP1 DUP3 SWAP1 PUSH32 0x8BE0079C531659141344CD1FD0A4F28419497F9722A3DAAFE3B4186F6B6457E0 SWAP1 PUSH1 0x0 SWAP1 LOG3 POP POP JUMP JUMPDEST DUP3 DUP1 SLOAD PUSH3 0x102 SWAP1 PUSH3 0x19A JUMP JUMPDEST SWAP1 PUSH1 0x0 MSTORE PUSH1 0x20 PUSH1 0x0 KECCAK256 SWAP1 PUSH1 0x1F ADD PUSH1 0x20 SWAP1 DIV DUP2 ADD SWAP3 DUP3 PUSH3 0x126 JUMPI PUSH1 0x0 DUP6 SSTORE PUSH3 0x171 JUMP JUMPDEST DUP3 PUSH1 0x1F LT PUSH3 0x141 JUMPI DUP1 MLOAD PUSH1 0xFF NOT AND DUP4 DUP1 ADD OR DUP6 SSTORE PUSH3 0x171 JUMP JUMPDEST DUP3 DUP1 ADD PUSH1 0x1 ADD DUP6 SSTORE DUP3 ISZERO PUSH3 0x171 JUMPI SWAP2 DUP3 ADD JUMPDEST DUP3 DUP2 GT ISZERO PUSH3 0x171 JUMPI DUP3 MLOAD DUP3 SSTORE SWAP2 PUSH1 0x20 ADD SWAP2 SWAP1 PUSH1 0x1 ADD SWAP1 PUSH3 0x154 JUMP JUMPDEST POP PUSH3 0x17F SWAP3 SWAP2 POP PUSH3 0x183 JUMP JUMPDEST POP SWAP1 JUMP JUMPDEST JUMPDEST DUP1 DUP3 GT ISZERO PUSH3 0x17F JUMPI PUSH1 0x0 DUP2 SSTORE PUSH1 0x1 ADD PUSH3 0x184 JUMP JUMPDEST PUSH1 0x2 DUP2 DIV PUSH1 0x1 DUP3 AND DUP1 PUSH3 0x1AF JUMPI PUSH1 0x7F DUP3 AND SWAP2 POP JUMPDEST PUSH1 0x20 DUP3 LT DUP2 EQ ISZERO PUSH3 0x1D1 JUMPI PUSH4 0x4E487B71 PUSH1 0xE0 SHL PUSH1 0x0 MSTORE PUSH1 0x22 PUSH1 0x4 MSTORE PUSH1 0x24 PUSH1 0x0 REVERT JUMPDEST POP SWAP2 SWAP1 POP JUMP JUMPDEST PUSH2 0x1FAB DUP1 PUSH3 0x1E7 PUSH1 0x0 CODECOPY PUSH1 0x0 RETURN INVALID PUSH1 0x80 PUSH1 0x40 MSTORE CALLVALUE DUP1 ISZERO PUSH2 0x10 JUMPI PUSH1 0x0 DUP1 REVERT JUMPDEST POP PUSH1 0x4 CALLDATASIZE LT PUSH2 0x121 JUMPI PUSH1 0x0 CALLDATALOAD PUSH1 0xE0 SHR DUP1 PUSH4 0x715018A6 GT PUSH2 0xAD JUMPI DUP1 PUSH4 0xC87B56DD GT PUSH2 0x71 JUMPI DUP1 PUSH4 0xC87B56DD EQ PUSH2 0x250 JUMPI DUP1 PUSH4 0xD6D0BE9F EQ PUSH2 0x263 JUMPI DUP1 PUSH4 0xE985E9C5 EQ PUSH2 0x276 JUMPI DUP1 PUSH4 0xF2FDE38B EQ PUSH2 0x289 JUMPI DUP1 PUSH4 0xFA8383B7 EQ PUSH2 0x29C JUMPI PUSH2 0x121 JUMP JUMPDEST DUP1 PUSH4 0x715018A6 EQ PUSH2 0x212 JUMPI DUP1 PUSH4 0x8DA5CB5B EQ PUSH2 0x21A JUMPI DUP1 PUSH4 0x95D89B41 EQ PUSH2 0x222 JUMPI DUP1 PUSH4 0xA22CB465 EQ PUSH2 0x22A JUMPI DUP1 PUSH4 0xB88D4FDE EQ PUSH2 0x23D JUMPI PUSH2 0x121 JUMP JUMPDEST DUP1 PUSH4 0x23B872DD GT PUSH2 0xF4 JUMPI DUP1 PUSH4 0x23B872DD EQ PUSH2 0x199 JUMPI DUP1 PUSH4 0x42842E0E EQ PUSH2 0x1AC JUMPI DUP1 PUSH4 0x61288550 EQ PUSH2 0x1BF JUMPI DUP1 PUSH4 0x6352211E EQ PUSH2 0x1DF JUMPI DUP1 PUSH4 0x70A08231 EQ PUSH2 0x1F2 JUMPI PUSH2 0x121 JUMP JUMPDEST DUP1 PUSH4 0x1FFC9A7 EQ PUSH2 0x126 JUMPI DUP1 PUSH4 0x6FDDE03 EQ PUSH2 0x14F JUMPI DUP1 PUSH4 0x81812FC EQ PUSH2 0x164 JUMPI DUP1 PUSH4 0x95EA7B3 EQ PUSH2 0x184 JUMPI JUMPDEST PUSH1 0x0 DUP1 REVERT JUMPDEST PUSH2 0x139 PUSH2 0x134 CALLDATASIZE PUSH1 0x4 PUSH2 0x179B JUMP JUMPDEST PUSH2 0x2AF JUMP JUMPDEST PUSH1 0x40 MLOAD PUSH2 0x146 SWAP2 SWAP1 PUSH2 0x18B7 JUMP JUMPDEST PUSH1 0x40 MLOAD DUP1 SWAP2 SUB SWAP1 RETURN JUMPDEST PUSH2 0x157 PUSH2 0x2C2 JUMP JUMPDEST PUSH1 0x40 MLOAD PUSH2 0x146 SWAP2 SWAP1 PUSH2 0x18C2 JUMP JUMPDEST PUSH2 0x177 PUSH2 0x172 CALLDATASIZE PUSH1 0x4 PUSH2 0x1806 JUMP JUMPDEST PUSH2 0x354 JUMP JUMPDEST PUSH1 0x40 MLOAD PUSH2 0x146 SWAP2 SWAP1 PUSH2 0x1866 JUMP JUMPDEST PUSH2 0x197 PUSH2 0x192 CALLDATASIZE PUSH1 0x4 PUSH2 0x1772 JUMP JUMPDEST PUSH2 0x3A0 JUMP JUMPDEST STOP JUMPDEST PUSH2 0x197 PUSH2 0x1A7 CALLDATASIZE PUSH1 0x4 PUSH2 0x157C JUMP JUMPDEST PUSH2 0x438 JUMP JUMPDEST PUSH2 0x197 PUSH2 0x1BA CALLDATASIZE PUSH1 0x4 PUSH2 0x157C JUMP JUMPDEST PUSH2 0x470 JUMP JUMPDEST PUSH2 0x1D2 PUSH2 0x1CD CALLDATASIZE PUSH1 0x4 PUSH2 0x17D3 JUMP JUMPDEST PUSH2 0x48B JUMP JUMPDEST PUSH1 0x40 MLOAD PUSH2 0x146 SWAP2 SWAP1 PUSH2 0x1DEC JUMP JUMPDEST PUSH2 0x177 PUSH2 0x1ED CALLDATASIZE PUSH1 0x4 PUSH2 0x1806 JUMP JUMPDEST PUSH2 0x743 JUMP JUMPDEST PUSH2 0x205 PUSH2 0x200 CALLDATASIZE PUSH1 0x4 PUSH2 0x1530 JUMP JUMPDEST PUSH2 0x778 JUMP JUMPDEST PUSH1 0x40 MLOAD PUSH2 0x146 SWAP2 SWAP1 PUSH2 0x1E6A JUMP JUMPDEST PUSH2 0x197 PUSH2 0x7BC JUMP JUMPDEST PUSH2 0x177 PUSH2 0x807 JUMP JUMPDEST PUSH2 0x157 PUSH2 0x816 JUMP JUMPDEST PUSH2 0x197 PUSH2 0x238 CALLDATASIZE PUSH1 0x4 PUSH2 0x1630 JUMP JUMPDEST PUSH2 0x825 JUMP JUMPDEST PUSH2 0x197 PUSH2 0x24B CALLDATASIZE PUSH1 0x4 PUSH2 0x15B7 JUMP JUMPDEST PUSH2 0x83B JUMP JUMPDEST PUSH2 0x157 PUSH2 0x25E CALLDATASIZE PUSH1 0x4 PUSH2 0x1806 JUMP JUMPDEST PUSH2 0x87A JUMP JUMPDEST PUSH2 0x1D2 PUSH2 0x271 CALLDATASIZE PUSH1 0x4 PUSH2 0x1806 JUMP JUMPDEST PUSH2 0x940 JUMP JUMPDEST PUSH2 0x139 PUSH2 0x284 CALLDATASIZE PUSH1 0x4 PUSH2 0x154A JUMP JUMPDEST PUSH2 0xBD4 JUMP JUMPDEST PUSH2 0x197 PUSH2 0x297 CALLDATASIZE PUSH1 0x4 PUSH2 0x1530 JUMP JUMPDEST PUSH2 0xC02 JUMP JUMPDEST PUSH2 0x197 PUSH2 0x2AA CALLDATASIZE PUSH1 0x4 PUSH2 0x166A JUMP JUMPDEST PUSH2 0xC73 JUMP JUMPDEST PUSH1 0x0 PUSH2 0x2BA DUP3 PUSH2 0xD7A JUMP JUMPDEST SWAP1 POP JUMPDEST SWAP2 SWAP1 POP JUMP JUMPDEST PUSH1 0x60 PUSH1 0x0 DUP1 SLOAD PUSH2 0x2D1 SWAP1 PUSH2 0x1EF8 JUMP JUMPDEST DUP1 PUSH1 0x1F ADD PUSH1 0x20 DUP1 SWAP2 DIV MUL PUSH1 0x20 ADD PUSH1 0x40 MLOAD SWAP1 DUP2 ADD PUSH1 0x40 MSTORE DUP1 SWAP3 SWAP2 SWAP1 DUP2 DUP2 MSTORE PUSH1 0x20 ADD DUP3 DUP1 SLOAD PUSH2 0x2FD SWAP1 PUSH2 0x1EF8 JUMP JUMPDEST DUP1 ISZERO PUSH2 0x34A JUMPI DUP1 PUSH1 0x1F LT PUSH2 0x31F JUMPI PUSH2 0x100 DUP1 DUP4 SLOAD DIV MUL DUP4 MSTORE SWAP2 PUSH1 0x20 ADD SWAP2 PUSH2 0x34A JUMP JUMPDEST DUP3 ADD SWAP2 SWAP1 PUSH1 0x0 MSTORE PUSH1 0x20 PUSH1 0x0 KECCAK256 SWAP1 JUMPDEST DUP2 SLOAD DUP2 MSTORE SWAP1 PUSH1 0x1 ADD SWAP1 PUSH1 0x20 ADD DUP1 DUP4 GT PUSH2 0x32D JUMPI DUP3 SWAP1 SUB PUSH1 0x1F AND DUP3 ADD SWAP2 JUMPDEST POP POP POP POP POP SWAP1 POP SWAP1 JUMP JUMPDEST PUSH1 0x0 PUSH2 0x35F DUP3 PUSH2 0xDBA JUMP JUMPDEST PUSH2 0x384 JUMPI PUSH1 0x40 MLOAD PUSH3 0x461BCD PUSH1 0xE5 SHL DUP2 MSTORE PUSH1 0x4 ADD PUSH2 0x37B SWAP1 PUSH2 0x1BF5 JUMP JUMPDEST PUSH1 0x40 MLOAD DUP1 SWAP2 SUB SWAP1 REVERT JUMPDEST POP PUSH1 0x0 SWAP1 DUP2 MSTORE PUSH1 0x4 PUSH1 0x20 MSTORE PUSH1 0x40 SWAP1 KECCAK256 SLOAD PUSH1 0x1 PUSH1 0x1 PUSH1 0xA0 SHL SUB AND SWAP1 JUMP JUMPDEST PUSH1 0x0 PUSH2 0x3AB DUP3 PUSH2 0x743 JUMP JUMPDEST SWAP1 POP DUP1 PUSH1 0x1 PUSH1 0x1 PUSH1 0xA0 SHL SUB AND DUP4 PUSH1 0x1 PUSH1 0x1 PUSH1 0xA0 SHL SUB AND EQ ISZERO PUSH2 0x3DF JUMPI PUSH1 0x40 MLOAD PUSH3 0x461BCD PUSH1 0xE5 SHL DUP2 MSTORE PUSH1 0x4 ADD PUSH2 0x37B SWAP1 PUSH2 0x1D5A JUMP JUMPDEST DUP1 PUSH1 0x1 PUSH1 0x1 PUSH1 0xA0 SHL SUB AND PUSH2 0x3F1 PUSH2 0xDD7 JUMP JUMPDEST PUSH1 0x1 PUSH1 0x1 PUSH1 0xA0 SHL SUB AND EQ DUP1 PUSH2 0x40D JUMPI POP PUSH2 0x40D DUP2 PUSH2 0x284 PUSH2 0xDD7 JUMP JUMPDEST PUSH2 0x429 JUMPI PUSH1 0x40 MLOAD PUSH3 0x461BCD PUSH1 0xE5 SHL DUP2 MSTORE PUSH1 0x4 ADD PUSH2 0x37B SWAP1 PUSH2 0x1AD0 JUMP JUMPDEST PUSH2 0x433 DUP4 DUP4 PUSH2 0xDDB JUMP JUMPDEST POP POP POP JUMP JUMPDEST PUSH2 0x449 PUSH2 0x443 PUSH2 0xDD7 JUMP JUMPDEST DUP3 PUSH2 0xE49 JUMP JUMPDEST PUSH2 0x465 JUMPI PUSH1 0x40 MLOAD PUSH3 0x461BCD PUSH1 0xE5 SHL DUP2 MSTORE PUSH1 0x4 ADD PUSH2 0x37B SWAP1 PUSH2 0x1D9B JUMP JUMPDEST PUSH2 0x433 DUP4 DUP4 DUP4 PUSH2 0xECE JUMP JUMPDEST PUSH2 0x433 DUP4 DUP4 DUP4 PUSH1 0x40 MLOAD DUP1 PUSH1 0x20 ADD PUSH1 0x40 MSTORE DUP1 PUSH1 0x0 DUP2 MSTORE POP PUSH2 0x83B JUMP JUMPDEST PUSH2 0x493 PUSH2 0x13DA JUMP JUMPDEST PUSH1 0x0 PUSH1 0x9 DUP4 PUSH1 0x40 MLOAD PUSH2 0x4A5 SWAP2 SWAP1 PUSH2 0x184A JUMP JUMPDEST SWAP1 DUP2 MSTORE PUSH1 0x20 ADD PUSH1 0x40 MLOAD DUP1 SWAP2 SUB SWAP1 KECCAK256 SLOAD SWAP1 POP PUSH2 0x4BF DUP2 PUSH2 0xDBA JUMP JUMPDEST PUSH2 0x4DB JUMPI PUSH1 0x40 MLOAD PUSH3 0x461BCD PUSH1 0xE5 SHL DUP2 MSTORE PUSH1 0x4 ADD PUSH2 0x37B SWAP1 PUSH2 0x1A4D JUMP JUMPDEST PUSH1 0x0 DUP2 DUP2 MSTORE PUSH1 0x8 PUSH1 0x20 MSTORE PUSH1 0x40 SWAP1 DUP2 SWAP1 KECCAK256 DUP2 MLOAD PUSH1 0x80 DUP2 ADD SWAP1 SWAP3 MSTORE DUP1 SLOAD DUP3 SWAP1 DUP3 SWAP1 PUSH2 0x503 SWAP1 PUSH2 0x1EF8 JUMP JUMPDEST DUP1 PUSH1 0x1F ADD PUSH1 0x20 DUP1 SWAP2 DIV MUL PUSH1 0x20 ADD PUSH1 0x40 MLOAD SWAP1 DUP2 ADD PUSH1 0x40 MSTORE DUP1 SWAP3 SWAP2 SWAP1 DUP2 DUP2 MSTORE PUSH1 0x20 ADD DUP3 DUP1 SLOAD PUSH2 0x52F SWAP1 PUSH2 0x1EF8 JUMP JUMPDEST DUP1 ISZERO PUSH2 0x57C JUMPI DUP1 PUSH1 0x1F LT PUSH2 0x551 JUMPI PUSH2 0x100 DUP1 DUP4 SLOAD DIV MUL DUP4 MSTORE SWAP2 PUSH1 0x20 ADD SWAP2 PUSH2 0x57C JUMP JUMPDEST DUP3 ADD SWAP2 SWAP1 PUSH1 0x0 MSTORE PUSH1 0x20 PUSH1 0x0 KECCAK256 SWAP1 JUMPDEST DUP2 SLOAD DUP2 MSTORE SWAP1 PUSH1 0x1 ADD SWAP1 PUSH1 0x20 ADD DUP1 DUP4 GT PUSH2 0x55F JUMPI DUP3 SWAP1 SUB PUSH1 0x1F AND DUP3 ADD SWAP2 JUMPDEST POP POP POP POP POP DUP2 MSTORE PUSH1 0x20 ADD PUSH1 0x1 DUP3 ADD DUP1 SLOAD PUSH2 0x595 SWAP1 PUSH2 0x1EF8 JUMP JUMPDEST DUP1 PUSH1 0x1F ADD PUSH1 0x20 DUP1 SWAP2 DIV MUL PUSH1 0x20 ADD PUSH1 0x40 MLOAD SWAP1 DUP2 ADD PUSH1 0x40 MSTORE DUP1 SWAP3 SWAP2 SWAP1 DUP2 DUP2 MSTORE PUSH1 0x20 ADD DUP3 DUP1 SLOAD PUSH2 0x5C1 SWAP1 PUSH2 0x1EF8 JUMP JUMPDEST DUP1 ISZERO PUSH2 0x60E JUMPI DUP1 PUSH1 0x1F LT PUSH2 0x5E3 JUMPI PUSH2 0x100 DUP1 DUP4 SLOAD DIV MUL DUP4 MSTORE SWAP2 PUSH1 0x20 ADD SWAP2 PUSH2 0x60E JUMP JUMPDEST DUP3 ADD SWAP2 SWAP1 PUSH1 0x0 MSTORE PUSH1 0x20 PUSH1 0x0 KECCAK256 SWAP1 JUMPDEST DUP2 SLOAD DUP2 MSTORE SWAP1 PUSH1 0x1 ADD SWAP1 PUSH1 0x20 ADD DUP1 DUP4 GT PUSH2 0x5F1 JUMPI DUP3 SWAP1 SUB PUSH1 0x1F AND DUP3 ADD SWAP2 JUMPDEST POP POP POP POP POP DUP2 MSTORE PUSH1 0x20 ADD PUSH1 0x2 DUP3 ADD DUP1 SLOAD PUSH2 0x627 SWAP1 PUSH2 0x1EF8 JUMP JUMPDEST DUP1 PUSH1 0x1F ADD PUSH1 0x20 DUP1 SWAP2 DIV MUL PUSH1 0x20 ADD PUSH1 0x40 MLOAD SWAP1 DUP2 ADD PUSH1 0x40 MSTORE DUP1 SWAP3 SWAP2 SWAP1 DUP2 DUP2 MSTORE PUSH1 0x20 ADD DUP3 DUP1 SLOAD PUSH2 0x653 SWAP1 PUSH2 0x1EF8 JUMP JUMPDEST DUP1 ISZERO PUSH2 0x6A0 JUMPI DUP1 PUSH1 0x1F LT PUSH2 0x675 JUMPI PUSH2 0x100 DUP1 DUP4 SLOAD DIV MUL DUP4 MSTORE SWAP2 PUSH1 0x20 ADD SWAP2 PUSH2 0x6A0 JUMP JUMPDEST DUP3 ADD SWAP2 SWAP1 PUSH1 0x0 MSTORE PUSH1 0x20 PUSH1 0x0 KECCAK256 SWAP1 JUMPDEST DUP2 SLOAD DUP2 MSTORE SWAP1 PUSH1 0x1 ADD SWAP1 PUSH1 0x20 ADD DUP1 DUP4 GT PUSH2 0x683 JUMPI DUP3 SWAP1 SUB PUSH1 0x1F AND DUP3 ADD SWAP2 JUMPDEST POP POP POP POP POP DUP2 MSTORE PUSH1 0x20 ADD PUSH1 0x3 DUP3 ADD DUP1 SLOAD PUSH2 0x6B9 SWAP1 PUSH2 0x1EF8 JUMP JUMPDEST DUP1 PUSH1 0x1F ADD PUSH1 0x20 DUP1 SWAP2 DIV MUL PUSH1 0x20 ADD PUSH1 0x40 MLOAD SWAP1 DUP2 ADD PUSH1 0x40 MSTORE DUP1 SWAP3 SWAP2 SWAP1 DUP2 DUP2 MSTORE PUSH1 0x20 ADD DUP3 DUP1 SLOAD PUSH2 0x6E5 SWAP1 PUSH2 0x1EF8 JUMP JUMPDEST DUP1 ISZERO PUSH2 0x732 JUMPI DUP1 PUSH1 0x1F LT PUSH2 0x707 JUMPI PUSH2 0x100 DUP1 DUP4 SLOAD DIV MUL DUP4 MSTORE SWAP2 PUSH1 0x20 ADD SWAP2 PUSH2 0x732 JUMP JUMPDEST DUP3 ADD SWAP2 SWAP1 PUSH1 0x0 MSTORE PUSH1 0x20 PUSH1 0x0 KECCAK256 SWAP1 JUMPDEST DUP2 SLOAD DUP2 MSTORE SWAP1 PUSH1 0x1 ADD SWAP1 PUSH1 0x20 ADD DUP1 DUP4 GT PUSH2 0x715 JUMPI DUP3 SWAP1 SUB PUSH1 0x1F AND DUP3 ADD SWAP2 JUMPDEST POP POP POP POP POP DUP2 MSTORE POP POP SWAP2 POP POP SWAP2 SWAP1 POP JUMP JUMPDEST PUSH1 0x0 DUP2 DUP2 MSTORE PUSH1 0x2 PUSH1 0x20 MSTORE PUSH1 0x40 DUP2 KECCAK256 SLOAD PUSH1 0x1 PUSH1 0x1 PUSH1 0xA0 SHL SUB AND DUP1 PUSH2 0x2BA JUMPI PUSH1 0x40 MLOAD PUSH3 0x461BCD PUSH1 0xE5 SHL DUP2 MSTORE PUSH1 0x4 ADD PUSH2 0x37B SWAP1 PUSH2 0x1B77 JUMP JUMPDEST PUSH1 0x0 PUSH1 0x1 PUSH1 0x1 PUSH1 0xA0 SHL SUB DUP3 AND PUSH2 0x7A0 JUMPI PUSH1 0x40 MLOAD PUSH3 0x461BCD PUSH1 0xE5 SHL DUP2 MSTORE PUSH1 0x4 ADD PUSH2 0x37B SWAP1 PUSH2 0x1B2D JUMP JUMPDEST POP PUSH1 0x1 PUSH1 0x1 PUSH1 0xA0 SHL SUB AND PUSH1 0x0 SWAP1 DUP2 MSTORE PUSH1 0x3 PUSH1 0x20 MSTORE PUSH1 0x40 SWAP1 KECCAK256 SLOAD SWAP1 JUMP JUMPDEST PUSH2 0x7C4 PUSH2 0xDD7 JUMP JUMPDEST PUSH1 0x1 PUSH1 0x1 PUSH1 0xA0 SHL SUB AND PUSH2 0x7D5 PUSH2 0x807 JUMP JUMPDEST PUSH1 0x1 PUSH1 0x1 PUSH1 0xA0 SHL SUB AND EQ PUSH2 0x7FB JUMPI PUSH1 0x40 MLOAD PUSH3 0x461BCD PUSH1 0xE5 SHL DUP2 MSTORE PUSH1 0x4 ADD PUSH2 0x37B SWAP1 PUSH2 0x1C8D JUMP JUMPDEST PUSH2 0x805 PUSH1 0x0 PUSH2 0xFFB JUMP JUMPDEST JUMP JUMPDEST PUSH1 0x6 SLOAD PUSH1 0x1 PUSH1 0x1 PUSH1 0xA0 SHL SUB AND SWAP1 JUMP JUMPDEST PUSH1 0x60 PUSH1 0x1 DUP1 SLOAD PUSH2 0x2D1 SWAP1 PUSH2 0x1EF8 JUMP JUMPDEST PUSH2 0x837 PUSH2 0x830 PUSH2 0xDD7 JUMP JUMPDEST DUP4 DUP4 PUSH2 0x104D JUMP JUMPDEST POP POP JUMP JUMPDEST PUSH2 0x84C PUSH2 0x846 PUSH2 0xDD7 JUMP JUMPDEST DUP4 PUSH2 0xE49 JUMP JUMPDEST PUSH2 0x868 JUMPI PUSH1 0x40 MLOAD PUSH3 0x461BCD PUSH1 0xE5 SHL DUP2 MSTORE PUSH1 0x4 ADD PUSH2 0x37B SWAP1 PUSH2 0x1D9B JUMP JUMPDEST PUSH2 0x874 DUP5 DUP5 DUP5 DUP5 PUSH2 0x10F0 JUMP JUMPDEST POP POP POP POP JUMP JUMPDEST PUSH1 0x60 PUSH2 0x885 DUP3 PUSH2 0xDBA JUMP JUMPDEST PUSH2 0x8A1 JUMPI PUSH1 0x40 MLOAD PUSH3 0x461BCD PUSH1 0xE5 SHL DUP2 MSTORE PUSH1 0x4 ADD PUSH2 0x37B SWAP1 PUSH2 0x1D0B JUMP JUMPDEST PUSH1 0x0 DUP3 DUP2 MSTORE PUSH1 0xA PUSH1 0x20 MSTORE PUSH1 0x40 DUP2 KECCAK256 DUP1 SLOAD PUSH2 0x8BA SWAP1 PUSH2 0x1EF8 JUMP JUMPDEST DUP1 PUSH1 0x1F ADD PUSH1 0x20 DUP1 SWAP2 DIV MUL PUSH1 0x20 ADD PUSH1 0x40 MLOAD SWAP1 DUP2 ADD PUSH1 0x40 MSTORE DUP1 SWAP3 SWAP2 SWAP1 DUP2 DUP2 MSTORE PUSH1 0x20 ADD DUP3 DUP1 SLOAD PUSH2 0x8E6 SWAP1 PUSH2 0x1EF8 JUMP JUMPDEST DUP1 ISZERO PUSH2 0x933 JUMPI DUP1 PUSH1 0x1F LT PUSH2 0x908 JUMPI PUSH2 0x100 DUP1 DUP4 SLOAD DIV MUL DUP4 MSTORE SWAP2 PUSH1 0x20 ADD SWAP2 PUSH2 0x933 JUMP JUMPDEST DUP3 ADD SWAP2 SWAP1 PUSH1 0x0 MSTORE PUSH1 0x20 PUSH1 0x0 KECCAK256 SWAP1 JUMPDEST DUP2 SLOAD DUP2 MSTORE SWAP1 PUSH1 0x1 ADD SWAP1 PUSH1 0x20 ADD DUP1 DUP4 GT PUSH2 0x916 JUMPI DUP3 SWAP1 SUB PUSH1 0x1F AND DUP3 ADD SWAP2 JUMPDEST POP SWAP4 SWAP8 SWAP7 POP POP POP POP POP POP POP JUMP JUMPDEST PUSH2 0x948 PUSH2 0x13DA JUMP JUMPDEST PUSH2 0x951 DUP3 PUSH2 0xDBA JUMP JUMPDEST PUSH2 0x96D JUMPI PUSH1 0x40 MLOAD PUSH3 0x461BCD PUSH1 0xE5 SHL DUP2 MSTORE PUSH1 0x4 ADD PUSH2 0x37B SWAP1 PUSH2 0x1A1F JUMP JUMPDEST PUSH1 0x0 DUP3 DUP2 MSTORE PUSH1 0x8 PUSH1 0x20 MSTORE PUSH1 0x40 SWAP1 DUP2 SWAP1 KECCAK256 DUP2 MLOAD PUSH1 0x80 DUP2 ADD SWAP1 SWAP3 MSTORE DUP1 SLOAD DUP3 SWAP1 DUP3 SWAP1 PUSH2 0x995 SWAP1 PUSH2 0x1EF8 JUMP JUMPDEST DUP1 PUSH1 0x1F ADD PUSH1 0x20 DUP1 SWAP2 DIV MUL PUSH1 0x20 ADD PUSH1 0x40 MLOAD SWAP1 DUP2 ADD PUSH1 0x40 MSTORE DUP1 SWAP3 SWAP2 SWAP1 DUP2 DUP2 MSTORE PUSH1 0x20 ADD DUP3 DUP1 SLOAD PUSH2 0x9C1 SWAP1 PUSH2 0x1EF8 JUMP JUMPDEST DUP1 ISZERO PUSH2 0xA0E JUMPI DUP1 PUSH1 0x1F LT PUSH2 0x9E3 JUMPI PUSH2 0x100 DUP1 DUP4 SLOAD DIV MUL DUP4 MSTORE SWAP2 PUSH1 0x20 ADD SWAP2 PUSH2 0xA0E JUMP JUMPDEST DUP3 ADD SWAP2 SWAP1 PUSH1 0x0 MSTORE PUSH1 0x20 PUSH1 0x0 KECCAK256 SWAP1 JUMPDEST DUP2 SLOAD DUP2 MSTORE SWAP1 PUSH1 0x1 ADD SWAP1 PUSH1 0x20 ADD DUP1 DUP4 GT PUSH2 0x9F1 JUMPI DUP3 SWAP1 SUB PUSH1 0x1F AND DUP3 ADD SWAP2 JUMPDEST POP POP POP POP POP DUP2 MSTORE PUSH1 0x20 ADD PUSH1 0x1 DUP3 ADD DUP1 SLOAD PUSH2 0xA27 SWAP1 PUSH2 0x1EF8 JUMP JUMPDEST DUP1 PUSH1 0x1F ADD PUSH1 0x20 DUP1 SWAP2 DIV MUL PUSH1 0x20 ADD PUSH1 0x40 MLOAD SWAP1 DUP2 ADD PUSH1 0x40 MSTORE DUP1 SWAP3 SWAP2 SWAP1 DUP2 DUP2 MSTORE PUSH1 0x20 ADD DUP3 DUP1 SLOAD PUSH2 0xA53 SWAP1 PUSH2 0x1EF8 JUMP JUMPDEST DUP1 ISZERO PUSH2 0xAA0 JUMPI DUP1 PUSH1 0x1F LT PUSH2 0xA75 JUMPI PUSH2 0x100 DUP1 DUP4 SLOAD DIV MUL DUP4 MSTORE SWAP2 PUSH1 0x20 ADD SWAP2 PUSH2 0xAA0 JUMP JUMPDEST DUP3 ADD SWAP2 SWAP1 PUSH1 0x0 MSTORE PUSH1 0x20 PUSH1 0x0 KECCAK256 SWAP1 JUMPDEST DUP2 SLOAD DUP2 MSTORE SWAP1 PUSH1 0x1 ADD SWAP1 PUSH1 0x20 ADD DUP1 DUP4 GT PUSH2 0xA83 JUMPI DUP3 SWAP1 SUB PUSH1 0x1F AND DUP3 ADD SWAP2 JUMPDEST POP POP POP POP POP DUP2 MSTORE PUSH1 0x20 ADD PUSH1 0x2 DUP3 ADD DUP1 SLOAD PUSH2 0xAB9 SWAP1 PUSH2 0x1EF8 JUMP JUMPDEST DUP1 PUSH1 0x1F ADD PUSH1 0x20 DUP1 SWAP2 DIV MUL PUSH1 0x20 ADD PUSH1 0x40 MLOAD SWAP1 DUP2 ADD PUSH1 0x40 MSTORE DUP1 SWAP3 SWAP2 SWAP1 DUP2 DUP2 MSTORE PUSH1 0x20 ADD DUP3 DUP1 SLOAD PUSH2 0xAE5 SWAP1 PUSH2 0x1EF8 JUMP JUMPDEST DUP1 ISZERO PUSH2 0xB32 JUMPI DUP1 PUSH1 0x1F LT PUSH2 0xB07 JUMPI PUSH2 0x100 DUP1 DUP4 SLOAD DIV MUL DUP4 MSTORE SWAP2 PUSH1 0x20 ADD SWAP2 PUSH2 0xB32 JUMP JUMPDEST DUP3 ADD SWAP2 SWAP1 PUSH1 0x0 MSTORE PUSH1 0x20 PUSH1 0x0 KECCAK256 SWAP1 JUMPDEST DUP2 SLOAD DUP2 MSTORE SWAP1 PUSH1 0x1 ADD SWAP1 PUSH1 0x20 ADD DUP1 DUP4 GT PUSH2 0xB15 JUMPI DUP3 SWAP1 SUB PUSH1 0x1F AND DUP3 ADD SWAP2 JUMPDEST POP POP POP POP POP DUP2 MSTORE PUSH1 0x20 ADD PUSH1 0x3 DUP3 ADD DUP1 SLOAD PUSH2 0xB4B SWAP1 PUSH2 0x1EF8 JUMP JUMPDEST DUP1 PUSH1 0x1F ADD PUSH1 0x20 DUP1 SWAP2 DIV MUL PUSH1 0x20 ADD PUSH1 0x40 MLOAD SWAP1 DUP2 ADD PUSH1 0x40 MSTORE DUP1 SWAP3 SWAP2 SWAP1 DUP2 DUP2 MSTORE PUSH1 0x20 ADD DUP3 DUP1 SLOAD PUSH2 0xB77 SWAP1 PUSH2 0x1EF8 JUMP JUMPDEST DUP1 ISZERO PUSH2 0xBC4 JUMPI DUP1 PUSH1 0x1F LT PUSH2 0xB99 JUMPI PUSH2 0x100 DUP1 DUP4 SLOAD DIV MUL DUP4 MSTORE SWAP2 PUSH1 0x20 ADD SWAP2 PUSH2 0xBC4 JUMP JUMPDEST DUP3 ADD SWAP2 SWAP1 PUSH1 0x0 MSTORE PUSH1 0x20 PUSH1 0x0 KECCAK256 SWAP1 JUMPDEST DUP2 SLOAD DUP2 MSTORE SWAP1 PUSH1 0x1 ADD SWAP1 PUSH1 0x20 ADD DUP1 DUP4 GT PUSH2 0xBA7 JUMPI DUP3 SWAP1 SUB PUSH1 0x1F AND DUP3 ADD SWAP2 JUMPDEST POP POP POP POP POP DUP2 MSTORE POP POP SWAP1 POP SWAP2 SWAP1 POP JUMP JUMPDEST PUSH1 0x1 PUSH1 0x1 PUSH1 0xA0 SHL SUB SWAP2 DUP3 AND PUSH1 0x0 SWAP1 DUP2 MSTORE PUSH1 0x5 PUSH1 0x20 SWAP1 DUP2 MSTORE PUSH1 0x40 DUP1 DUP4 KECCAK256 SWAP4 SWAP1 SWAP5 AND DUP3 MSTORE SWAP2 SWAP1 SWAP2 MSTORE KECCAK256 SLOAD PUSH1 0xFF AND SWAP1 JUMP JUMPDEST PUSH2 0xC0A PUSH2 0xDD7 JUMP JUMPDEST PUSH1 0x1 PUSH1 0x1 PUSH1 0xA0 SHL SUB AND PUSH2 0xC1B PUSH2 0x807 JUMP JUMPDEST PUSH1 0x1 PUSH1 0x1 PUSH1 0xA0 SHL SUB AND EQ PUSH2 0xC41 JUMPI PUSH1 0x40 MLOAD PUSH3 0x461BCD PUSH1 0xE5 SHL DUP2 MSTORE PUSH1 0x4 ADD PUSH2 0x37B SWAP1 PUSH2 0x1C8D JUMP JUMPDEST PUSH1 0x1 PUSH1 0x1 PUSH1 0xA0 SHL SUB DUP2 AND PUSH2 0xC67 JUMPI PUSH1 0x40 MLOAD PUSH3 0x461BCD PUSH1 0xE5 SHL DUP2 MSTORE PUSH1 0x4 ADD PUSH2 0x37B SWAP1 PUSH2 0x1927 JUMP JUMPDEST PUSH2 0xC70 DUP2 PUSH2 0xFFB JUMP JUMPDEST POP JUMP JUMPDEST PUSH2 0xC7B PUSH2 0xDD7 JUMP JUMPDEST PUSH1 0x1 PUSH1 0x1 PUSH1 0xA0 SHL SUB AND PUSH2 0xC8C PUSH2 0x807 JUMP JUMPDEST PUSH1 0x1 PUSH1 0x1 PUSH1 0xA0 SHL SUB AND EQ PUSH2 0xCB2 JUMPI PUSH1 0x40 MLOAD PUSH3 0x461BCD PUSH1 0xE5 SHL DUP2 MSTORE PUSH1 0x4 ADD PUSH2 0x37B SWAP1 PUSH2 0x1C8D JUMP JUMPDEST PUSH1 0x0 PUSH2 0xCBE PUSH1 0x7 PUSH2 0x1123 JUMP JUMPDEST SWAP1 POP PUSH2 0xCCA PUSH1 0x7 PUSH2 0x1127 JUMP JUMPDEST PUSH2 0xCD4 DUP5 DUP3 PUSH2 0x1130 JUMP JUMPDEST PUSH1 0x0 DUP2 DUP2 MSTORE PUSH1 0x8 PUSH1 0x20 SWAP1 DUP2 MSTORE PUSH1 0x40 SWAP1 SWAP2 KECCAK256 DUP5 MLOAD DUP1 MLOAD DUP7 SWAP4 PUSH2 0xCF9 SWAP3 DUP5 SWAP3 SWAP2 ADD SWAP1 PUSH2 0x1402 JUMP JUMPDEST POP PUSH1 0x20 DUP3 DUP2 ADD MLOAD DUP1 MLOAD PUSH2 0xD12 SWAP3 PUSH1 0x1 DUP6 ADD SWAP3 ADD SWAP1 PUSH2 0x1402 JUMP JUMPDEST POP PUSH1 0x40 DUP3 ADD MLOAD DUP1 MLOAD PUSH2 0xD2E SWAP2 PUSH1 0x2 DUP5 ADD SWAP2 PUSH1 0x20 SWAP1 SWAP2 ADD SWAP1 PUSH2 0x1402 JUMP JUMPDEST POP PUSH1 0x60 DUP3 ADD MLOAD DUP1 MLOAD PUSH2 0xD4A SWAP2 PUSH1 0x3 DUP5 ADD SWAP2 PUSH1 0x20 SWAP1 SWAP2 ADD SWAP1 PUSH2 0x1402 JUMP JUMPDEST POP POP DUP4 MLOAD PUSH1 0x40 MLOAD DUP4 SWAP3 POP PUSH1 0x9 SWAP2 PUSH2 0xD60 SWAP2 PUSH2 0x184A JUMP JUMPDEST SWAP1 DUP2 MSTORE PUSH1 0x40 MLOAD SWAP1 DUP2 SWAP1 SUB PUSH1 0x20 ADD SWAP1 KECCAK256 SSTORE PUSH2 0x874 DUP2 DUP4 PUSH2 0x114A JUMP JUMPDEST PUSH1 0x0 PUSH1 0x1 PUSH1 0x1 PUSH1 0xE0 SHL SUB NOT DUP3 AND PUSH4 0x80AC58CD PUSH1 0xE0 SHL EQ DUP1 PUSH2 0xDAB JUMPI POP PUSH1 0x1 PUSH1 0x1 PUSH1 0xE0 SHL SUB NOT DUP3 AND PUSH4 0x5B5E139F PUSH1 0xE0 SHL EQ JUMPDEST DUP1 PUSH2 0x2BA JUMPI POP PUSH2 0x2BA DUP3 PUSH2 0x118E JUMP JUMPDEST PUSH1 0x0 SWAP1 DUP2 MSTORE PUSH1 0x2 PUSH1 0x20 MSTORE PUSH1 0x40 SWAP1 KECCAK256 SLOAD PUSH1 0x1 PUSH1 0x1 PUSH1 0xA0 SHL SUB AND ISZERO ISZERO SWAP1 JUMP JUMPDEST CALLER SWAP1 JUMP JUMPDEST PUSH1 0x0 DUP2 DUP2 MSTORE PUSH1 0x4 PUSH1 0x20 MSTORE PUSH1 0x40 SWAP1 KECCAK256 DUP1 SLOAD PUSH1 0x1 PUSH1 0x1 PUSH1 0xA0 SHL SUB NOT AND PUSH1 0x1 PUSH1 0x1 PUSH1 0xA0 SHL SUB DUP5 AND SWAP1 DUP2 OR SWAP1 SWAP2 SSTORE DUP2 SWAP1 PUSH2 0xE10 DUP3 PUSH2 0x743 JUMP JUMPDEST PUSH1 0x1 PUSH1 0x1 PUSH1 0xA0 SHL SUB AND PUSH32 0x8C5BE1E5EBEC7D5BD14F71427D1E84F3DD0314C0F7B2291E5B200AC8C7C3B925 PUSH1 0x40 MLOAD PUSH1 0x40 MLOAD DUP1 SWAP2 SUB SWAP1 LOG4 POP POP JUMP JUMPDEST PUSH1 0x0 PUSH2 0xE54 DUP3 PUSH2 0xDBA JUMP JUMPDEST PUSH2 0xE70 JUMPI PUSH1 0x40 MLOAD PUSH3 0x461BCD PUSH1 0xE5 SHL DUP2 MSTORE PUSH1 0x4 ADD PUSH2 0x37B SWAP1 PUSH2 0x1A84 JUMP JUMPDEST PUSH1 0x0 PUSH2 0xE7B DUP4 PUSH2 0x743 JUMP JUMPDEST SWAP1 POP DUP1 PUSH1 0x1 PUSH1 0x1 PUSH1 0xA0 SHL SUB AND DUP5 PUSH1 0x1 PUSH1 0x1 PUSH1 0xA0 SHL SUB AND EQ DUP1 PUSH2 0xEB6 JUMPI POP DUP4 PUSH1 0x1 PUSH1 0x1 PUSH1 0xA0 SHL SUB AND PUSH2 0xEAB DUP5 PUSH2 0x354 JUMP JUMPDEST PUSH1 0x1 PUSH1 0x1 PUSH1 0xA0 SHL SUB AND EQ JUMPDEST DUP1 PUSH2 0xEC6 JUMPI POP PUSH2 0xEC6 DUP2 DUP6 PUSH2 0xBD4 JUMP JUMPDEST SWAP5 SWAP4 POP POP POP POP JUMP JUMPDEST DUP3 PUSH1 0x1 PUSH1 0x1 PUSH1 0xA0 SHL SUB AND PUSH2 0xEE1 DUP3 PUSH2 0x743 JUMP JUMPDEST PUSH1 0x1 PUSH1 0x1 PUSH1 0xA0 SHL SUB AND EQ PUSH2 0xF07 JUMPI PUSH1 0x40 MLOAD PUSH3 0x461BCD PUSH1 0xE5 SHL DUP2 MSTORE PUSH1 0x4 ADD PUSH2 0x37B SWAP1 PUSH2 0x1CC2 JUMP JUMPDEST PUSH1 0x1 PUSH1 0x1 PUSH1 0xA0 SHL SUB DUP3 AND PUSH2 0xF2D JUMPI PUSH1 0x40 MLOAD PUSH3 0x461BCD PUSH1 0xE5 SHL DUP2 MSTORE PUSH1 0x4 ADD PUSH2 0x37B SWAP1 PUSH2 0x19A4 JUMP JUMPDEST PUSH2 0xF38 DUP4 DUP4 DUP4 PUSH2 0x433 JUMP JUMPDEST PUSH2 0xF43 PUSH1 0x0 DUP3 PUSH2 0xDDB JUMP JUMPDEST PUSH1 0x1 PUSH1 0x1 PUSH1 0xA0 SHL SUB DUP4 AND PUSH1 0x0 SWAP1 DUP2 MSTORE PUSH1 0x3 PUSH1 0x20 MSTORE PUSH1 0x40 DUP2 KECCAK256 DUP1 SLOAD PUSH1 0x1 SWAP3 SWAP1 PUSH2 0xF6C SWAP1 DUP5 SWAP1 PUSH2 0x1EB5 JUMP JUMPDEST SWAP1 SWAP2 SSTORE POP POP PUSH1 0x1 PUSH1 0x1 PUSH1 0xA0 SHL SUB DUP3 AND PUSH1 0x0 SWAP1 DUP2 MSTORE PUSH1 0x3 PUSH1 0x20 MSTORE PUSH1 0x40 DUP2 KECCAK256 DUP1 SLOAD PUSH1 0x1 SWAP3 SWAP1 PUSH2 0xF9A SWAP1 DUP5 SWAP1 PUSH2 0x1E9D JUMP JUMPDEST SWAP1 SWAP2 SSTORE POP POP PUSH1 0x0 DUP2 DUP2 MSTORE PUSH1 0x2 PUSH1 0x20 MSTORE PUSH1 0x40 DUP1 DUP3 KECCAK256 DUP1 SLOAD PUSH1 0x1 PUSH1 0x1 PUSH1 0xA0 SHL SUB NOT AND PUSH1 0x1 PUSH1 0x1 PUSH1 0xA0 SHL SUB DUP7 DUP2 AND SWAP2 DUP3 OR SWAP1 SWAP3 SSTORE SWAP2 MLOAD DUP5 SWAP4 SWAP2 DUP8 AND SWAP2 PUSH32 0xDDF252AD1BE2C89B69C2B068FC378DAA952BA7F163C4A11628F55A4DF523B3EF SWAP2 LOG4 POP POP POP JUMP JUMPDEST PUSH1 0x6 DUP1 SLOAD PUSH1 0x1 PUSH1 0x1 PUSH1 0xA0 SHL SUB DUP4 DUP2 AND PUSH1 0x1 PUSH1 0x1 PUSH1 0xA0 SHL SUB NOT DUP4 AND DUP2 OR SWAP1 SWAP4 SSTORE PUSH1 0x40 MLOAD SWAP2 AND SWAP2 SWAP1 DUP3 SWAP1 PUSH32 0x8BE0079C531659141344CD1FD0A4F28419497F9722A3DAAFE3B4186F6B6457E0 SWAP1 PUSH1 0x0 SWAP1 LOG3 POP POP JUMP JUMPDEST DUP2 PUSH1 0x1 PUSH1 0x1 PUSH1 0xA0 SHL SUB AND DUP4 PUSH1 0x1 PUSH1 0x1 PUSH1 0xA0 SHL SUB AND EQ ISZERO PUSH2 0x107F JUMPI PUSH1 0x40 MLOAD PUSH3 0x461BCD PUSH1 0xE5 SHL DUP2 MSTORE PUSH1 0x4 ADD PUSH2 0x37B SWAP1 PUSH2 0x19E8 JUMP JUMPDEST PUSH1 0x1 PUSH1 0x1 PUSH1 0xA0 SHL SUB DUP4 DUP2 AND PUSH1 0x0 DUP2 DUP2 MSTORE PUSH1 0x5 PUSH1 0x20 SWAP1 DUP2 MSTORE PUSH1 0x40 DUP1 DUP4 KECCAK256 SWAP5 DUP8 AND DUP1 DUP5 MSTORE SWAP5 SWAP1 SWAP2 MSTORE SWAP1 DUP2 SWAP1 KECCAK256 DUP1 SLOAD PUSH1 0xFF NOT AND DUP6 ISZERO ISZERO OR SWAP1 SSTORE MLOAD PUSH32 0x17307EAB39AB6107E8899845AD3D59BD9653F200F220920489CA2B5937696C31 SWAP1 PUSH2 0x10E3 SWAP1 DUP6 SWAP1 PUSH2 0x18B7 JUMP JUMPDEST PUSH1 0x40 MLOAD DUP1 SWAP2 SUB SWAP1 LOG3 POP POP POP JUMP JUMPDEST PUSH2 0x10FB DUP5 DUP5 DUP5 PUSH2 0xECE JUMP JUMPDEST PUSH2 0x1107 DUP5 DUP5 DUP5 DUP5 PUSH2 0x11A7 JUMP JUMPDEST PUSH2 0x874 JUMPI PUSH1 0x40 MLOAD PUSH3 0x461BCD PUSH1 0xE5 SHL DUP2 MSTORE PUSH1 0x4 ADD PUSH2 0x37B SWAP1 PUSH2 0x18D5 JUMP JUMPDEST SLOAD SWAP1 JUMP JUMPDEST DUP1 SLOAD PUSH1 0x1 ADD SWAP1 SSTORE JUMP JUMPDEST PUSH2 0x837 DUP3 DUP3 PUSH1 0x40 MLOAD DUP1 PUSH1 0x20 ADD PUSH1 0x40 MSTORE DUP1 PUSH1 0x0 DUP2 MSTORE POP PUSH2 0x12C2 JUMP JUMPDEST PUSH2 0x1153 DUP3 PUSH2 0xDBA JUMP JUMPDEST PUSH2 0x116F JUMPI PUSH1 0x40 MLOAD PUSH3 0x461BCD PUSH1 0xE5 SHL DUP2 MSTORE PUSH1 0x4 ADD PUSH2 0x37B SWAP1 PUSH2 0x1C41 JUMP JUMPDEST PUSH1 0x0 DUP3 DUP2 MSTORE PUSH1 0xA PUSH1 0x20 SWAP1 DUP2 MSTORE PUSH1 0x40 SWAP1 SWAP2 KECCAK256 DUP3 MLOAD PUSH2 0x433 SWAP3 DUP5 ADD SWAP1 PUSH2 0x1402 JUMP JUMPDEST PUSH1 0x1 PUSH1 0x1 PUSH1 0xE0 SHL SUB NOT DUP2 AND PUSH4 0x1FFC9A7 PUSH1 0xE0 SHL EQ SWAP2 SWAP1 POP JUMP JUMPDEST PUSH1 0x0 PUSH2 0x11BB DUP5 PUSH1 0x1 PUSH1 0x1 PUSH1 0xA0 SHL SUB AND PUSH2 0x12F5 JUMP JUMPDEST ISZERO PUSH2 0x12B7 JUMPI DUP4 PUSH1 0x1 PUSH1 0x1 PUSH1 0xA0 SHL SUB AND PUSH4 0x150B7A02 PUSH2 0x11D7 PUSH2 0xDD7 JUMP JUMPDEST DUP8 DUP7 DUP7 PUSH1 0x40 MLOAD DUP6 PUSH4 0xFFFFFFFF AND PUSH1 0xE0 SHL DUP2 MSTORE PUSH1 0x4 ADD PUSH2 0x11F9 SWAP5 SWAP4 SWAP3 SWAP2 SWAP1 PUSH2 0x187A JUMP JUMPDEST PUSH1 0x20 PUSH1 0x40 MLOAD DUP1 DUP4 SUB DUP2 PUSH1 0x0 DUP8 DUP1 EXTCODESIZE ISZERO DUP1 ISZERO PUSH2 0x1213 JUMPI PUSH1 0x0 DUP1 REVERT JUMPDEST POP GAS CALL SWAP3 POP POP POP DUP1 ISZERO PUSH2 0x1243 JUMPI POP PUSH1 0x40 DUP1 MLOAD PUSH1 0x1F RETURNDATASIZE SWAP1 DUP2 ADD PUSH1 0x1F NOT AND DUP3 ADD SWAP1 SWAP3 MSTORE PUSH2 0x1240 SWAP2 DUP2 ADD SWAP1 PUSH2 0x17B7 JUMP JUMPDEST PUSH1 0x1 JUMPDEST PUSH2 0x129D JUMPI RETURNDATASIZE DUP1 DUP1 ISZERO PUSH2 0x1271 JUMPI PUSH1 0x40 MLOAD SWAP2 POP PUSH1 0x1F NOT PUSH1 0x3F RETURNDATASIZE ADD AND DUP3 ADD PUSH1 0x40 MSTORE RETURNDATASIZE DUP3 MSTORE RETURNDATASIZE PUSH1 0x0 PUSH1 0x20 DUP5 ADD RETURNDATACOPY PUSH2 0x1276 JUMP JUMPDEST PUSH1 0x60 SWAP2 POP JUMPDEST POP DUP1 MLOAD PUSH2 0x1295 JUMPI PUSH1 0x40 MLOAD PUSH3 0x461BCD PUSH1 0xE5 SHL DUP2 MSTORE PUSH1 0x4 ADD PUSH2 0x37B SWAP1 PUSH2 0x18D5 JUMP JUMPDEST DUP1 MLOAD DUP2 PUSH1 0x20 ADD REVERT JUMPDEST PUSH1 0x1 PUSH1 0x1 PUSH1 0xE0 SHL SUB NOT AND PUSH4 0xA85BD01 PUSH1 0xE1 SHL EQ SWAP1 POP PUSH2 0xEC6 JUMP JUMPDEST POP PUSH1 0x1 SWAP5 SWAP4 POP POP POP POP JUMP JUMPDEST PUSH2 0x12CC DUP4 DUP4 PUSH2 0x12FB JUMP JUMPDEST PUSH2 0x12D9 PUSH1 0x0 DUP5 DUP5 DUP5 PUSH2 0x11A7 JUMP JUMPDEST PUSH2 0x433 JUMPI PUSH1 0x40 MLOAD PUSH3 0x461BCD PUSH1 0xE5 SHL DUP2 MSTORE PUSH1 0x4 ADD PUSH2 0x37B SWAP1 PUSH2 0x18D5 JUMP JUMPDEST EXTCODESIZE ISZERO ISZERO SWAP1 JUMP JUMPDEST PUSH1 0x1 PUSH1 0x1 PUSH1 0xA0 SHL SUB DUP3 AND PUSH2 0x1321 JUMPI PUSH1 0x40 MLOAD PUSH3 0x461BCD PUSH1 0xE5 SHL DUP2 MSTORE PUSH1 0x4 ADD PUSH2 0x37B SWAP1 PUSH2 0x1BC0 JUMP JUMPDEST PUSH2 0x132A DUP2 PUSH2 0xDBA JUMP JUMPDEST ISZERO PUSH2 0x1347 JUMPI PUSH1 0x40 MLOAD PUSH3 0x461BCD PUSH1 0xE5 SHL DUP2 MSTORE PUSH1 0x4 ADD PUSH2 0x37B SWAP1 PUSH2 0x196D JUMP JUMPDEST PUSH2 0x1353 PUSH1 0x0 DUP4 DUP4 PUSH2 0x433 JUMP JUMPDEST PUSH1 0x1 PUSH1 0x1 PUSH1 0xA0 SHL SUB DUP3 AND PUSH1 0x0 SWAP1 DUP2 MSTORE PUSH1 0x3 PUSH1 0x20 MSTORE PUSH1 0x40 DUP2 KECCAK256 DUP1 SLOAD PUSH1 0x1 SWAP3 SWAP1 PUSH2 0x137C SWAP1 DUP5 SWAP1 PUSH2 0x1E9D JUMP JUMPDEST SWAP1 SWAP2 SSTORE POP POP PUSH1 0x0 DUP2 DUP2 MSTORE PUSH1 0x2 PUSH1 0x20 MSTORE PUSH1 0x40 DUP1 DUP3 KECCAK256 DUP1 SLOAD PUSH1 0x1 PUSH1 0x1 PUSH1 0xA0 SHL SUB NOT AND PUSH1 0x1 PUSH1 0x1 PUSH1 0xA0 SHL SUB DUP7 AND SWAP1 DUP2 OR SWAP1 SWAP2 SSTORE SWAP1 MLOAD DUP4 SWAP3 SWAP1 PUSH32 0xDDF252AD1BE2C89B69C2B068FC378DAA952BA7F163C4A11628F55A4DF523B3EF SWAP1 DUP3 SWAP1 LOG4 POP POP JUMP JUMPDEST PUSH1 0x40 MLOAD DUP1 PUSH1 0x80 ADD PUSH1 0x40 MSTORE DUP1 PUSH1 0x60 DUP2 MSTORE PUSH1 0x20 ADD PUSH1 0x60 DUP2 MSTORE PUSH1 0x20 ADD PUSH1 0x60 DUP2 MSTORE PUSH1 0x20 ADD PUSH1 0x60 DUP2 MSTORE POP SWAP1 JUMP JUMPDEST DUP3 DUP1 SLOAD PUSH2 0x140E SWAP1 PUSH2 0x1EF8 JUMP JUMPDEST SWAP1 PUSH1 0x0 MSTORE PUSH1 0x20 PUSH1 0x0 KECCAK256 SWAP1 PUSH1 0x1F ADD PUSH1 0x20 SWAP1 DIV DUP2 ADD SWAP3 DUP3 PUSH2 0x1430 JUMPI PUSH1 0x0 DUP6 SSTORE PUSH2 0x1476 JUMP JUMPDEST DUP3 PUSH1 0x1F LT PUSH2 0x1449 JUMPI DUP1 MLOAD PUSH1 0xFF NOT AND DUP4 DUP1 ADD OR DUP6 SSTORE PUSH2 0x1476 JUMP JUMPDEST DUP3 DUP1 ADD PUSH1 0x1 ADD DUP6 SSTORE DUP3 ISZERO PUSH2 0x1476 JUMPI SWAP2 DUP3 ADD JUMPDEST DUP3 DUP2 GT ISZERO PUSH2 0x1476 JUMPI DUP3 MLOAD DUP3 SSTORE SWAP2 PUSH1 0x20 ADD SWAP2 SWAP1 PUSH1 0x1 ADD SWAP1 PUSH2 0x145B JUMP JUMPDEST POP PUSH2 0x1482 SWAP3 SWAP2 POP PUSH2 0x1486 JUMP JUMPDEST POP SWAP1 JUMP JUMPDEST JUMPDEST DUP1 DUP3 GT ISZERO PUSH2 0x1482 JUMPI PUSH1 0x0 DUP2 SSTORE PUSH1 0x1 ADD PUSH2 0x1487 JUMP JUMPDEST PUSH1 0x0 PUSH8 0xFFFFFFFFFFFFFFFF DUP4 GT ISZERO PUSH2 0x14B5 JUMPI PUSH2 0x14B5 PUSH2 0x1F49 JUMP JUMPDEST PUSH2 0x14C8 PUSH1 0x1F DUP5 ADD PUSH1 0x1F NOT AND PUSH1 0x20 ADD PUSH2 0x1E73 JUMP JUMPDEST SWAP1 POP DUP3 DUP2 MSTORE DUP4 DUP4 DUP4 ADD GT ISZERO PUSH2 0x14DC JUMPI PUSH1 0x0 DUP1 REVERT JUMPDEST DUP3 DUP3 PUSH1 0x20 DUP4 ADD CALLDATACOPY PUSH1 0x0 PUSH1 0x20 DUP5 DUP4 ADD ADD MSTORE SWAP4 SWAP3 POP POP POP JUMP JUMPDEST DUP1 CALLDATALOAD PUSH1 0x1 PUSH1 0x1 PUSH1 0xA0 SHL SUB DUP2 AND DUP2 EQ PUSH2 0x2BD JUMPI PUSH1 0x0 DUP1 REVERT JUMPDEST PUSH1 0x0 DUP3 PUSH1 0x1F DUP4 ADD SLT PUSH2 0x151A JUMPI DUP1 DUP2 REVERT JUMPDEST PUSH2 0x1529 DUP4 DUP4 CALLDATALOAD PUSH1 0x20 DUP6 ADD PUSH2 0x149B JUMP JUMPDEST SWAP4 SWAP3 POP POP POP JUMP JUMPDEST PUSH1 0x0 PUSH1 0x20 DUP3 DUP5 SUB SLT ISZERO PUSH2 0x1541 JUMPI DUP1 DUP2 REVERT JUMPDEST PUSH2 0x1529 DUP3 PUSH2 0x14F3 JUMP JUMPDEST PUSH1 0x0 DUP1 PUSH1 0x40 DUP4 DUP6 SUB SLT ISZERO PUSH2 0x155C JUMPI DUP1 DUP2 REVERT JUMPDEST PUSH2 0x1565 DUP4 PUSH2 0x14F3 JUMP JUMPDEST SWAP2 POP PUSH2 0x1573 PUSH1 0x20 DUP5 ADD PUSH2 0x14F3 JUMP JUMPDEST SWAP1 POP SWAP3 POP SWAP3 SWAP1 POP JUMP JUMPDEST PUSH1 0x0 DUP1 PUSH1 0x0 PUSH1 0x60 DUP5 DUP7 SUB SLT ISZERO PUSH2 0x1590 JUMPI DUP1 DUP2 REVERT JUMPDEST PUSH2 0x1599 DUP5 PUSH2 0x14F3 JUMP JUMPDEST SWAP3 POP PUSH2 0x15A7 PUSH1 0x20 DUP6 ADD PUSH2 0x14F3 JUMP JUMPDEST SWAP2 POP PUSH1 0x40 DUP5 ADD CALLDATALOAD SWAP1 POP SWAP3 POP SWAP3 POP SWAP3 JUMP JUMPDEST PUSH1 0x0 DUP1 PUSH1 0x0 DUP1 PUSH1 0x80 DUP6 DUP8 SUB SLT ISZERO PUSH2 0x15CC JUMPI DUP1 DUP2 REVERT JUMPDEST PUSH2 0x15D5 DUP6 PUSH2 0x14F3 JUMP JUMPDEST SWAP4 POP PUSH2 0x15E3 PUSH1 0x20 DUP7 ADD PUSH2 0x14F3 JUMP JUMPDEST SWAP3 POP PUSH1 0x40 DUP6 ADD CALLDATALOAD SWAP2 POP PUSH1 0x60 DUP6 ADD CALLDATALOAD PUSH8 0xFFFFFFFFFFFFFFFF DUP2 GT ISZERO PUSH2 0x1605 JUMPI DUP2 DUP3 REVERT JUMPDEST DUP6 ADD PUSH1 0x1F DUP2 ADD DUP8 SGT PUSH2 0x1615 JUMPI DUP2 DUP3 REVERT JUMPDEST PUSH2 0x1624 DUP8 DUP3 CALLDATALOAD PUSH1 0x20 DUP5 ADD PUSH2 0x149B JUMP JUMPDEST SWAP2 POP POP SWAP3 SWAP6 SWAP2 SWAP5 POP SWAP3 POP JUMP JUMPDEST PUSH1 0x0 DUP1 PUSH1 0x40 DUP4 DUP6 SUB SLT ISZERO PUSH2 0x1642 JUMPI DUP2 DUP3 REVERT JUMPDEST PUSH2 0x164B DUP4 PUSH2 0x14F3 JUMP JUMPDEST SWAP2 POP PUSH1 0x20 DUP4 ADD CALLDATALOAD DUP1 ISZERO ISZERO DUP2 EQ PUSH2 0x165F JUMPI DUP2 DUP3 REVERT JUMPDEST DUP1 SWAP2 POP POP SWAP3 POP SWAP3 SWAP1 POP JUMP JUMPDEST PUSH1 0x0 DUP1 PUSH1 0x0 PUSH1 0x60 DUP5 DUP7 SUB SLT ISZERO PUSH2 0x167E JUMPI DUP3 DUP4 REVERT JUMPDEST PUSH2 0x1687 DUP5 PUSH2 0x14F3 JUMP JUMPDEST SWAP3 POP PUSH1 0x20 DUP5 ADD CALLDATALOAD PUSH8 0xFFFFFFFFFFFFFFFF DUP1 DUP3 GT ISZERO PUSH2 0x16A3 JUMPI DUP4 DUP5 REVERT JUMPDEST SWAP1 DUP6 ADD SWAP1 PUSH1 0x80 DUP3 DUP9 SUB SLT ISZERO PUSH2 0x16B6 JUMPI DUP4 DUP5 REVERT JUMPDEST PUSH2 0x16C0 PUSH1 0x80 PUSH2 0x1E73 JUMP JUMPDEST DUP3 CALLDATALOAD DUP3 DUP2 GT ISZERO PUSH2 0x16CE JUMPI DUP6 DUP7 REVERT JUMPDEST PUSH2 0x16DA DUP10 DUP3 DUP7 ADD PUSH2 0x150A JUMP JUMPDEST DUP3 MSTORE POP PUSH1 0x20 DUP4 ADD CALLDATALOAD DUP3 DUP2 GT ISZERO PUSH2 0x16EE JUMPI DUP6 DUP7 REVERT JUMPDEST PUSH2 0x16FA DUP10 DUP3 DUP7 ADD PUSH2 0x150A JUMP JUMPDEST PUSH1 0x20 DUP4 ADD MSTORE POP PUSH1 0x40 DUP4 ADD CALLDATALOAD DUP3 DUP2 GT ISZERO PUSH2 0x1711 JUMPI DUP6 DUP7 REVERT JUMPDEST PUSH2 0x171D DUP10 DUP3 DUP7 ADD PUSH2 0x150A JUMP JUMPDEST PUSH1 0x40 DUP4 ADD MSTORE POP PUSH1 0x60 DUP4 ADD CALLDATALOAD DUP3 DUP2 GT ISZERO PUSH2 0x1734 JUMPI DUP6 DUP7 REVERT JUMPDEST PUSH2 0x1740 DUP10 DUP3 DUP7 ADD PUSH2 0x150A JUMP JUMPDEST PUSH1 0x60 DUP4 ADD MSTORE POP SWAP4 POP PUSH1 0x40 DUP7 ADD CALLDATALOAD SWAP2 POP DUP1 DUP3 GT ISZERO PUSH2 0x175B JUMPI DUP3 DUP4 REVERT JUMPDEST POP PUSH2 0x1768 DUP7 DUP3 DUP8 ADD PUSH2 0x150A JUMP JUMPDEST SWAP2 POP POP SWAP3 POP SWAP3 POP SWAP3 JUMP JUMPDEST PUSH1 0x0 DUP1 PUSH1 0x40 DUP4 DUP6 SUB SLT ISZERO PUSH2 0x1784 JUMPI DUP2 DUP3 REVERT JUMPDEST PUSH2 0x178D DUP4 PUSH2 0x14F3 JUMP JUMPDEST SWAP5 PUSH1 0x20 SWAP4 SWAP1 SWAP4 ADD CALLDATALOAD SWAP4 POP POP POP JUMP JUMPDEST PUSH1 0x0 PUSH1 0x20 DUP3 DUP5 SUB SLT ISZERO PUSH2 0x17AC JUMPI DUP1 DUP2 REVERT JUMPDEST DUP2 CALLDATALOAD PUSH2 0x1529 DUP2 PUSH2 0x1F5F JUMP JUMPDEST PUSH1 0x0 PUSH1 0x20 DUP3 DUP5 SUB SLT ISZERO PUSH2 0x17C8 JUMPI DUP1 DUP2 REVERT JUMPDEST DUP2 MLOAD PUSH2 0x1529 DUP2 PUSH2 0x1F5F JUMP JUMPDEST PUSH1 0x0 PUSH1 0x20 DUP3 DUP5 SUB SLT ISZERO PUSH2 0x17E4 JUMPI DUP1 DUP2 REVERT JUMPDEST DUP2 CALLDATALOAD PUSH8 0xFFFFFFFFFFFFFFFF DUP2 GT ISZERO PUSH2 0x17FA JUMPI DUP2 DUP3 REVERT JUMPDEST PUSH2 0xEC6 DUP5 DUP3 DUP6 ADD PUSH2 0x150A JUMP JUMPDEST PUSH1 0x0 PUSH1 0x20 DUP3 DUP5 SUB SLT ISZERO PUSH2 0x1817 JUMPI DUP1 DUP2 REVERT JUMPDEST POP CALLDATALOAD SWAP2 SWAP1 POP JUMP JUMPDEST PUSH1 0x0 DUP2 MLOAD DUP1 DUP5 MSTORE PUSH2 0x1836 DUP2 PUSH1 0x20 DUP7 ADD PUSH1 0x20 DUP7 ADD PUSH2 0x1ECC JUMP JUMPDEST PUSH1 0x1F ADD PUSH1 0x1F NOT AND SWAP3 SWAP1 SWAP3 ADD PUSH1 0x20 ADD SWAP3 SWAP2 POP POP JUMP JUMPDEST PUSH1 0x0 DUP3 MLOAD PUSH2 0x185C DUP2 DUP5 PUSH1 0x20 DUP8 ADD PUSH2 0x1ECC JUMP JUMPDEST SWAP2 SWAP1 SWAP2 ADD SWAP3 SWAP2 POP POP JUMP JUMPDEST PUSH1 0x1 PUSH1 0x1 PUSH1 0xA0 SHL SUB SWAP2 SWAP1 SWAP2 AND DUP2 MSTORE PUSH1 0x20 ADD SWAP1 JUMP JUMPDEST PUSH1 0x1 PUSH1 0x1 PUSH1 0xA0 SHL SUB DUP6 DUP2 AND DUP3 MSTORE DUP5 AND PUSH1 0x20 DUP3 ADD MSTORE PUSH1 0x40 DUP2 ADD DUP4 SWAP1 MSTORE PUSH1 0x80 PUSH1 0x60 DUP3 ADD DUP2 SWAP1 MSTORE PUSH1 0x0 SWAP1 PUSH2 0x18AD SWAP1 DUP4 ADD DUP5 PUSH2 0x181E JUMP JUMPDEST SWAP7 SWAP6 POP POP POP POP POP POP JUMP JUMPDEST SWAP1 ISZERO ISZERO DUP2 MSTORE PUSH1 0x20 ADD SWAP1 JUMP JUMPDEST PUSH1 0x0 PUSH1 0x20 DUP3 MSTORE PUSH2 0x1529 PUSH1 0x20 DUP4 ADD DUP5 PUSH2 0x181E JUMP JUMPDEST PUSH1 0x20 DUP1 DUP3 MSTORE PUSH1 0x32 SWAP1 DUP3 ADD MSTORE PUSH32 0x4552433732313A207472616E7366657220746F206E6F6E204552433732315265 PUSH1 0x40 DUP3 ADD MSTORE PUSH18 0x31B2B4BB32B91034B6B83632B6B2B73A32B9 PUSH1 0x71 SHL PUSH1 0x60 DUP3 ADD MSTORE PUSH1 0x80 ADD SWAP1 JUMP JUMPDEST PUSH1 0x20 DUP1 DUP3 MSTORE PUSH1 0x26 SWAP1 DUP3 ADD MSTORE PUSH32 0x4F776E61626C653A206E6577206F776E657220697320746865207A65726F2061 PUSH1 0x40 DUP3 ADD MSTORE PUSH6 0x646472657373 PUSH1 0xD0 SHL PUSH1 0x60 DUP3 ADD MSTORE PUSH1 0x80 ADD SWAP1 JUMP JUMPDEST PUSH1 0x20 DUP1 DUP3 MSTORE PUSH1 0x1C SWAP1 DUP3 ADD MSTORE PUSH32 0x4552433732313A20746F6B656E20616C7265616479206D696E74656400000000 PUSH1 0x40 DUP3 ADD MSTORE PUSH1 0x60 ADD SWAP1 JUMP JUMPDEST PUSH1 0x20 DUP1 DUP3 MSTORE PUSH1 0x24 SWAP1 DUP3 ADD MSTORE PUSH32 0x4552433732313A207472616E7366657220746F20746865207A65726F20616464 PUSH1 0x40 DUP3 ADD MSTORE PUSH4 0x72657373 PUSH1 0xE0 SHL PUSH1 0x60 DUP3 ADD MSTORE PUSH1 0x80 ADD SWAP1 JUMP JUMPDEST PUSH1 0x20 DUP1 DUP3 MSTORE PUSH1 0x19 SWAP1 DUP3 ADD MSTORE PUSH32 0x4552433732313A20617070726F766520746F2063616C6C657200000000000000 PUSH1 0x40 DUP3 ADD MSTORE PUSH1 0x60 ADD SWAP1 JUMP JUMPDEST PUSH1 0x20 DUP1 DUP3 MSTORE PUSH1 0x14 SWAP1 DUP3 ADD MSTORE PUSH20 0x151BDAD95B88191BD95CC81B9BDD08195E1A5CDD PUSH1 0x62 SHL PUSH1 0x40 DUP3 ADD MSTORE PUSH1 0x60 ADD SWAP1 JUMP JUMPDEST PUSH1 0x20 DUP1 DUP3 MSTORE PUSH1 0x19 SWAP1 DUP3 ADD MSTORE PUSH32 0x50726F6475637420494420646F6573206E6F7420657869737400000000000000 PUSH1 0x40 DUP3 ADD MSTORE PUSH1 0x60 ADD SWAP1 JUMP JUMPDEST PUSH1 0x20 DUP1 DUP3 MSTORE PUSH1 0x2C SWAP1 DUP3 ADD MSTORE PUSH32 0x4552433732313A206F70657261746F7220717565727920666F72206E6F6E6578 PUSH1 0x40 DUP3 ADD MSTORE PUSH12 0x34B9BA32B73A103A37B5B2B7 PUSH1 0xA1 SHL PUSH1 0x60 DUP3 ADD MSTORE PUSH1 0x80 ADD SWAP1 JUMP JUMPDEST PUSH1 0x20 DUP1 DUP3 MSTORE PUSH1 0x38 SWAP1 DUP3 ADD MSTORE PUSH32 0x4552433732313A20617070726F76652063616C6C6572206973206E6F74206F77 PUSH1 0x40 DUP3 ADD MSTORE PUSH32 0x6E6572206E6F7220617070726F76656420666F7220616C6C0000000000000000 PUSH1 0x60 DUP3 ADD MSTORE PUSH1 0x80 ADD SWAP1 JUMP JUMPDEST PUSH1 0x20 DUP1 DUP3 MSTORE PUSH1 0x2A SWAP1 DUP3 ADD MSTORE PUSH32 0x4552433732313A2062616C616E636520717565727920666F7220746865207A65 PUSH1 0x40 DUP3 ADD MSTORE PUSH10 0x726F2061646472657373 PUSH1 0xB0 SHL PUSH1 0x60 DUP3 ADD MSTORE PUSH1 0x80 ADD SWAP1 JUMP JUMPDEST PUSH1 0x20 DUP1 DUP3 MSTORE PUSH1 0x29 SWAP1 DUP3 ADD MSTORE PUSH32 0x4552433732313A206F776E657220717565727920666F72206E6F6E6578697374 PUSH1 0x40 DUP3 ADD MSTORE PUSH9 0x32B73A103A37B5B2B7 PUSH1 0xB9 SHL PUSH1 0x60 DUP3 ADD MSTORE PUSH1 0x80 ADD SWAP1 JUMP JUMPDEST PUSH1 0x20 DUP1 DUP3 MSTORE DUP2 DUP2 ADD MSTORE PUSH32 0x4552433732313A206D696E7420746F20746865207A65726F2061646472657373 PUSH1 0x40 DUP3 ADD MSTORE PUSH1 0x60 ADD SWAP1 JUMP JUMPDEST PUSH1 0x20 DUP1 DUP3 MSTORE PUSH1 0x2C SWAP1 DUP3 ADD MSTORE PUSH32 0x4552433732313A20617070726F76656420717565727920666F72206E6F6E6578 PUSH1 0x40 DUP3 ADD MSTORE PUSH12 0x34B9BA32B73A103A37B5B2B7 PUSH1 0xA1 SHL PUSH1 0x60 DUP3 ADD MSTORE PUSH1 0x80 ADD SWAP1 JUMP JUMPDEST PUSH1 0x20 DUP1 DUP3 MSTORE PUSH1 0x2C SWAP1 DUP3 ADD MSTORE PUSH32 0x4552433732314D657461646174613A2055524920736574206F66206E6F6E6578 PUSH1 0x40 DUP3 ADD MSTORE PUSH12 0x34B9BA32B73A103A37B5B2B7 PUSH1 0xA1 SHL PUSH1 0x60 DUP3 ADD MSTORE PUSH1 0x80 ADD SWAP1 JUMP JUMPDEST PUSH1 0x20 DUP1 DUP3 MSTORE DUP2 DUP2 ADD MSTORE PUSH32 0x4F776E61626C653A2063616C6C6572206973206E6F7420746865206F776E6572 PUSH1 0x40 DUP3 ADD MSTORE PUSH1 0x60 ADD SWAP1 JUMP JUMPDEST PUSH1 0x20 DUP1 DUP3 MSTORE PUSH1 0x29 SWAP1 DUP3 ADD MSTORE PUSH32 0x4552433732313A207472616E73666572206F6620746F6B656E20746861742069 PUSH1 0x40 DUP3 ADD MSTORE PUSH9 0x39903737BA1037BBB7 PUSH1 0xB9 SHL PUSH1 0x60 DUP3 ADD MSTORE PUSH1 0x80 ADD SWAP1 JUMP JUMPDEST PUSH1 0x20 DUP1 DUP3 MSTORE PUSH1 0x2F SWAP1 DUP3 ADD MSTORE PUSH32 0x4552433732314D657461646174613A2055524920717565727920666F72206E6F PUSH1 0x40 DUP3 ADD MSTORE PUSH15 0x3732BC34B9BA32B73A103A37B5B2B7 PUSH1 0x89 SHL PUSH1 0x60 DUP3 ADD MSTORE PUSH1 0x80 ADD SWAP1 JUMP JUMPDEST PUSH1 0x20 DUP1 DUP3 MSTORE PUSH1 0x21 SWAP1 DUP3 ADD MSTORE PUSH32 0x4552433732313A20617070726F76616C20746F2063757272656E74206F776E65 PUSH1 0x40 DUP3 ADD MSTORE PUSH1 0x39 PUSH1 0xF9 SHL PUSH1 0x60 DUP3 ADD MSTORE PUSH1 0x80 ADD SWAP1 JUMP JUMPDEST PUSH1 0x20 DUP1 DUP3 MSTORE PUSH1 0x31 SWAP1 DUP3 ADD MSTORE PUSH32 0x4552433732313A207472616E736665722063616C6C6572206973206E6F74206F PUSH1 0x40 DUP3 ADD MSTORE PUSH17 0x1DDB995C881B9BDC88185C1C1C9BDD9959 PUSH1 0x7A SHL PUSH1 0x60 DUP3 ADD MSTORE PUSH1 0x80 ADD SWAP1 JUMP JUMPDEST PUSH1 0x0 PUSH1 0x20 DUP3 MSTORE DUP3 MLOAD PUSH1 0x80 PUSH1 0x20 DUP5 ADD MSTORE PUSH2 0x1E08 PUSH1 0xA0 DUP5 ADD DUP3 PUSH2 0x181E JUMP JUMPDEST SWAP1 POP PUSH1 0x20 DUP5 ADD MLOAD PUSH1 0x1F NOT DUP1 DUP6 DUP5 SUB ADD PUSH1 0x40 DUP7 ADD MSTORE PUSH2 0x1E26 DUP4 DUP4 PUSH2 0x181E JUMP JUMPDEST SWAP3 POP PUSH1 0x40 DUP7 ADD MLOAD SWAP2 POP DUP1 DUP6 DUP5 SUB ADD PUSH1 0x60 DUP7 ADD MSTORE PUSH2 0x1E43 DUP4 DUP4 PUSH2 0x181E JUMP JUMPDEST SWAP3 POP PUSH1 0x60 DUP7 ADD MLOAD SWAP2 POP DUP1 DUP6 DUP5 SUB ADD PUSH1 0x80 DUP7 ADD MSTORE POP PUSH2 0x1E61 DUP3 DUP3 PUSH2 0x181E JUMP JUMPDEST SWAP6 SWAP5 POP POP POP POP POP JUMP JUMPDEST SWAP1 DUP2 MSTORE PUSH1 0x20 ADD SWAP1 JUMP JUMPDEST PUSH1 0x40 MLOAD DUP2 DUP2 ADD PUSH8 0xFFFFFFFFFFFFFFFF DUP2 GT DUP3 DUP3 LT OR ISZERO PUSH2 0x1E95 JUMPI PUSH2 0x1E95 PUSH2 0x1F49 JUMP JUMPDEST PUSH1 0x40 MSTORE SWAP2 SWAP1 POP JUMP JUMPDEST PUSH1 0x0 DUP3 NOT DUP3 GT ISZERO PUSH2 0x1EB0 JUMPI PUSH2 0x1EB0 PUSH2 0x1F33 JUMP JUMPDEST POP ADD SWAP1 JUMP JUMPDEST PUSH1 0x0 DUP3 DUP3 LT ISZERO PUSH2 0x1EC7 JUMPI PUSH2 0x1EC7 PUSH2 0x1F33 JUMP JUMPDEST POP SUB SWAP1 JUMP JUMPDEST PUSH1 0x0 JUMPDEST DUP4 DUP2 LT ISZERO PUSH2 0x1EE7 JUMPI DUP2 DUP2 ADD MLOAD DUP4 DUP3 ADD MSTORE PUSH1 0x20 ADD PUSH2 0x1ECF JUMP JUMPDEST DUP4 DUP2 GT ISZERO PUSH2 0x874 JUMPI POP POP PUSH1 0x0 SWAP2 ADD MSTORE JUMP JUMPDEST PUSH1 0x2 DUP2 DIV PUSH1 0x1 DUP3 AND DUP1 PUSH2 0x1F0C JUMPI PUSH1 0x7F DUP3 AND SWAP2 POP JUMPDEST PUSH1 0x20 DUP3 LT DUP2 EQ ISZERO PUSH2 0x1F2D JUMPI PUSH4 0x4E487B71 PUSH1 0xE0 SHL PUSH1 0x0 MSTORE PUSH1 0x22 PUSH1 0x4 MSTORE PUSH1 0x24 PUSH1 0x0 REVERT JUMPDEST POP SWAP2 SWAP1 POP JUMP JUMPDEST PUSH4 0x4E487B71 PUSH1 0xE0 SHL PUSH1 0x0 MSTORE PUSH1 0x11 PUSH1 0x4 MSTORE PUSH1 0x24 PUSH1 0x0 REVERT JUMPDEST PUSH4 0x4E487B71 PUSH1 0xE0 SHL PUSH1 0x0 MSTORE PUSH1 0x41 PUSH1 0x4 MSTORE PUSH1 0x24 PUSH1 0x0 REVERT JUMPDEST PUSH1 0x1 PUSH1 0x1 PUSH1 0xE0 SHL SUB NOT DUP2 AND DUP2 EQ PUSH2 0xC70 JUMPI PUSH1 0x0 DUP1 REVERT INVALID LOG2 PUSH5 0x6970667358 0x22 SLT KECCAK256 0xC4 0xAD SWAP10 PUSH25 0xFB99991329D1D418D189023C494A05C18DA673417D107BEF27 0xB5 SELFBALANCE SWAP4 PUSH5 0x736F6C6343 STOP ADDMOD STOP STOP CALLER "
				},
				"gasEstimates": {
					"creation": {
						"codeDepositCost": "1621400",
						"executionCost": "infinite",
						"totalCost": "infinite"
					},
					"external": {
						"approve(address,uint256)": "infinite",
						"balanceOf(address)": "1421",
						"getApproved(uint256)": "2223",
						"getProductData(uint256)": "infinite",
						"getProductDataById(string)": "infinite",
						"isApprovedForAll(address,address)": "infinite",
						"name()": "infinite",
						"owner()": "1115",
						"ownerOf(uint256)": "1366",
						"renounceOwnership()": "23530",
						"safeMint(address,(string,string,string,string),string)": "infinite",
						"safeTransferFrom(address,address,uint256)": "infinite",
						"safeTransferFrom(address,address,uint256,bytes)": "infinite",
						"setApprovalForAll(address,bool)": "23438",
						"supportsInterface(bytes4)": "infinite",
						"symbol()": "infinite",
						"tokenURI(uint256)": "infinite",
						"transferFrom(address,address,uint256)": "infinite",
						"transferOwnership(address)": "23790"
					},
					"internal": {
						"_setTokenURI(uint256,string memory)": "infinite"
					}
				},
				"methodIdentifiers": {
					"approve(address,uint256)": "095ea7b3",
					"balanceOf(address)": "70a08231",
					"getApproved(uint256)": "081812fc",
					"getProductData(uint256)": "d6d0be9f",
					"getProductDataById(string)": "61288550",
					"isApprovedForAll(address,address)": "e985e9c5",
					"name()": "06fdde03",
					"owner()": "8da5cb5b",
					"ownerOf(uint256)": "6352211e",
					"renounceOwnership()": "715018a6",
					"safeMint(address,(string,string,string,string),string)": "fa8383b7",
					"safeTransferFrom(address,address,uint256)": "42842e0e",
					"safeTransferFrom(address,address,uint256,bytes)": "b88d4fde",
					"setApprovalForAll(address,bool)": "a22cb465",
					"supportsInterface(bytes4)": "01ffc9a7",
					"symbol()": "95d89b41",
					"tokenURI(uint256)": "c87b56dd",
					"transferFrom(address,address,uint256)": "23b872dd",
					"transferOwnership(address)": "f2fde38b"
				}
			},
			"storageLayout": {
				"storage": [
					{
						"astId": 130,
						"contract": "contracts/Trazability_2.sol:Trazability",
						"label": "_name",
						"offset": 0,
						"slot": "0",
						"type": "t_string_storage"
					},
					{
						"astId": 132,
						"contract": "contracts/Trazability_2.sol:Trazability",
						"label": "_symbol",
						"offset": 0,
						"slot": "1",
						"type": "t_string_storage"
					},
					{
						"astId": 136,
						"contract": "contracts/Trazability_2.sol:Trazability",
						"label": "_owners",
						"offset": 0,
						"slot": "2",
						"type": "t_mapping(t_uint256,t_address)"
					},
					{
						"astId": 140,
						"contract": "contracts/Trazability_2.sol:Trazability",
						"label": "_balances",
						"offset": 0,
						"slot": "3",
						"type": "t_mapping(t_address,t_uint256)"
					},
					{
						"astId": 144,
						"contract": "contracts/Trazability_2.sol:Trazability",
						"label": "_tokenApprovals",
						"offset": 0,
						"slot": "4",
						"type": "t_mapping(t_uint256,t_address)"
					},
					{
						"astId": 150,
						"contract": "contracts/Trazability_2.sol:Trazability",
						"label": "_operatorApprovals",
						"offset": 0,
						"slot": "5",
						"type": "t_mapping(t_address,t_mapping(t_address,t_bool))"
					},
					{
						"astId": 7,
						"contract": "contracts/Trazability_2.sol:Trazability",
						"label": "_owner",
						"offset": 0,
						"slot": "6",
						"type": "t_address"
					},
					{
						"astId": 1744,
						"contract": "contracts/Trazability_2.sol:Trazability",
						"label": "_tokenIdCounter",
						"offset": 0,
						"slot": "7",
						"type": "t_struct(Counter)1421_storage"
					},
					{
						"astId": 1758,
						"contract": "contracts/Trazability_2.sol:Trazability",
						"label": "_productData",
						"offset": 0,
						"slot": "8",
						"type": "t_mapping(t_uint256,t_struct(ProductData)1753_storage)"
					},
					{
						"astId": 1762,
						"contract": "contracts/Trazability_2.sol:Trazability",
						"label": "_productIdToTokenId",
						"offset": 0,
						"slot": "9",
						"type": "t_mapping(t_string_memory_ptr,t_uint256)"
					},
					{
						"astId": 1888,
						"contract": "contracts/Trazability_2.sol:Trazability",
						"label": "_tokenURIs",
						"offset": 0,
						"slot": "10",
						"type": "t_mapping(t_uint256,t_string_storage)"
					}
				],
				"types": {
					"t_address": {
						"encoding": "inplace",
						"label": "address",
						"numberOfBytes": "20"
					},
					"t_bool": {
						"encoding": "inplace",
						"label": "bool",
						"numberOfBytes": "1"
					},
					"t_mapping(t_address,t_bool)": {
						"encoding": "mapping",
						"key": "t_address",
						"label": "mapping(address => bool)",
						"numberOfBytes": "32",
						"value": "t_bool"
					},
					"t_mapping(t_address,t_mapping(t_address,t_bool))": {
						"encoding": "mapping",
						"key": "t_address",
						"label": "mapping(address => mapping(address => bool))",
						"numberOfBytes": "32",
						"value": "t_mapping(t_address,t_bool)"
					},
					"t_mapping(t_address,t_uint256)": {
						"encoding": "mapping",
						"key": "t_address",
						"label": "mapping(address => uint256)",
						"numberOfBytes": "32",
						"value": "t_uint256"
					},
					"t_mapping(t_string_memory_ptr,t_uint256)": {
						"encoding": "mapping",
						"key": "t_string_memory_ptr",
						"label": "mapping(string => uint256)",
						"numberOfBytes": "32",
						"value": "t_uint256"
					},
					"t_mapping(t_uint256,t_address)": {
						"encoding": "mapping",
						"key": "t_uint256",
						"label": "mapping(uint256 => address)",
						"numberOfBytes": "32",
						"value": "t_address"
					},
					"t_mapping(t_uint256,t_string_storage)": {
						"encoding": "mapping",
						"key": "t_uint256",
						"label": "mapping(uint256 => string)",
						"numberOfBytes": "32",
						"value": "t_string_storage"
					},
					"t_mapping(t_uint256,t_struct(ProductData)1753_storage)": {
						"encoding": "mapping",
						"key": "t_uint256",
						"label": "mapping(uint256 => struct Trazability.ProductData)",
						"numberOfBytes": "32",
						"value": "t_struct(ProductData)1753_storage"
					},
					"t_string_memory_ptr": {
						"encoding": "bytes",
						"label": "string",
						"numberOfBytes": "32"
					},
					"t_string_storage": {
						"encoding": "bytes",
						"label": "string",
						"numberOfBytes": "32"
					},
					"t_struct(Counter)1421_storage": {
						"encoding": "inplace",
						"label": "struct Counters.Counter",
						"members": [
							{
								"astId": 1420,
								"contract": "contracts/Trazability_2.sol:Trazability",
								"label": "_value",
								"offset": 0,
								"slot": "0",
								"type": "t_uint256"
							}
						],
						"numberOfBytes": "32"
					},
					"t_struct(ProductData)1753_storage": {
						"encoding": "inplace",
						"label": "struct Trazability.ProductData",
						"members": [
							{
								"astId": 1746,
								"contract": "contracts/Trazability_2.sol:Trazability",
								"label": "id",
								"offset": 0,
								"slot": "0",
								"type": "t_string_storage"
							},
							{
								"astId": 1748,
								"contract": "contracts/Trazability_2.sol:Trazability",
								"label": "name",
								"offset": 0,
								"slot": "1",
								"type": "t_string_storage"
							},
							{
								"astId": 1750,
								"contract": "contracts/Trazability_2.sol:Trazability",
								"label": "trazability",
								"offset": 0,
								"slot": "2",
								"type": "t_string_storage"
							},
							{
								"astId": 1752,
								"contract": "contracts/Trazability_2.sol:Trazability",
								"label": "productReference",
								"offset": 0,
								"slot": "3",
								"type": "t_string_storage"
							}
						],
						"numberOfBytes": "128"
					},
					"t_uint256": {
						"encoding": "inplace",
						"label": "uint256",
						"numberOfBytes": "32"
					}
				}
			},
			"userdoc": {
				"kind": "user",
				"methods": {},
				"version": 1
			}
		}
	}
}